{
	"lottery.sol": {
		"MultiPartyLottery": {
			"abi": [
				{
					"inputs": [
						{
							"internalType": "uint256",
							"name": "_N",
							"type": "uint256"
						},
						{
							"internalType": "uint256",
							"name": "_T1",
							"type": "uint256"
						},
						{
							"internalType": "uint256",
							"name": "_T2",
							"type": "uint256"
						},
						{
							"internalType": "uint256",
							"name": "_T3",
							"type": "uint256"
						}
					],
					"stateMutability": "nonpayable",
					"type": "constructor"
				},
				{
					"anonymous": false,
					"inputs": [
						{
							"indexed": false,
							"internalType": "address",
							"name": "sender",
							"type": "address"
						},
						{
							"indexed": false,
							"internalType": "bytes32",
							"name": "dataHash",
							"type": "bytes32"
						},
						{
							"indexed": false,
							"internalType": "uint64",
							"name": "block",
							"type": "uint64"
						}
					],
					"name": "CommitHash",
					"type": "event"
				},
				{
					"anonymous": false,
					"inputs": [
						{
							"indexed": false,
							"internalType": "address",
							"name": "sender",
							"type": "address"
						},
						{
							"indexed": false,
							"internalType": "bytes32",
							"name": "answer",
							"type": "bytes32"
						},
						{
							"indexed": false,
							"internalType": "bytes32",
							"name": "salt",
							"type": "bytes32"
						}
					],
					"name": "RevealAnswer",
					"type": "event"
				},
				{
					"anonymous": false,
					"inputs": [
						{
							"indexed": false,
							"internalType": "address",
							"name": "sender",
							"type": "address"
						},
						{
							"indexed": false,
							"internalType": "bytes32",
							"name": "revealHash",
							"type": "bytes32"
						},
						{
							"indexed": false,
							"internalType": "uint256",
							"name": "random",
							"type": "uint256"
						}
					],
					"name": "RevealHash",
					"type": "event"
				},
				{
					"inputs": [],
					"name": "N",
					"outputs": [
						{
							"internalType": "uint256",
							"name": "",
							"type": "uint256"
						}
					],
					"stateMutability": "view",
					"type": "function"
				},
				{
					"inputs": [],
					"name": "StartTime",
					"outputs": [
						{
							"internalType": "uint256",
							"name": "",
							"type": "uint256"
						}
					],
					"stateMutability": "view",
					"type": "function"
				},
				{
					"inputs": [],
					"name": "T1",
					"outputs": [
						{
							"internalType": "uint256",
							"name": "",
							"type": "uint256"
						}
					],
					"stateMutability": "view",
					"type": "function"
				},
				{
					"inputs": [],
					"name": "T2",
					"outputs": [
						{
							"internalType": "uint256",
							"name": "",
							"type": "uint256"
						}
					],
					"stateMutability": "view",
					"type": "function"
				},
				{
					"inputs": [],
					"name": "T3",
					"outputs": [
						{
							"internalType": "uint256",
							"name": "",
							"type": "uint256"
						}
					],
					"stateMutability": "view",
					"type": "function"
				},
				{
					"inputs": [
						{
							"internalType": "bytes32",
							"name": "hashedChoice",
							"type": "bytes32"
						}
					],
					"name": "commitHashedChoice",
					"outputs": [
						{
							"internalType": "uint256",
							"name": "",
							"type": "uint256"
						}
					],
					"stateMutability": "payable",
					"type": "function"
				},
				{
					"inputs": [],
					"name": "currentN",
					"outputs": [
						{
							"internalType": "uint256",
							"name": "",
							"type": "uint256"
						}
					],
					"stateMutability": "view",
					"type": "function"
				},
				{
					"inputs": [],
					"name": "currentStage",
					"outputs": [
						{
							"internalType": "uint256",
							"name": "",
							"type": "uint256"
						}
					],
					"stateMutability": "view",
					"type": "function"
				},
				{
					"inputs": [],
					"name": "findWinner",
					"outputs": [],
					"stateMutability": "nonpayable",
					"type": "function"
				},
				{
					"inputs": [],
					"name": "getCurrentStage",
					"outputs": [
						{
							"internalType": "string",
							"name": "",
							"type": "string"
						},
						{
							"internalType": "uint256",
							"name": "",
							"type": "uint256"
						}
					],
					"stateMutability": "view",
					"type": "function"
				},
				{
					"inputs": [
						{
							"internalType": "bytes32",
							"name": "data",
							"type": "bytes32"
						}
					],
					"name": "getHash",
					"outputs": [
						{
							"internalType": "bytes32",
							"name": "",
							"type": "bytes32"
						}
					],
					"stateMutability": "view",
					"type": "function"
				},
				{
					"inputs": [
						{
							"internalType": "uint256",
							"name": "choice",
							"type": "uint256"
						},
						{
							"internalType": "string",
							"name": "salt",
							"type": "string"
						}
					],
					"name": "getHashChoice",
					"outputs": [
						{
							"internalType": "bytes32",
							"name": "",
							"type": "bytes32"
						}
					],
					"stateMutability": "pure",
					"type": "function"
				},
				{
					"inputs": [
						{
							"internalType": "bytes32",
							"name": "data",
							"type": "bytes32"
						},
						{
							"internalType": "bytes32",
							"name": "salt",
							"type": "bytes32"
						}
					],
					"name": "getSaltedHash",
					"outputs": [
						{
							"internalType": "bytes32",
							"name": "",
							"type": "bytes32"
						}
					],
					"stateMutability": "view",
					"type": "function"
				},
				{
					"inputs": [],
					"name": "isOwner",
					"outputs": [
						{
							"internalType": "bool",
							"name": "",
							"type": "bool"
						}
					],
					"stateMutability": "view",
					"type": "function"
				},
				{
					"inputs": [],
					"name": "owner",
					"outputs": [
						{
							"internalType": "address",
							"name": "",
							"type": "address"
						}
					],
					"stateMutability": "view",
					"type": "function"
				},
				{
					"inputs": [
						{
							"internalType": "uint256",
							"name": "_idx",
							"type": "uint256"
						},
						{
							"internalType": "uint256",
							"name": "_choice",
							"type": "uint256"
						},
						{
							"internalType": "string",
							"name": "_salt",
							"type": "string"
						}
					],
					"name": "revealChoice",
					"outputs": [],
					"stateMutability": "nonpayable",
					"type": "function"
				},
				{
					"inputs": [
						{
							"internalType": "uint256",
							"name": "idx",
							"type": "uint256"
						}
					],
					"name": "withdraw",
					"outputs": [],
					"stateMutability": "nonpayable",
					"type": "function"
				}
			],
			"devdoc": {
				"kind": "dev",
				"methods": {},
				"version": 1
			},
			"evm": {
				"assembly": "    /* \"lottery.sol\":128:6481  contract MultiPartyLottery is CommitReveal, Ownership {... */\n  mstore(0x40, 0x80)\n    /* \"CommitReveal.sol\":124:127  100 */\n  0x64\n    /* \"CommitReveal.sol\":103:127  uint8 internal max = 100 */\n  0x00\n  dup1\n  0x0100\n  exp\n  dup2\n  sload\n  dup2\n  0xff\n  mul\n  not\n  and\n  swap1\n  dup4\n  0xff\n  and\n  mul\n  or\n  swap1\n  sstore\n  pop\n    /* \"lottery.sol\":657:658  0 */\n  0x00\n    /* \"lottery.sol\":630:658  uint public currentStage = 0 */\n  0x09\n  sstore\n    /* \"lottery.sol\":1022:1157  constructor( uint _N, uint _T1, uint _T2, uint _T3 ) {... */\n  callvalue\n  dup1\n  iszero\n  tag_1\n  jumpi\n  0x00\n  dup1\n  revert\ntag_1:\n  pop\n  mload(0x40)\n  sub(codesize, bytecodeSize)\n  dup1\n  bytecodeSize\n  dup4\n  codecopy\n  dup2\n  dup2\n  add\n  0x40\n  mstore\n  dup2\n  add\n  swap1\n  tag_2\n  swap2\n  swap1\n  tag_3\n  jump\t// in\ntag_2:\n    /* \"Ownership.sol\":161:171  msg.sender */\n  caller\n    /* \"Ownership.sol\":152:158  _owner */\n  0x02\n  0x00\n    /* \"Ownership.sol\":152:171  _owner = msg.sender */\n  0x0100\n  exp\n  dup2\n  sload\n  dup2\n  0xffffffffffffffffffffffffffffffffffffffff\n  mul\n  not\n  and\n  swap1\n  dup4\n  0xffffffffffffffffffffffffffffffffffffffff\n  and\n  mul\n  or\n  swap1\n  sstore\n  pop\n    /* \"lottery.sol\":1090:1092  _N */\n  dup4\n    /* \"lottery.sol\":1086:1087  N */\n  0x07\n    /* \"lottery.sol\":1086:1092  N = _N */\n  dup2\n  swap1\n  sstore\n  pop\n    /* \"lottery.sol\":1108:1111  _T1 */\n  dup3\n    /* \"lottery.sol\":1103:1105  T1 */\n  0x04\n    /* \"lottery.sol\":1103:1111  T1 = _T1 */\n  dup2\n  swap1\n  sstore\n  pop\n    /* \"lottery.sol\":1127:1130  _T2 */\n  dup2\n    /* \"lottery.sol\":1122:1124  T3 */\n  0x06\n    /* \"lottery.sol\":1122:1130  T3 = _T2 */\n  dup2\n  swap1\n  sstore\n  pop\n    /* \"lottery.sol\":1146:1149  _T3 */\n  dup1\n    /* \"lottery.sol\":1141:1143  T1 */\n  0x04\n    /* \"lottery.sol\":1141:1149  T1 = _T3 */\n  dup2\n  swap1\n  sstore\n  pop\n    /* \"lottery.sol\":1022:1157  constructor( uint _N, uint _T1, uint _T2, uint _T3 ) {... */\n  pop\n  pop\n  pop\n  pop\n    /* \"lottery.sol\":128:6481  contract MultiPartyLottery is CommitReveal, Ownership {... */\n  jump(tag_8)\n    /* \"#utility.yul\":88:205   */\ntag_10:\n    /* \"#utility.yul\":197:198   */\n  0x00\n    /* \"#utility.yul\":194:195   */\n  dup1\n    /* \"#utility.yul\":187:199   */\n  revert\n    /* \"#utility.yul\":334:411   */\ntag_12:\n    /* \"#utility.yul\":371:378   */\n  0x00\n    /* \"#utility.yul\":400:405   */\n  dup2\n    /* \"#utility.yul\":389:405   */\n  swap1\n  pop\n    /* \"#utility.yul\":334:411   */\n  swap2\n  swap1\n  pop\n  jump\t// out\n    /* \"#utility.yul\":417:539   */\ntag_13:\n    /* \"#utility.yul\":490:514   */\n  tag_21\n    /* \"#utility.yul\":508:513   */\n  dup2\n    /* \"#utility.yul\":490:514   */\n  tag_12\n  jump\t// in\ntag_21:\n    /* \"#utility.yul\":483:488   */\n  dup2\n    /* \"#utility.yul\":480:515   */\n  eq\n    /* \"#utility.yul\":470:533   */\n  tag_22\n  jumpi\n    /* \"#utility.yul\":529:530   */\n  0x00\n    /* \"#utility.yul\":526:527   */\n  dup1\n    /* \"#utility.yul\":519:531   */\n  revert\n    /* \"#utility.yul\":470:533   */\ntag_22:\n    /* \"#utility.yul\":417:539   */\n  pop\n  jump\t// out\n    /* \"#utility.yul\":545:688   */\ntag_14:\n    /* \"#utility.yul\":602:607   */\n  0x00\n    /* \"#utility.yul\":633:639   */\n  dup2\n    /* \"#utility.yul\":627:640   */\n  mload\n    /* \"#utility.yul\":618:640   */\n  swap1\n  pop\n    /* \"#utility.yul\":649:682   */\n  tag_24\n    /* \"#utility.yul\":676:681   */\n  dup2\n    /* \"#utility.yul\":649:682   */\n  tag_13\n  jump\t// in\ntag_24:\n    /* \"#utility.yul\":545:688   */\n  swap3\n  swap2\n  pop\n  pop\n  jump\t// out\n    /* \"#utility.yul\":694:1514   */\ntag_3:\n    /* \"#utility.yul\":791:797   */\n  0x00\n    /* \"#utility.yul\":799:805   */\n  dup1\n    /* \"#utility.yul\":807:813   */\n  0x00\n    /* \"#utility.yul\":815:821   */\n  dup1\n    /* \"#utility.yul\":864:867   */\n  0x80\n    /* \"#utility.yul\":852:861   */\n  dup6\n    /* \"#utility.yul\":843:850   */\n  dup8\n    /* \"#utility.yul\":839:862   */\n  sub\n    /* \"#utility.yul\":835:868   */\n  slt\n    /* \"#utility.yul\":832:952   */\n  iszero\n  tag_26\n  jumpi\n    /* \"#utility.yul\":871:950   */\n  tag_27\n  tag_10\n  jump\t// in\ntag_27:\n    /* \"#utility.yul\":832:952   */\ntag_26:\n    /* \"#utility.yul\":991:992   */\n  0x00\n    /* \"#utility.yul\":1016:1080   */\n  tag_28\n    /* \"#utility.yul\":1072:1079   */\n  dup8\n    /* \"#utility.yul\":1063:1069   */\n  dup3\n    /* \"#utility.yul\":1052:1061   */\n  dup9\n    /* \"#utility.yul\":1048:1070   */\n  add\n    /* \"#utility.yul\":1016:1080   */\n  tag_14\n  jump\t// in\ntag_28:\n    /* \"#utility.yul\":1006:1080   */\n  swap5\n  pop\n    /* \"#utility.yul\":962:1090   */\n  pop\n    /* \"#utility.yul\":1129:1131   */\n  0x20\n    /* \"#utility.yul\":1155:1219   */\n  tag_29\n    /* \"#utility.yul\":1211:1218   */\n  dup8\n    /* \"#utility.yul\":1202:1208   */\n  dup3\n    /* \"#utility.yul\":1191:1200   */\n  dup9\n    /* \"#utility.yul\":1187:1209   */\n  add\n    /* \"#utility.yul\":1155:1219   */\n  tag_14\n  jump\t// in\ntag_29:\n    /* \"#utility.yul\":1145:1219   */\n  swap4\n  pop\n    /* \"#utility.yul\":1100:1229   */\n  pop\n    /* \"#utility.yul\":1268:1270   */\n  0x40\n    /* \"#utility.yul\":1294:1358   */\n  tag_30\n    /* \"#utility.yul\":1350:1357   */\n  dup8\n    /* \"#utility.yul\":1341:1347   */\n  dup3\n    /* \"#utility.yul\":1330:1339   */\n  dup9\n    /* \"#utility.yul\":1326:1348   */\n  add\n    /* \"#utility.yul\":1294:1358   */\n  tag_14\n  jump\t// in\ntag_30:\n    /* \"#utility.yul\":1284:1358   */\n  swap3\n  pop\n    /* \"#utility.yul\":1239:1368   */\n  pop\n    /* \"#utility.yul\":1407:1409   */\n  0x60\n    /* \"#utility.yul\":1433:1497   */\n  tag_31\n    /* \"#utility.yul\":1489:1496   */\n  dup8\n    /* \"#utility.yul\":1480:1486   */\n  dup3\n    /* \"#utility.yul\":1469:1478   */\n  dup9\n    /* \"#utility.yul\":1465:1487   */\n  add\n    /* \"#utility.yul\":1433:1497   */\n  tag_14\n  jump\t// in\ntag_31:\n    /* \"#utility.yul\":1423:1497   */\n  swap2\n  pop\n    /* \"#utility.yul\":1378:1507   */\n  pop\n    /* \"#utility.yul\":694:1514   */\n  swap3\n  swap6\n  swap2\n  swap5\n  pop\n  swap3\n  pop\n  jump\t// out\n    /* \"lottery.sol\":128:6481  contract MultiPartyLottery is CommitReveal, Ownership {... */\ntag_8:\n  dataSize(sub_0)\n  dup1\n  dataOffset(sub_0)\n  0x00\n  codecopy\n  0x00\n  return\nstop\n\nsub_0: assembly {\n        /* \"lottery.sol\":128:6481  contract MultiPartyLottery is CommitReveal, Ownership {... */\n      mstore(0x40, 0x80)\n      jumpi(tag_1, lt(calldatasize, 0x04))\n      shr(0xe0, calldataload(0x00))\n      dup1\n      0x8da5cb5b\n      gt\n      tag_19\n      jumpi\n      dup1\n      0xa11efef4\n      gt\n      tag_20\n      jumpi\n      dup1\n      0xa11efef4\n      eq\n      tag_14\n      jumpi\n      dup1\n      0xc9e525df\n      eq\n      tag_15\n      jumpi\n      dup1\n      0xd57b65cb\n      eq\n      tag_16\n      jumpi\n      dup1\n      0xeedbe31d\n      eq\n      tag_17\n      jumpi\n      dup1\n      0xfc4a4a1e\n      eq\n      tag_18\n      jumpi\n      jump(tag_1)\n    tag_20:\n      dup1\n      0x8da5cb5b\n      eq\n      tag_10\n      jumpi\n      dup1\n      0x8dddbf36\n      eq\n      tag_11\n      jumpi\n      dup1\n      0x8e71decb\n      eq\n      tag_12\n      jumpi\n      dup1\n      0x8f32d59b\n      eq\n      tag_13\n      jumpi\n      jump(tag_1)\n    tag_19:\n      dup1\n      0x5afa1fd8\n      gt\n      tag_21\n      jumpi\n      dup1\n      0x5afa1fd8\n      eq\n      tag_6\n      jumpi\n      dup1\n      0x5bf5d54c\n      eq\n      tag_7\n      jumpi\n      dup1\n      0x7c8673dc\n      eq\n      tag_8\n      jumpi\n      dup1\n      0x84c9ad6e\n      eq\n      tag_9\n      jumpi\n      jump(tag_1)\n    tag_21:\n      dup1\n      0x073d8ff3\n      eq\n      tag_2\n      jumpi\n      dup1\n      0x2e1a7d4d\n      eq\n      tag_3\n      jumpi\n      dup1\n      0x31081d7e\n      eq\n      tag_4\n      jumpi\n      dup1\n      0x3cf5040a\n      eq\n      tag_5\n      jumpi\n    tag_1:\n      0x00\n      dup1\n      revert\n        /* \"lottery.sol\":2247:2483  function getHashChoice( uint choice, string memory salt ) external pure returns ( bytes32 ) {... */\n    tag_2:\n      callvalue\n      dup1\n      iszero\n      tag_22\n      jumpi\n      0x00\n      dup1\n      revert\n    tag_22:\n      pop\n      tag_23\n      0x04\n      dup1\n      calldatasize\n      sub\n      dup2\n      add\n      swap1\n      tag_24\n      swap2\n      swap1\n      tag_25\n      jump\t// in\n    tag_24:\n      tag_26\n      jump\t// in\n    tag_23:\n      mload(0x40)\n      tag_27\n      swap2\n      swap1\n      tag_28\n      jump\t// in\n    tag_27:\n      mload(0x40)\n      dup1\n      swap2\n      sub\n      swap1\n      return\n        /* \"lottery.sol\":5892:6342  function withdraw( uint idx ) public {... */\n    tag_3:\n      callvalue\n      dup1\n      iszero\n      tag_29\n      jumpi\n      0x00\n      dup1\n      revert\n    tag_29:\n      pop\n      tag_30\n      0x04\n      dup1\n      calldatasize\n      sub\n      dup2\n      add\n      swap1\n      tag_31\n      swap2\n      swap1\n      tag_32\n      jump\t// in\n    tag_31:\n      tag_33\n      jump\t// in\n    tag_30:\n      stop\n        /* \"lottery.sol\":390:404  uint public T3 */\n    tag_4:\n      callvalue\n      dup1\n      iszero\n      tag_34\n      jumpi\n      0x00\n      dup1\n      revert\n    tag_34:\n      pop\n      tag_35\n      tag_36\n      jump\t// in\n    tag_35:\n      mload(0x40)\n      tag_37\n      swap2\n      swap1\n      tag_38\n      jump\t// in\n    tag_37:\n      mload(0x40)\n      dup1\n      swap2\n      sub\n      swap1\n      return\n        /* \"CommitReveal.sol\":1866:1993  function getHash(bytes32 data) public view returns(bytes32){... */\n    tag_5:\n      callvalue\n      dup1\n      iszero\n      tag_39\n      jumpi\n      0x00\n      dup1\n      revert\n    tag_39:\n      pop\n      tag_40\n      0x04\n      dup1\n      calldatasize\n      sub\n      dup2\n      add\n      swap1\n      tag_41\n      swap2\n      swap1\n      tag_42\n      jump\t// in\n    tag_41:\n      tag_43\n      jump\t// in\n    tag_40:\n      mload(0x40)\n      tag_44\n      swap2\n      swap1\n      tag_28\n      jump\t// in\n    tag_44:\n      mload(0x40)\n      dup1\n      swap2\n      sub\n      swap1\n      return\n        /* \"lottery.sol\":3310:3817  function revealChoice( uint _idx, uint _choice, string memory _salt ) public {... */\n    tag_6:\n      callvalue\n      dup1\n      iszero\n      tag_45\n      jumpi\n      0x00\n      dup1\n      revert\n    tag_45:\n      pop\n      tag_46\n      0x04\n      dup1\n      calldatasize\n      sub\n      dup2\n      add\n      swap1\n      tag_47\n      swap2\n      swap1\n      tag_48\n      jump\t// in\n    tag_47:\n      tag_49\n      jump\t// in\n    tag_46:\n      stop\n        /* \"lottery.sol\":630:658  uint public currentStage = 0 */\n    tag_7:\n      callvalue\n      dup1\n      iszero\n      tag_50\n      jumpi\n      0x00\n      dup1\n      revert\n    tag_50:\n      pop\n      tag_51\n      tag_52\n      jump\t// in\n    tag_51:\n      mload(0x40)\n      tag_53\n      swap2\n      swap1\n      tag_38\n      jump\t// in\n    tag_53:\n      mload(0x40)\n      dup1\n      swap2\n      sub\n      swap1\n      return\n        /* \"lottery.sol\":548:568  uint public currentN */\n    tag_8:\n      callvalue\n      dup1\n      iszero\n      tag_54\n      jumpi\n      0x00\n      dup1\n      revert\n    tag_54:\n      pop\n      tag_55\n      tag_56\n      jump\t// in\n    tag_55:\n      mload(0x40)\n      tag_57\n      swap2\n      swap1\n      tag_38\n      jump\t// in\n    tag_57:\n      mload(0x40)\n      dup1\n      swap2\n      sub\n      swap1\n      return\n        /* \"lottery.sol\":326:340  uint public T2 */\n    tag_9:\n      callvalue\n      dup1\n      iszero\n      tag_58\n      jumpi\n      0x00\n      dup1\n      revert\n    tag_58:\n      pop\n      tag_59\n      tag_60\n      jump\t// in\n    tag_59:\n      mload(0x40)\n      tag_61\n      swap2\n      swap1\n      tag_38\n      jump\t// in\n    tag_61:\n      mload(0x40)\n      dup1\n      swap2\n      sub\n      swap1\n      return\n        /* \"Ownership.sol\":187:268  function owner() public view returns ( address ) {... */\n    tag_10:\n      callvalue\n      dup1\n      iszero\n      tag_62\n      jumpi\n      0x00\n      dup1\n      revert\n    tag_62:\n      pop\n      tag_63\n      tag_64\n      jump\t// in\n    tag_63:\n      mload(0x40)\n      tag_65\n      swap2\n      swap1\n      tag_66\n      jump\t// in\n    tag_65:\n      mload(0x40)\n      dup1\n      swap2\n      sub\n      swap1\n      return\n        /* \"CommitReveal.sol\":2586:2738  function getSaltedHash(bytes32 data,bytes32 salt) public view returns(bytes32){... */\n    tag_11:\n      callvalue\n      dup1\n      iszero\n      tag_67\n      jumpi\n      0x00\n      dup1\n      revert\n    tag_67:\n      pop\n      tag_68\n      0x04\n      dup1\n      calldatasize\n      sub\n      dup2\n      add\n      swap1\n      tag_69\n      swap2\n      swap1\n      tag_70\n      jump\t// in\n    tag_69:\n      tag_71\n      jump\t// in\n    tag_68:\n      mload(0x40)\n      tag_72\n      swap2\n      swap1\n      tag_28\n      jump\t// in\n    tag_72:\n      mload(0x40)\n      dup1\n      swap2\n      sub\n      swap1\n      return\n        /* \"lottery.sol\":3825:5397  function findWinner() public onlyOwner {... */\n    tag_12:\n      callvalue\n      dup1\n      iszero\n      tag_73\n      jumpi\n      0x00\n      dup1\n      revert\n    tag_73:\n      pop\n      tag_74\n      tag_75\n      jump\t// in\n    tag_74:\n      stop\n        /* \"Ownership.sol\":393:485  function isOwner() public view returns (bool) {... */\n    tag_13:\n      callvalue\n      dup1\n      iszero\n      tag_76\n      jumpi\n      0x00\n      dup1\n      revert\n    tag_76:\n      pop\n      tag_77\n      tag_78\n      jump\t// in\n    tag_77:\n      mload(0x40)\n      tag_79\n      swap2\n      swap1\n      tag_80\n      jump\t// in\n    tag_79:\n      mload(0x40)\n      dup1\n      swap2\n      sub\n      swap1\n      return\n        /* \"lottery.sol\":262:276  uint public T1 */\n    tag_14:\n      callvalue\n      dup1\n      iszero\n      tag_81\n      jumpi\n      0x00\n      dup1\n      revert\n    tag_81:\n      pop\n      tag_82\n      tag_83\n      jump\t// in\n    tag_82:\n      mload(0x40)\n      tag_84\n      swap2\n      swap1\n      tag_38\n      jump\t// in\n    tag_84:\n      mload(0x40)\n      dup1\n      swap2\n      sub\n      swap1\n      return\n        /* \"lottery.sol\":494:507  uint public N */\n    tag_15:\n      callvalue\n      dup1\n      iszero\n      tag_85\n      jumpi\n      0x00\n      dup1\n      revert\n    tag_85:\n      pop\n      tag_86\n      tag_87\n      jump\t// in\n    tag_86:\n      mload(0x40)\n      tag_88\n      swap2\n      swap1\n      tag_38\n      jump\t// in\n    tag_88:\n      mload(0x40)\n      dup1\n      swap2\n      sub\n      swap1\n      return\n        /* \"lottery.sol\":2491:3302  function commitHashedChoice( bytes32 hashedChoice ) public payable returns ( uint ) {... */\n    tag_16:\n      tag_89\n      0x04\n      dup1\n      calldatasize\n      sub\n      dup2\n      add\n      swap1\n      tag_90\n      swap2\n      swap1\n      tag_42\n      jump\t// in\n    tag_90:\n      tag_91\n      jump\t// in\n    tag_89:\n      mload(0x40)\n      tag_92\n      swap2\n      swap1\n      tag_38\n      jump\t// in\n    tag_92:\n      mload(0x40)\n      dup1\n      swap2\n      sub\n      swap1\n      return\n        /* \"lottery.sol\":1165:2239  function getCurrentStage() public view returns ( string memory, uint ) {... */\n    tag_17:\n      callvalue\n      dup1\n      iszero\n      tag_93\n      jumpi\n      0x00\n      dup1\n      revert\n    tag_93:\n      pop\n      tag_94\n      tag_95\n      jump\t// in\n    tag_94:\n      mload(0x40)\n      tag_96\n      swap3\n      swap2\n      swap1\n      tag_97\n      jump\t// in\n    tag_96:\n      mload(0x40)\n      dup1\n      swap2\n      sub\n      swap1\n      return\n        /* \"lottery.sol\":219:240  uint public StartTime */\n    tag_18:\n      callvalue\n      dup1\n      iszero\n      tag_98\n      jumpi\n      0x00\n      dup1\n      revert\n    tag_98:\n      pop\n      tag_99\n      tag_100\n      jump\t// in\n    tag_99:\n      mload(0x40)\n      tag_101\n      swap2\n      swap1\n      tag_38\n      jump\t// in\n    tag_101:\n      mload(0x40)\n      dup1\n      swap2\n      sub\n      swap1\n      return\n        /* \"lottery.sol\":2247:2483  function getHashChoice( uint choice, string memory salt ) external pure returns ( bytes32 ) {... */\n    tag_26:\n        /* \"lottery.sol\":2329:2336  bytes32 */\n      0x00\n        /* \"lottery.sol\":2350:2368  bytes32 encodeSalt */\n      dup1\n        /* \"lottery.sol\":2398:2402  salt */\n      dup3\n        /* \"lottery.sol\":2380:2404  abi.encodePacked( salt ) */\n      add(0x20, mload(0x40))\n      tag_103\n      swap2\n      swap1\n      tag_104\n      jump\t// in\n    tag_103:\n      mload(0x40)\n      0x20\n      dup2\n      dup4\n      sub\n      sub\n      dup2\n      mstore\n      swap1\n      0x40\n      mstore\n        /* \"lottery.sol\":2371:2406  bytes32( abi.encodePacked( salt ) ) */\n      tag_105\n      swap1\n      tag_106\n      jump\t// in\n    tag_105:\n        /* \"lottery.sol\":2350:2406  bytes32 encodeSalt = bytes32( abi.encodePacked( salt ) ) */\n      swap1\n      pop\n        /* \"lottery.sol\":2453:2459  choice */\n      dup4\n        /* \"lottery.sol\":2461:2471  encodeSalt */\n      dup2\n        /* \"lottery.sol\":2435:2473  abi.encodePacked( choice, encodeSalt ) */\n      add(0x20, mload(0x40))\n      tag_107\n      swap3\n      swap2\n      swap1\n      tag_108\n      jump\t// in\n    tag_107:\n      mload(0x40)\n      0x20\n      dup2\n      dup4\n      sub\n      sub\n      dup2\n      mstore\n      swap1\n      0x40\n      mstore\n        /* \"lottery.sol\":2424:2475  keccak256( abi.encodePacked( choice, encodeSalt ) ) */\n      dup1\n      mload\n      swap1\n      0x20\n      add\n      keccak256\n        /* \"lottery.sol\":2417:2475  return keccak256( abi.encodePacked( choice, encodeSalt ) ) */\n      swap2\n      pop\n      pop\n        /* \"lottery.sol\":2247:2483  function getHashChoice( uint choice, string memory salt ) external pure returns ( bytes32 ) {... */\n      swap3\n      swap2\n      pop\n      pop\n      jump\t// out\n        /* \"lottery.sol\":5892:6342  function withdraw( uint idx ) public {... */\n    tag_33:\n        /* \"lottery.sol\":5989:5991  T3 */\n      sload(0x06)\n        /* \"lottery.sol\":5984:5986  T2 */\n      sload(0x05)\n        /* \"lottery.sol\":5979:5981  T1 */\n      sload(0x04)\n        /* \"lottery.sol\":5967:5976  StartTime */\n      sload(0x03)\n        /* \"lottery.sol\":5967:5981  StartTime + T1 */\n      tag_110\n      swap2\n      swap1\n      tag_111\n      jump\t// in\n    tag_110:\n        /* \"lottery.sol\":5967:5986  StartTime + T1 + T2 */\n      tag_112\n      swap2\n      swap1\n      tag_111\n      jump\t// in\n    tag_112:\n        /* \"lottery.sol\":5967:5991  StartTime + T1 + T2 + T3 */\n      tag_113\n      swap2\n      swap1\n      tag_111\n      jump\t// in\n    tag_113:\n        /* \"lottery.sol\":5949:5964  block.timestamp */\n      timestamp\n        /* \"lottery.sol\":5949:5991  block.timestamp > StartTime + T1 + T2 + T3 */\n      gt\n        /* \"lottery.sol\":5940:6019  require( block.timestamp > StartTime + T1 + T2 + T3, \"Out of withdraw period\" ) */\n      tag_114\n      jumpi\n      mload(0x40)\n      0x08c379a000000000000000000000000000000000000000000000000000000000\n      dup2\n      mstore\n      0x04\n      add\n      tag_115\n      swap1\n      tag_116\n      jump\t// in\n    tag_115:\n      mload(0x40)\n      dup1\n      swap2\n      sub\n      swap1\n      revert\n    tag_114:\n        /* \"lottery.sol\":6053:6060  players */\n      0x0a\n        /* \"lottery.sol\":6053:6065  players[idx] */\n      0x00\n        /* \"lottery.sol\":6061:6064  idx */\n      dup3\n        /* \"lottery.sol\":6053:6065  players[idx] */\n      dup2\n      mstore\n      0x20\n      add\n      swap1\n      dup2\n      mstore\n      0x20\n      add\n      0x00\n      keccak256\n        /* \"lottery.sol\":6053:6070  players[idx].addr */\n      0x01\n      add\n      0x03\n      swap1\n      sload\n      swap1\n      0x0100\n      exp\n      swap1\n      div\n      0xffffffffffffffffffffffffffffffffffffffff\n      and\n        /* \"lottery.sol\":6039:6070  msg.sender == players[idx].addr */\n      0xffffffffffffffffffffffffffffffffffffffff\n      and\n        /* \"lottery.sol\":6039:6049  msg.sender */\n      caller\n        /* \"lottery.sol\":6039:6070  msg.sender == players[idx].addr */\n      0xffffffffffffffffffffffffffffffffffffffff\n      and\n      eq\n        /* \"lottery.sol\":6030:6087  require( msg.sender == players[idx].addr, \"Wrong Index\" ) */\n      tag_117\n      jumpi\n      mload(0x40)\n      0x08c379a000000000000000000000000000000000000000000000000000000000\n      dup2\n      mstore\n      0x04\n      add\n      tag_118\n      swap1\n      tag_119\n      jump\t// in\n    tag_118:\n      mload(0x40)\n      dup1\n      swap2\n      sub\n      swap1\n      revert\n    tag_117:\n        /* \"lottery.sol\":6135:6140  false */\n      0x00\n        /* \"lottery.sol\":6107:6140  players[idx].isWithdrawn == false */\n      iszero\n      iszero\n        /* \"lottery.sol\":6107:6114  players */\n      0x0a\n        /* \"lottery.sol\":6107:6119  players[idx] */\n      0x00\n        /* \"lottery.sol\":6115:6118  idx */\n      dup4\n        /* \"lottery.sol\":6107:6119  players[idx] */\n      dup2\n      mstore\n      0x20\n      add\n      swap1\n      dup2\n      mstore\n      0x20\n      add\n      0x00\n      keccak256\n        /* \"lottery.sol\":6107:6131  players[idx].isWithdrawn */\n      0x01\n      add\n      0x02\n      swap1\n      sload\n      swap1\n      0x0100\n      exp\n      swap1\n      div\n      0xff\n      and\n        /* \"lottery.sol\":6107:6140  players[idx].isWithdrawn == false */\n      iszero\n      iszero\n      eq\n        /* \"lottery.sol\":6098:6142  require( players[idx].isWithdrawn == false ) */\n      tag_120\n      jumpi\n      0x00\n      dup1\n      revert\n    tag_120:\n        /* \"lottery.sol\":6182:6186  true */\n      0x01\n        /* \"lottery.sol\":6155:6162  players */\n      0x0a\n        /* \"lottery.sol\":6155:6167  players[idx] */\n      0x00\n        /* \"lottery.sol\":6163:6166  idx */\n      dup4\n        /* \"lottery.sol\":6155:6167  players[idx] */\n      dup2\n      mstore\n      0x20\n      add\n      swap1\n      dup2\n      mstore\n      0x20\n      add\n      0x00\n      keccak256\n        /* \"lottery.sol\":6155:6179  players[idx].isWithdrawn */\n      0x01\n      add\n      0x02\n        /* \"lottery.sol\":6155:6186  players[idx].isWithdrawn = true */\n      0x0100\n      exp\n      dup2\n      sload\n      dup2\n      0xff\n      mul\n      not\n      and\n      swap1\n      dup4\n      iszero\n      iszero\n      mul\n      or\n      swap1\n      sstore\n      pop\n        /* \"lottery.sol\":6206:6216  msg.sender */\n      caller\n        /* \"lottery.sol\":6197:6227  payable( msg.sender ).transfer */\n      0xffffffffffffffffffffffffffffffffffffffff\n      and\n        /* \"lottery.sol\":6197:6241  payable( msg.sender ).transfer( lotteryFee ) */\n      0x08fc\n        /* \"lottery.sol\":781:792  0.001 ether */\n      0x038d7ea4c68000\n        /* \"lottery.sol\":6197:6241  payable( msg.sender ).transfer( lotteryFee ) */\n      swap1\n      dup2\n      iszero\n      mul\n      swap1\n      mload(0x40)\n      0x00\n      mload(0x40)\n      dup1\n      dup4\n      sub\n      dup2\n      dup6\n      dup9\n      dup9\n      call\n      swap4\n      pop\n      pop\n      pop\n      pop\n      iszero\n      dup1\n      iszero\n      tag_122\n      jumpi\n      returndatasize\n      0x00\n      dup1\n      returndatacopy\n      revert(0x00, returndatasize)\n    tag_122:\n      pop\n        /* \"lottery.sol\":6254:6262  currentN */\n      0x08\n      0x00\n        /* \"lottery.sol\":6254:6264  currentN-- */\n      dup2\n      sload\n      dup1\n      swap3\n      swap2\n      swap1\n      tag_123\n      swap1\n      tag_124\n      jump\t// in\n    tag_123:\n      swap2\n      swap1\n      pop\n      sstore\n      pop\n        /* \"lottery.sol\":6293:6294  0 */\n      0x00\n        /* \"lottery.sol\":6281:6289  currentN */\n      sload(0x08)\n        /* \"lottery.sol\":6281:6294  currentN == 0 */\n      sub\n        /* \"lottery.sol\":6277:6335  if( currentN == 0 ){... */\n      tag_125\n      jumpi\n        /* \"lottery.sol\":6311:6323  _resetGame() */\n      tag_126\n        /* \"lottery.sol\":6311:6321  _resetGame */\n      tag_127\n        /* \"lottery.sol\":6311:6323  _resetGame() */\n      jump\t// in\n    tag_126:\n        /* \"lottery.sol\":6277:6335  if( currentN == 0 ){... */\n    tag_125:\n        /* \"lottery.sol\":5892:6342  function withdraw( uint idx ) public {... */\n      pop\n      jump\t// out\n        /* \"lottery.sol\":390:404  uint public T3 */\n    tag_36:\n      sload(0x06)\n      dup2\n      jump\t// out\n        /* \"CommitReveal.sol\":1866:1993  function getHash(bytes32 data) public view returns(bytes32){... */\n    tag_43:\n        /* \"CommitReveal.sol\":1917:1924  bytes32 */\n      0x00\n        /* \"CommitReveal.sol\":1974:1978  this */\n      address\n        /* \"CommitReveal.sol\":1981:1985  data */\n      dup3\n        /* \"CommitReveal.sol\":1949:1986  abi.encodePacked(address(this), data) */\n      add(0x20, mload(0x40))\n      tag_129\n      swap3\n      swap2\n      swap1\n      tag_130\n      jump\t// in\n    tag_129:\n      mload(0x40)\n      0x20\n      dup2\n      dup4\n      sub\n      sub\n      dup2\n      mstore\n      swap1\n      0x40\n      mstore\n        /* \"CommitReveal.sol\":1939:1987  keccak256(abi.encodePacked(address(this), data)) */\n      dup1\n      mload\n      swap1\n      0x20\n      add\n      keccak256\n        /* \"CommitReveal.sol\":1932:1987  return keccak256(abi.encodePacked(address(this), data)) */\n      swap1\n      pop\n        /* \"CommitReveal.sol\":1866:1993  function getHash(bytes32 data) public view returns(bytes32){... */\n      swap2\n      swap1\n      pop\n      jump\t// out\n        /* \"lottery.sol\":3310:3817  function revealChoice( uint _idx, uint _choice, string memory _salt ) public {... */\n    tag_49:\n        /* \"lottery.sol\":3424:3439  block.timestamp */\n      timestamp\n        /* \"lottery.sol\":3419:3421  T1 */\n      sload(0x04)\n        /* \"lottery.sol\":3407:3416  StartTime */\n      sload(0x03)\n        /* \"lottery.sol\":3407:3421  StartTime + T1 */\n      tag_132\n      swap2\n      swap1\n      tag_111\n      jump\t// in\n    tag_132:\n        /* \"lottery.sol\":3407:3439  StartTime + T1 < block.timestamp */\n      lt\n        /* \"lottery.sol\":3407:3480  StartTime + T1 < block.timestamp && block.timestamp < StartTime + T1 + T2 */\n      dup1\n      iszero\n      tag_133\n      jumpi\n      pop\n        /* \"lottery.sol\":3478:3480  T2 */\n      sload(0x05)\n        /* \"lottery.sol\":3473:3475  T1 */\n      sload(0x04)\n        /* \"lottery.sol\":3461:3470  StartTime */\n      sload(0x03)\n        /* \"lottery.sol\":3461:3475  StartTime + T1 */\n      tag_134\n      swap2\n      swap1\n      tag_111\n      jump\t// in\n    tag_134:\n        /* \"lottery.sol\":3461:3480  StartTime + T1 + T2 */\n      tag_135\n      swap2\n      swap1\n      tag_111\n      jump\t// in\n    tag_135:\n        /* \"lottery.sol\":3443:3458  block.timestamp */\n      timestamp\n        /* \"lottery.sol\":3443:3480  block.timestamp < StartTime + T1 + T2 */\n      lt\n        /* \"lottery.sol\":3407:3480  StartTime + T1 < block.timestamp && block.timestamp < StartTime + T1 + T2 */\n    tag_133:\n        /* \"lottery.sol\":3398:3512  require( StartTime + T1 < block.timestamp && block.timestamp < StartTime + T1 + T2, \"Out of Reveal Stage period\" ) */\n      tag_136\n      jumpi\n      mload(0x40)\n      0x08c379a000000000000000000000000000000000000000000000000000000000\n      dup2\n      mstore\n      0x04\n      add\n      tag_137\n      swap1\n      tag_138\n      jump\t// in\n    tag_137:\n      mload(0x40)\n      dup1\n      swap2\n      sub\n      swap1\n      revert\n    tag_136:\n        /* \"lottery.sol\":3546:3553  players */\n      0x0a\n        /* \"lottery.sol\":3546:3559  players[_idx] */\n      0x00\n        /* \"lottery.sol\":3554:3558  _idx */\n      dup5\n        /* \"lottery.sol\":3546:3559  players[_idx] */\n      dup2\n      mstore\n      0x20\n      add\n      swap1\n      dup2\n      mstore\n      0x20\n      add\n      0x00\n      keccak256\n        /* \"lottery.sol\":3546:3564  players[_idx].addr */\n      0x01\n      add\n      0x03\n      swap1\n      sload\n      swap1\n      0x0100\n      exp\n      swap1\n      div\n      0xffffffffffffffffffffffffffffffffffffffff\n      and\n        /* \"lottery.sol\":3532:3564  msg.sender == players[_idx].addr */\n      0xffffffffffffffffffffffffffffffffffffffff\n      and\n        /* \"lottery.sol\":3532:3542  msg.sender */\n      caller\n        /* \"lottery.sol\":3532:3564  msg.sender == players[_idx].addr */\n      0xffffffffffffffffffffffffffffffffffffffff\n      and\n      eq\n        /* \"lottery.sol\":3523:3581  require( msg.sender == players[_idx].addr, \"Wrong Index\" ) */\n      tag_139\n      jumpi\n      mload(0x40)\n      0x08c379a000000000000000000000000000000000000000000000000000000000\n      dup2\n      mstore\n      0x04\n      add\n      tag_140\n      swap1\n      tag_119\n      jump\t// in\n    tag_140:\n      mload(0x40)\n      dup1\n      swap2\n      sub\n      swap1\n      revert\n    tag_139:\n        /* \"lottery.sol\":3594:3612  bytes32 encodeSalt */\n      0x00\n        /* \"lottery.sol\":3642:3647  _salt */\n      dup2\n        /* \"lottery.sol\":3624:3649  abi.encodePacked( _salt ) */\n      add(0x20, mload(0x40))\n      tag_141\n      swap2\n      swap1\n      tag_104\n      jump\t// in\n    tag_141:\n      mload(0x40)\n      0x20\n      dup2\n      dup4\n      sub\n      sub\n      dup2\n      mstore\n      swap1\n      0x40\n      mstore\n        /* \"lottery.sol\":3615:3651  bytes32( abi.encodePacked( _salt ) ) */\n      tag_142\n      swap1\n      tag_106\n      jump\t// in\n    tag_142:\n        /* \"lottery.sol\":3594:3651  bytes32 encodeSalt = bytes32( abi.encodePacked( _salt ) ) */\n      swap1\n      pop\n        /* \"lottery.sol\":3662:3724  reveal( keccak256( abi.encodePacked( _choice, encodeSalt ) ) ) */\n      tag_143\n        /* \"lottery.sol\":3699:3706  _choice */\n      dup4\n        /* \"lottery.sol\":3708:3718  encodeSalt */\n      dup3\n        /* \"lottery.sol\":3681:3720  abi.encodePacked( _choice, encodeSalt ) */\n      add(0x20, mload(0x40))\n      tag_144\n      swap3\n      swap2\n      swap1\n      tag_108\n      jump\t// in\n    tag_144:\n      mload(0x40)\n      0x20\n      dup2\n      dup4\n      sub\n      sub\n      dup2\n      mstore\n      swap1\n      0x40\n      mstore\n        /* \"lottery.sol\":3670:3722  keccak256( abi.encodePacked( _choice, encodeSalt ) ) */\n      dup1\n      mload\n      swap1\n      0x20\n      add\n      keccak256\n        /* \"lottery.sol\":3662:3668  reveal */\n      tag_145\n        /* \"lottery.sol\":3662:3724  reveal( keccak256( abi.encodePacked( _choice, encodeSalt ) ) ) */\n      jump\t// in\n    tag_143:\n        /* \"lottery.sol\":3760:3767  _choice */\n      dup3\n        /* \"lottery.sol\":3737:3744  players */\n      0x0a\n        /* \"lottery.sol\":3737:3750  players[_idx] */\n      0x00\n        /* \"lottery.sol\":3745:3749  _idx */\n      dup7\n        /* \"lottery.sol\":3737:3750  players[_idx] */\n      dup2\n      mstore\n      0x20\n      add\n      swap1\n      dup2\n      mstore\n      0x20\n      add\n      0x00\n      keccak256\n        /* \"lottery.sol\":3737:3757  players[_idx].choice */\n      0x00\n      add\n        /* \"lottery.sol\":3737:3767  players[_idx].choice = _choice */\n      dup2\n      swap1\n      sstore\n      pop\n        /* \"lottery.sol\":3805:3809  true */\n      0x01\n        /* \"lottery.sol\":3778:3785  players */\n      0x0a\n        /* \"lottery.sol\":3778:3791  players[_idx] */\n      0x00\n        /* \"lottery.sol\":3786:3790  _idx */\n      dup7\n        /* \"lottery.sol\":3778:3791  players[_idx] */\n      dup2\n      mstore\n      0x20\n      add\n      swap1\n      dup2\n      mstore\n      0x20\n      add\n      0x00\n      keccak256\n        /* \"lottery.sol\":3778:3802  players[_idx].isRevealed */\n      0x01\n      add\n      0x01\n        /* \"lottery.sol\":3778:3809  players[_idx].isRevealed = true */\n      0x0100\n      exp\n      dup2\n      sload\n      dup2\n      0xff\n      mul\n      not\n      and\n      swap1\n      dup4\n      iszero\n      iszero\n      mul\n      or\n      swap1\n      sstore\n      pop\n        /* \"lottery.sol\":3387:3817  {... */\n      pop\n        /* \"lottery.sol\":3310:3817  function revealChoice( uint _idx, uint _choice, string memory _salt ) public {... */\n      pop\n      pop\n      pop\n      jump\t// out\n        /* \"lottery.sol\":630:658  uint public currentStage = 0 */\n    tag_52:\n      sload(0x09)\n      dup2\n      jump\t// out\n        /* \"lottery.sol\":548:568  uint public currentN */\n    tag_56:\n      sload(0x08)\n      dup2\n      jump\t// out\n        /* \"lottery.sol\":326:340  uint public T2 */\n    tag_60:\n      sload(0x05)\n      dup2\n      jump\t// out\n        /* \"Ownership.sol\":187:268  function owner() public view returns ( address ) {... */\n    tag_64:\n        /* \"Ownership.sol\":226:233  address */\n      0x00\n        /* \"Ownership.sol\":254:260  _owner */\n      0x02\n      0x00\n      swap1\n      sload\n      swap1\n      0x0100\n      exp\n      swap1\n      div\n      0xffffffffffffffffffffffffffffffffffffffff\n      and\n        /* \"Ownership.sol\":247:260  return _owner */\n      swap1\n      pop\n        /* \"Ownership.sol\":187:268  function owner() public view returns ( address ) {... */\n      swap1\n      jump\t// out\n        /* \"CommitReveal.sol\":2586:2738  function getSaltedHash(bytes32 data,bytes32 salt) public view returns(bytes32){... */\n    tag_71:\n        /* \"CommitReveal.sol\":2656:2663  bytes32 */\n      0x00\n        /* \"CommitReveal.sol\":2713:2717  this */\n      address\n        /* \"CommitReveal.sol\":2720:2724  data */\n      dup4\n        /* \"CommitReveal.sol\":2726:2730  salt */\n      dup4\n        /* \"CommitReveal.sol\":2688:2731  abi.encodePacked(address(this), data, salt) */\n      add(0x20, mload(0x40))\n      tag_148\n      swap4\n      swap3\n      swap2\n      swap1\n      tag_149\n      jump\t// in\n    tag_148:\n      mload(0x40)\n      0x20\n      dup2\n      dup4\n      sub\n      sub\n      dup2\n      mstore\n      swap1\n      0x40\n      mstore\n        /* \"CommitReveal.sol\":2678:2732  keccak256(abi.encodePacked(address(this), data, salt)) */\n      dup1\n      mload\n      swap1\n      0x20\n      add\n      keccak256\n        /* \"CommitReveal.sol\":2671:2732  return keccak256(abi.encodePacked(address(this), data, salt)) */\n      swap1\n      pop\n        /* \"CommitReveal.sol\":2586:2738  function getSaltedHash(bytes32 data,bytes32 salt) public view returns(bytes32){... */\n      swap3\n      swap2\n      pop\n      pop\n      jump\t// out\n        /* \"lottery.sol\":3825:5397  function findWinner() public onlyOwner {... */\n    tag_75:\n        /* \"Ownership.sol\":317:326  isOwner() */\n      tag_151\n        /* \"Ownership.sol\":317:324  isOwner */\n      tag_78\n        /* \"Ownership.sol\":317:326  isOwner() */\n      jump\t// in\n    tag_151:\n        /* \"Ownership.sol\":308:365  require( isOwner(), \"Only owner can call this function\" ) */\n      tag_152\n      jumpi\n      mload(0x40)\n      0x08c379a000000000000000000000000000000000000000000000000000000000\n      dup2\n      mstore\n      0x04\n      add\n      tag_153\n      swap1\n      tag_154\n      jump\t// in\n    tag_153:\n      mload(0x40)\n      dup1\n      swap2\n      sub\n      swap1\n      revert\n    tag_152:\n        /* \"lottery.sol\":3906:3921  block.timestamp */\n      timestamp\n        /* \"lottery.sol\":3901:3903  T2 */\n      sload(0x05)\n        /* \"lottery.sol\":3896:3898  T1 */\n      sload(0x04)\n        /* \"lottery.sol\":3884:3893  StartTime */\n      sload(0x03)\n        /* \"lottery.sol\":3884:3898  StartTime + T1 */\n      tag_156\n      swap2\n      swap1\n      tag_111\n      jump\t// in\n    tag_156:\n        /* \"lottery.sol\":3884:3903  StartTime + T1 + T2 */\n      tag_157\n      swap2\n      swap1\n      tag_111\n      jump\t// in\n    tag_157:\n        /* \"lottery.sol\":3884:3921  StartTime + T1 + T2 < block.timestamp */\n      lt\n        /* \"lottery.sol\":3884:3967  StartTime + T1 + T2 < block.timestamp && block.timestamp < StartTime + T1 + T2 + T3 */\n      dup1\n      iszero\n      tag_158\n      jumpi\n      pop\n        /* \"lottery.sol\":3965:3967  T3 */\n      sload(0x06)\n        /* \"lottery.sol\":3960:3962  T2 */\n      sload(0x05)\n        /* \"lottery.sol\":3955:3957  T1 */\n      sload(0x04)\n        /* \"lottery.sol\":3943:3952  StartTime */\n      sload(0x03)\n        /* \"lottery.sol\":3943:3957  StartTime + T1 */\n      tag_159\n      swap2\n      swap1\n      tag_111\n      jump\t// in\n    tag_159:\n        /* \"lottery.sol\":3943:3962  StartTime + T1 + T2 */\n      tag_160\n      swap2\n      swap1\n      tag_111\n      jump\t// in\n    tag_160:\n        /* \"lottery.sol\":3943:3967  StartTime + T1 + T2 + T3 */\n      tag_161\n      swap2\n      swap1\n      tag_111\n      jump\t// in\n    tag_161:\n        /* \"lottery.sol\":3925:3940  block.timestamp */\n      timestamp\n        /* \"lottery.sol\":3925:3967  block.timestamp < StartTime + T1 + T2 + T3 */\n      lt\n        /* \"lottery.sol\":3884:3967  StartTime + T1 + T2 < block.timestamp && block.timestamp < StartTime + T1 + T2 + T3 */\n    tag_158:\n        /* \"lottery.sol\":3875:3969  require( StartTime + T1 + T2 < block.timestamp && block.timestamp < StartTime + T1 + T2 + T3 ) */\n      tag_162\n      jumpi\n      0x00\n      dup1\n      revert\n    tag_162:\n        /* \"lottery.sol\":3982:4009  Player[] memory goodPlayers */\n      0x00\n        /* \"lottery.sol\":4026:4034  currentN */\n      sload(0x08)\n        /* \"lottery.sol\":4012:4036  new Player[]( currentN ) */\n      0xffffffffffffffff\n      dup2\n      gt\n      iszero\n      tag_163\n      jumpi\n      tag_164\n      tag_165\n      jump\t// in\n    tag_164:\n    tag_163:\n      mload(0x40)\n      swap1\n      dup1\n      dup3\n      mstore\n      dup1\n      0x20\n      mul\n      0x20\n      add\n      dup3\n      add\n      0x40\n      mstore\n      dup1\n      iszero\n      tag_166\n      jumpi\n      dup2\n      0x20\n      add\n    tag_167:\n      tag_168\n      tag_169\n      jump\t// in\n    tag_168:\n      dup2\n      mstore\n      0x20\n      add\n      swap1\n      0x01\n      swap1\n      sub\n      swap1\n      dup2\n      tag_167\n      jumpi\n      swap1\n      pop\n    tag_166:\n      pop\n        /* \"lottery.sol\":3982:4036  Player[] memory goodPlayers = new Player[]( currentN ) */\n      swap1\n      pop\n        /* \"lottery.sol\":4047:4068  uint goodPlayersCount */\n      0x00\n        /* \"lottery.sol\":4086:4092  uint i */\n      dup1\n        /* \"lottery.sol\":4095:4096  0 */\n      0x00\n        /* \"lottery.sol\":4086:4096  uint i = 0 */\n      swap1\n      pop\n        /* \"lottery.sol\":4081:4920  for( uint i = 0 ; i < currentN ; i++ ){... */\n    tag_170:\n        /* \"lottery.sol\":4103:4111  currentN */\n      sload(0x08)\n        /* \"lottery.sol\":4099:4100  i */\n      dup2\n        /* \"lottery.sol\":4099:4111  i < currentN */\n      lt\n        /* \"lottery.sol\":4081:4920  for( uint i = 0 ; i < currentN ; i++ ){... */\n      iszero\n      tag_171\n      jumpi\n        /* \"lottery.sol\":4138:4145  players */\n      0x0a\n        /* \"lottery.sol\":4138:4148  players[i] */\n      0x00\n        /* \"lottery.sol\":4146:4147  i */\n      dup3\n        /* \"lottery.sol\":4138:4148  players[i] */\n      dup2\n      mstore\n      0x20\n      add\n      swap1\n      dup2\n      mstore\n      0x20\n      add\n      0x00\n      keccak256\n        /* \"lottery.sol\":4138:4159  players[i].isRevealed */\n      0x01\n      add\n      0x01\n      swap1\n      sload\n      swap1\n      0x0100\n      exp\n      swap1\n      div\n      0xff\n      and\n        /* \"lottery.sol\":4138:4193  players[i].isRevealed && minChoice <= players[i].choice */\n      dup1\n      iszero\n      tag_173\n      jumpi\n      pop\n        /* \"lottery.sol\":4176:4183  players */\n      0x0a\n        /* \"lottery.sol\":4176:4186  players[i] */\n      0x00\n        /* \"lottery.sol\":4184:4185  i */\n      dup3\n        /* \"lottery.sol\":4176:4186  players[i] */\n      dup2\n      mstore\n      0x20\n      add\n      swap1\n      dup2\n      mstore\n      0x20\n      add\n      0x00\n      keccak256\n        /* \"lottery.sol\":4176:4193  players[i].choice */\n      0x00\n      add\n      sload\n        /* \"lottery.sol\":710:711  0 */\n      0x00\n        /* \"lottery.sol\":4163:4193  minChoice <= players[i].choice */\n      gt\n      iszero\n        /* \"lottery.sol\":4138:4193  players[i].isRevealed && minChoice <= players[i].choice */\n    tag_173:\n        /* \"lottery.sol\":4138:4227  players[i].isRevealed && minChoice <= players[i].choice && players[i].choice <= maxChoice */\n      dup1\n      iszero\n      tag_174\n      jumpi\n      pop\n        /* \"lottery.sol\":744:747  999 */\n      0x03e7\n        /* \"lottery.sol\":4197:4204  players */\n      0x0a\n        /* \"lottery.sol\":4197:4207  players[i] */\n      0x00\n        /* \"lottery.sol\":4205:4206  i */\n      dup4\n        /* \"lottery.sol\":4197:4207  players[i] */\n      dup2\n      mstore\n      0x20\n      add\n      swap1\n      dup2\n      mstore\n      0x20\n      add\n      0x00\n      keccak256\n        /* \"lottery.sol\":4197:4214  players[i].choice */\n      0x00\n      add\n      sload\n        /* \"lottery.sol\":4197:4227  players[i].choice <= maxChoice */\n      gt\n      iszero\n        /* \"lottery.sol\":4138:4227  players[i].isRevealed && minChoice <= players[i].choice && players[i].choice <= maxChoice */\n    tag_174:\n        /* \"lottery.sol\":4134:4909  if( players[i].isRevealed && minChoice <= players[i].choice && players[i].choice <= maxChoice ){... */\n      iszero\n      tag_175\n      jumpi\n        /* \"lottery.sol\":4287:4294  players */\n      0x0a\n        /* \"lottery.sol\":4287:4297  players[i] */\n      0x00\n        /* \"lottery.sol\":4295:4296  i */\n      dup3\n        /* \"lottery.sol\":4287:4297  players[i] */\n      dup2\n      mstore\n      0x20\n      add\n      swap1\n      dup2\n      mstore\n      0x20\n      add\n      0x00\n      keccak256\n        /* \"lottery.sol\":4287:4304  players[i].choice */\n      0x00\n      add\n      sload\n        /* \"lottery.sol\":4248:4259  goodPlayers */\n      dup4\n        /* \"lottery.sol\":4260:4276  goodPlayersCount */\n      dup4\n        /* \"lottery.sol\":4248:4277  goodPlayers[goodPlayersCount] */\n      dup2\n      mload\n      dup2\n      lt\n      tag_176\n      jumpi\n      tag_177\n      tag_178\n      jump\t// in\n    tag_177:\n    tag_176:\n      0x20\n      mul\n      0x20\n      add\n      add\n      mload\n        /* \"lottery.sol\":4248:4284  goodPlayers[goodPlayersCount].choice */\n      0x00\n      add\n        /* \"lottery.sol\":4248:4304  goodPlayers[goodPlayersCount].choice = players[i].choice */\n      dup2\n      dup2\n      mstore\n      pop\n      pop\n        /* \"lottery.sol\":4366:4373  players */\n      0x0a\n        /* \"lottery.sol\":4366:4376  players[i] */\n      0x00\n        /* \"lottery.sol\":4374:4375  i */\n      dup3\n        /* \"lottery.sol\":4366:4376  players[i] */\n      dup2\n      mstore\n      0x20\n      add\n      swap1\n      dup2\n      mstore\n      0x20\n      add\n      0x00\n      keccak256\n        /* \"lottery.sol\":4366:4387  players[i].isCommited */\n      0x01\n      add\n      0x00\n      swap1\n      sload\n      swap1\n      0x0100\n      exp\n      swap1\n      div\n      0xff\n      and\n        /* \"lottery.sol\":4323:4334  goodPlayers */\n      dup4\n        /* \"lottery.sol\":4335:4351  goodPlayersCount */\n      dup4\n        /* \"lottery.sol\":4323:4352  goodPlayers[goodPlayersCount] */\n      dup2\n      mload\n      dup2\n      lt\n      tag_179\n      jumpi\n      tag_180\n      tag_178\n      jump\t// in\n    tag_180:\n    tag_179:\n      0x20\n      mul\n      0x20\n      add\n      add\n      mload\n        /* \"lottery.sol\":4323:4363  goodPlayers[goodPlayersCount].isCommited */\n      0x20\n      add\n        /* \"lottery.sol\":4323:4387  goodPlayers[goodPlayersCount].isCommited = players[i].isCommited */\n      swap1\n      iszero\n      iszero\n      swap1\n      dup2\n      iszero\n      iszero\n      dup2\n      mstore\n      pop\n      pop\n        /* \"lottery.sol\":4449:4456  players */\n      0x0a\n        /* \"lottery.sol\":4449:4459  players[i] */\n      0x00\n        /* \"lottery.sol\":4457:4458  i */\n      dup3\n        /* \"lottery.sol\":4449:4459  players[i] */\n      dup2\n      mstore\n      0x20\n      add\n      swap1\n      dup2\n      mstore\n      0x20\n      add\n      0x00\n      keccak256\n        /* \"lottery.sol\":4449:4470  players[i].isRevealed */\n      0x01\n      add\n      0x01\n      swap1\n      sload\n      swap1\n      0x0100\n      exp\n      swap1\n      div\n      0xff\n      and\n        /* \"lottery.sol\":4406:4417  goodPlayers */\n      dup4\n        /* \"lottery.sol\":4418:4434  goodPlayersCount */\n      dup4\n        /* \"lottery.sol\":4406:4435  goodPlayers[goodPlayersCount] */\n      dup2\n      mload\n      dup2\n      lt\n      tag_181\n      jumpi\n      tag_182\n      tag_178\n      jump\t// in\n    tag_182:\n    tag_181:\n      0x20\n      mul\n      0x20\n      add\n      add\n      mload\n        /* \"lottery.sol\":4406:4446  goodPlayers[goodPlayersCount].isRevealed */\n      0x40\n      add\n        /* \"lottery.sol\":4406:4470  goodPlayers[goodPlayersCount].isRevealed = players[i].isRevealed */\n      swap1\n      iszero\n      iszero\n      swap1\n      dup2\n      iszero\n      iszero\n      dup2\n      mstore\n      pop\n      pop\n        /* \"lottery.sol\":4533:4540  players */\n      0x0a\n        /* \"lottery.sol\":4533:4543  players[i] */\n      0x00\n        /* \"lottery.sol\":4541:4542  i */\n      dup3\n        /* \"lottery.sol\":4533:4543  players[i] */\n      dup2\n      mstore\n      0x20\n      add\n      swap1\n      dup2\n      mstore\n      0x20\n      add\n      0x00\n      keccak256\n        /* \"lottery.sol\":4533:4555  players[i].isWithdrawn */\n      0x01\n      add\n      0x02\n      swap1\n      sload\n      swap1\n      0x0100\n      exp\n      swap1\n      div\n      0xff\n      and\n        /* \"lottery.sol\":4489:4500  goodPlayers */\n      dup4\n        /* \"lottery.sol\":4501:4517  goodPlayersCount */\n      dup4\n        /* \"lottery.sol\":4489:4518  goodPlayers[goodPlayersCount] */\n      dup2\n      mload\n      dup2\n      lt\n      tag_183\n      jumpi\n      tag_184\n      tag_178\n      jump\t// in\n    tag_184:\n    tag_183:\n      0x20\n      mul\n      0x20\n      add\n      add\n      mload\n        /* \"lottery.sol\":4489:4530  goodPlayers[goodPlayersCount].isWithdrawn */\n      0x60\n      add\n        /* \"lottery.sol\":4489:4555  goodPlayers[goodPlayersCount].isWithdrawn = players[i].isWithdrawn */\n      swap1\n      iszero\n      iszero\n      swap1\n      dup2\n      iszero\n      iszero\n      dup2\n      mstore\n      pop\n      pop\n        /* \"lottery.sol\":4574:4592  goodPlayersCount++ */\n      dup2\n      dup1\n      tag_185\n      swap1\n      tag_186\n      jump\t// in\n    tag_185:\n      swap3\n      pop\n      pop\n        /* \"lottery.sol\":4134:4909  if( players[i].isRevealed && minChoice <= players[i].choice && players[i].choice <= maxChoice ){... */\n      jump(tag_187)\n    tag_175:\n        /* \"lottery.sol\":4645:4661  uint returnMoney */\n      0x00\n        /* \"lottery.sol\":4686:4689  100 */\n      0x64\n        /* \"lottery.sol\":4679:4681  98 */\n      0x62\n        /* \"lottery.sol\":781:792  0.001 ether */\n      0x038d7ea4c68000\n        /* \"lottery.sol\":4666:4681  lotteryFee * 98 */\n      tag_188\n      swap2\n      swap1\n      tag_189\n      jump\t// in\n    tag_188:\n        /* \"lottery.sol\":4664:4689  ( lotteryFee * 98 ) / 100 */\n      tag_190\n      swap2\n      swap1\n      tag_191\n      jump\t// in\n    tag_190:\n        /* \"lottery.sol\":4645:4689  uint returnMoney = ( lotteryFee * 98 ) / 100 */\n      swap1\n      pop\n        /* \"lottery.sol\":4708:4721  uint ownerFee */\n      0x00\n        /* \"lottery.sol\":4745:4748  100 */\n      0x64\n        /* \"lottery.sol\":4739:4740  2 */\n      0x02\n        /* \"lottery.sol\":781:792  0.001 ether */\n      0x038d7ea4c68000\n        /* \"lottery.sol\":4726:4740  lotteryFee * 2 */\n      tag_192\n      swap2\n      swap1\n      tag_189\n      jump\t// in\n    tag_192:\n        /* \"lottery.sol\":4724:4748  ( lotteryFee * 2 ) / 100 */\n      tag_193\n      swap2\n      swap1\n      tag_191\n      jump\t// in\n    tag_193:\n        /* \"lottery.sol\":4708:4748  uint ownerFee = ( lotteryFee * 2 ) / 100 */\n      swap1\n      pop\n        /* \"lottery.sol\":4794:4801  players */\n      0x0a\n        /* \"lottery.sol\":4794:4804  players[i] */\n      0x00\n        /* \"lottery.sol\":4802:4803  i */\n      dup5\n        /* \"lottery.sol\":4794:4804  players[i] */\n      dup2\n      mstore\n      0x20\n      add\n      swap1\n      dup2\n      mstore\n      0x20\n      add\n      0x00\n      keccak256\n        /* \"lottery.sol\":4794:4809  players[i].addr */\n      0x01\n      add\n      0x03\n      swap1\n      sload\n      swap1\n      0x0100\n      exp\n      swap1\n      div\n      0xffffffffffffffffffffffffffffffffffffffff\n      and\n        /* \"lottery.sol\":4785:4820  payable( players[i].addr ).transfer */\n      0xffffffffffffffffffffffffffffffffffffffff\n      and\n        /* \"lottery.sol\":4785:4835  payable( players[i].addr ).transfer( returnMoney ) */\n      0x08fc\n        /* \"lottery.sol\":4822:4833  returnMoney */\n      dup4\n        /* \"lottery.sol\":4785:4835  payable( players[i].addr ).transfer( returnMoney ) */\n      swap1\n      dup2\n      iszero\n      mul\n      swap1\n      mload(0x40)\n      0x00\n      mload(0x40)\n      dup1\n      dup4\n      sub\n      dup2\n      dup6\n      dup9\n      dup9\n      call\n      swap4\n      pop\n      pop\n      pop\n      pop\n      iszero\n      dup1\n      iszero\n      tag_195\n      jumpi\n      returndatasize\n      0x00\n      dup1\n      returndatacopy\n      revert(0x00, returndatasize)\n    tag_195:\n      pop\n        /* \"lottery.sol\":4863:4870  owner() */\n      tag_196\n        /* \"lottery.sol\":4863:4868  owner */\n      tag_64\n        /* \"lottery.sol\":4863:4870  owner() */\n      jump\t// in\n    tag_196:\n        /* \"lottery.sol\":4854:4881  payable( owner() ).transfer */\n      0xffffffffffffffffffffffffffffffffffffffff\n      and\n        /* \"lottery.sol\":4854:4893  payable( owner() ).transfer( ownerFee ) */\n      0x08fc\n        /* \"lottery.sol\":4883:4891  ownerFee */\n      dup3\n        /* \"lottery.sol\":4854:4893  payable( owner() ).transfer( ownerFee ) */\n      swap1\n      dup2\n      iszero\n      mul\n      swap1\n      mload(0x40)\n      0x00\n      mload(0x40)\n      dup1\n      dup4\n      sub\n      dup2\n      dup6\n      dup9\n      dup9\n      call\n      swap4\n      pop\n      pop\n      pop\n      pop\n      iszero\n      dup1\n      iszero\n      tag_198\n      jumpi\n      returndatasize\n      0x00\n      dup1\n      returndatacopy\n      revert(0x00, returndatasize)\n    tag_198:\n      pop\n        /* \"lottery.sol\":4626:4909  {... */\n      pop\n      pop\n        /* \"lottery.sol\":4134:4909  if( players[i].isRevealed && minChoice <= players[i].choice && players[i].choice <= maxChoice ){... */\n    tag_187:\n        /* \"lottery.sol\":4114:4117  i++ */\n      dup1\n      dup1\n      0x01\n      add\n      swap2\n      pop\n      pop\n        /* \"lottery.sol\":4081:4920  for( uint i = 0 ; i < currentN ; i++ ){... */\n      jump(tag_170)\n    tag_171:\n      pop\n        /* \"lottery.sol\":4956:4957  0 */\n      0x00\n        /* \"lottery.sol\":4936:4952  goodPlayersCount */\n      dup2\n        /* \"lottery.sol\":4936:4957  goodPlayersCount == 0 */\n      sub\n        /* \"lottery.sol\":4932:5008  if( goodPlayersCount == 0 ){... */\n      tag_199\n      jumpi\n        /* \"lottery.sol\":4974:4996  _ownerClaimAllReward() */\n      tag_200\n        /* \"lottery.sol\":4974:4994  _ownerClaimAllReward */\n      tag_201\n        /* \"lottery.sol\":4974:4996  _ownerClaimAllReward() */\n      jump\t// in\n    tag_200:\n        /* \"lottery.sol\":4932:5008  if( goodPlayersCount == 0 ){... */\n    tag_199:\n        /* \"lottery.sol\":5020:5034  uint xorChoice */\n      0x00\n        /* \"lottery.sol\":5037:5048  goodPlayers */\n      dup3\n        /* \"lottery.sol\":5049:5050  0 */\n      0x00\n        /* \"lottery.sol\":5037:5051  goodPlayers[0] */\n      dup2\n      mload\n      dup2\n      lt\n      tag_202\n      jumpi\n      tag_203\n      tag_178\n      jump\t// in\n    tag_203:\n    tag_202:\n      0x20\n      mul\n      0x20\n      add\n      add\n      mload\n        /* \"lottery.sol\":5037:5058  goodPlayers[0].choice */\n      0x00\n      add\n      mload\n        /* \"lottery.sol\":5020:5058  uint xorChoice = goodPlayers[0].choice */\n      swap1\n      pop\n        /* \"lottery.sol\":5074:5080  uint i */\n      0x00\n        /* \"lottery.sol\":5083:5084  1 */\n      0x01\n        /* \"lottery.sol\":5074:5084  uint i = 1 */\n      swap1\n      pop\n        /* \"lottery.sol\":5069:5187  for( uint i = 1 ; i < goodPlayersCount ; i++ ){... */\n    tag_204:\n        /* \"lottery.sol\":5091:5107  goodPlayersCount */\n      dup3\n        /* \"lottery.sol\":5087:5088  i */\n      dup2\n        /* \"lottery.sol\":5087:5107  i < goodPlayersCount */\n      lt\n        /* \"lottery.sol\":5069:5187  for( uint i = 1 ; i < goodPlayersCount ; i++ ){... */\n      iszero\n      tag_205\n      jumpi\n        /* \"lottery.sol\":5154:5165  goodPlayers */\n      dup4\n        /* \"lottery.sol\":5166:5167  i */\n      dup2\n        /* \"lottery.sol\":5154:5168  goodPlayers[i] */\n      dup2\n      mload\n      dup2\n      lt\n      tag_207\n      jumpi\n      tag_208\n      tag_178\n      jump\t// in\n    tag_208:\n    tag_207:\n      0x20\n      mul\n      0x20\n      add\n      add\n      mload\n        /* \"lottery.sol\":5154:5175  goodPlayers[i].choice */\n      0x00\n      add\n      mload\n        /* \"lottery.sol\":5142:5151  xorChoice */\n      dup3\n        /* \"lottery.sol\":5142:5175  xorChoice ^ goodPlayers[i].choice */\n      xor\n        /* \"lottery.sol\":5130:5175  xorChoice = xorChoice ^ goodPlayers[i].choice */\n      swap2\n      pop\n        /* \"lottery.sol\":5110:5113  i++ */\n      dup1\n      dup1\n      0x01\n      add\n      swap2\n      pop\n      pop\n        /* \"lottery.sol\":5069:5187  for( uint i = 1 ; i < goodPlayersCount ; i++ ){... */\n      jump(tag_204)\n    tag_205:\n      pop\n        /* \"lottery.sol\":5197:5211  uint winnerIdx */\n      0x00\n        /* \"lottery.sol\":5267:5283  goodPlayersCount */\n      dup3\n        /* \"lottery.sol\":5249:5258  xorChoice */\n      dup3\n        /* \"lottery.sol\":5231:5260  abi.encodePacked( xorChoice ) */\n      add(0x20, mload(0x40))\n      tag_209\n      swap2\n      swap1\n      tag_210\n      jump\t// in\n    tag_209:\n      mload(0x40)\n      0x20\n      dup2\n      dup4\n      sub\n      sub\n      dup2\n      mstore\n      swap1\n      0x40\n      mstore\n        /* \"lottery.sol\":5220:5262  keccak256( abi.encodePacked( xorChoice ) ) */\n      dup1\n      mload\n      swap1\n      0x20\n      add\n      keccak256\n        /* \"lottery.sol\":5214:5264  uint( keccak256( abi.encodePacked( xorChoice ) ) ) */\n      0x00\n      shr\n        /* \"lottery.sol\":5214:5283  uint( keccak256( abi.encodePacked( xorChoice ) ) ) % goodPlayersCount */\n      tag_211\n      swap2\n      swap1\n      tag_212\n      jump\t// in\n    tag_211:\n        /* \"lottery.sol\":5197:5283  uint winnerIdx = uint( keccak256( abi.encodePacked( xorChoice ) ) ) % goodPlayersCount */\n      swap1\n      pop\n        /* \"lottery.sol\":5304:5366  _rewardWinner( goodPlayers[winnerIdx].addr, goodPlayersCount ) */\n      tag_213\n        /* \"lottery.sol\":5319:5330  goodPlayers */\n      dup5\n        /* \"lottery.sol\":5331:5340  winnerIdx */\n      dup3\n        /* \"lottery.sol\":5319:5341  goodPlayers[winnerIdx] */\n      dup2\n      mload\n      dup2\n      lt\n      tag_214\n      jumpi\n      tag_215\n      tag_178\n      jump\t// in\n    tag_215:\n    tag_214:\n      0x20\n      mul\n      0x20\n      add\n      add\n      mload\n        /* \"lottery.sol\":5319:5346  goodPlayers[winnerIdx].addr */\n      0x80\n      add\n      mload\n        /* \"lottery.sol\":5348:5364  goodPlayersCount */\n      dup5\n        /* \"lottery.sol\":5304:5317  _rewardWinner */\n      tag_216\n        /* \"lottery.sol\":5304:5366  _rewardWinner( goodPlayers[winnerIdx].addr, goodPlayersCount ) */\n      jump\t// in\n    tag_213:\n        /* \"lottery.sol\":5377:5389  _resetGame() */\n      tag_217\n        /* \"lottery.sol\":5377:5387  _resetGame */\n      tag_127\n        /* \"lottery.sol\":5377:5389  _resetGame() */\n      jump\t// in\n    tag_217:\n        /* \"lottery.sol\":3864:5397  {... */\n      pop\n      pop\n      pop\n      pop\n        /* \"lottery.sol\":3825:5397  function findWinner() public onlyOwner {... */\n      jump\t// out\n        /* \"Ownership.sol\":393:485  function isOwner() public view returns (bool) {... */\n    tag_78:\n        /* \"Ownership.sol\":433:437  bool */\n      0x00\n        /* \"Ownership.sol\":471:477  _owner */\n      0x02\n      0x00\n      swap1\n      sload\n      swap1\n      0x0100\n      exp\n      swap1\n      div\n      0xffffffffffffffffffffffffffffffffffffffff\n      and\n        /* \"Ownership.sol\":457:477  msg.sender == _owner */\n      0xffffffffffffffffffffffffffffffffffffffff\n      and\n        /* \"Ownership.sol\":457:467  msg.sender */\n      caller\n        /* \"Ownership.sol\":457:477  msg.sender == _owner */\n      0xffffffffffffffffffffffffffffffffffffffff\n      and\n      eq\n        /* \"Ownership.sol\":450:477  return msg.sender == _owner */\n      swap1\n      pop\n        /* \"Ownership.sol\":393:485  function isOwner() public view returns (bool) {... */\n      swap1\n      jump\t// out\n        /* \"lottery.sol\":262:276  uint public T1 */\n    tag_83:\n      sload(0x04)\n      dup2\n      jump\t// out\n        /* \"lottery.sol\":494:507  uint public N */\n    tag_87:\n      sload(0x07)\n      dup2\n      jump\t// out\n        /* \"lottery.sol\":2491:3302  function commitHashedChoice( bytes32 hashedChoice ) public payable returns ( uint ) {... */\n    tag_91:\n        /* \"lottery.sol\":2568:2572  uint */\n      0x00\n        /* \"lottery.sol\":781:792  0.001 ether */\n      0x038d7ea4c68000\n        /* \"lottery.sol\":2595:2604  msg.value */\n      callvalue\n        /* \"lottery.sol\":2595:2618  msg.value == lotteryFee */\n      eq\n        /* \"lottery.sol\":2586:2657  require( msg.value == lotteryFee, \"Require 0.001 ETH for Lottery fee\" ) */\n      tag_220\n      jumpi\n      mload(0x40)\n      0x08c379a000000000000000000000000000000000000000000000000000000000\n      dup2\n      mstore\n      0x04\n      add\n      tag_221\n      swap1\n      tag_222\n      jump\t// in\n    tag_221:\n      mload(0x40)\n      dup1\n      swap2\n      sub\n      swap1\n      revert\n    tag_220:\n        /* \"lottery.sol\":2688:2689  N */\n      sload(0x07)\n        /* \"lottery.sol\":2677:2685  currentN */\n      sload(0x08)\n        /* \"lottery.sol\":2677:2689  currentN < N */\n      lt\n        /* \"lottery.sol\":2668:2728  require( currentN < N, \"The number of players is complete\" ) */\n      tag_223\n      jumpi\n      mload(0x40)\n      0x08c379a000000000000000000000000000000000000000000000000000000000\n      dup2\n      mstore\n      0x04\n      add\n      tag_224\n      swap1\n      tag_225\n      jump\t// in\n    tag_224:\n      mload(0x40)\n      dup1\n      swap2\n      sub\n      swap1\n      revert\n    tag_223:\n        /* \"lottery.sol\":2796:2797  0 */\n      0x00\n        /* \"lottery.sol\":2780:2792  currentStage */\n      sload(0x09)\n        /* \"lottery.sol\":2780:2797  currentStage == 0 */\n      sub\n        /* \"lottery.sol\":2776:2884  if( currentStage == 0 ){... */\n      tag_226\n      jumpi\n        /* \"lottery.sol\":2829:2830  1 */\n      0x01\n        /* \"lottery.sol\":2814:2826  currentStage */\n      0x09\n        /* \"lottery.sol\":2814:2830  currentStage = 1 */\n      dup2\n      swap1\n      sstore\n      pop\n        /* \"lottery.sol\":2857:2872  block.timestamp */\n      timestamp\n        /* \"lottery.sol\":2845:2854  StartTime */\n      0x03\n        /* \"lottery.sol\":2845:2872  StartTime = block.timestamp */\n      dup2\n      swap1\n      sstore\n      pop\n        /* \"lottery.sol\":2776:2884  if( currentStage == 0 ){... */\n    tag_226:\n        /* \"lottery.sol\":2935:2937  T1 */\n      sload(0x04)\n        /* \"lottery.sol\":2923:2932  StartTime */\n      sload(0x03)\n        /* \"lottery.sol\":2923:2937  StartTime + T1 */\n      tag_227\n      swap2\n      swap1\n      tag_111\n      jump\t// in\n    tag_227:\n        /* \"lottery.sol\":2905:2920  block.timestamp */\n      timestamp\n        /* \"lottery.sol\":2905:2937  block.timestamp < StartTime + T1 */\n      lt\n        /* \"lottery.sol\":2896:2967  require( block.timestamp < StartTime + T1, \"Commit Stage has expired\" ) */\n      tag_228\n      jumpi\n      mload(0x40)\n      0x08c379a000000000000000000000000000000000000000000000000000000000\n      dup2\n      mstore\n      0x04\n      add\n      tag_229\n      swap1\n      tag_230\n      jump\t// in\n    tag_229:\n      mload(0x40)\n      dup1\n      swap2\n      sub\n      swap1\n      revert\n    tag_228:\n        /* \"lottery.sol\":2980:2988  uint idx */\n      0x00\n        /* \"lottery.sol\":2991:2999  currentN */\n      sload(0x08)\n        /* \"lottery.sol\":2980:2999  uint idx = currentN */\n      swap1\n      pop\n        /* \"lottery.sol\":3012:3045  commit( getHash( hashedChoice ) ) */\n      tag_231\n        /* \"lottery.sol\":3020:3043  getHash( hashedChoice ) */\n      tag_232\n        /* \"lottery.sol\":3029:3041  hashedChoice */\n      dup5\n        /* \"lottery.sol\":3020:3027  getHash */\n      tag_43\n        /* \"lottery.sol\":3020:3043  getHash( hashedChoice ) */\n      jump\t// in\n    tag_232:\n        /* \"lottery.sol\":3012:3018  commit */\n      tag_233\n        /* \"lottery.sol\":3012:3045  commit( getHash( hashedChoice ) ) */\n      jump\t// in\n    tag_231:\n        /* \"lottery.sol\":3080:3081  0 */\n      0x00\n        /* \"lottery.sol\":3058:3065  players */\n      0x0a\n        /* \"lottery.sol\":3058:3070  players[idx] */\n      0x00\n        /* \"lottery.sol\":3066:3069  idx */\n      dup4\n        /* \"lottery.sol\":3058:3070  players[idx] */\n      dup2\n      mstore\n      0x20\n      add\n      swap1\n      dup2\n      mstore\n      0x20\n      add\n      0x00\n      keccak256\n        /* \"lottery.sol\":3058:3077  players[idx].choice */\n      0x00\n      add\n        /* \"lottery.sol\":3058:3081  players[idx].choice = 0 */\n      dup2\n      swap1\n      sstore\n      pop\n        /* \"lottery.sol\":3118:3122  true */\n      0x01\n        /* \"lottery.sol\":3092:3099  players */\n      0x0a\n        /* \"lottery.sol\":3092:3104  players[idx] */\n      0x00\n        /* \"lottery.sol\":3100:3103  idx */\n      dup4\n        /* \"lottery.sol\":3092:3104  players[idx] */\n      dup2\n      mstore\n      0x20\n      add\n      swap1\n      dup2\n      mstore\n      0x20\n      add\n      0x00\n      keccak256\n        /* \"lottery.sol\":3092:3115  players[idx].isCommited */\n      0x01\n      add\n      0x00\n        /* \"lottery.sol\":3092:3122  players[idx].isCommited = true */\n      0x0100\n      exp\n      dup2\n      sload\n      dup2\n      0xff\n      mul\n      not\n      and\n      swap1\n      dup4\n      iszero\n      iszero\n      mul\n      or\n      swap1\n      sstore\n      pop\n        /* \"lottery.sol\":3159:3164  false */\n      0x00\n        /* \"lottery.sol\":3133:3140  players */\n      0x0a\n        /* \"lottery.sol\":3133:3145  players[idx] */\n      0x00\n        /* \"lottery.sol\":3141:3144  idx */\n      dup4\n        /* \"lottery.sol\":3133:3145  players[idx] */\n      dup2\n      mstore\n      0x20\n      add\n      swap1\n      dup2\n      mstore\n      0x20\n      add\n      0x00\n      keccak256\n        /* \"lottery.sol\":3133:3156  players[idx].isRevealed */\n      0x01\n      add\n      0x01\n        /* \"lottery.sol\":3133:3164  players[idx].isRevealed = false */\n      0x0100\n      exp\n      dup2\n      sload\n      dup2\n      0xff\n      mul\n      not\n      and\n      swap1\n      dup4\n      iszero\n      iszero\n      mul\n      or\n      swap1\n      sstore\n      pop\n        /* \"lottery.sol\":3202:3207  false */\n      0x00\n        /* \"lottery.sol\":3175:3182  players */\n      0x0a\n        /* \"lottery.sol\":3175:3187  players[idx] */\n      0x00\n        /* \"lottery.sol\":3183:3186  idx */\n      dup4\n        /* \"lottery.sol\":3175:3187  players[idx] */\n      dup2\n      mstore\n      0x20\n      add\n      swap1\n      dup2\n      mstore\n      0x20\n      add\n      0x00\n      keccak256\n        /* \"lottery.sol\":3175:3199  players[idx].isWithdrawn */\n      0x01\n      add\n      0x02\n        /* \"lottery.sol\":3175:3207  players[idx].isWithdrawn = false */\n      0x0100\n      exp\n      dup2\n      sload\n      dup2\n      0xff\n      mul\n      not\n      and\n      swap1\n      dup4\n      iszero\n      iszero\n      mul\n      or\n      swap1\n      sstore\n      pop\n        /* \"lottery.sol\":3238:3248  msg.sender */\n      caller\n        /* \"lottery.sol\":3218:3225  players */\n      0x0a\n        /* \"lottery.sol\":3218:3230  players[idx] */\n      0x00\n        /* \"lottery.sol\":3226:3229  idx */\n      dup4\n        /* \"lottery.sol\":3218:3230  players[idx] */\n      dup2\n      mstore\n      0x20\n      add\n      swap1\n      dup2\n      mstore\n      0x20\n      add\n      0x00\n      keccak256\n        /* \"lottery.sol\":3218:3235  players[idx].addr */\n      0x01\n      add\n      0x03\n        /* \"lottery.sol\":3218:3248  players[idx].addr = msg.sender */\n      0x0100\n      exp\n      dup2\n      sload\n      dup2\n      0xffffffffffffffffffffffffffffffffffffffff\n      mul\n      not\n      and\n      swap1\n      dup4\n      0xffffffffffffffffffffffffffffffffffffffff\n      and\n      mul\n      or\n      swap1\n      sstore\n      pop\n        /* \"lottery.sol\":3261:3269  currentN */\n      0x08\n      0x00\n        /* \"lottery.sol\":3261:3271  currentN++ */\n      dup2\n      sload\n      dup1\n      swap3\n      swap2\n      swap1\n      tag_234\n      swap1\n      tag_186\n      jump\t// in\n    tag_234:\n      swap2\n      swap1\n      pop\n      sstore\n      pop\n        /* \"lottery.sol\":3291:3294  idx */\n      dup1\n        /* \"lottery.sol\":3284:3294  return idx */\n      swap2\n      pop\n      pop\n        /* \"lottery.sol\":2491:3302  function commitHashedChoice( bytes32 hashedChoice ) public payable returns ( uint ) {... */\n      swap2\n      swap1\n      pop\n      jump\t// out\n        /* \"lottery.sol\":1165:2239  function getCurrentStage() public view returns ( string memory, uint ) {... */\n    tag_95:\n        /* \"lottery.sol\":1214:1227  string memory */\n      0x60\n        /* \"lottery.sol\":1229:1233  uint */\n      0x00\n        /* \"lottery.sol\":1267:1268  0 */\n      dup1\n        /* \"lottery.sol\":1251:1263  currentStage */\n      sload(0x09)\n        /* \"lottery.sol\":1251:1268  currentStage == 0 */\n      sub\n        /* \"lottery.sol\":1247:2232  if( currentStage == 0 ){... */\n      tag_236\n      jumpi\n        /* \"lottery.sol\":1302:1303  0 */\n      0x00\n        /* \"lottery.sol\":1285:1305  return ( \"Idle\", 0 ) */\n      mload(0x40)\n      dup1\n      0x40\n      add\n      0x40\n      mstore\n      dup1\n      0x04\n      dup2\n      mstore\n      0x20\n      add\n      0x49646c6500000000000000000000000000000000000000000000000000000000\n      dup2\n      mstore\n      pop\n      swap1\n      swap2\n      pop\n      swap2\n      pop\n      jump(tag_235)\n        /* \"lottery.sol\":1247:2232  if( currentStage == 0 ){... */\n    tag_236:\n        /* \"lottery.sol\":1352:1353  1 */\n      0x01\n        /* \"lottery.sol\":1336:1348  currentStage */\n      sload(0x09)\n        /* \"lottery.sol\":1336:1353  currentStage == 1 */\n      sub\n        /* \"lottery.sol\":1332:2232  if( currentStage == 1 ){... */\n      tag_238\n      jumpi\n        /* \"lottery.sol\":1435:1437  T1 */\n      sload(0x04)\n        /* \"lottery.sol\":1423:1432  StartTime */\n      sload(0x03)\n        /* \"lottery.sol\":1423:1437  StartTime + T1 */\n      tag_239\n      swap2\n      swap1\n      tag_111\n      jump\t// in\n    tag_239:\n        /* \"lottery.sol\":1405:1420  block.timestamp */\n      timestamp\n        /* \"lottery.sol\":1405:1437  block.timestamp < StartTime + T1 */\n      lt\n        /* \"lottery.sol\":1401:2221  if( block.timestamp < StartTime + T1 ){... */\n      iszero\n      tag_240\n      jumpi\n        /* \"lottery.sol\":1538:1553  block.timestamp */\n      timestamp\n        /* \"lottery.sol\":1533:1535  T1 */\n      sload(0x04)\n        /* \"lottery.sol\":1521:1530  StartTime */\n      sload(0x03)\n        /* \"lottery.sol\":1521:1535  StartTime + T1 */\n      tag_241\n      swap2\n      swap1\n      tag_111\n      jump\t// in\n    tag_241:\n        /* \"lottery.sol\":1521:1553  StartTime + T1 - block.timestamp */\n      tag_242\n      swap2\n      swap1\n      tag_243\n      jump\t// in\n    tag_242:\n        /* \"lottery.sol\":1458:1555  return ( \"Current Stage: Commit\\nTime Remaining (secconds): \", StartTime + T1 - block.timestamp ) */\n      mload(0x40)\n      dup1\n      0x60\n      add\n      0x40\n      mstore\n      dup1\n      0x31\n      dup2\n      mstore\n      0x20\n      add\n      data_3473fcf7a6f7130aa73d78485aa428e65c401496101180b918a5c8806c97646d\n      0x31\n      swap2\n      codecopy\n      swap1\n      swap2\n      pop\n      swap2\n      pop\n      jump(tag_235)\n        /* \"lottery.sol\":1401:2221  if( block.timestamp < StartTime + T1 ){... */\n    tag_240:\n        /* \"lottery.sol\":1660:1662  T2 */\n      sload(0x05)\n        /* \"lottery.sol\":1655:1657  T1 */\n      sload(0x04)\n        /* \"lottery.sol\":1643:1652  StartTime */\n      sload(0x03)\n        /* \"lottery.sol\":1643:1657  StartTime + T1 */\n      tag_245\n      swap2\n      swap1\n      tag_111\n      jump\t// in\n    tag_245:\n        /* \"lottery.sol\":1643:1662  StartTime + T1 + T2 */\n      tag_246\n      swap2\n      swap1\n      tag_111\n      jump\t// in\n    tag_246:\n        /* \"lottery.sol\":1625:1640  block.timestamp */\n      timestamp\n        /* \"lottery.sol\":1625:1662  block.timestamp < StartTime + T1 + T2 */\n      lt\n        /* \"lottery.sol\":1621:2221  if( block.timestamp < StartTime + T1 + T2 ){... */\n      iszero\n      tag_247\n      jumpi\n        /* \"lottery.sol\":1768:1783  block.timestamp */\n      timestamp\n        /* \"lottery.sol\":1763:1765  T2 */\n      sload(0x05)\n        /* \"lottery.sol\":1758:1760  T1 */\n      sload(0x04)\n        /* \"lottery.sol\":1746:1755  StartTime */\n      sload(0x03)\n        /* \"lottery.sol\":1746:1760  StartTime + T1 */\n      tag_248\n      swap2\n      swap1\n      tag_111\n      jump\t// in\n    tag_248:\n        /* \"lottery.sol\":1746:1765  StartTime + T1 + T2 */\n      tag_249\n      swap2\n      swap1\n      tag_111\n      jump\t// in\n    tag_249:\n        /* \"lottery.sol\":1746:1783  StartTime + T1 + T2 - block.timestamp */\n      tag_250\n      swap2\n      swap1\n      tag_243\n      jump\t// in\n    tag_250:\n        /* \"lottery.sol\":1683:1785  return ( \"Current Stage: Reveal\\nTime Remaining (secconds): \", StartTime + T1 + T2 - block.timestamp ) */\n      mload(0x40)\n      dup1\n      0x60\n      add\n      0x40\n      mstore\n      dup1\n      0x31\n      dup2\n      mstore\n      0x20\n      add\n      data_b7e1bf0ac95499c3e9fcbc6c6ec9ff21cdd9221046e4d673a8ac288085ad002e\n      0x31\n      swap2\n      codecopy\n      swap1\n      swap2\n      pop\n      swap2\n      pop\n      jump(tag_235)\n        /* \"lottery.sol\":1621:2221  if( block.timestamp < StartTime + T1 + T2 ){... */\n    tag_247:\n        /* \"lottery.sol\":1903:1905  T3 */\n      sload(0x06)\n        /* \"lottery.sol\":1898:1900  T2 */\n      sload(0x05)\n        /* \"lottery.sol\":1893:1895  T1 */\n      sload(0x04)\n        /* \"lottery.sol\":1881:1890  StartTime */\n      sload(0x03)\n        /* \"lottery.sol\":1881:1895  StartTime + T1 */\n      tag_252\n      swap2\n      swap1\n      tag_111\n      jump\t// in\n    tag_252:\n        /* \"lottery.sol\":1881:1900  StartTime + T1 + T2 */\n      tag_253\n      swap2\n      swap1\n      tag_111\n      jump\t// in\n    tag_253:\n        /* \"lottery.sol\":1881:1905  StartTime + T1 + T2 + T3 */\n      tag_254\n      swap2\n      swap1\n      tag_111\n      jump\t// in\n    tag_254:\n        /* \"lottery.sol\":1863:1878  block.timestamp */\n      timestamp\n        /* \"lottery.sol\":1863:1905  block.timestamp < StartTime + T1 + T2 + T3 */\n      lt\n        /* \"lottery.sol\":1859:2221  if( block.timestamp < StartTime + T1 + T2 + T3 ){... */\n      iszero\n      tag_255\n      jumpi\n        /* \"lottery.sol\":2024:2039  block.timestamp */\n      timestamp\n        /* \"lottery.sol\":2019:2021  T3 */\n      sload(0x06)\n        /* \"lottery.sol\":2014:2016  T2 */\n      sload(0x05)\n        /* \"lottery.sol\":2009:2011  T1 */\n      sload(0x04)\n        /* \"lottery.sol\":1997:2006  StartTime */\n      sload(0x03)\n        /* \"lottery.sol\":1997:2011  StartTime + T1 */\n      tag_256\n      swap2\n      swap1\n      tag_111\n      jump\t// in\n    tag_256:\n        /* \"lottery.sol\":1997:2016  StartTime + T1 + T2 */\n      tag_257\n      swap2\n      swap1\n      tag_111\n      jump\t// in\n    tag_257:\n        /* \"lottery.sol\":1997:2021  StartTime + T1 + T2 + T3 */\n      tag_258\n      swap2\n      swap1\n      tag_111\n      jump\t// in\n    tag_258:\n        /* \"lottery.sol\":1997:2039  StartTime + T1 + T2 + T3 - block.timestamp */\n      tag_259\n      swap2\n      swap1\n      tag_243\n      jump\t// in\n    tag_259:\n        /* \"lottery.sol\":1926:2041  return ( \"Current Stage: Finding Winner\\nTime Remaining (secconds): \", StartTime + T1 + T2 + T3 - block.timestamp ) */\n      mload(0x40)\n      dup1\n      0x60\n      add\n      0x40\n      mstore\n      dup1\n      0x39\n      dup2\n      mstore\n      0x20\n      add\n      data_ac0663802acae49599791beefeab4300b4f4cc02125f2e208a83d00e76801af0\n      0x39\n      swap2\n      codecopy\n      swap1\n      swap2\n      pop\n      swap2\n      pop\n      jump(tag_235)\n        /* \"lottery.sol\":1859:2221  if( block.timestamp < StartTime + T1 + T2 + T3 ){... */\n    tag_255:\n        /* \"lottery.sol\":2202:2203  0 */\n      0x00\n        /* \"lottery.sol\":2127:2205  return ( \"Current Stage: Withdraw Stage, you can withdraw your ETH now\\n\", 0 ) */\n      mload(0x40)\n      dup1\n      0x60\n      add\n      0x40\n      mstore\n      dup1\n      0x3d\n      dup2\n      mstore\n      0x20\n      add\n      data_8be7f5da53196a8cc29b1553b80bddd7ed5250f8bb51213a46afbf06e5159b85\n      0x3d\n      swap2\n      codecopy\n      swap1\n      swap2\n      pop\n      swap2\n      pop\n      jump(tag_235)\n        /* \"lottery.sol\":1332:2232  if( currentStage == 1 ){... */\n    tag_238:\n        /* \"lottery.sol\":1165:2239  function getCurrentStage() public view returns ( string memory, uint ) {... */\n    tag_235:\n      swap1\n      swap2\n      jump\t// out\n        /* \"lottery.sol\":219:240  uint public StartTime */\n    tag_100:\n      sload(0x03)\n      dup2\n      jump\t// out\n        /* \"lottery.sol\":6350:6476  function _resetGame() private {... */\n    tag_127:\n        /* \"lottery.sol\":6406:6407  0 */\n      0x00\n        /* \"lottery.sol\":6391:6403  currentStage */\n      0x09\n        /* \"lottery.sol\":6391:6407  currentStage = 0 */\n      dup2\n      swap1\n      sstore\n      pop\n        /* \"lottery.sol\":6429:6430  0 */\n      0x00\n        /* \"lottery.sol\":6418:6426  currentN */\n      0x08\n        /* \"lottery.sol\":6418:6430  currentN = 0 */\n      dup2\n      swap1\n      sstore\n      pop\n        /* \"lottery.sol\":6453:6468  block.timestamp */\n      timestamp\n        /* \"lottery.sol\":6441:6450  StartTime */\n      0x03\n        /* \"lottery.sol\":6441:6468  StartTime = block.timestamp */\n      dup2\n      swap1\n      sstore\n      pop\n        /* \"lottery.sol\":6350:6476  function _resetGame() private {... */\n      jump\t// out\n        /* \"CommitReveal.sol\":624:1790  function reveal(bytes32 revealHash) internal {... */\n    tag_145:\n        /* \"CommitReveal.sol\":782:787  false */\n      0x00\n        /* \"CommitReveal.sol\":752:787  commits[msg.sender].revealed==false */\n      iszero\n      iszero\n        /* \"CommitReveal.sol\":752:759  commits */\n      0x01\n        /* \"CommitReveal.sol\":752:771  commits[msg.sender] */\n      0x00\n        /* \"CommitReveal.sol\":760:770  msg.sender */\n      caller\n        /* \"CommitReveal.sol\":752:771  commits[msg.sender] */\n      0xffffffffffffffffffffffffffffffffffffffff\n      and\n      0xffffffffffffffffffffffffffffffffffffffff\n      and\n      dup2\n      mstore\n      0x20\n      add\n      swap1\n      dup2\n      mstore\n      0x20\n      add\n      0x00\n      keccak256\n        /* \"CommitReveal.sol\":752:780  commits[msg.sender].revealed */\n      0x01\n      add\n      0x08\n      swap1\n      sload\n      swap1\n      0x0100\n      exp\n      swap1\n      div\n      0xff\n      and\n        /* \"CommitReveal.sol\":752:787  commits[msg.sender].revealed==false */\n      iszero\n      iszero\n      eq\n        /* \"CommitReveal.sol\":744:829  require(commits[msg.sender].revealed==false,\"CommitReveal::reveal: Already revealed\") */\n      tag_263\n      jumpi\n      mload(0x40)\n      0x08c379a000000000000000000000000000000000000000000000000000000000\n      dup2\n      mstore\n      0x04\n      add\n      tag_264\n      swap1\n      tag_265\n      jump\t// in\n    tag_264:\n      mload(0x40)\n      dup1\n      swap2\n      sub\n      swap1\n      revert\n    tag_263:\n        /* \"CommitReveal.sol\":865:869  true */\n      0x01\n        /* \"CommitReveal.sol\":836:843  commits */\n      dup1\n        /* \"CommitReveal.sol\":836:855  commits[msg.sender] */\n      0x00\n        /* \"CommitReveal.sol\":844:854  msg.sender */\n      caller\n        /* \"CommitReveal.sol\":836:855  commits[msg.sender] */\n      0xffffffffffffffffffffffffffffffffffffffff\n      and\n      0xffffffffffffffffffffffffffffffffffffffff\n      and\n      dup2\n      mstore\n      0x20\n      add\n      swap1\n      dup2\n      mstore\n      0x20\n      add\n      0x00\n      keccak256\n        /* \"CommitReveal.sol\":836:864  commits[msg.sender].revealed */\n      0x01\n      add\n      0x08\n        /* \"CommitReveal.sol\":836:869  commits[msg.sender].revealed=true */\n      0x0100\n      exp\n      dup2\n      sload\n      dup2\n      0xff\n      mul\n      not\n      and\n      swap1\n      dup4\n      iszero\n      iszero\n      mul\n      or\n      swap1\n      sstore\n      pop\n        /* \"CommitReveal.sol\":961:968  commits */\n      0x01\n        /* \"CommitReveal.sol\":961:980  commits[msg.sender] */\n      0x00\n        /* \"CommitReveal.sol\":969:979  msg.sender */\n      caller\n        /* \"CommitReveal.sol\":961:980  commits[msg.sender] */\n      0xffffffffffffffffffffffffffffffffffffffff\n      and\n      0xffffffffffffffffffffffffffffffffffffffff\n      and\n      dup2\n      mstore\n      0x20\n      add\n      swap1\n      dup2\n      mstore\n      0x20\n      add\n      0x00\n      keccak256\n        /* \"CommitReveal.sol\":961:987  commits[msg.sender].commit */\n      0x00\n      add\n      sload\n        /* \"CommitReveal.sol\":940:959  getHash(revealHash) */\n      tag_266\n        /* \"CommitReveal.sol\":948:958  revealHash */\n      dup3\n        /* \"CommitReveal.sol\":940:947  getHash */\n      tag_43\n        /* \"CommitReveal.sol\":940:959  getHash(revealHash) */\n      jump\t// in\n    tag_266:\n        /* \"CommitReveal.sol\":940:987  getHash(revealHash)==commits[msg.sender].commit */\n      eq\n        /* \"CommitReveal.sol\":932:1048  require(getHash(revealHash)==commits[msg.sender].commit,\"CommitReveal::reveal: Revealed hash does not match commit\") */\n      tag_267\n      jumpi\n      mload(0x40)\n      0x08c379a000000000000000000000000000000000000000000000000000000000\n      dup2\n      mstore\n      0x04\n      add\n      tag_268\n      swap1\n      tag_269\n      jump\t// in\n    tag_268:\n      mload(0x40)\n      dup1\n      swap2\n      sub\n      swap1\n      revert\n    tag_267:\n        /* \"CommitReveal.sol\":1156:1163  commits */\n      0x01\n        /* \"CommitReveal.sol\":1156:1175  commits[msg.sender] */\n      0x00\n        /* \"CommitReveal.sol\":1164:1174  msg.sender */\n      caller\n        /* \"CommitReveal.sol\":1156:1175  commits[msg.sender] */\n      0xffffffffffffffffffffffffffffffffffffffff\n      and\n      0xffffffffffffffffffffffffffffffffffffffff\n      and\n      dup2\n      mstore\n      0x20\n      add\n      swap1\n      dup2\n      mstore\n      0x20\n      add\n      0x00\n      keccak256\n        /* \"CommitReveal.sol\":1156:1181  commits[msg.sender].block */\n      0x01\n      add\n      0x00\n      swap1\n      sload\n      swap1\n      0x0100\n      exp\n      swap1\n      div\n      0xffffffffffffffff\n      and\n        /* \"CommitReveal.sol\":1135:1181  uint64(block.number)>commits[msg.sender].block */\n      0xffffffffffffffff\n      and\n        /* \"CommitReveal.sol\":1142:1154  block.number */\n      number\n        /* \"CommitReveal.sol\":1135:1181  uint64(block.number)>commits[msg.sender].block */\n      0xffffffffffffffff\n      and\n      gt\n        /* \"CommitReveal.sol\":1127:1251  require(uint64(block.number)>commits[msg.sender].block,\"CommitReveal::reveal: Reveal and commit happened on the same block\") */\n      tag_270\n      jumpi\n      mload(0x40)\n      0x08c379a000000000000000000000000000000000000000000000000000000000\n      dup2\n      mstore\n      0x04\n      add\n      tag_271\n      swap1\n      tag_272\n      jump\t// in\n    tag_271:\n      mload(0x40)\n      dup1\n      swap2\n      sub\n      swap1\n      revert\n    tag_270:\n        /* \"CommitReveal.sol\":1370:1373  250 */\n      0xfa\n        /* \"CommitReveal.sol\":1344:1351  commits */\n      0x01\n        /* \"CommitReveal.sol\":1344:1363  commits[msg.sender] */\n      0x00\n        /* \"CommitReveal.sol\":1352:1362  msg.sender */\n      caller\n        /* \"CommitReveal.sol\":1344:1363  commits[msg.sender] */\n      0xffffffffffffffffffffffffffffffffffffffff\n      and\n      0xffffffffffffffffffffffffffffffffffffffff\n      and\n      dup2\n      mstore\n      0x20\n      add\n      swap1\n      dup2\n      mstore\n      0x20\n      add\n      0x00\n      keccak256\n        /* \"CommitReveal.sol\":1344:1369  commits[msg.sender].block */\n      0x01\n      add\n      0x00\n      swap1\n      sload\n      swap1\n      0x0100\n      exp\n      swap1\n      div\n      0xffffffffffffffff\n      and\n        /* \"CommitReveal.sol\":1344:1373  commits[msg.sender].block+250 */\n      tag_273\n      swap2\n      swap1\n      tag_274\n      jump\t// in\n    tag_273:\n        /* \"CommitReveal.sol\":1322:1373  uint64(block.number)<=commits[msg.sender].block+250 */\n      0xffffffffffffffff\n      and\n        /* \"CommitReveal.sol\":1329:1341  block.number */\n      number\n        /* \"CommitReveal.sol\":1322:1373  uint64(block.number)<=commits[msg.sender].block+250 */\n      0xffffffffffffffff\n      and\n      gt\n      iszero\n        /* \"CommitReveal.sol\":1314:1416  require(uint64(block.number)<=commits[msg.sender].block+250,\"CommitReveal::reveal: Revealed too late\") */\n      tag_275\n      jumpi\n      mload(0x40)\n      0x08c379a000000000000000000000000000000000000000000000000000000000\n      dup2\n      mstore\n      0x04\n      add\n      tag_276\n      swap1\n      tag_277\n      jump\t// in\n    tag_276:\n      mload(0x40)\n      dup1\n      swap2\n      sub\n      swap1\n      revert\n    tag_275:\n        /* \"CommitReveal.sol\":1491:1508  bytes32 blockHash */\n      0x00\n        /* \"CommitReveal.sol\":1521:1528  commits */\n      0x01\n        /* \"CommitReveal.sol\":1521:1540  commits[msg.sender] */\n      0x00\n        /* \"CommitReveal.sol\":1529:1539  msg.sender */\n      caller\n        /* \"CommitReveal.sol\":1521:1540  commits[msg.sender] */\n      0xffffffffffffffffffffffffffffffffffffffff\n      and\n      0xffffffffffffffffffffffffffffffffffffffff\n      and\n      dup2\n      mstore\n      0x20\n      add\n      swap1\n      dup2\n      mstore\n      0x20\n      add\n      0x00\n      keccak256\n        /* \"CommitReveal.sol\":1521:1546  commits[msg.sender].block */\n      0x01\n      add\n      0x00\n      swap1\n      sload\n      swap1\n      0x0100\n      exp\n      swap1\n      div\n      0xffffffffffffffff\n      and\n        /* \"CommitReveal.sol\":1511:1547  blockhash(commits[msg.sender].block) */\n      0xffffffffffffffff\n      and\n      blockhash\n        /* \"CommitReveal.sol\":1491:1547  bytes32 blockHash = blockhash(commits[msg.sender].block) */\n      swap1\n      pop\n        /* \"CommitReveal.sol\":1659:1670  uint random */\n      0x00\n        /* \"CommitReveal.sol\":1729:1732  max */\n      dup1\n      0x00\n      swap1\n      sload\n      swap1\n      0x0100\n      exp\n      swap1\n      div\n      0xff\n      and\n        /* \"CommitReveal.sol\":1673:1732  uint(keccak256(abi.encodePacked(blockHash,revealHash)))%max */\n      0xff\n      and\n        /* \"CommitReveal.sol\":1705:1714  blockHash */\n      dup3\n        /* \"CommitReveal.sol\":1715:1725  revealHash */\n      dup5\n        /* \"CommitReveal.sol\":1688:1726  abi.encodePacked(blockHash,revealHash) */\n      add(0x20, mload(0x40))\n      tag_278\n      swap3\n      swap2\n      swap1\n      tag_279\n      jump\t// in\n    tag_278:\n      mload(0x40)\n      0x20\n      dup2\n      dup4\n      sub\n      sub\n      dup2\n      mstore\n      swap1\n      0x40\n      mstore\n        /* \"CommitReveal.sol\":1678:1727  keccak256(abi.encodePacked(blockHash,revealHash)) */\n      dup1\n      mload\n      swap1\n      0x20\n      add\n      keccak256\n        /* \"CommitReveal.sol\":1673:1728  uint(keccak256(abi.encodePacked(blockHash,revealHash))) */\n      0x00\n      shr\n        /* \"CommitReveal.sol\":1673:1732  uint(keccak256(abi.encodePacked(blockHash,revealHash)))%max */\n      tag_280\n      swap2\n      swap1\n      tag_212\n      jump\t// in\n    tag_280:\n        /* \"CommitReveal.sol\":1659:1732  uint random = uint(keccak256(abi.encodePacked(blockHash,revealHash)))%max */\n      swap1\n      pop\n        /* \"CommitReveal.sol\":1744:1784  RevealHash(msg.sender,revealHash,random) */\n      0xbc016dd1cadeaefcb851af7a0a93532e0023d536894b730801f7bcfe7065bcc2\n        /* \"CommitReveal.sol\":1755:1765  msg.sender */\n      caller\n        /* \"CommitReveal.sol\":1766:1776  revealHash */\n      dup5\n        /* \"CommitReveal.sol\":1777:1783  random */\n      dup4\n        /* \"CommitReveal.sol\":1744:1784  RevealHash(msg.sender,revealHash,random) */\n      mload(0x40)\n      tag_281\n      swap4\n      swap3\n      swap2\n      swap1\n      tag_282\n      jump\t// in\n    tag_281:\n      mload(0x40)\n      dup1\n      swap2\n      sub\n      swap1\n      log1\n        /* \"CommitReveal.sol\":669:1790  {... */\n      pop\n      pop\n        /* \"CommitReveal.sol\":624:1790  function reveal(bytes32 revealHash) internal {... */\n      pop\n      jump\t// out\n        /* \"lottery.sol\":5405:5551  function _ownerClaimAllReward() private {... */\n    tag_201:\n        /* \"lottery.sol\":5456:5469  uint ownerFee */\n      0x00\n        /* \"lottery.sol\":5485:5493  currentN */\n      sload(0x08)\n        /* \"lottery.sol\":781:792  0.001 ether */\n      0x038d7ea4c68000\n        /* \"lottery.sol\":5472:5493  lotteryFee * currentN */\n      tag_284\n      swap2\n      swap1\n      tag_189\n      jump\t// in\n    tag_284:\n        /* \"lottery.sol\":5456:5493  uint ownerFee = lotteryFee * currentN */\n      swap1\n      pop\n        /* \"lottery.sol\":5513:5520  owner() */\n      tag_285\n        /* \"lottery.sol\":5513:5518  owner */\n      tag_64\n        /* \"lottery.sol\":5513:5520  owner() */\n      jump\t// in\n    tag_285:\n        /* \"lottery.sol\":5504:5531  payable( owner() ).transfer */\n      0xffffffffffffffffffffffffffffffffffffffff\n      and\n        /* \"lottery.sol\":5504:5543  payable( owner() ).transfer( ownerFee ) */\n      0x08fc\n        /* \"lottery.sol\":5533:5541  ownerFee */\n      dup3\n        /* \"lottery.sol\":5504:5543  payable( owner() ).transfer( ownerFee ) */\n      swap1\n      dup2\n      iszero\n      mul\n      swap1\n      mload(0x40)\n      0x00\n      mload(0x40)\n      dup1\n      dup4\n      sub\n      dup2\n      dup6\n      dup9\n      dup9\n      call\n      swap4\n      pop\n      pop\n      pop\n      pop\n      iszero\n      dup1\n      iszero\n      tag_287\n      jumpi\n      returndatasize\n      0x00\n      dup1\n      returndatacopy\n      revert(0x00, returndatasize)\n    tag_287:\n      pop\n        /* \"lottery.sol\":5445:5551  {... */\n      pop\n        /* \"lottery.sol\":5405:5551  function _ownerClaimAllReward() private {... */\n      jump\t// out\n        /* \"lottery.sol\":5559:5884  function _rewardWinner( address _winnerAddr, uint goodPlayerN ) private {... */\n    tag_216:\n        /* \"lottery.sol\":5642:5659  uint winnerReward */\n      0x00\n        /* \"lottery.sol\":5698:5701  100 */\n      0x64\n        /* \"lottery.sol\":5691:5693  98 */\n      0x62\n        /* \"lottery.sol\":5677:5688  goodPlayerN */\n      dup4\n        /* \"lottery.sol\":781:792  0.001 ether */\n      0x038d7ea4c68000\n        /* \"lottery.sol\":5664:5688  lotteryFee * goodPlayerN */\n      tag_289\n      swap2\n      swap1\n      tag_189\n      jump\t// in\n    tag_289:\n        /* \"lottery.sol\":5664:5693  lotteryFee * goodPlayerN * 98 */\n      tag_290\n      swap2\n      swap1\n      tag_189\n      jump\t// in\n    tag_290:\n        /* \"lottery.sol\":5662:5701  ( lotteryFee * goodPlayerN * 98 ) / 100 */\n      tag_291\n      swap2\n      swap1\n      tag_191\n      jump\t// in\n    tag_291:\n        /* \"lottery.sol\":5642:5701  uint winnerReward = ( lotteryFee * goodPlayerN * 98 ) / 100 */\n      swap1\n      pop\n        /* \"lottery.sol\":5712:5725  uint ownerFee */\n      0x00\n        /* \"lottery.sol\":5763:5766  100 */\n      0x64\n        /* \"lottery.sol\":5757:5758  2 */\n      0x02\n        /* \"lottery.sol\":5743:5754  goodPlayerN */\n      dup5\n        /* \"lottery.sol\":781:792  0.001 ether */\n      0x038d7ea4c68000\n        /* \"lottery.sol\":5730:5754  lotteryFee * goodPlayerN */\n      tag_292\n      swap2\n      swap1\n      tag_189\n      jump\t// in\n    tag_292:\n        /* \"lottery.sol\":5730:5758  lotteryFee * goodPlayerN * 2 */\n      tag_293\n      swap2\n      swap1\n      tag_189\n      jump\t// in\n    tag_293:\n        /* \"lottery.sol\":5728:5766  ( lotteryFee * goodPlayerN * 2 ) / 100 */\n      tag_294\n      swap2\n      swap1\n      tag_191\n      jump\t// in\n    tag_294:\n        /* \"lottery.sol\":5712:5766  uint ownerFee = ( lotteryFee * goodPlayerN * 2 ) / 100 */\n      swap1\n      pop\n        /* \"lottery.sol\":5788:5799  _winnerAddr */\n      dup4\n        /* \"lottery.sol\":5779:5810  payable( _winnerAddr ).transfer */\n      0xffffffffffffffffffffffffffffffffffffffff\n      and\n        /* \"lottery.sol\":5779:5826  payable( _winnerAddr ).transfer( winnerReward ) */\n      0x08fc\n        /* \"lottery.sol\":5812:5824  winnerReward */\n      dup4\n        /* \"lottery.sol\":5779:5826  payable( _winnerAddr ).transfer( winnerReward ) */\n      swap1\n      dup2\n      iszero\n      mul\n      swap1\n      mload(0x40)\n      0x00\n      mload(0x40)\n      dup1\n      dup4\n      sub\n      dup2\n      dup6\n      dup9\n      dup9\n      call\n      swap4\n      pop\n      pop\n      pop\n      pop\n      iszero\n      dup1\n      iszero\n      tag_296\n      jumpi\n      returndatasize\n      0x00\n      dup1\n      returndatacopy\n      revert(0x00, returndatasize)\n    tag_296:\n      pop\n        /* \"lottery.sol\":5846:5853  owner() */\n      tag_297\n        /* \"lottery.sol\":5846:5851  owner */\n      tag_64\n        /* \"lottery.sol\":5846:5853  owner() */\n      jump\t// in\n    tag_297:\n        /* \"lottery.sol\":5837:5864  payable( owner() ).transfer */\n      0xffffffffffffffffffffffffffffffffffffffff\n      and\n        /* \"lottery.sol\":5837:5876  payable( owner() ).transfer( ownerFee ) */\n      0x08fc\n        /* \"lottery.sol\":5866:5874  ownerFee */\n      dup3\n        /* \"lottery.sol\":5837:5876  payable( owner() ).transfer( ownerFee ) */\n      swap1\n      dup2\n      iszero\n      mul\n      swap1\n      mload(0x40)\n      0x00\n      mload(0x40)\n      dup1\n      dup4\n      sub\n      dup2\n      dup6\n      dup9\n      dup9\n      call\n      swap4\n      pop\n      pop\n      pop\n      pop\n      iszero\n      dup1\n      iszero\n      tag_299\n      jumpi\n      returndatasize\n      0x00\n      dup1\n      returndatacopy\n      revert(0x00, returndatasize)\n    tag_299:\n      pop\n        /* \"lottery.sol\":5631:5884  {... */\n      pop\n      pop\n        /* \"lottery.sol\":5559:5884  function _rewardWinner( address _winnerAddr, uint goodPlayerN ) private {... */\n      pop\n      pop\n      jump\t// out\n        /* \"CommitReveal.sol\":271:549  function commit(bytes32 dataHash) internal {... */\n    tag_233:\n        /* \"CommitReveal.sol\":350:358  dataHash */\n      dup1\n        /* \"CommitReveal.sol\":321:328  commits */\n      0x01\n        /* \"CommitReveal.sol\":321:340  commits[msg.sender] */\n      0x00\n        /* \"CommitReveal.sol\":329:339  msg.sender */\n      caller\n        /* \"CommitReveal.sol\":321:340  commits[msg.sender] */\n      0xffffffffffffffffffffffffffffffffffffffff\n      and\n      0xffffffffffffffffffffffffffffffffffffffff\n      and\n      dup2\n      mstore\n      0x20\n      add\n      swap1\n      dup2\n      mstore\n      0x20\n      add\n      0x00\n      keccak256\n        /* \"CommitReveal.sol\":321:347  commits[msg.sender].commit */\n      0x00\n      add\n        /* \"CommitReveal.sol\":321:358  commits[msg.sender].commit = dataHash */\n      dup2\n      swap1\n      sstore\n      pop\n        /* \"CommitReveal.sol\":400:412  block.number */\n      number\n        /* \"CommitReveal.sol\":365:372  commits */\n      0x01\n        /* \"CommitReveal.sol\":365:384  commits[msg.sender] */\n      0x00\n        /* \"CommitReveal.sol\":373:383  msg.sender */\n      caller\n        /* \"CommitReveal.sol\":365:384  commits[msg.sender] */\n      0xffffffffffffffffffffffffffffffffffffffff\n      and\n      0xffffffffffffffffffffffffffffffffffffffff\n      and\n      dup2\n      mstore\n      0x20\n      add\n      swap1\n      dup2\n      mstore\n      0x20\n      add\n      0x00\n      keccak256\n        /* \"CommitReveal.sol\":365:390  commits[msg.sender].block */\n      0x01\n      add\n      0x00\n        /* \"CommitReveal.sol\":365:413  commits[msg.sender].block = uint64(block.number) */\n      0x0100\n      exp\n      dup2\n      sload\n      dup2\n      0xffffffffffffffff\n      mul\n      not\n      and\n      swap1\n      dup4\n      0xffffffffffffffff\n      and\n      mul\n      or\n      swap1\n      sstore\n      pop\n        /* \"CommitReveal.sol\":451:456  false */\n      0x00\n        /* \"CommitReveal.sol\":420:427  commits */\n      0x01\n        /* \"CommitReveal.sol\":420:439  commits[msg.sender] */\n      0x00\n        /* \"CommitReveal.sol\":428:438  msg.sender */\n      caller\n        /* \"CommitReveal.sol\":420:439  commits[msg.sender] */\n      0xffffffffffffffffffffffffffffffffffffffff\n      and\n      0xffffffffffffffffffffffffffffffffffffffff\n      and\n      dup2\n      mstore\n      0x20\n      add\n      swap1\n      dup2\n      mstore\n      0x20\n      add\n      0x00\n      keccak256\n        /* \"CommitReveal.sol\":420:448  commits[msg.sender].revealed */\n      0x01\n      add\n      0x08\n        /* \"CommitReveal.sol\":420:456  commits[msg.sender].revealed = false */\n      0x0100\n      exp\n      dup2\n      sload\n      dup2\n      0xff\n      mul\n      not\n      and\n      swap1\n      dup4\n      iszero\n      iszero\n      mul\n      or\n      swap1\n      sstore\n      pop\n        /* \"CommitReveal.sol\":468:543  CommitHash(msg.sender,commits[msg.sender].commit,commits[msg.sender].block) */\n      0x3c1a1f8f38335b17f751c6da4ba7d1865f26b3997535176f5080de9fad891603\n        /* \"CommitReveal.sol\":479:489  msg.sender */\n      caller\n        /* \"CommitReveal.sol\":490:497  commits */\n      0x01\n        /* \"CommitReveal.sol\":490:509  commits[msg.sender] */\n      0x00\n        /* \"CommitReveal.sol\":498:508  msg.sender */\n      caller\n        /* \"CommitReveal.sol\":490:509  commits[msg.sender] */\n      0xffffffffffffffffffffffffffffffffffffffff\n      and\n      0xffffffffffffffffffffffffffffffffffffffff\n      and\n      dup2\n      mstore\n      0x20\n      add\n      swap1\n      dup2\n      mstore\n      0x20\n      add\n      0x00\n      keccak256\n        /* \"CommitReveal.sol\":490:516  commits[msg.sender].commit */\n      0x00\n      add\n      sload\n        /* \"CommitReveal.sol\":517:524  commits */\n      0x01\n        /* \"CommitReveal.sol\":517:536  commits[msg.sender] */\n      0x00\n        /* \"CommitReveal.sol\":525:535  msg.sender */\n      caller\n        /* \"CommitReveal.sol\":517:536  commits[msg.sender] */\n      0xffffffffffffffffffffffffffffffffffffffff\n      and\n      0xffffffffffffffffffffffffffffffffffffffff\n      and\n      dup2\n      mstore\n      0x20\n      add\n      swap1\n      dup2\n      mstore\n      0x20\n      add\n      0x00\n      keccak256\n        /* \"CommitReveal.sol\":517:542  commits[msg.sender].block */\n      0x01\n      add\n      0x00\n      swap1\n      sload\n      swap1\n      0x0100\n      exp\n      swap1\n      div\n      0xffffffffffffffff\n      and\n        /* \"CommitReveal.sol\":468:543  CommitHash(msg.sender,commits[msg.sender].commit,commits[msg.sender].block) */\n      mload(0x40)\n      tag_301\n      swap4\n      swap3\n      swap2\n      swap1\n      tag_302\n      jump\t// in\n    tag_301:\n      mload(0x40)\n      dup1\n      swap2\n      sub\n      swap1\n      log1\n        /* \"CommitReveal.sol\":271:549  function commit(bytes32 dataHash) internal {... */\n      pop\n      jump\t// out\n    tag_169:\n      mload(0x40)\n      dup1\n      0xa0\n      add\n      0x40\n      mstore\n      dup1\n      0x00\n      dup2\n      mstore\n      0x20\n      add\n      iszero(iszero(0x00))\n      dup2\n      mstore\n      0x20\n      add\n      iszero(iszero(0x00))\n      dup2\n      mstore\n      0x20\n      add\n      iszero(iszero(0x00))\n      dup2\n      mstore\n      0x20\n      add\n      and(0xffffffffffffffffffffffffffffffffffffffff, 0x00)\n      dup2\n      mstore\n      pop\n      swap1\n      jump\t// out\n        /* \"#utility.yul\":7:82   */\n    tag_303:\n        /* \"#utility.yul\":40:46   */\n      0x00\n        /* \"#utility.yul\":73:75   */\n      0x40\n        /* \"#utility.yul\":67:76   */\n      mload\n        /* \"#utility.yul\":57:76   */\n      swap1\n      pop\n        /* \"#utility.yul\":7:82   */\n      swap1\n      jump\t// out\n        /* \"#utility.yul\":88:205   */\n    tag_304:\n        /* \"#utility.yul\":197:198   */\n      0x00\n        /* \"#utility.yul\":194:195   */\n      dup1\n        /* \"#utility.yul\":187:199   */\n      revert\n        /* \"#utility.yul\":211:328   */\n    tag_305:\n        /* \"#utility.yul\":320:321   */\n      0x00\n        /* \"#utility.yul\":317:318   */\n      dup1\n        /* \"#utility.yul\":310:322   */\n      revert\n        /* \"#utility.yul\":334:411   */\n    tag_306:\n        /* \"#utility.yul\":371:378   */\n      0x00\n        /* \"#utility.yul\":400:405   */\n      dup2\n        /* \"#utility.yul\":389:405   */\n      swap1\n      pop\n        /* \"#utility.yul\":334:411   */\n      swap2\n      swap1\n      pop\n      jump\t// out\n        /* \"#utility.yul\":417:539   */\n    tag_307:\n        /* \"#utility.yul\":490:514   */\n      tag_378\n        /* \"#utility.yul\":508:513   */\n      dup2\n        /* \"#utility.yul\":490:514   */\n      tag_306\n      jump\t// in\n    tag_378:\n        /* \"#utility.yul\":483:488   */\n      dup2\n        /* \"#utility.yul\":480:515   */\n      eq\n        /* \"#utility.yul\":470:533   */\n      tag_379\n      jumpi\n        /* \"#utility.yul\":529:530   */\n      0x00\n        /* \"#utility.yul\":526:527   */\n      dup1\n        /* \"#utility.yul\":519:531   */\n      revert\n        /* \"#utility.yul\":470:533   */\n    tag_379:\n        /* \"#utility.yul\":417:539   */\n      pop\n      jump\t// out\n        /* \"#utility.yul\":545:684   */\n    tag_308:\n        /* \"#utility.yul\":591:596   */\n      0x00\n        /* \"#utility.yul\":629:635   */\n      dup2\n        /* \"#utility.yul\":616:636   */\n      calldataload\n        /* \"#utility.yul\":607:636   */\n      swap1\n      pop\n        /* \"#utility.yul\":645:678   */\n      tag_381\n        /* \"#utility.yul\":672:677   */\n      dup2\n        /* \"#utility.yul\":645:678   */\n      tag_307\n      jump\t// in\n    tag_381:\n        /* \"#utility.yul\":545:684   */\n      swap3\n      swap2\n      pop\n      pop\n      jump\t// out\n        /* \"#utility.yul\":690:807   */\n    tag_309:\n        /* \"#utility.yul\":799:800   */\n      0x00\n        /* \"#utility.yul\":796:797   */\n      dup1\n        /* \"#utility.yul\":789:801   */\n      revert\n        /* \"#utility.yul\":813:930   */\n    tag_310:\n        /* \"#utility.yul\":922:923   */\n      0x00\n        /* \"#utility.yul\":919:920   */\n      dup1\n        /* \"#utility.yul\":912:924   */\n      revert\n        /* \"#utility.yul\":936:1038   */\n    tag_311:\n        /* \"#utility.yul\":977:983   */\n      0x00\n        /* \"#utility.yul\":1028:1030   */\n      0x1f\n        /* \"#utility.yul\":1024:1031   */\n      not\n        /* \"#utility.yul\":1019:1021   */\n      0x1f\n        /* \"#utility.yul\":1012:1017   */\n      dup4\n        /* \"#utility.yul\":1008:1022   */\n      add\n        /* \"#utility.yul\":1004:1032   */\n      and\n        /* \"#utility.yul\":994:1032   */\n      swap1\n      pop\n        /* \"#utility.yul\":936:1038   */\n      swap2\n      swap1\n      pop\n      jump\t// out\n        /* \"#utility.yul\":1044:1224   */\n    tag_165:\n        /* \"#utility.yul\":1092:1169   */\n      0x4e487b7100000000000000000000000000000000000000000000000000000000\n        /* \"#utility.yul\":1089:1090   */\n      0x00\n        /* \"#utility.yul\":1082:1170   */\n      mstore\n        /* \"#utility.yul\":1189:1193   */\n      0x41\n        /* \"#utility.yul\":1186:1187   */\n      0x04\n        /* \"#utility.yul\":1179:1194   */\n      mstore\n        /* \"#utility.yul\":1213:1217   */\n      0x24\n        /* \"#utility.yul\":1210:1211   */\n      0x00\n        /* \"#utility.yul\":1203:1218   */\n      revert\n        /* \"#utility.yul\":1230:1511   */\n    tag_312:\n        /* \"#utility.yul\":1313:1340   */\n      tag_387\n        /* \"#utility.yul\":1335:1339   */\n      dup3\n        /* \"#utility.yul\":1313:1340   */\n      tag_311\n      jump\t// in\n    tag_387:\n        /* \"#utility.yul\":1305:1311   */\n      dup2\n        /* \"#utility.yul\":1301:1341   */\n      add\n        /* \"#utility.yul\":1443:1449   */\n      dup2\n        /* \"#utility.yul\":1431:1441   */\n      dup2\n        /* \"#utility.yul\":1428:1450   */\n      lt\n        /* \"#utility.yul\":1407:1425   */\n      0xffffffffffffffff\n        /* \"#utility.yul\":1395:1405   */\n      dup3\n        /* \"#utility.yul\":1392:1426   */\n      gt\n        /* \"#utility.yul\":1389:1451   */\n      or\n        /* \"#utility.yul\":1386:1474   */\n      iszero\n      tag_388\n      jumpi\n        /* \"#utility.yul\":1454:1472   */\n      tag_389\n      tag_165\n      jump\t// in\n    tag_389:\n        /* \"#utility.yul\":1386:1474   */\n    tag_388:\n        /* \"#utility.yul\":1494:1504   */\n      dup1\n        /* \"#utility.yul\":1490:1492   */\n      0x40\n        /* \"#utility.yul\":1483:1505   */\n      mstore\n        /* \"#utility.yul\":1273:1511   */\n      pop\n        /* \"#utility.yul\":1230:1511   */\n      pop\n      pop\n      jump\t// out\n        /* \"#utility.yul\":1517:1646   */\n    tag_313:\n        /* \"#utility.yul\":1551:1557   */\n      0x00\n        /* \"#utility.yul\":1578:1598   */\n      tag_391\n      tag_303\n      jump\t// in\n    tag_391:\n        /* \"#utility.yul\":1568:1598   */\n      swap1\n      pop\n        /* \"#utility.yul\":1607:1640   */\n      tag_392\n        /* \"#utility.yul\":1635:1639   */\n      dup3\n        /* \"#utility.yul\":1627:1633   */\n      dup3\n        /* \"#utility.yul\":1607:1640   */\n      tag_312\n      jump\t// in\n    tag_392:\n        /* \"#utility.yul\":1517:1646   */\n      swap2\n      swap1\n      pop\n      jump\t// out\n        /* \"#utility.yul\":1652:1960   */\n    tag_314:\n        /* \"#utility.yul\":1714:1718   */\n      0x00\n        /* \"#utility.yul\":1804:1822   */\n      0xffffffffffffffff\n        /* \"#utility.yul\":1796:1802   */\n      dup3\n        /* \"#utility.yul\":1793:1823   */\n      gt\n        /* \"#utility.yul\":1790:1846   */\n      iszero\n      tag_394\n      jumpi\n        /* \"#utility.yul\":1826:1844   */\n      tag_395\n      tag_165\n      jump\t// in\n    tag_395:\n        /* \"#utility.yul\":1790:1846   */\n    tag_394:\n        /* \"#utility.yul\":1864:1893   */\n      tag_396\n        /* \"#utility.yul\":1886:1892   */\n      dup3\n        /* \"#utility.yul\":1864:1893   */\n      tag_311\n      jump\t// in\n    tag_396:\n        /* \"#utility.yul\":1856:1893   */\n      swap1\n      pop\n        /* \"#utility.yul\":1948:1952   */\n      0x20\n        /* \"#utility.yul\":1942:1946   */\n      dup2\n        /* \"#utility.yul\":1938:1953   */\n      add\n        /* \"#utility.yul\":1930:1953   */\n      swap1\n      pop\n        /* \"#utility.yul\":1652:1960   */\n      swap2\n      swap1\n      pop\n      jump\t// out\n        /* \"#utility.yul\":1966:2112   */\n    tag_315:\n        /* \"#utility.yul\":2063:2069   */\n      dup3\n        /* \"#utility.yul\":2058:2061   */\n      dup2\n        /* \"#utility.yul\":2053:2056   */\n      dup4\n        /* \"#utility.yul\":2040:2070   */\n      calldatacopy\n        /* \"#utility.yul\":2104:2105   */\n      0x00\n        /* \"#utility.yul\":2095:2101   */\n      dup4\n        /* \"#utility.yul\":2090:2093   */\n      dup4\n        /* \"#utility.yul\":2086:2102   */\n      add\n        /* \"#utility.yul\":2079:2106   */\n      mstore\n        /* \"#utility.yul\":1966:2112   */\n      pop\n      pop\n      pop\n      jump\t// out\n        /* \"#utility.yul\":2118:2543   */\n    tag_316:\n        /* \"#utility.yul\":2196:2201   */\n      0x00\n        /* \"#utility.yul\":2221:2287   */\n      tag_399\n        /* \"#utility.yul\":2237:2286   */\n      tag_400\n        /* \"#utility.yul\":2279:2285   */\n      dup5\n        /* \"#utility.yul\":2237:2286   */\n      tag_314\n      jump\t// in\n    tag_400:\n        /* \"#utility.yul\":2221:2287   */\n      tag_313\n      jump\t// in\n    tag_399:\n        /* \"#utility.yul\":2212:2287   */\n      swap1\n      pop\n        /* \"#utility.yul\":2310:2316   */\n      dup3\n        /* \"#utility.yul\":2303:2308   */\n      dup2\n        /* \"#utility.yul\":2296:2317   */\n      mstore\n        /* \"#utility.yul\":2348:2352   */\n      0x20\n        /* \"#utility.yul\":2341:2346   */\n      dup2\n        /* \"#utility.yul\":2337:2353   */\n      add\n        /* \"#utility.yul\":2386:2389   */\n      dup5\n        /* \"#utility.yul\":2377:2383   */\n      dup5\n        /* \"#utility.yul\":2372:2375   */\n      dup5\n        /* \"#utility.yul\":2368:2384   */\n      add\n        /* \"#utility.yul\":2365:2390   */\n      gt\n        /* \"#utility.yul\":2362:2474   */\n      iszero\n      tag_401\n      jumpi\n        /* \"#utility.yul\":2393:2472   */\n      tag_402\n      tag_310\n      jump\t// in\n    tag_402:\n        /* \"#utility.yul\":2362:2474   */\n    tag_401:\n        /* \"#utility.yul\":2483:2537   */\n      tag_403\n        /* \"#utility.yul\":2530:2536   */\n      dup5\n        /* \"#utility.yul\":2525:2528   */\n      dup3\n        /* \"#utility.yul\":2520:2523   */\n      dup6\n        /* \"#utility.yul\":2483:2537   */\n      tag_315\n      jump\t// in\n    tag_403:\n        /* \"#utility.yul\":2202:2543   */\n      pop\n        /* \"#utility.yul\":2118:2543   */\n      swap4\n      swap3\n      pop\n      pop\n      pop\n      jump\t// out\n        /* \"#utility.yul\":2563:2903   */\n    tag_317:\n        /* \"#utility.yul\":2619:2624   */\n      0x00\n        /* \"#utility.yul\":2668:2671   */\n      dup3\n        /* \"#utility.yul\":2661:2665   */\n      0x1f\n        /* \"#utility.yul\":2653:2659   */\n      dup4\n        /* \"#utility.yul\":2649:2666   */\n      add\n        /* \"#utility.yul\":2645:2672   */\n      slt\n        /* \"#utility.yul\":2635:2757   */\n      tag_405\n      jumpi\n        /* \"#utility.yul\":2676:2755   */\n      tag_406\n      tag_309\n      jump\t// in\n    tag_406:\n        /* \"#utility.yul\":2635:2757   */\n    tag_405:\n        /* \"#utility.yul\":2793:2799   */\n      dup2\n        /* \"#utility.yul\":2780:2800   */\n      calldataload\n        /* \"#utility.yul\":2818:2897   */\n      tag_407\n        /* \"#utility.yul\":2893:2896   */\n      dup5\n        /* \"#utility.yul\":2885:2891   */\n      dup3\n        /* \"#utility.yul\":2878:2882   */\n      0x20\n        /* \"#utility.yul\":2870:2876   */\n      dup7\n        /* \"#utility.yul\":2866:2883   */\n      add\n        /* \"#utility.yul\":2818:2897   */\n      tag_316\n      jump\t// in\n    tag_407:\n        /* \"#utility.yul\":2809:2897   */\n      swap2\n      pop\n        /* \"#utility.yul\":2625:2903   */\n      pop\n        /* \"#utility.yul\":2563:2903   */\n      swap3\n      swap2\n      pop\n      pop\n      jump\t// out\n        /* \"#utility.yul\":2909:3563   */\n    tag_25:\n        /* \"#utility.yul\":2987:2993   */\n      0x00\n        /* \"#utility.yul\":2995:3001   */\n      dup1\n        /* \"#utility.yul\":3044:3046   */\n      0x40\n        /* \"#utility.yul\":3032:3041   */\n      dup4\n        /* \"#utility.yul\":3023:3030   */\n      dup6\n        /* \"#utility.yul\":3019:3042   */\n      sub\n        /* \"#utility.yul\":3015:3047   */\n      slt\n        /* \"#utility.yul\":3012:3131   */\n      iszero\n      tag_409\n      jumpi\n        /* \"#utility.yul\":3050:3129   */\n      tag_410\n      tag_304\n      jump\t// in\n    tag_410:\n        /* \"#utility.yul\":3012:3131   */\n    tag_409:\n        /* \"#utility.yul\":3170:3171   */\n      0x00\n        /* \"#utility.yul\":3195:3248   */\n      tag_411\n        /* \"#utility.yul\":3240:3247   */\n      dup6\n        /* \"#utility.yul\":3231:3237   */\n      dup3\n        /* \"#utility.yul\":3220:3229   */\n      dup7\n        /* \"#utility.yul\":3216:3238   */\n      add\n        /* \"#utility.yul\":3195:3248   */\n      tag_308\n      jump\t// in\n    tag_411:\n        /* \"#utility.yul\":3185:3248   */\n      swap3\n      pop\n        /* \"#utility.yul\":3141:3258   */\n      pop\n        /* \"#utility.yul\":3325:3327   */\n      0x20\n        /* \"#utility.yul\":3314:3323   */\n      dup4\n        /* \"#utility.yul\":3310:3328   */\n      add\n        /* \"#utility.yul\":3297:3329   */\n      calldataload\n        /* \"#utility.yul\":3356:3374   */\n      0xffffffffffffffff\n        /* \"#utility.yul\":3348:3354   */\n      dup2\n        /* \"#utility.yul\":3345:3375   */\n      gt\n        /* \"#utility.yul\":3342:3459   */\n      iszero\n      tag_412\n      jumpi\n        /* \"#utility.yul\":3378:3457   */\n      tag_413\n      tag_305\n      jump\t// in\n    tag_413:\n        /* \"#utility.yul\":3342:3459   */\n    tag_412:\n        /* \"#utility.yul\":3483:3546   */\n      tag_414\n        /* \"#utility.yul\":3538:3545   */\n      dup6\n        /* \"#utility.yul\":3529:3535   */\n      dup3\n        /* \"#utility.yul\":3518:3527   */\n      dup7\n        /* \"#utility.yul\":3514:3536   */\n      add\n        /* \"#utility.yul\":3483:3546   */\n      tag_317\n      jump\t// in\n    tag_414:\n        /* \"#utility.yul\":3473:3546   */\n      swap2\n      pop\n        /* \"#utility.yul\":3268:3556   */\n      pop\n        /* \"#utility.yul\":2909:3563   */\n      swap3\n      pop\n      swap3\n      swap1\n      pop\n      jump\t// out\n        /* \"#utility.yul\":3569:3646   */\n    tag_318:\n        /* \"#utility.yul\":3606:3613   */\n      0x00\n        /* \"#utility.yul\":3635:3640   */\n      dup2\n        /* \"#utility.yul\":3624:3640   */\n      swap1\n      pop\n        /* \"#utility.yul\":3569:3646   */\n      swap2\n      swap1\n      pop\n      jump\t// out\n        /* \"#utility.yul\":3652:3770   */\n    tag_319:\n        /* \"#utility.yul\":3739:3763   */\n      tag_417\n        /* \"#utility.yul\":3757:3762   */\n      dup2\n        /* \"#utility.yul\":3739:3763   */\n      tag_318\n      jump\t// in\n    tag_417:\n        /* \"#utility.yul\":3734:3737   */\n      dup3\n        /* \"#utility.yul\":3727:3764   */\n      mstore\n        /* \"#utility.yul\":3652:3770   */\n      pop\n      pop\n      jump\t// out\n        /* \"#utility.yul\":3776:3998   */\n    tag_28:\n        /* \"#utility.yul\":3869:3873   */\n      0x00\n        /* \"#utility.yul\":3907:3909   */\n      0x20\n        /* \"#utility.yul\":3896:3905   */\n      dup3\n        /* \"#utility.yul\":3892:3910   */\n      add\n        /* \"#utility.yul\":3884:3910   */\n      swap1\n      pop\n        /* \"#utility.yul\":3920:3991   */\n      tag_419\n        /* \"#utility.yul\":3988:3989   */\n      0x00\n        /* \"#utility.yul\":3977:3986   */\n      dup4\n        /* \"#utility.yul\":3973:3990   */\n      add\n        /* \"#utility.yul\":3964:3970   */\n      dup5\n        /* \"#utility.yul\":3920:3991   */\n      tag_319\n      jump\t// in\n    tag_419:\n        /* \"#utility.yul\":3776:3998   */\n      swap3\n      swap2\n      pop\n      pop\n      jump\t// out\n        /* \"#utility.yul\":4004:4333   */\n    tag_32:\n        /* \"#utility.yul\":4063:4069   */\n      0x00\n        /* \"#utility.yul\":4112:4114   */\n      0x20\n        /* \"#utility.yul\":4100:4109   */\n      dup3\n        /* \"#utility.yul\":4091:4098   */\n      dup5\n        /* \"#utility.yul\":4087:4110   */\n      sub\n        /* \"#utility.yul\":4083:4115   */\n      slt\n        /* \"#utility.yul\":4080:4199   */\n      iszero\n      tag_421\n      jumpi\n        /* \"#utility.yul\":4118:4197   */\n      tag_422\n      tag_304\n      jump\t// in\n    tag_422:\n        /* \"#utility.yul\":4080:4199   */\n    tag_421:\n        /* \"#utility.yul\":4238:4239   */\n      0x00\n        /* \"#utility.yul\":4263:4316   */\n      tag_423\n        /* \"#utility.yul\":4308:4315   */\n      dup5\n        /* \"#utility.yul\":4299:4305   */\n      dup3\n        /* \"#utility.yul\":4288:4297   */\n      dup6\n        /* \"#utility.yul\":4284:4306   */\n      add\n        /* \"#utility.yul\":4263:4316   */\n      tag_308\n      jump\t// in\n    tag_423:\n        /* \"#utility.yul\":4253:4316   */\n      swap2\n      pop\n        /* \"#utility.yul\":4209:4326   */\n      pop\n        /* \"#utility.yul\":4004:4333   */\n      swap3\n      swap2\n      pop\n      pop\n      jump\t// out\n        /* \"#utility.yul\":4339:4457   */\n    tag_320:\n        /* \"#utility.yul\":4426:4450   */\n      tag_425\n        /* \"#utility.yul\":4444:4449   */\n      dup2\n        /* \"#utility.yul\":4426:4450   */\n      tag_306\n      jump\t// in\n    tag_425:\n        /* \"#utility.yul\":4421:4424   */\n      dup3\n        /* \"#utility.yul\":4414:4451   */\n      mstore\n        /* \"#utility.yul\":4339:4457   */\n      pop\n      pop\n      jump\t// out\n        /* \"#utility.yul\":4463:4685   */\n    tag_38:\n        /* \"#utility.yul\":4556:4560   */\n      0x00\n        /* \"#utility.yul\":4594:4596   */\n      0x20\n        /* \"#utility.yul\":4583:4592   */\n      dup3\n        /* \"#utility.yul\":4579:4597   */\n      add\n        /* \"#utility.yul\":4571:4597   */\n      swap1\n      pop\n        /* \"#utility.yul\":4607:4678   */\n      tag_427\n        /* \"#utility.yul\":4675:4676   */\n      0x00\n        /* \"#utility.yul\":4664:4673   */\n      dup4\n        /* \"#utility.yul\":4660:4677   */\n      add\n        /* \"#utility.yul\":4651:4657   */\n      dup5\n        /* \"#utility.yul\":4607:4678   */\n      tag_320\n      jump\t// in\n    tag_427:\n        /* \"#utility.yul\":4463:4685   */\n      swap3\n      swap2\n      pop\n      pop\n      jump\t// out\n        /* \"#utility.yul\":4691:4813   */\n    tag_321:\n        /* \"#utility.yul\":4764:4788   */\n      tag_429\n        /* \"#utility.yul\":4782:4787   */\n      dup2\n        /* \"#utility.yul\":4764:4788   */\n      tag_318\n      jump\t// in\n    tag_429:\n        /* \"#utility.yul\":4757:4762   */\n      dup2\n        /* \"#utility.yul\":4754:4789   */\n      eq\n        /* \"#utility.yul\":4744:4807   */\n      tag_430\n      jumpi\n        /* \"#utility.yul\":4803:4804   */\n      0x00\n        /* \"#utility.yul\":4800:4801   */\n      dup1\n        /* \"#utility.yul\":4793:4805   */\n      revert\n        /* \"#utility.yul\":4744:4807   */\n    tag_430:\n        /* \"#utility.yul\":4691:4813   */\n      pop\n      jump\t// out\n        /* \"#utility.yul\":4819:4958   */\n    tag_322:\n        /* \"#utility.yul\":4865:4870   */\n      0x00\n        /* \"#utility.yul\":4903:4909   */\n      dup2\n        /* \"#utility.yul\":4890:4910   */\n      calldataload\n        /* \"#utility.yul\":4881:4910   */\n      swap1\n      pop\n        /* \"#utility.yul\":4919:4952   */\n      tag_432\n        /* \"#utility.yul\":4946:4951   */\n      dup2\n        /* \"#utility.yul\":4919:4952   */\n      tag_321\n      jump\t// in\n    tag_432:\n        /* \"#utility.yul\":4819:4958   */\n      swap3\n      swap2\n      pop\n      pop\n      jump\t// out\n        /* \"#utility.yul\":4964:5293   */\n    tag_42:\n        /* \"#utility.yul\":5023:5029   */\n      0x00\n        /* \"#utility.yul\":5072:5074   */\n      0x20\n        /* \"#utility.yul\":5060:5069   */\n      dup3\n        /* \"#utility.yul\":5051:5058   */\n      dup5\n        /* \"#utility.yul\":5047:5070   */\n      sub\n        /* \"#utility.yul\":5043:5075   */\n      slt\n        /* \"#utility.yul\":5040:5159   */\n      iszero\n      tag_434\n      jumpi\n        /* \"#utility.yul\":5078:5157   */\n      tag_435\n      tag_304\n      jump\t// in\n    tag_435:\n        /* \"#utility.yul\":5040:5159   */\n    tag_434:\n        /* \"#utility.yul\":5198:5199   */\n      0x00\n        /* \"#utility.yul\":5223:5276   */\n      tag_436\n        /* \"#utility.yul\":5268:5275   */\n      dup5\n        /* \"#utility.yul\":5259:5265   */\n      dup3\n        /* \"#utility.yul\":5248:5257   */\n      dup6\n        /* \"#utility.yul\":5244:5266   */\n      add\n        /* \"#utility.yul\":5223:5276   */\n      tag_322\n      jump\t// in\n    tag_436:\n        /* \"#utility.yul\":5213:5276   */\n      swap2\n      pop\n        /* \"#utility.yul\":5169:5286   */\n      pop\n        /* \"#utility.yul\":4964:5293   */\n      swap3\n      swap2\n      pop\n      pop\n      jump\t// out\n        /* \"#utility.yul\":5299:6098   */\n    tag_48:\n        /* \"#utility.yul\":5386:5392   */\n      0x00\n        /* \"#utility.yul\":5394:5400   */\n      dup1\n        /* \"#utility.yul\":5402:5408   */\n      0x00\n        /* \"#utility.yul\":5451:5453   */\n      0x60\n        /* \"#utility.yul\":5439:5448   */\n      dup5\n        /* \"#utility.yul\":5430:5437   */\n      dup7\n        /* \"#utility.yul\":5426:5449   */\n      sub\n        /* \"#utility.yul\":5422:5454   */\n      slt\n        /* \"#utility.yul\":5419:5538   */\n      iszero\n      tag_438\n      jumpi\n        /* \"#utility.yul\":5457:5536   */\n      tag_439\n      tag_304\n      jump\t// in\n    tag_439:\n        /* \"#utility.yul\":5419:5538   */\n    tag_438:\n        /* \"#utility.yul\":5577:5578   */\n      0x00\n        /* \"#utility.yul\":5602:5655   */\n      tag_440\n        /* \"#utility.yul\":5647:5654   */\n      dup7\n        /* \"#utility.yul\":5638:5644   */\n      dup3\n        /* \"#utility.yul\":5627:5636   */\n      dup8\n        /* \"#utility.yul\":5623:5645   */\n      add\n        /* \"#utility.yul\":5602:5655   */\n      tag_308\n      jump\t// in\n    tag_440:\n        /* \"#utility.yul\":5592:5655   */\n      swap4\n      pop\n        /* \"#utility.yul\":5548:5665   */\n      pop\n        /* \"#utility.yul\":5704:5706   */\n      0x20\n        /* \"#utility.yul\":5730:5783   */\n      tag_441\n        /* \"#utility.yul\":5775:5782   */\n      dup7\n        /* \"#utility.yul\":5766:5772   */\n      dup3\n        /* \"#utility.yul\":5755:5764   */\n      dup8\n        /* \"#utility.yul\":5751:5773   */\n      add\n        /* \"#utility.yul\":5730:5783   */\n      tag_308\n      jump\t// in\n    tag_441:\n        /* \"#utility.yul\":5720:5783   */\n      swap3\n      pop\n        /* \"#utility.yul\":5675:5793   */\n      pop\n        /* \"#utility.yul\":5860:5862   */\n      0x40\n        /* \"#utility.yul\":5849:5858   */\n      dup5\n        /* \"#utility.yul\":5845:5863   */\n      add\n        /* \"#utility.yul\":5832:5864   */\n      calldataload\n        /* \"#utility.yul\":5891:5909   */\n      0xffffffffffffffff\n        /* \"#utility.yul\":5883:5889   */\n      dup2\n        /* \"#utility.yul\":5880:5910   */\n      gt\n        /* \"#utility.yul\":5877:5994   */\n      iszero\n      tag_442\n      jumpi\n        /* \"#utility.yul\":5913:5992   */\n      tag_443\n      tag_305\n      jump\t// in\n    tag_443:\n        /* \"#utility.yul\":5877:5994   */\n    tag_442:\n        /* \"#utility.yul\":6018:6081   */\n      tag_444\n        /* \"#utility.yul\":6073:6080   */\n      dup7\n        /* \"#utility.yul\":6064:6070   */\n      dup3\n        /* \"#utility.yul\":6053:6062   */\n      dup8\n        /* \"#utility.yul\":6049:6071   */\n      add\n        /* \"#utility.yul\":6018:6081   */\n      tag_317\n      jump\t// in\n    tag_444:\n        /* \"#utility.yul\":6008:6081   */\n      swap2\n      pop\n        /* \"#utility.yul\":5803:6091   */\n      pop\n        /* \"#utility.yul\":5299:6098   */\n      swap3\n      pop\n      swap3\n      pop\n      swap3\n      jump\t// out\n        /* \"#utility.yul\":6104:6230   */\n    tag_323:\n        /* \"#utility.yul\":6141:6148   */\n      0x00\n        /* \"#utility.yul\":6181:6223   */\n      0xffffffffffffffffffffffffffffffffffffffff\n        /* \"#utility.yul\":6174:6179   */\n      dup3\n        /* \"#utility.yul\":6170:6224   */\n      and\n        /* \"#utility.yul\":6159:6224   */\n      swap1\n      pop\n        /* \"#utility.yul\":6104:6230   */\n      swap2\n      swap1\n      pop\n      jump\t// out\n        /* \"#utility.yul\":6236:6332   */\n    tag_324:\n        /* \"#utility.yul\":6273:6280   */\n      0x00\n        /* \"#utility.yul\":6302:6326   */\n      tag_447\n        /* \"#utility.yul\":6320:6325   */\n      dup3\n        /* \"#utility.yul\":6302:6326   */\n      tag_323\n      jump\t// in\n    tag_447:\n        /* \"#utility.yul\":6291:6326   */\n      swap1\n      pop\n        /* \"#utility.yul\":6236:6332   */\n      swap2\n      swap1\n      pop\n      jump\t// out\n        /* \"#utility.yul\":6338:6456   */\n    tag_325:\n        /* \"#utility.yul\":6425:6449   */\n      tag_449\n        /* \"#utility.yul\":6443:6448   */\n      dup2\n        /* \"#utility.yul\":6425:6449   */\n      tag_324\n      jump\t// in\n    tag_449:\n        /* \"#utility.yul\":6420:6423   */\n      dup3\n        /* \"#utility.yul\":6413:6450   */\n      mstore\n        /* \"#utility.yul\":6338:6456   */\n      pop\n      pop\n      jump\t// out\n        /* \"#utility.yul\":6462:6684   */\n    tag_66:\n        /* \"#utility.yul\":6555:6559   */\n      0x00\n        /* \"#utility.yul\":6593:6595   */\n      0x20\n        /* \"#utility.yul\":6582:6591   */\n      dup3\n        /* \"#utility.yul\":6578:6596   */\n      add\n        /* \"#utility.yul\":6570:6596   */\n      swap1\n      pop\n        /* \"#utility.yul\":6606:6677   */\n      tag_451\n        /* \"#utility.yul\":6674:6675   */\n      0x00\n        /* \"#utility.yul\":6663:6672   */\n      dup4\n        /* \"#utility.yul\":6659:6676   */\n      add\n        /* \"#utility.yul\":6650:6656   */\n      dup5\n        /* \"#utility.yul\":6606:6677   */\n      tag_325\n      jump\t// in\n    tag_451:\n        /* \"#utility.yul\":6462:6684   */\n      swap3\n      swap2\n      pop\n      pop\n      jump\t// out\n        /* \"#utility.yul\":6690:7164   */\n    tag_70:\n        /* \"#utility.yul\":6758:6764   */\n      0x00\n        /* \"#utility.yul\":6766:6772   */\n      dup1\n        /* \"#utility.yul\":6815:6817   */\n      0x40\n        /* \"#utility.yul\":6803:6812   */\n      dup4\n        /* \"#utility.yul\":6794:6801   */\n      dup6\n        /* \"#utility.yul\":6790:6813   */\n      sub\n        /* \"#utility.yul\":6786:6818   */\n      slt\n        /* \"#utility.yul\":6783:6902   */\n      iszero\n      tag_453\n      jumpi\n        /* \"#utility.yul\":6821:6900   */\n      tag_454\n      tag_304\n      jump\t// in\n    tag_454:\n        /* \"#utility.yul\":6783:6902   */\n    tag_453:\n        /* \"#utility.yul\":6941:6942   */\n      0x00\n        /* \"#utility.yul\":6966:7019   */\n      tag_455\n        /* \"#utility.yul\":7011:7018   */\n      dup6\n        /* \"#utility.yul\":7002:7008   */\n      dup3\n        /* \"#utility.yul\":6991:7000   */\n      dup7\n        /* \"#utility.yul\":6987:7009   */\n      add\n        /* \"#utility.yul\":6966:7019   */\n      tag_322\n      jump\t// in\n    tag_455:\n        /* \"#utility.yul\":6956:7019   */\n      swap3\n      pop\n        /* \"#utility.yul\":6912:7029   */\n      pop\n        /* \"#utility.yul\":7068:7070   */\n      0x20\n        /* \"#utility.yul\":7094:7147   */\n      tag_456\n        /* \"#utility.yul\":7139:7146   */\n      dup6\n        /* \"#utility.yul\":7130:7136   */\n      dup3\n        /* \"#utility.yul\":7119:7128   */\n      dup7\n        /* \"#utility.yul\":7115:7137   */\n      add\n        /* \"#utility.yul\":7094:7147   */\n      tag_322\n      jump\t// in\n    tag_456:\n        /* \"#utility.yul\":7084:7147   */\n      swap2\n      pop\n        /* \"#utility.yul\":7039:7157   */\n      pop\n        /* \"#utility.yul\":6690:7164   */\n      swap3\n      pop\n      swap3\n      swap1\n      pop\n      jump\t// out\n        /* \"#utility.yul\":7170:7260   */\n    tag_326:\n        /* \"#utility.yul\":7204:7211   */\n      0x00\n        /* \"#utility.yul\":7247:7252   */\n      dup2\n        /* \"#utility.yul\":7240:7253   */\n      iszero\n        /* \"#utility.yul\":7233:7254   */\n      iszero\n        /* \"#utility.yul\":7222:7254   */\n      swap1\n      pop\n        /* \"#utility.yul\":7170:7260   */\n      swap2\n      swap1\n      pop\n      jump\t// out\n        /* \"#utility.yul\":7266:7375   */\n    tag_327:\n        /* \"#utility.yul\":7347:7368   */\n      tag_459\n        /* \"#utility.yul\":7362:7367   */\n      dup2\n        /* \"#utility.yul\":7347:7368   */\n      tag_326\n      jump\t// in\n    tag_459:\n        /* \"#utility.yul\":7342:7345   */\n      dup3\n        /* \"#utility.yul\":7335:7369   */\n      mstore\n        /* \"#utility.yul\":7266:7375   */\n      pop\n      pop\n      jump\t// out\n        /* \"#utility.yul\":7381:7591   */\n    tag_80:\n        /* \"#utility.yul\":7468:7472   */\n      0x00\n        /* \"#utility.yul\":7506:7508   */\n      0x20\n        /* \"#utility.yul\":7495:7504   */\n      dup3\n        /* \"#utility.yul\":7491:7509   */\n      add\n        /* \"#utility.yul\":7483:7509   */\n      swap1\n      pop\n        /* \"#utility.yul\":7519:7584   */\n      tag_461\n        /* \"#utility.yul\":7581:7582   */\n      0x00\n        /* \"#utility.yul\":7570:7579   */\n      dup4\n        /* \"#utility.yul\":7566:7583   */\n      add\n        /* \"#utility.yul\":7557:7563   */\n      dup5\n        /* \"#utility.yul\":7519:7584   */\n      tag_327\n      jump\t// in\n    tag_461:\n        /* \"#utility.yul\":7381:7591   */\n      swap3\n      swap2\n      pop\n      pop\n      jump\t// out\n        /* \"#utility.yul\":7597:7696   */\n    tag_328:\n        /* \"#utility.yul\":7649:7655   */\n      0x00\n        /* \"#utility.yul\":7683:7688   */\n      dup2\n        /* \"#utility.yul\":7677:7689   */\n      mload\n        /* \"#utility.yul\":7667:7689   */\n      swap1\n      pop\n        /* \"#utility.yul\":7597:7696   */\n      swap2\n      swap1\n      pop\n      jump\t// out\n        /* \"#utility.yul\":7702:7871   */\n    tag_329:\n        /* \"#utility.yul\":7786:7797   */\n      0x00\n        /* \"#utility.yul\":7820:7826   */\n      dup3\n        /* \"#utility.yul\":7815:7818   */\n      dup3\n        /* \"#utility.yul\":7808:7827   */\n      mstore\n        /* \"#utility.yul\":7860:7864   */\n      0x20\n        /* \"#utility.yul\":7855:7858   */\n      dup3\n        /* \"#utility.yul\":7851:7865   */\n      add\n        /* \"#utility.yul\":7836:7865   */\n      swap1\n      pop\n        /* \"#utility.yul\":7702:7871   */\n      swap3\n      swap2\n      pop\n      pop\n      jump\t// out\n        /* \"#utility.yul\":7877:8123   */\n    tag_330:\n        /* \"#utility.yul\":7958:7959   */\n      0x00\n        /* \"#utility.yul\":7968:8081   */\n    tag_465:\n        /* \"#utility.yul\":7982:7988   */\n      dup4\n        /* \"#utility.yul\":7979:7980   */\n      dup2\n        /* \"#utility.yul\":7976:7989   */\n      lt\n        /* \"#utility.yul\":7968:8081   */\n      iszero\n      tag_467\n      jumpi\n        /* \"#utility.yul\":8067:8068   */\n      dup1\n        /* \"#utility.yul\":8062:8065   */\n      dup3\n        /* \"#utility.yul\":8058:8069   */\n      add\n        /* \"#utility.yul\":8052:8070   */\n      mload\n        /* \"#utility.yul\":8048:8049   */\n      dup2\n        /* \"#utility.yul\":8043:8046   */\n      dup5\n        /* \"#utility.yul\":8039:8050   */\n      add\n        /* \"#utility.yul\":8032:8071   */\n      mstore\n        /* \"#utility.yul\":8004:8006   */\n      0x20\n        /* \"#utility.yul\":8001:8002   */\n      dup2\n        /* \"#utility.yul\":7997:8007   */\n      add\n        /* \"#utility.yul\":7992:8007   */\n      swap1\n      pop\n        /* \"#utility.yul\":7968:8081   */\n      jump(tag_465)\n    tag_467:\n        /* \"#utility.yul\":8115:8116   */\n      0x00\n        /* \"#utility.yul\":8106:8112   */\n      dup5\n        /* \"#utility.yul\":8101:8104   */\n      dup5\n        /* \"#utility.yul\":8097:8113   */\n      add\n        /* \"#utility.yul\":8090:8117   */\n      mstore\n        /* \"#utility.yul\":7939:8123   */\n      pop\n        /* \"#utility.yul\":7877:8123   */\n      pop\n      pop\n      pop\n      jump\t// out\n        /* \"#utility.yul\":8129:8506   */\n    tag_331:\n        /* \"#utility.yul\":8217:8220   */\n      0x00\n        /* \"#utility.yul\":8245:8284   */\n      tag_469\n        /* \"#utility.yul\":8278:8283   */\n      dup3\n        /* \"#utility.yul\":8245:8284   */\n      tag_328\n      jump\t// in\n    tag_469:\n        /* \"#utility.yul\":8300:8371   */\n      tag_470\n        /* \"#utility.yul\":8364:8370   */\n      dup2\n        /* \"#utility.yul\":8359:8362   */\n      dup6\n        /* \"#utility.yul\":8300:8371   */\n      tag_329\n      jump\t// in\n    tag_470:\n        /* \"#utility.yul\":8293:8371   */\n      swap4\n      pop\n        /* \"#utility.yul\":8380:8445   */\n      tag_471\n        /* \"#utility.yul\":8438:8444   */\n      dup2\n        /* \"#utility.yul\":8433:8436   */\n      dup6\n        /* \"#utility.yul\":8426:8430   */\n      0x20\n        /* \"#utility.yul\":8419:8424   */\n      dup7\n        /* \"#utility.yul\":8415:8431   */\n      add\n        /* \"#utility.yul\":8380:8445   */\n      tag_330\n      jump\t// in\n    tag_471:\n        /* \"#utility.yul\":8470:8499   */\n      tag_472\n        /* \"#utility.yul\":8492:8498   */\n      dup2\n        /* \"#utility.yul\":8470:8499   */\n      tag_311\n      jump\t// in\n    tag_472:\n        /* \"#utility.yul\":8465:8468   */\n      dup5\n        /* \"#utility.yul\":8461:8500   */\n      add\n        /* \"#utility.yul\":8454:8500   */\n      swap2\n      pop\n        /* \"#utility.yul\":8221:8506   */\n      pop\n        /* \"#utility.yul\":8129:8506   */\n      swap3\n      swap2\n      pop\n      pop\n      jump\t// out\n        /* \"#utility.yul\":8512:8935   */\n    tag_97:\n        /* \"#utility.yul\":8653:8657   */\n      0x00\n        /* \"#utility.yul\":8691:8693   */\n      0x40\n        /* \"#utility.yul\":8680:8689   */\n      dup3\n        /* \"#utility.yul\":8676:8694   */\n      add\n        /* \"#utility.yul\":8668:8694   */\n      swap1\n      pop\n        /* \"#utility.yul\":8740:8749   */\n      dup2\n        /* \"#utility.yul\":8734:8738   */\n      dup2\n        /* \"#utility.yul\":8730:8750   */\n      sub\n        /* \"#utility.yul\":8726:8727   */\n      0x00\n        /* \"#utility.yul\":8715:8724   */\n      dup4\n        /* \"#utility.yul\":8711:8728   */\n      add\n        /* \"#utility.yul\":8704:8751   */\n      mstore\n        /* \"#utility.yul\":8768:8846   */\n      tag_474\n        /* \"#utility.yul\":8841:8845   */\n      dup2\n        /* \"#utility.yul\":8832:8838   */\n      dup6\n        /* \"#utility.yul\":8768:8846   */\n      tag_331\n      jump\t// in\n    tag_474:\n        /* \"#utility.yul\":8760:8846   */\n      swap1\n      pop\n        /* \"#utility.yul\":8856:8928   */\n      tag_475\n        /* \"#utility.yul\":8924:8926   */\n      0x20\n        /* \"#utility.yul\":8913:8922   */\n      dup4\n        /* \"#utility.yul\":8909:8927   */\n      add\n        /* \"#utility.yul\":8900:8906   */\n      dup5\n        /* \"#utility.yul\":8856:8928   */\n      tag_320\n      jump\t// in\n    tag_475:\n        /* \"#utility.yul\":8512:8935   */\n      swap4\n      swap3\n      pop\n      pop\n      pop\n      jump\t// out\n        /* \"#utility.yul\":8941:9089   */\n    tag_332:\n        /* \"#utility.yul\":9043:9054   */\n      0x00\n        /* \"#utility.yul\":9080:9083   */\n      dup2\n        /* \"#utility.yul\":9065:9083   */\n      swap1\n      pop\n        /* \"#utility.yul\":8941:9089   */\n      swap3\n      swap2\n      pop\n      pop\n      jump\t// out\n        /* \"#utility.yul\":9095:9485   */\n    tag_333:\n        /* \"#utility.yul\":9201:9204   */\n      0x00\n        /* \"#utility.yul\":9229:9268   */\n      tag_478\n        /* \"#utility.yul\":9262:9267   */\n      dup3\n        /* \"#utility.yul\":9229:9268   */\n      tag_328\n      jump\t// in\n    tag_478:\n        /* \"#utility.yul\":9284:9373   */\n      tag_479\n        /* \"#utility.yul\":9366:9372   */\n      dup2\n        /* \"#utility.yul\":9361:9364   */\n      dup6\n        /* \"#utility.yul\":9284:9373   */\n      tag_332\n      jump\t// in\n    tag_479:\n        /* \"#utility.yul\":9277:9373   */\n      swap4\n      pop\n        /* \"#utility.yul\":9382:9447   */\n      tag_480\n        /* \"#utility.yul\":9440:9446   */\n      dup2\n        /* \"#utility.yul\":9435:9438   */\n      dup6\n        /* \"#utility.yul\":9428:9432   */\n      0x20\n        /* \"#utility.yul\":9421:9426   */\n      dup7\n        /* \"#utility.yul\":9417:9433   */\n      add\n        /* \"#utility.yul\":9382:9447   */\n      tag_330\n      jump\t// in\n    tag_480:\n        /* \"#utility.yul\":9472:9478   */\n      dup1\n        /* \"#utility.yul\":9467:9470   */\n      dup5\n        /* \"#utility.yul\":9463:9479   */\n      add\n        /* \"#utility.yul\":9456:9479   */\n      swap2\n      pop\n        /* \"#utility.yul\":9205:9485   */\n      pop\n        /* \"#utility.yul\":9095:9485   */\n      swap3\n      swap2\n      pop\n      pop\n      jump\t// out\n        /* \"#utility.yul\":9491:9766   */\n    tag_104:\n        /* \"#utility.yul\":9623:9626   */\n      0x00\n        /* \"#utility.yul\":9645:9740   */\n      tag_482\n        /* \"#utility.yul\":9736:9739   */\n      dup3\n        /* \"#utility.yul\":9727:9733   */\n      dup5\n        /* \"#utility.yul\":9645:9740   */\n      tag_333\n      jump\t// in\n    tag_482:\n        /* \"#utility.yul\":9638:9740   */\n      swap2\n      pop\n        /* \"#utility.yul\":9757:9760   */\n      dup2\n        /* \"#utility.yul\":9750:9760   */\n      swap1\n      pop\n        /* \"#utility.yul\":9491:9766   */\n      swap3\n      swap2\n      pop\n      pop\n      jump\t// out\n        /* \"#utility.yul\":9772:9870   */\n    tag_334:\n        /* \"#utility.yul\":9823:9829   */\n      0x00\n        /* \"#utility.yul\":9857:9862   */\n      dup2\n        /* \"#utility.yul\":9851:9863   */\n      mload\n        /* \"#utility.yul\":9841:9863   */\n      swap1\n      pop\n        /* \"#utility.yul\":9772:9870   */\n      swap2\n      swap1\n      pop\n      jump\t// out\n        /* \"#utility.yul\":9876:9992   */\n    tag_335:\n        /* \"#utility.yul\":9927:9931   */\n      0x00\n        /* \"#utility.yul\":9950:9953   */\n      dup2\n        /* \"#utility.yul\":9942:9953   */\n      swap1\n      pop\n        /* \"#utility.yul\":9980:9984   */\n      0x20\n        /* \"#utility.yul\":9975:9978   */\n      dup3\n        /* \"#utility.yul\":9971:9985   */\n      add\n        /* \"#utility.yul\":9963:9985   */\n      swap1\n      pop\n        /* \"#utility.yul\":9876:9992   */\n      swap2\n      swap1\n      pop\n      jump\t// out\n        /* \"#utility.yul\":9998:10152   */\n    tag_336:\n        /* \"#utility.yul\":10041:10052   */\n      0x00\n        /* \"#utility.yul\":10077:10106   */\n      tag_486\n        /* \"#utility.yul\":10101:10104   */\n      dup3\n        /* \"#utility.yul\":10095:10105   */\n      mload\n        /* \"#utility.yul\":10077:10106   */\n      tag_318\n      jump\t// in\n    tag_486:\n        /* \"#utility.yul\":10140:10145   */\n      dup1\n        /* \"#utility.yul\":10116:10145   */\n      swap2\n      pop\n        /* \"#utility.yul\":10053:10152   */\n      pop\n        /* \"#utility.yul\":9998:10152   */\n      swap2\n      swap1\n      pop\n      jump\t// out\n        /* \"#utility.yul\":10158:10265   */\n    tag_337:\n        /* \"#utility.yul\":10202:10210   */\n      0x00\n        /* \"#utility.yul\":10252:10257   */\n      dup3\n        /* \"#utility.yul\":10246:10250   */\n      dup3\n        /* \"#utility.yul\":10242:10258   */\n      shl\n        /* \"#utility.yul\":10221:10258   */\n      swap1\n      pop\n        /* \"#utility.yul\":10158:10265   */\n      swap3\n      swap2\n      pop\n      pop\n      jump\t// out\n        /* \"#utility.yul\":10271:10865   */\n    tag_106:\n        /* \"#utility.yul\":10355:10360   */\n      0x00\n        /* \"#utility.yul\":10386:10424   */\n      tag_489\n        /* \"#utility.yul\":10418:10423   */\n      dup3\n        /* \"#utility.yul\":10386:10424   */\n      tag_334\n      jump\t// in\n    tag_489:\n        /* \"#utility.yul\":10449:10454   */\n      dup3\n        /* \"#utility.yul\":10476:10516   */\n      tag_490\n        /* \"#utility.yul\":10510:10515   */\n      dup5\n        /* \"#utility.yul\":10476:10516   */\n      tag_335\n      jump\t// in\n    tag_490:\n        /* \"#utility.yul\":10464:10516   */\n      swap1\n      pop\n        /* \"#utility.yul\":10535:10570   */\n      tag_491\n        /* \"#utility.yul\":10561:10569   */\n      dup2\n        /* \"#utility.yul\":10535:10570   */\n      tag_336\n      jump\t// in\n    tag_491:\n        /* \"#utility.yul\":10526:10570   */\n      swap3\n      pop\n        /* \"#utility.yul\":10594:10596   */\n      0x20\n        /* \"#utility.yul\":10586:10592   */\n      dup3\n        /* \"#utility.yul\":10583:10597   */\n      lt\n        /* \"#utility.yul\":10580:10858   */\n      iszero\n      tag_492\n      jumpi\n        /* \"#utility.yul\":10665:10834   */\n      tag_493\n        /* \"#utility.yul\":10750:10816   */\n      0xffffffffffffffffffffffffffffffffffffffffffffffffffffffffffffffff\n        /* \"#utility.yul\":10720:10726   */\n      dup4\n        /* \"#utility.yul\":10716:10718   */\n      0x20\n        /* \"#utility.yul\":10712:10727   */\n      sub\n        /* \"#utility.yul\":10709:10710   */\n      0x08\n        /* \"#utility.yul\":10705:10728   */\n      mul\n        /* \"#utility.yul\":10665:10834   */\n      tag_337\n      jump\t// in\n    tag_493:\n        /* \"#utility.yul\":10642:10647   */\n      dup4\n        /* \"#utility.yul\":10621:10848   */\n      and\n        /* \"#utility.yul\":10612:10848   */\n      swap3\n      pop\n        /* \"#utility.yul\":10580:10858   */\n    tag_492:\n        /* \"#utility.yul\":10361:10865   */\n      pop\n      pop\n        /* \"#utility.yul\":10271:10865   */\n      swap2\n      swap1\n      pop\n      jump\t// out\n        /* \"#utility.yul\":10871:10950   */\n    tag_338:\n        /* \"#utility.yul\":10910:10917   */\n      0x00\n        /* \"#utility.yul\":10939:10944   */\n      dup2\n        /* \"#utility.yul\":10928:10944   */\n      swap1\n      pop\n        /* \"#utility.yul\":10871:10950   */\n      swap2\n      swap1\n      pop\n      jump\t// out\n        /* \"#utility.yul\":10956:11113   */\n    tag_339:\n        /* \"#utility.yul\":11061:11106   */\n      tag_496\n        /* \"#utility.yul\":11081:11105   */\n      tag_497\n        /* \"#utility.yul\":11099:11104   */\n      dup3\n        /* \"#utility.yul\":11081:11105   */\n      tag_306\n      jump\t// in\n    tag_497:\n        /* \"#utility.yul\":11061:11106   */\n      tag_338\n      jump\t// in\n    tag_496:\n        /* \"#utility.yul\":11056:11059   */\n      dup3\n        /* \"#utility.yul\":11049:11107   */\n      mstore\n        /* \"#utility.yul\":10956:11113   */\n      pop\n      pop\n      jump\t// out\n        /* \"#utility.yul\":11119:11198   */\n    tag_340:\n        /* \"#utility.yul\":11158:11165   */\n      0x00\n        /* \"#utility.yul\":11187:11192   */\n      dup2\n        /* \"#utility.yul\":11176:11192   */\n      swap1\n      pop\n        /* \"#utility.yul\":11119:11198   */\n      swap2\n      swap1\n      pop\n      jump\t// out\n        /* \"#utility.yul\":11204:11361   */\n    tag_341:\n        /* \"#utility.yul\":11309:11354   */\n      tag_500\n        /* \"#utility.yul\":11329:11353   */\n      tag_501\n        /* \"#utility.yul\":11347:11352   */\n      dup3\n        /* \"#utility.yul\":11329:11353   */\n      tag_318\n      jump\t// in\n    tag_501:\n        /* \"#utility.yul\":11309:11354   */\n      tag_340\n      jump\t// in\n    tag_500:\n        /* \"#utility.yul\":11304:11307   */\n      dup3\n        /* \"#utility.yul\":11297:11355   */\n      mstore\n        /* \"#utility.yul\":11204:11361   */\n      pop\n      pop\n      jump\t// out\n        /* \"#utility.yul\":11367:11764   */\n    tag_108:\n        /* \"#utility.yul\":11507:11510   */\n      0x00\n        /* \"#utility.yul\":11522:11597   */\n      tag_503\n        /* \"#utility.yul\":11593:11596   */\n      dup3\n        /* \"#utility.yul\":11584:11590   */\n      dup6\n        /* \"#utility.yul\":11522:11597   */\n      tag_339\n      jump\t// in\n    tag_503:\n        /* \"#utility.yul\":11622:11624   */\n      0x20\n        /* \"#utility.yul\":11617:11620   */\n      dup3\n        /* \"#utility.yul\":11613:11625   */\n      add\n        /* \"#utility.yul\":11606:11625   */\n      swap2\n      pop\n        /* \"#utility.yul\":11635:11710   */\n      tag_504\n        /* \"#utility.yul\":11706:11709   */\n      dup3\n        /* \"#utility.yul\":11697:11703   */\n      dup5\n        /* \"#utility.yul\":11635:11710   */\n      tag_341\n      jump\t// in\n    tag_504:\n        /* \"#utility.yul\":11735:11737   */\n      0x20\n        /* \"#utility.yul\":11730:11733   */\n      dup3\n        /* \"#utility.yul\":11726:11738   */\n      add\n        /* \"#utility.yul\":11719:11738   */\n      swap2\n      pop\n        /* \"#utility.yul\":11755:11758   */\n      dup2\n        /* \"#utility.yul\":11748:11758   */\n      swap1\n      pop\n        /* \"#utility.yul\":11367:11764   */\n      swap4\n      swap3\n      pop\n      pop\n      pop\n      jump\t// out\n        /* \"#utility.yul\":11770:11950   */\n    tag_342:\n        /* \"#utility.yul\":11818:11895   */\n      0x4e487b7100000000000000000000000000000000000000000000000000000000\n        /* \"#utility.yul\":11815:11816   */\n      0x00\n        /* \"#utility.yul\":11808:11896   */\n      mstore\n        /* \"#utility.yul\":11915:11919   */\n      0x11\n        /* \"#utility.yul\":11912:11913   */\n      0x04\n        /* \"#utility.yul\":11905:11920   */\n      mstore\n        /* \"#utility.yul\":11939:11943   */\n      0x24\n        /* \"#utility.yul\":11936:11937   */\n      0x00\n        /* \"#utility.yul\":11929:11944   */\n      revert\n        /* \"#utility.yul\":11956:12147   */\n    tag_111:\n        /* \"#utility.yul\":11996:11999   */\n      0x00\n        /* \"#utility.yul\":12015:12035   */\n      tag_507\n        /* \"#utility.yul\":12033:12034   */\n      dup3\n        /* \"#utility.yul\":12015:12035   */\n      tag_306\n      jump\t// in\n    tag_507:\n        /* \"#utility.yul\":12010:12035   */\n      swap2\n      pop\n        /* \"#utility.yul\":12049:12069   */\n      tag_508\n        /* \"#utility.yul\":12067:12068   */\n      dup4\n        /* \"#utility.yul\":12049:12069   */\n      tag_306\n      jump\t// in\n    tag_508:\n        /* \"#utility.yul\":12044:12069   */\n      swap3\n      pop\n        /* \"#utility.yul\":12092:12093   */\n      dup3\n        /* \"#utility.yul\":12089:12090   */\n      dup3\n        /* \"#utility.yul\":12085:12094   */\n      add\n        /* \"#utility.yul\":12078:12094   */\n      swap1\n      pop\n        /* \"#utility.yul\":12113:12116   */\n      dup1\n        /* \"#utility.yul\":12110:12111   */\n      dup3\n        /* \"#utility.yul\":12107:12117   */\n      gt\n        /* \"#utility.yul\":12104:12140   */\n      iszero\n      tag_509\n      jumpi\n        /* \"#utility.yul\":12120:12138   */\n      tag_510\n      tag_342\n      jump\t// in\n    tag_510:\n        /* \"#utility.yul\":12104:12140   */\n    tag_509:\n        /* \"#utility.yul\":11956:12147   */\n      swap3\n      swap2\n      pop\n      pop\n      jump\t// out\n        /* \"#utility.yul\":12153:12325   */\n    tag_343:\n        /* \"#utility.yul\":12293:12317   */\n      0x4f7574206f6620776974686472617720706572696f6400000000000000000000\n        /* \"#utility.yul\":12289:12290   */\n      0x00\n        /* \"#utility.yul\":12281:12287   */\n      dup3\n        /* \"#utility.yul\":12277:12291   */\n      add\n        /* \"#utility.yul\":12270:12318   */\n      mstore\n        /* \"#utility.yul\":12153:12325   */\n      pop\n      jump\t// out\n        /* \"#utility.yul\":12331:12697   */\n    tag_344:\n        /* \"#utility.yul\":12473:12476   */\n      0x00\n        /* \"#utility.yul\":12494:12561   */\n      tag_513\n        /* \"#utility.yul\":12558:12560   */\n      0x16\n        /* \"#utility.yul\":12553:12556   */\n      dup4\n        /* \"#utility.yul\":12494:12561   */\n      tag_329\n      jump\t// in\n    tag_513:\n        /* \"#utility.yul\":12487:12561   */\n      swap2\n      pop\n        /* \"#utility.yul\":12570:12663   */\n      tag_514\n        /* \"#utility.yul\":12659:12662   */\n      dup3\n        /* \"#utility.yul\":12570:12663   */\n      tag_343\n      jump\t// in\n    tag_514:\n        /* \"#utility.yul\":12688:12690   */\n      0x20\n        /* \"#utility.yul\":12683:12686   */\n      dup3\n        /* \"#utility.yul\":12679:12691   */\n      add\n        /* \"#utility.yul\":12672:12691   */\n      swap1\n      pop\n        /* \"#utility.yul\":12331:12697   */\n      swap2\n      swap1\n      pop\n      jump\t// out\n        /* \"#utility.yul\":12703:13122   */\n    tag_116:\n        /* \"#utility.yul\":12869:12873   */\n      0x00\n        /* \"#utility.yul\":12907:12909   */\n      0x20\n        /* \"#utility.yul\":12896:12905   */\n      dup3\n        /* \"#utility.yul\":12892:12910   */\n      add\n        /* \"#utility.yul\":12884:12910   */\n      swap1\n      pop\n        /* \"#utility.yul\":12956:12965   */\n      dup2\n        /* \"#utility.yul\":12950:12954   */\n      dup2\n        /* \"#utility.yul\":12946:12966   */\n      sub\n        /* \"#utility.yul\":12942:12943   */\n      0x00\n        /* \"#utility.yul\":12931:12940   */\n      dup4\n        /* \"#utility.yul\":12927:12944   */\n      add\n        /* \"#utility.yul\":12920:12967   */\n      mstore\n        /* \"#utility.yul\":12984:13115   */\n      tag_516\n        /* \"#utility.yul\":13110:13114   */\n      dup2\n        /* \"#utility.yul\":12984:13115   */\n      tag_344\n      jump\t// in\n    tag_516:\n        /* \"#utility.yul\":12976:13115   */\n      swap1\n      pop\n        /* \"#utility.yul\":12703:13122   */\n      swap2\n      swap1\n      pop\n      jump\t// out\n        /* \"#utility.yul\":13128:13289   */\n    tag_345:\n        /* \"#utility.yul\":13268:13281   */\n      0x57726f6e6720496e646578000000000000000000000000000000000000000000\n        /* \"#utility.yul\":13264:13265   */\n      0x00\n        /* \"#utility.yul\":13256:13262   */\n      dup3\n        /* \"#utility.yul\":13252:13266   */\n      add\n        /* \"#utility.yul\":13245:13282   */\n      mstore\n        /* \"#utility.yul\":13128:13289   */\n      pop\n      jump\t// out\n        /* \"#utility.yul\":13295:13661   */\n    tag_346:\n        /* \"#utility.yul\":13437:13440   */\n      0x00\n        /* \"#utility.yul\":13458:13525   */\n      tag_519\n        /* \"#utility.yul\":13522:13524   */\n      0x0b\n        /* \"#utility.yul\":13517:13520   */\n      dup4\n        /* \"#utility.yul\":13458:13525   */\n      tag_329\n      jump\t// in\n    tag_519:\n        /* \"#utility.yul\":13451:13525   */\n      swap2\n      pop\n        /* \"#utility.yul\":13534:13627   */\n      tag_520\n        /* \"#utility.yul\":13623:13626   */\n      dup3\n        /* \"#utility.yul\":13534:13627   */\n      tag_345\n      jump\t// in\n    tag_520:\n        /* \"#utility.yul\":13652:13654   */\n      0x20\n        /* \"#utility.yul\":13647:13650   */\n      dup3\n        /* \"#utility.yul\":13643:13655   */\n      add\n        /* \"#utility.yul\":13636:13655   */\n      swap1\n      pop\n        /* \"#utility.yul\":13295:13661   */\n      swap2\n      swap1\n      pop\n      jump\t// out\n        /* \"#utility.yul\":13667:14086   */\n    tag_119:\n        /* \"#utility.yul\":13833:13837   */\n      0x00\n        /* \"#utility.yul\":13871:13873   */\n      0x20\n        /* \"#utility.yul\":13860:13869   */\n      dup3\n        /* \"#utility.yul\":13856:13874   */\n      add\n        /* \"#utility.yul\":13848:13874   */\n      swap1\n      pop\n        /* \"#utility.yul\":13920:13929   */\n      dup2\n        /* \"#utility.yul\":13914:13918   */\n      dup2\n        /* \"#utility.yul\":13910:13930   */\n      sub\n        /* \"#utility.yul\":13906:13907   */\n      0x00\n        /* \"#utility.yul\":13895:13904   */\n      dup4\n        /* \"#utility.yul\":13891:13908   */\n      add\n        /* \"#utility.yul\":13884:13931   */\n      mstore\n        /* \"#utility.yul\":13948:14079   */\n      tag_522\n        /* \"#utility.yul\":14074:14078   */\n      dup2\n        /* \"#utility.yul\":13948:14079   */\n      tag_346\n      jump\t// in\n    tag_522:\n        /* \"#utility.yul\":13940:14079   */\n      swap1\n      pop\n        /* \"#utility.yul\":13667:14086   */\n      swap2\n      swap1\n      pop\n      jump\t// out\n        /* \"#utility.yul\":14092:14263   */\n    tag_124:\n        /* \"#utility.yul\":14131:14134   */\n      0x00\n        /* \"#utility.yul\":14154:14178   */\n      tag_524\n        /* \"#utility.yul\":14172:14177   */\n      dup3\n        /* \"#utility.yul\":14154:14178   */\n      tag_306\n      jump\t// in\n    tag_524:\n        /* \"#utility.yul\":14145:14178   */\n      swap2\n      pop\n        /* \"#utility.yul\":14200:14204   */\n      0x00\n        /* \"#utility.yul\":14193:14198   */\n      dup3\n        /* \"#utility.yul\":14190:14205   */\n      sub\n        /* \"#utility.yul\":14187:14228   */\n      tag_525\n      jumpi\n        /* \"#utility.yul\":14208:14226   */\n      tag_526\n      tag_342\n      jump\t// in\n    tag_526:\n        /* \"#utility.yul\":14187:14228   */\n    tag_525:\n        /* \"#utility.yul\":14255:14256   */\n      0x01\n        /* \"#utility.yul\":14248:14253   */\n      dup3\n        /* \"#utility.yul\":14244:14257   */\n      sub\n        /* \"#utility.yul\":14237:14257   */\n      swap1\n      pop\n        /* \"#utility.yul\":14092:14263   */\n      swap2\n      swap1\n      pop\n      jump\t// out\n        /* \"#utility.yul\":14269:14363   */\n    tag_347:\n        /* \"#utility.yul\":14302:14310   */\n      0x00\n        /* \"#utility.yul\":14350:14355   */\n      dup2\n        /* \"#utility.yul\":14346:14348   */\n      0x60\n        /* \"#utility.yul\":14342:14356   */\n      shl\n        /* \"#utility.yul\":14321:14356   */\n      swap1\n      pop\n        /* \"#utility.yul\":14269:14363   */\n      swap2\n      swap1\n      pop\n      jump\t// out\n        /* \"#utility.yul\":14369:14463   */\n    tag_348:\n        /* \"#utility.yul\":14408:14415   */\n      0x00\n        /* \"#utility.yul\":14437:14457   */\n      tag_529\n        /* \"#utility.yul\":14451:14456   */\n      dup3\n        /* \"#utility.yul\":14437:14457   */\n      tag_347\n      jump\t// in\n    tag_529:\n        /* \"#utility.yul\":14426:14457   */\n      swap1\n      pop\n        /* \"#utility.yul\":14369:14463   */\n      swap2\n      swap1\n      pop\n      jump\t// out\n        /* \"#utility.yul\":14469:14569   */\n    tag_349:\n        /* \"#utility.yul\":14508:14515   */\n      0x00\n        /* \"#utility.yul\":14537:14563   */\n      tag_531\n        /* \"#utility.yul\":14557:14562   */\n      dup3\n        /* \"#utility.yul\":14537:14563   */\n      tag_348\n      jump\t// in\n    tag_531:\n        /* \"#utility.yul\":14526:14563   */\n      swap1\n      pop\n        /* \"#utility.yul\":14469:14569   */\n      swap2\n      swap1\n      pop\n      jump\t// out\n        /* \"#utility.yul\":14575:14732   */\n    tag_350:\n        /* \"#utility.yul\":14680:14725   */\n      tag_533\n        /* \"#utility.yul\":14700:14724   */\n      tag_534\n        /* \"#utility.yul\":14718:14723   */\n      dup3\n        /* \"#utility.yul\":14700:14724   */\n      tag_324\n      jump\t// in\n    tag_534:\n        /* \"#utility.yul\":14680:14725   */\n      tag_349\n      jump\t// in\n    tag_533:\n        /* \"#utility.yul\":14675:14678   */\n      dup3\n        /* \"#utility.yul\":14668:14726   */\n      mstore\n        /* \"#utility.yul\":14575:14732   */\n      pop\n      pop\n      jump\t// out\n        /* \"#utility.yul\":14738:15135   */\n    tag_130:\n        /* \"#utility.yul\":14878:14881   */\n      0x00\n        /* \"#utility.yul\":14893:14968   */\n      tag_536\n        /* \"#utility.yul\":14964:14967   */\n      dup3\n        /* \"#utility.yul\":14955:14961   */\n      dup6\n        /* \"#utility.yul\":14893:14968   */\n      tag_350\n      jump\t// in\n    tag_536:\n        /* \"#utility.yul\":14993:14995   */\n      0x14\n        /* \"#utility.yul\":14988:14991   */\n      dup3\n        /* \"#utility.yul\":14984:14996   */\n      add\n        /* \"#utility.yul\":14977:14996   */\n      swap2\n      pop\n        /* \"#utility.yul\":15006:15081   */\n      tag_537\n        /* \"#utility.yul\":15077:15080   */\n      dup3\n        /* \"#utility.yul\":15068:15074   */\n      dup5\n        /* \"#utility.yul\":15006:15081   */\n      tag_341\n      jump\t// in\n    tag_537:\n        /* \"#utility.yul\":15106:15108   */\n      0x20\n        /* \"#utility.yul\":15101:15104   */\n      dup3\n        /* \"#utility.yul\":15097:15109   */\n      add\n        /* \"#utility.yul\":15090:15109   */\n      swap2\n      pop\n        /* \"#utility.yul\":15126:15129   */\n      dup2\n        /* \"#utility.yul\":15119:15129   */\n      swap1\n      pop\n        /* \"#utility.yul\":14738:15135   */\n      swap4\n      swap3\n      pop\n      pop\n      pop\n      jump\t// out\n        /* \"#utility.yul\":15141:15317   */\n    tag_351:\n        /* \"#utility.yul\":15281:15309   */\n      0x4f7574206f662052657665616c20537461676520706572696f64000000000000\n        /* \"#utility.yul\":15277:15278   */\n      0x00\n        /* \"#utility.yul\":15269:15275   */\n      dup3\n        /* \"#utility.yul\":15265:15279   */\n      add\n        /* \"#utility.yul\":15258:15310   */\n      mstore\n        /* \"#utility.yul\":15141:15317   */\n      pop\n      jump\t// out\n        /* \"#utility.yul\":15323:15689   */\n    tag_352:\n        /* \"#utility.yul\":15465:15468   */\n      0x00\n        /* \"#utility.yul\":15486:15553   */\n      tag_540\n        /* \"#utility.yul\":15550:15552   */\n      0x1a\n        /* \"#utility.yul\":15545:15548   */\n      dup4\n        /* \"#utility.yul\":15486:15553   */\n      tag_329\n      jump\t// in\n    tag_540:\n        /* \"#utility.yul\":15479:15553   */\n      swap2\n      pop\n        /* \"#utility.yul\":15562:15655   */\n      tag_541\n        /* \"#utility.yul\":15651:15654   */\n      dup3\n        /* \"#utility.yul\":15562:15655   */\n      tag_351\n      jump\t// in\n    tag_541:\n        /* \"#utility.yul\":15680:15682   */\n      0x20\n        /* \"#utility.yul\":15675:15678   */\n      dup3\n        /* \"#utility.yul\":15671:15683   */\n      add\n        /* \"#utility.yul\":15664:15683   */\n      swap1\n      pop\n        /* \"#utility.yul\":15323:15689   */\n      swap2\n      swap1\n      pop\n      jump\t// out\n        /* \"#utility.yul\":15695:16114   */\n    tag_138:\n        /* \"#utility.yul\":15861:15865   */\n      0x00\n        /* \"#utility.yul\":15899:15901   */\n      0x20\n        /* \"#utility.yul\":15888:15897   */\n      dup3\n        /* \"#utility.yul\":15884:15902   */\n      add\n        /* \"#utility.yul\":15876:15902   */\n      swap1\n      pop\n        /* \"#utility.yul\":15948:15957   */\n      dup2\n        /* \"#utility.yul\":15942:15946   */\n      dup2\n        /* \"#utility.yul\":15938:15958   */\n      sub\n        /* \"#utility.yul\":15934:15935   */\n      0x00\n        /* \"#utility.yul\":15923:15932   */\n      dup4\n        /* \"#utility.yul\":15919:15936   */\n      add\n        /* \"#utility.yul\":15912:15959   */\n      mstore\n        /* \"#utility.yul\":15976:16107   */\n      tag_543\n        /* \"#utility.yul\":16102:16106   */\n      dup2\n        /* \"#utility.yul\":15976:16107   */\n      tag_352\n      jump\t// in\n    tag_543:\n        /* \"#utility.yul\":15968:16107   */\n      swap1\n      pop\n        /* \"#utility.yul\":15695:16114   */\n      swap2\n      swap1\n      pop\n      jump\t// out\n        /* \"#utility.yul\":16120:16658   */\n    tag_149:\n        /* \"#utility.yul\":16288:16291   */\n      0x00\n        /* \"#utility.yul\":16303:16378   */\n      tag_545\n        /* \"#utility.yul\":16374:16377   */\n      dup3\n        /* \"#utility.yul\":16365:16371   */\n      dup7\n        /* \"#utility.yul\":16303:16378   */\n      tag_350\n      jump\t// in\n    tag_545:\n        /* \"#utility.yul\":16403:16405   */\n      0x14\n        /* \"#utility.yul\":16398:16401   */\n      dup3\n        /* \"#utility.yul\":16394:16406   */\n      add\n        /* \"#utility.yul\":16387:16406   */\n      swap2\n      pop\n        /* \"#utility.yul\":16416:16491   */\n      tag_546\n        /* \"#utility.yul\":16487:16490   */\n      dup3\n        /* \"#utility.yul\":16478:16484   */\n      dup6\n        /* \"#utility.yul\":16416:16491   */\n      tag_341\n      jump\t// in\n    tag_546:\n        /* \"#utility.yul\":16516:16518   */\n      0x20\n        /* \"#utility.yul\":16511:16514   */\n      dup3\n        /* \"#utility.yul\":16507:16519   */\n      add\n        /* \"#utility.yul\":16500:16519   */\n      swap2\n      pop\n        /* \"#utility.yul\":16529:16604   */\n      tag_547\n        /* \"#utility.yul\":16600:16603   */\n      dup3\n        /* \"#utility.yul\":16591:16597   */\n      dup5\n        /* \"#utility.yul\":16529:16604   */\n      tag_341\n      jump\t// in\n    tag_547:\n        /* \"#utility.yul\":16629:16631   */\n      0x20\n        /* \"#utility.yul\":16624:16627   */\n      dup3\n        /* \"#utility.yul\":16620:16632   */\n      add\n        /* \"#utility.yul\":16613:16632   */\n      swap2\n      pop\n        /* \"#utility.yul\":16649:16652   */\n      dup2\n        /* \"#utility.yul\":16642:16652   */\n      swap1\n      pop\n        /* \"#utility.yul\":16120:16658   */\n      swap5\n      swap4\n      pop\n      pop\n      pop\n      pop\n      jump\t// out\n        /* \"#utility.yul\":16664:16884   */\n    tag_353:\n        /* \"#utility.yul\":16804:16838   */\n      0x4f6e6c79206f776e65722063616e2063616c6c20746869732066756e6374696f\n        /* \"#utility.yul\":16800:16801   */\n      0x00\n        /* \"#utility.yul\":16792:16798   */\n      dup3\n        /* \"#utility.yul\":16788:16802   */\n      add\n        /* \"#utility.yul\":16781:16839   */\n      mstore\n        /* \"#utility.yul\":16873:16876   */\n      0x6e00000000000000000000000000000000000000000000000000000000000000\n        /* \"#utility.yul\":16868:16870   */\n      0x20\n        /* \"#utility.yul\":16860:16866   */\n      dup3\n        /* \"#utility.yul\":16856:16871   */\n      add\n        /* \"#utility.yul\":16849:16877   */\n      mstore\n        /* \"#utility.yul\":16664:16884   */\n      pop\n      jump\t// out\n        /* \"#utility.yul\":16890:17256   */\n    tag_354:\n        /* \"#utility.yul\":17032:17035   */\n      0x00\n        /* \"#utility.yul\":17053:17120   */\n      tag_550\n        /* \"#utility.yul\":17117:17119   */\n      0x21\n        /* \"#utility.yul\":17112:17115   */\n      dup4\n        /* \"#utility.yul\":17053:17120   */\n      tag_329\n      jump\t// in\n    tag_550:\n        /* \"#utility.yul\":17046:17120   */\n      swap2\n      pop\n        /* \"#utility.yul\":17129:17222   */\n      tag_551\n        /* \"#utility.yul\":17218:17221   */\n      dup3\n        /* \"#utility.yul\":17129:17222   */\n      tag_353\n      jump\t// in\n    tag_551:\n        /* \"#utility.yul\":17247:17249   */\n      0x40\n        /* \"#utility.yul\":17242:17245   */\n      dup3\n        /* \"#utility.yul\":17238:17250   */\n      add\n        /* \"#utility.yul\":17231:17250   */\n      swap1\n      pop\n        /* \"#utility.yul\":16890:17256   */\n      swap2\n      swap1\n      pop\n      jump\t// out\n        /* \"#utility.yul\":17262:17681   */\n    tag_154:\n        /* \"#utility.yul\":17428:17432   */\n      0x00\n        /* \"#utility.yul\":17466:17468   */\n      0x20\n        /* \"#utility.yul\":17455:17464   */\n      dup3\n        /* \"#utility.yul\":17451:17469   */\n      add\n        /* \"#utility.yul\":17443:17469   */\n      swap1\n      pop\n        /* \"#utility.yul\":17515:17524   */\n      dup2\n        /* \"#utility.yul\":17509:17513   */\n      dup2\n        /* \"#utility.yul\":17505:17525   */\n      sub\n        /* \"#utility.yul\":17501:17502   */\n      0x00\n        /* \"#utility.yul\":17490:17499   */\n      dup4\n        /* \"#utility.yul\":17486:17503   */\n      add\n        /* \"#utility.yul\":17479:17526   */\n      mstore\n        /* \"#utility.yul\":17543:17674   */\n      tag_553\n        /* \"#utility.yul\":17669:17673   */\n      dup2\n        /* \"#utility.yul\":17543:17674   */\n      tag_354\n      jump\t// in\n    tag_553:\n        /* \"#utility.yul\":17535:17674   */\n      swap1\n      pop\n        /* \"#utility.yul\":17262:17681   */\n      swap2\n      swap1\n      pop\n      jump\t// out\n        /* \"#utility.yul\":17687:17867   */\n    tag_178:\n        /* \"#utility.yul\":17735:17812   */\n      0x4e487b7100000000000000000000000000000000000000000000000000000000\n        /* \"#utility.yul\":17732:17733   */\n      0x00\n        /* \"#utility.yul\":17725:17813   */\n      mstore\n        /* \"#utility.yul\":17832:17836   */\n      0x32\n        /* \"#utility.yul\":17829:17830   */\n      0x04\n        /* \"#utility.yul\":17822:17837   */\n      mstore\n        /* \"#utility.yul\":17856:17860   */\n      0x24\n        /* \"#utility.yul\":17853:17854   */\n      0x00\n        /* \"#utility.yul\":17846:17861   */\n      revert\n        /* \"#utility.yul\":17873:18106   */\n    tag_186:\n        /* \"#utility.yul\":17912:17915   */\n      0x00\n        /* \"#utility.yul\":17935:17959   */\n      tag_556\n        /* \"#utility.yul\":17953:17958   */\n      dup3\n        /* \"#utility.yul\":17935:17959   */\n      tag_306\n      jump\t// in\n    tag_556:\n        /* \"#utility.yul\":17926:17959   */\n      swap2\n      pop\n        /* \"#utility.yul\":17981:18047   */\n      0xffffffffffffffffffffffffffffffffffffffffffffffffffffffffffffffff\n        /* \"#utility.yul\":17974:17979   */\n      dup3\n        /* \"#utility.yul\":17971:18048   */\n      sub\n        /* \"#utility.yul\":17968:18071   */\n      tag_557\n      jumpi\n        /* \"#utility.yul\":18051:18069   */\n      tag_558\n      tag_342\n      jump\t// in\n    tag_558:\n        /* \"#utility.yul\":17968:18071   */\n    tag_557:\n        /* \"#utility.yul\":18098:18099   */\n      0x01\n        /* \"#utility.yul\":18091:18096   */\n      dup3\n        /* \"#utility.yul\":18087:18100   */\n      add\n        /* \"#utility.yul\":18080:18100   */\n      swap1\n      pop\n        /* \"#utility.yul\":17873:18106   */\n      swap2\n      swap1\n      pop\n      jump\t// out\n        /* \"#utility.yul\":18112:18522   */\n    tag_189:\n        /* \"#utility.yul\":18152:18159   */\n      0x00\n        /* \"#utility.yul\":18175:18195   */\n      tag_560\n        /* \"#utility.yul\":18193:18194   */\n      dup3\n        /* \"#utility.yul\":18175:18195   */\n      tag_306\n      jump\t// in\n    tag_560:\n        /* \"#utility.yul\":18170:18195   */\n      swap2\n      pop\n        /* \"#utility.yul\":18209:18229   */\n      tag_561\n        /* \"#utility.yul\":18227:18228   */\n      dup4\n        /* \"#utility.yul\":18209:18229   */\n      tag_306\n      jump\t// in\n    tag_561:\n        /* \"#utility.yul\":18204:18229   */\n      swap3\n      pop\n        /* \"#utility.yul\":18264:18265   */\n      dup3\n        /* \"#utility.yul\":18261:18262   */\n      dup3\n        /* \"#utility.yul\":18257:18266   */\n      mul\n        /* \"#utility.yul\":18286:18316   */\n      tag_562\n        /* \"#utility.yul\":18304:18315   */\n      dup2\n        /* \"#utility.yul\":18286:18316   */\n      tag_306\n      jump\t// in\n    tag_562:\n        /* \"#utility.yul\":18275:18316   */\n      swap2\n      pop\n        /* \"#utility.yul\":18465:18466   */\n      dup3\n        /* \"#utility.yul\":18456:18463   */\n      dup3\n        /* \"#utility.yul\":18452:18467   */\n      div\n        /* \"#utility.yul\":18449:18450   */\n      dup5\n        /* \"#utility.yul\":18446:18468   */\n      eq\n        /* \"#utility.yul\":18426:18427   */\n      dup4\n        /* \"#utility.yul\":18419:18428   */\n      iszero\n        /* \"#utility.yul\":18399:18482   */\n      or\n        /* \"#utility.yul\":18376:18515   */\n      tag_563\n      jumpi\n        /* \"#utility.yul\":18495:18513   */\n      tag_564\n      tag_342\n      jump\t// in\n    tag_564:\n        /* \"#utility.yul\":18376:18515   */\n    tag_563:\n        /* \"#utility.yul\":18160:18522   */\n      pop\n        /* \"#utility.yul\":18112:18522   */\n      swap3\n      swap2\n      pop\n      pop\n      jump\t// out\n        /* \"#utility.yul\":18528:18708   */\n    tag_355:\n        /* \"#utility.yul\":18576:18653   */\n      0x4e487b7100000000000000000000000000000000000000000000000000000000\n        /* \"#utility.yul\":18573:18574   */\n      0x00\n        /* \"#utility.yul\":18566:18654   */\n      mstore\n        /* \"#utility.yul\":18673:18677   */\n      0x12\n        /* \"#utility.yul\":18670:18671   */\n      0x04\n        /* \"#utility.yul\":18663:18678   */\n      mstore\n        /* \"#utility.yul\":18697:18701   */\n      0x24\n        /* \"#utility.yul\":18694:18695   */\n      0x00\n        /* \"#utility.yul\":18687:18702   */\n      revert\n        /* \"#utility.yul\":18714:18899   */\n    tag_191:\n        /* \"#utility.yul\":18754:18755   */\n      0x00\n        /* \"#utility.yul\":18771:18791   */\n      tag_567\n        /* \"#utility.yul\":18789:18790   */\n      dup3\n        /* \"#utility.yul\":18771:18791   */\n      tag_306\n      jump\t// in\n    tag_567:\n        /* \"#utility.yul\":18766:18791   */\n      swap2\n      pop\n        /* \"#utility.yul\":18805:18825   */\n      tag_568\n        /* \"#utility.yul\":18823:18824   */\n      dup4\n        /* \"#utility.yul\":18805:18825   */\n      tag_306\n      jump\t// in\n    tag_568:\n        /* \"#utility.yul\":18800:18825   */\n      swap3\n      pop\n        /* \"#utility.yul\":18844:18845   */\n      dup3\n        /* \"#utility.yul\":18834:18869   */\n      tag_569\n      jumpi\n        /* \"#utility.yul\":18849:18867   */\n      tag_570\n      tag_355\n      jump\t// in\n    tag_570:\n        /* \"#utility.yul\":18834:18869   */\n    tag_569:\n        /* \"#utility.yul\":18891:18892   */\n      dup3\n        /* \"#utility.yul\":18888:18889   */\n      dup3\n        /* \"#utility.yul\":18884:18893   */\n      div\n        /* \"#utility.yul\":18879:18893   */\n      swap1\n      pop\n        /* \"#utility.yul\":18714:18899   */\n      swap3\n      swap2\n      pop\n      pop\n      jump\t// out\n        /* \"#utility.yul\":18905:19161   */\n    tag_210:\n        /* \"#utility.yul\":19017:19020   */\n      0x00\n        /* \"#utility.yul\":19032:19107   */\n      tag_572\n        /* \"#utility.yul\":19103:19106   */\n      dup3\n        /* \"#utility.yul\":19094:19100   */\n      dup5\n        /* \"#utility.yul\":19032:19107   */\n      tag_339\n      jump\t// in\n    tag_572:\n        /* \"#utility.yul\":19132:19134   */\n      0x20\n        /* \"#utility.yul\":19127:19130   */\n      dup3\n        /* \"#utility.yul\":19123:19135   */\n      add\n        /* \"#utility.yul\":19116:19135   */\n      swap2\n      pop\n        /* \"#utility.yul\":19152:19155   */\n      dup2\n        /* \"#utility.yul\":19145:19155   */\n      swap1\n      pop\n        /* \"#utility.yul\":18905:19161   */\n      swap3\n      swap2\n      pop\n      pop\n      jump\t// out\n        /* \"#utility.yul\":19167:19343   */\n    tag_212:\n        /* \"#utility.yul\":19199:19200   */\n      0x00\n        /* \"#utility.yul\":19216:19236   */\n      tag_574\n        /* \"#utility.yul\":19234:19235   */\n      dup3\n        /* \"#utility.yul\":19216:19236   */\n      tag_306\n      jump\t// in\n    tag_574:\n        /* \"#utility.yul\":19211:19236   */\n      swap2\n      pop\n        /* \"#utility.yul\":19250:19270   */\n      tag_575\n        /* \"#utility.yul\":19268:19269   */\n      dup4\n        /* \"#utility.yul\":19250:19270   */\n      tag_306\n      jump\t// in\n    tag_575:\n        /* \"#utility.yul\":19245:19270   */\n      swap3\n      pop\n        /* \"#utility.yul\":19289:19290   */\n      dup3\n        /* \"#utility.yul\":19279:19314   */\n      tag_576\n      jumpi\n        /* \"#utility.yul\":19294:19312   */\n      tag_577\n      tag_355\n      jump\t// in\n    tag_577:\n        /* \"#utility.yul\":19279:19314   */\n    tag_576:\n        /* \"#utility.yul\":19335:19336   */\n      dup3\n        /* \"#utility.yul\":19332:19333   */\n      dup3\n        /* \"#utility.yul\":19328:19337   */\n      mod\n        /* \"#utility.yul\":19323:19337   */\n      swap1\n      pop\n        /* \"#utility.yul\":19167:19343   */\n      swap3\n      swap2\n      pop\n      pop\n      jump\t// out\n        /* \"#utility.yul\":19349:19569   */\n    tag_356:\n        /* \"#utility.yul\":19489:19523   */\n      0x5265717569726520302e3030312045544820666f72204c6f7474657279206665\n        /* \"#utility.yul\":19485:19486   */\n      0x00\n        /* \"#utility.yul\":19477:19483   */\n      dup3\n        /* \"#utility.yul\":19473:19487   */\n      add\n        /* \"#utility.yul\":19466:19524   */\n      mstore\n        /* \"#utility.yul\":19558:19561   */\n      0x6500000000000000000000000000000000000000000000000000000000000000\n        /* \"#utility.yul\":19553:19555   */\n      0x20\n        /* \"#utility.yul\":19545:19551   */\n      dup3\n        /* \"#utility.yul\":19541:19556   */\n      add\n        /* \"#utility.yul\":19534:19562   */\n      mstore\n        /* \"#utility.yul\":19349:19569   */\n      pop\n      jump\t// out\n        /* \"#utility.yul\":19575:19941   */\n    tag_357:\n        /* \"#utility.yul\":19717:19720   */\n      0x00\n        /* \"#utility.yul\":19738:19805   */\n      tag_580\n        /* \"#utility.yul\":19802:19804   */\n      0x21\n        /* \"#utility.yul\":19797:19800   */\n      dup4\n        /* \"#utility.yul\":19738:19805   */\n      tag_329\n      jump\t// in\n    tag_580:\n        /* \"#utility.yul\":19731:19805   */\n      swap2\n      pop\n        /* \"#utility.yul\":19814:19907   */\n      tag_581\n        /* \"#utility.yul\":19903:19906   */\n      dup3\n        /* \"#utility.yul\":19814:19907   */\n      tag_356\n      jump\t// in\n    tag_581:\n        /* \"#utility.yul\":19932:19934   */\n      0x40\n        /* \"#utility.yul\":19927:19930   */\n      dup3\n        /* \"#utility.yul\":19923:19935   */\n      add\n        /* \"#utility.yul\":19916:19935   */\n      swap1\n      pop\n        /* \"#utility.yul\":19575:19941   */\n      swap2\n      swap1\n      pop\n      jump\t// out\n        /* \"#utility.yul\":19947:20366   */\n    tag_222:\n        /* \"#utility.yul\":20113:20117   */\n      0x00\n        /* \"#utility.yul\":20151:20153   */\n      0x20\n        /* \"#utility.yul\":20140:20149   */\n      dup3\n        /* \"#utility.yul\":20136:20154   */\n      add\n        /* \"#utility.yul\":20128:20154   */\n      swap1\n      pop\n        /* \"#utility.yul\":20200:20209   */\n      dup2\n        /* \"#utility.yul\":20194:20198   */\n      dup2\n        /* \"#utility.yul\":20190:20210   */\n      sub\n        /* \"#utility.yul\":20186:20187   */\n      0x00\n        /* \"#utility.yul\":20175:20184   */\n      dup4\n        /* \"#utility.yul\":20171:20188   */\n      add\n        /* \"#utility.yul\":20164:20211   */\n      mstore\n        /* \"#utility.yul\":20228:20359   */\n      tag_583\n        /* \"#utility.yul\":20354:20358   */\n      dup2\n        /* \"#utility.yul\":20228:20359   */\n      tag_357\n      jump\t// in\n    tag_583:\n        /* \"#utility.yul\":20220:20359   */\n      swap1\n      pop\n        /* \"#utility.yul\":19947:20366   */\n      swap2\n      swap1\n      pop\n      jump\t// out\n        /* \"#utility.yul\":20372:20592   */\n    tag_358:\n        /* \"#utility.yul\":20512:20546   */\n      0x546865206e756d626572206f6620706c617965727320697320636f6d706c6574\n        /* \"#utility.yul\":20508:20509   */\n      0x00\n        /* \"#utility.yul\":20500:20506   */\n      dup3\n        /* \"#utility.yul\":20496:20510   */\n      add\n        /* \"#utility.yul\":20489:20547   */\n      mstore\n        /* \"#utility.yul\":20581:20584   */\n      0x6500000000000000000000000000000000000000000000000000000000000000\n        /* \"#utility.yul\":20576:20578   */\n      0x20\n        /* \"#utility.yul\":20568:20574   */\n      dup3\n        /* \"#utility.yul\":20564:20579   */\n      add\n        /* \"#utility.yul\":20557:20585   */\n      mstore\n        /* \"#utility.yul\":20372:20592   */\n      pop\n      jump\t// out\n        /* \"#utility.yul\":20598:20964   */\n    tag_359:\n        /* \"#utility.yul\":20740:20743   */\n      0x00\n        /* \"#utility.yul\":20761:20828   */\n      tag_586\n        /* \"#utility.yul\":20825:20827   */\n      0x21\n        /* \"#utility.yul\":20820:20823   */\n      dup4\n        /* \"#utility.yul\":20761:20828   */\n      tag_329\n      jump\t// in\n    tag_586:\n        /* \"#utility.yul\":20754:20828   */\n      swap2\n      pop\n        /* \"#utility.yul\":20837:20930   */\n      tag_587\n        /* \"#utility.yul\":20926:20929   */\n      dup3\n        /* \"#utility.yul\":20837:20930   */\n      tag_358\n      jump\t// in\n    tag_587:\n        /* \"#utility.yul\":20955:20957   */\n      0x40\n        /* \"#utility.yul\":20950:20953   */\n      dup3\n        /* \"#utility.yul\":20946:20958   */\n      add\n        /* \"#utility.yul\":20939:20958   */\n      swap1\n      pop\n        /* \"#utility.yul\":20598:20964   */\n      swap2\n      swap1\n      pop\n      jump\t// out\n        /* \"#utility.yul\":20970:21389   */\n    tag_225:\n        /* \"#utility.yul\":21136:21140   */\n      0x00\n        /* \"#utility.yul\":21174:21176   */\n      0x20\n        /* \"#utility.yul\":21163:21172   */\n      dup3\n        /* \"#utility.yul\":21159:21177   */\n      add\n        /* \"#utility.yul\":21151:21177   */\n      swap1\n      pop\n        /* \"#utility.yul\":21223:21232   */\n      dup2\n        /* \"#utility.yul\":21217:21221   */\n      dup2\n        /* \"#utility.yul\":21213:21233   */\n      sub\n        /* \"#utility.yul\":21209:21210   */\n      0x00\n        /* \"#utility.yul\":21198:21207   */\n      dup4\n        /* \"#utility.yul\":21194:21211   */\n      add\n        /* \"#utility.yul\":21187:21234   */\n      mstore\n        /* \"#utility.yul\":21251:21382   */\n      tag_589\n        /* \"#utility.yul\":21377:21381   */\n      dup2\n        /* \"#utility.yul\":21251:21382   */\n      tag_359\n      jump\t// in\n    tag_589:\n        /* \"#utility.yul\":21243:21382   */\n      swap1\n      pop\n        /* \"#utility.yul\":20970:21389   */\n      swap2\n      swap1\n      pop\n      jump\t// out\n        /* \"#utility.yul\":21395:21569   */\n    tag_360:\n        /* \"#utility.yul\":21535:21561   */\n      0x436f6d6d69742053746167652068617320657870697265640000000000000000\n        /* \"#utility.yul\":21531:21532   */\n      0x00\n        /* \"#utility.yul\":21523:21529   */\n      dup3\n        /* \"#utility.yul\":21519:21533   */\n      add\n        /* \"#utility.yul\":21512:21562   */\n      mstore\n        /* \"#utility.yul\":21395:21569   */\n      pop\n      jump\t// out\n        /* \"#utility.yul\":21575:21941   */\n    tag_361:\n        /* \"#utility.yul\":21717:21720   */\n      0x00\n        /* \"#utility.yul\":21738:21805   */\n      tag_592\n        /* \"#utility.yul\":21802:21804   */\n      0x18\n        /* \"#utility.yul\":21797:21800   */\n      dup4\n        /* \"#utility.yul\":21738:21805   */\n      tag_329\n      jump\t// in\n    tag_592:\n        /* \"#utility.yul\":21731:21805   */\n      swap2\n      pop\n        /* \"#utility.yul\":21814:21907   */\n      tag_593\n        /* \"#utility.yul\":21903:21906   */\n      dup3\n        /* \"#utility.yul\":21814:21907   */\n      tag_360\n      jump\t// in\n    tag_593:\n        /* \"#utility.yul\":21932:21934   */\n      0x20\n        /* \"#utility.yul\":21927:21930   */\n      dup3\n        /* \"#utility.yul\":21923:21935   */\n      add\n        /* \"#utility.yul\":21916:21935   */\n      swap1\n      pop\n        /* \"#utility.yul\":21575:21941   */\n      swap2\n      swap1\n      pop\n      jump\t// out\n        /* \"#utility.yul\":21947:22366   */\n    tag_230:\n        /* \"#utility.yul\":22113:22117   */\n      0x00\n        /* \"#utility.yul\":22151:22153   */\n      0x20\n        /* \"#utility.yul\":22140:22149   */\n      dup3\n        /* \"#utility.yul\":22136:22154   */\n      add\n        /* \"#utility.yul\":22128:22154   */\n      swap1\n      pop\n        /* \"#utility.yul\":22200:22209   */\n      dup2\n        /* \"#utility.yul\":22194:22198   */\n      dup2\n        /* \"#utility.yul\":22190:22210   */\n      sub\n        /* \"#utility.yul\":22186:22187   */\n      0x00\n        /* \"#utility.yul\":22175:22184   */\n      dup4\n        /* \"#utility.yul\":22171:22188   */\n      add\n        /* \"#utility.yul\":22164:22211   */\n      mstore\n        /* \"#utility.yul\":22228:22359   */\n      tag_595\n        /* \"#utility.yul\":22354:22358   */\n      dup2\n        /* \"#utility.yul\":22228:22359   */\n      tag_361\n      jump\t// in\n    tag_595:\n        /* \"#utility.yul\":22220:22359   */\n      swap1\n      pop\n        /* \"#utility.yul\":21947:22366   */\n      swap2\n      swap1\n      pop\n      jump\t// out\n        /* \"#utility.yul\":22372:22566   */\n    tag_243:\n        /* \"#utility.yul\":22412:22416   */\n      0x00\n        /* \"#utility.yul\":22432:22452   */\n      tag_597\n        /* \"#utility.yul\":22450:22451   */\n      dup3\n        /* \"#utility.yul\":22432:22452   */\n      tag_306\n      jump\t// in\n    tag_597:\n        /* \"#utility.yul\":22427:22452   */\n      swap2\n      pop\n        /* \"#utility.yul\":22466:22486   */\n      tag_598\n        /* \"#utility.yul\":22484:22485   */\n      dup4\n        /* \"#utility.yul\":22466:22486   */\n      tag_306\n      jump\t// in\n    tag_598:\n        /* \"#utility.yul\":22461:22486   */\n      swap3\n      pop\n        /* \"#utility.yul\":22510:22511   */\n      dup3\n        /* \"#utility.yul\":22507:22508   */\n      dup3\n        /* \"#utility.yul\":22503:22512   */\n      sub\n        /* \"#utility.yul\":22495:22512   */\n      swap1\n      pop\n        /* \"#utility.yul\":22534:22535   */\n      dup2\n        /* \"#utility.yul\":22528:22532   */\n      dup2\n        /* \"#utility.yul\":22525:22536   */\n      gt\n        /* \"#utility.yul\":22522:22559   */\n      iszero\n      tag_599\n      jumpi\n        /* \"#utility.yul\":22539:22557   */\n      tag_600\n      tag_342\n      jump\t// in\n    tag_600:\n        /* \"#utility.yul\":22522:22559   */\n    tag_599:\n        /* \"#utility.yul\":22372:22566   */\n      swap3\n      swap2\n      pop\n      pop\n      jump\t// out\n        /* \"#utility.yul\":22572:22797   */\n    tag_362:\n        /* \"#utility.yul\":22712:22746   */\n      0x436f6d6d697452657665616c3a3a72657665616c3a20416c7265616479207265\n        /* \"#utility.yul\":22708:22709   */\n      0x00\n        /* \"#utility.yul\":22700:22706   */\n      dup3\n        /* \"#utility.yul\":22696:22710   */\n      add\n        /* \"#utility.yul\":22689:22747   */\n      mstore\n        /* \"#utility.yul\":22781:22789   */\n      0x7665616c65640000000000000000000000000000000000000000000000000000\n        /* \"#utility.yul\":22776:22778   */\n      0x20\n        /* \"#utility.yul\":22768:22774   */\n      dup3\n        /* \"#utility.yul\":22764:22779   */\n      add\n        /* \"#utility.yul\":22757:22790   */\n      mstore\n        /* \"#utility.yul\":22572:22797   */\n      pop\n      jump\t// out\n        /* \"#utility.yul\":22803:23169   */\n    tag_363:\n        /* \"#utility.yul\":22945:22948   */\n      0x00\n        /* \"#utility.yul\":22966:23033   */\n      tag_603\n        /* \"#utility.yul\":23030:23032   */\n      0x26\n        /* \"#utility.yul\":23025:23028   */\n      dup4\n        /* \"#utility.yul\":22966:23033   */\n      tag_329\n      jump\t// in\n    tag_603:\n        /* \"#utility.yul\":22959:23033   */\n      swap2\n      pop\n        /* \"#utility.yul\":23042:23135   */\n      tag_604\n        /* \"#utility.yul\":23131:23134   */\n      dup3\n        /* \"#utility.yul\":23042:23135   */\n      tag_362\n      jump\t// in\n    tag_604:\n        /* \"#utility.yul\":23160:23162   */\n      0x40\n        /* \"#utility.yul\":23155:23158   */\n      dup3\n        /* \"#utility.yul\":23151:23163   */\n      add\n        /* \"#utility.yul\":23144:23163   */\n      swap1\n      pop\n        /* \"#utility.yul\":22803:23169   */\n      swap2\n      swap1\n      pop\n      jump\t// out\n        /* \"#utility.yul\":23175:23594   */\n    tag_265:\n        /* \"#utility.yul\":23341:23345   */\n      0x00\n        /* \"#utility.yul\":23379:23381   */\n      0x20\n        /* \"#utility.yul\":23368:23377   */\n      dup3\n        /* \"#utility.yul\":23364:23382   */\n      add\n        /* \"#utility.yul\":23356:23382   */\n      swap1\n      pop\n        /* \"#utility.yul\":23428:23437   */\n      dup2\n        /* \"#utility.yul\":23422:23426   */\n      dup2\n        /* \"#utility.yul\":23418:23438   */\n      sub\n        /* \"#utility.yul\":23414:23415   */\n      0x00\n        /* \"#utility.yul\":23403:23412   */\n      dup4\n        /* \"#utility.yul\":23399:23416   */\n      add\n        /* \"#utility.yul\":23392:23439   */\n      mstore\n        /* \"#utility.yul\":23456:23587   */\n      tag_606\n        /* \"#utility.yul\":23582:23586   */\n      dup2\n        /* \"#utility.yul\":23456:23587   */\n      tag_363\n      jump\t// in\n    tag_606:\n        /* \"#utility.yul\":23448:23587   */\n      swap1\n      pop\n        /* \"#utility.yul\":23175:23594   */\n      swap2\n      swap1\n      pop\n      jump\t// out\n        /* \"#utility.yul\":23600:23844   */\n    tag_364:\n        /* \"#utility.yul\":23740:23774   */\n      0x436f6d6d697452657665616c3a3a72657665616c3a2052657665616c65642068\n        /* \"#utility.yul\":23736:23737   */\n      0x00\n        /* \"#utility.yul\":23728:23734   */\n      dup3\n        /* \"#utility.yul\":23724:23738   */\n      add\n        /* \"#utility.yul\":23717:23775   */\n      mstore\n        /* \"#utility.yul\":23809:23836   */\n      0x61736820646f6573206e6f74206d6174636820636f6d6d697400000000000000\n        /* \"#utility.yul\":23804:23806   */\n      0x20\n        /* \"#utility.yul\":23796:23802   */\n      dup3\n        /* \"#utility.yul\":23792:23807   */\n      add\n        /* \"#utility.yul\":23785:23837   */\n      mstore\n        /* \"#utility.yul\":23600:23844   */\n      pop\n      jump\t// out\n        /* \"#utility.yul\":23850:24216   */\n    tag_365:\n        /* \"#utility.yul\":23992:23995   */\n      0x00\n        /* \"#utility.yul\":24013:24080   */\n      tag_609\n        /* \"#utility.yul\":24077:24079   */\n      0x39\n        /* \"#utility.yul\":24072:24075   */\n      dup4\n        /* \"#utility.yul\":24013:24080   */\n      tag_329\n      jump\t// in\n    tag_609:\n        /* \"#utility.yul\":24006:24080   */\n      swap2\n      pop\n        /* \"#utility.yul\":24089:24182   */\n      tag_610\n        /* \"#utility.yul\":24178:24181   */\n      dup3\n        /* \"#utility.yul\":24089:24182   */\n      tag_364\n      jump\t// in\n    tag_610:\n        /* \"#utility.yul\":24207:24209   */\n      0x40\n        /* \"#utility.yul\":24202:24205   */\n      dup3\n        /* \"#utility.yul\":24198:24210   */\n      add\n        /* \"#utility.yul\":24191:24210   */\n      swap1\n      pop\n        /* \"#utility.yul\":23850:24216   */\n      swap2\n      swap1\n      pop\n      jump\t// out\n        /* \"#utility.yul\":24222:24641   */\n    tag_269:\n        /* \"#utility.yul\":24388:24392   */\n      0x00\n        /* \"#utility.yul\":24426:24428   */\n      0x20\n        /* \"#utility.yul\":24415:24424   */\n      dup3\n        /* \"#utility.yul\":24411:24429   */\n      add\n        /* \"#utility.yul\":24403:24429   */\n      swap1\n      pop\n        /* \"#utility.yul\":24475:24484   */\n      dup2\n        /* \"#utility.yul\":24469:24473   */\n      dup2\n        /* \"#utility.yul\":24465:24485   */\n      sub\n        /* \"#utility.yul\":24461:24462   */\n      0x00\n        /* \"#utility.yul\":24450:24459   */\n      dup4\n        /* \"#utility.yul\":24446:24463   */\n      add\n        /* \"#utility.yul\":24439:24486   */\n      mstore\n        /* \"#utility.yul\":24503:24634   */\n      tag_612\n        /* \"#utility.yul\":24629:24633   */\n      dup2\n        /* \"#utility.yul\":24503:24634   */\n      tag_365\n      jump\t// in\n    tag_612:\n        /* \"#utility.yul\":24495:24634   */\n      swap1\n      pop\n        /* \"#utility.yul\":24222:24641   */\n      swap2\n      swap1\n      pop\n      jump\t// out\n        /* \"#utility.yul\":24647:24937   */\n    tag_366:\n        /* \"#utility.yul\":24787:24821   */\n      0x436f6d6d697452657665616c3a3a72657665616c3a2052657665616c20616e64\n        /* \"#utility.yul\":24783:24784   */\n      0x00\n        /* \"#utility.yul\":24775:24781   */\n      dup3\n        /* \"#utility.yul\":24771:24785   */\n      add\n        /* \"#utility.yul\":24764:24822   */\n      mstore\n        /* \"#utility.yul\":24856:24890   */\n      0x20636f6d6d69742068617070656e6564206f6e207468652073616d6520626c6f\n        /* \"#utility.yul\":24851:24853   */\n      0x20\n        /* \"#utility.yul\":24843:24849   */\n      dup3\n        /* \"#utility.yul\":24839:24854   */\n      add\n        /* \"#utility.yul\":24832:24891   */\n      mstore\n        /* \"#utility.yul\":24925:24929   */\n      0x636b000000000000000000000000000000000000000000000000000000000000\n        /* \"#utility.yul\":24920:24922   */\n      0x40\n        /* \"#utility.yul\":24912:24918   */\n      dup3\n        /* \"#utility.yul\":24908:24923   */\n      add\n        /* \"#utility.yul\":24901:24930   */\n      mstore\n        /* \"#utility.yul\":24647:24937   */\n      pop\n      jump\t// out\n        /* \"#utility.yul\":24943:25309   */\n    tag_367:\n        /* \"#utility.yul\":25085:25088   */\n      0x00\n        /* \"#utility.yul\":25106:25173   */\n      tag_615\n        /* \"#utility.yul\":25170:25172   */\n      0x42\n        /* \"#utility.yul\":25165:25168   */\n      dup4\n        /* \"#utility.yul\":25106:25173   */\n      tag_329\n      jump\t// in\n    tag_615:\n        /* \"#utility.yul\":25099:25173   */\n      swap2\n      pop\n        /* \"#utility.yul\":25182:25275   */\n      tag_616\n        /* \"#utility.yul\":25271:25274   */\n      dup3\n        /* \"#utility.yul\":25182:25275   */\n      tag_366\n      jump\t// in\n    tag_616:\n        /* \"#utility.yul\":25300:25302   */\n      0x60\n        /* \"#utility.yul\":25295:25298   */\n      dup3\n        /* \"#utility.yul\":25291:25303   */\n      add\n        /* \"#utility.yul\":25284:25303   */\n      swap1\n      pop\n        /* \"#utility.yul\":24943:25309   */\n      swap2\n      swap1\n      pop\n      jump\t// out\n        /* \"#utility.yul\":25315:25734   */\n    tag_272:\n        /* \"#utility.yul\":25481:25485   */\n      0x00\n        /* \"#utility.yul\":25519:25521   */\n      0x20\n        /* \"#utility.yul\":25508:25517   */\n      dup3\n        /* \"#utility.yul\":25504:25522   */\n      add\n        /* \"#utility.yul\":25496:25522   */\n      swap1\n      pop\n        /* \"#utility.yul\":25568:25577   */\n      dup2\n        /* \"#utility.yul\":25562:25566   */\n      dup2\n        /* \"#utility.yul\":25558:25578   */\n      sub\n        /* \"#utility.yul\":25554:25555   */\n      0x00\n        /* \"#utility.yul\":25543:25552   */\n      dup4\n        /* \"#utility.yul\":25539:25556   */\n      add\n        /* \"#utility.yul\":25532:25579   */\n      mstore\n        /* \"#utility.yul\":25596:25727   */\n      tag_618\n        /* \"#utility.yul\":25722:25726   */\n      dup2\n        /* \"#utility.yul\":25596:25727   */\n      tag_367\n      jump\t// in\n    tag_618:\n        /* \"#utility.yul\":25588:25727   */\n      swap1\n      pop\n        /* \"#utility.yul\":25315:25734   */\n      swap2\n      swap1\n      pop\n      jump\t// out\n        /* \"#utility.yul\":25740:25841   */\n    tag_368:\n        /* \"#utility.yul\":25776:25783   */\n      0x00\n        /* \"#utility.yul\":25816:25834   */\n      0xffffffffffffffff\n        /* \"#utility.yul\":25809:25814   */\n      dup3\n        /* \"#utility.yul\":25805:25835   */\n      and\n        /* \"#utility.yul\":25794:25835   */\n      swap1\n      pop\n        /* \"#utility.yul\":25740:25841   */\n      swap2\n      swap1\n      pop\n      jump\t// out\n        /* \"#utility.yul\":25847:26052   */\n    tag_274:\n        /* \"#utility.yul\":25886:25889   */\n      0x00\n        /* \"#utility.yul\":25905:25924   */\n      tag_621\n        /* \"#utility.yul\":25922:25923   */\n      dup3\n        /* \"#utility.yul\":25905:25924   */\n      tag_368\n      jump\t// in\n    tag_621:\n        /* \"#utility.yul\":25900:25924   */\n      swap2\n      pop\n        /* \"#utility.yul\":25938:25957   */\n      tag_622\n        /* \"#utility.yul\":25955:25956   */\n      dup4\n        /* \"#utility.yul\":25938:25957   */\n      tag_368\n      jump\t// in\n    tag_622:\n        /* \"#utility.yul\":25933:25957   */\n      swap3\n      pop\n        /* \"#utility.yul\":25980:25981   */\n      dup3\n        /* \"#utility.yul\":25977:25978   */\n      dup3\n        /* \"#utility.yul\":25973:25982   */\n      add\n        /* \"#utility.yul\":25966:25982   */\n      swap1\n      pop\n        /* \"#utility.yul\":26003:26021   */\n      0xffffffffffffffff\n        /* \"#utility.yul\":25998:26001   */\n      dup2\n        /* \"#utility.yul\":25995:26022   */\n      gt\n        /* \"#utility.yul\":25992:26045   */\n      iszero\n      tag_623\n      jumpi\n        /* \"#utility.yul\":26025:26043   */\n      tag_624\n      tag_342\n      jump\t// in\n    tag_624:\n        /* \"#utility.yul\":25992:26045   */\n    tag_623:\n        /* \"#utility.yul\":25847:26052   */\n      swap3\n      swap2\n      pop\n      pop\n      jump\t// out\n        /* \"#utility.yul\":26058:26284   */\n    tag_369:\n        /* \"#utility.yul\":26198:26232   */\n      0x436f6d6d697452657665616c3a3a72657665616c3a2052657665616c65642074\n        /* \"#utility.yul\":26194:26195   */\n      0x00\n        /* \"#utility.yul\":26186:26192   */\n      dup3\n        /* \"#utility.yul\":26182:26196   */\n      add\n        /* \"#utility.yul\":26175:26233   */\n      mstore\n        /* \"#utility.yul\":26267:26276   */\n      0x6f6f206c61746500000000000000000000000000000000000000000000000000\n        /* \"#utility.yul\":26262:26264   */\n      0x20\n        /* \"#utility.yul\":26254:26260   */\n      dup3\n        /* \"#utility.yul\":26250:26265   */\n      add\n        /* \"#utility.yul\":26243:26277   */\n      mstore\n        /* \"#utility.yul\":26058:26284   */\n      pop\n      jump\t// out\n        /* \"#utility.yul\":26290:26656   */\n    tag_370:\n        /* \"#utility.yul\":26432:26435   */\n      0x00\n        /* \"#utility.yul\":26453:26520   */\n      tag_627\n        /* \"#utility.yul\":26517:26519   */\n      0x27\n        /* \"#utility.yul\":26512:26515   */\n      dup4\n        /* \"#utility.yul\":26453:26520   */\n      tag_329\n      jump\t// in\n    tag_627:\n        /* \"#utility.yul\":26446:26520   */\n      swap2\n      pop\n        /* \"#utility.yul\":26529:26622   */\n      tag_628\n        /* \"#utility.yul\":26618:26621   */\n      dup3\n        /* \"#utility.yul\":26529:26622   */\n      tag_369\n      jump\t// in\n    tag_628:\n        /* \"#utility.yul\":26647:26649   */\n      0x40\n        /* \"#utility.yul\":26642:26645   */\n      dup3\n        /* \"#utility.yul\":26638:26650   */\n      add\n        /* \"#utility.yul\":26631:26650   */\n      swap1\n      pop\n        /* \"#utility.yul\":26290:26656   */\n      swap2\n      swap1\n      pop\n      jump\t// out\n        /* \"#utility.yul\":26662:27081   */\n    tag_277:\n        /* \"#utility.yul\":26828:26832   */\n      0x00\n        /* \"#utility.yul\":26866:26868   */\n      0x20\n        /* \"#utility.yul\":26855:26864   */\n      dup3\n        /* \"#utility.yul\":26851:26869   */\n      add\n        /* \"#utility.yul\":26843:26869   */\n      swap1\n      pop\n        /* \"#utility.yul\":26915:26924   */\n      dup2\n        /* \"#utility.yul\":26909:26913   */\n      dup2\n        /* \"#utility.yul\":26905:26925   */\n      sub\n        /* \"#utility.yul\":26901:26902   */\n      0x00\n        /* \"#utility.yul\":26890:26899   */\n      dup4\n        /* \"#utility.yul\":26886:26903   */\n      add\n        /* \"#utility.yul\":26879:26926   */\n      mstore\n        /* \"#utility.yul\":26943:27074   */\n      tag_630\n        /* \"#utility.yul\":27069:27073   */\n      dup2\n        /* \"#utility.yul\":26943:27074   */\n      tag_370\n      jump\t// in\n    tag_630:\n        /* \"#utility.yul\":26935:27074   */\n      swap1\n      pop\n        /* \"#utility.yul\":26662:27081   */\n      swap2\n      swap1\n      pop\n      jump\t// out\n        /* \"#utility.yul\":27087:27484   */\n    tag_279:\n        /* \"#utility.yul\":27227:27230   */\n      0x00\n        /* \"#utility.yul\":27242:27317   */\n      tag_632\n        /* \"#utility.yul\":27313:27316   */\n      dup3\n        /* \"#utility.yul\":27304:27310   */\n      dup6\n        /* \"#utility.yul\":27242:27317   */\n      tag_341\n      jump\t// in\n    tag_632:\n        /* \"#utility.yul\":27342:27344   */\n      0x20\n        /* \"#utility.yul\":27337:27340   */\n      dup3\n        /* \"#utility.yul\":27333:27345   */\n      add\n        /* \"#utility.yul\":27326:27345   */\n      swap2\n      pop\n        /* \"#utility.yul\":27355:27430   */\n      tag_633\n        /* \"#utility.yul\":27426:27429   */\n      dup3\n        /* \"#utility.yul\":27417:27423   */\n      dup5\n        /* \"#utility.yul\":27355:27430   */\n      tag_341\n      jump\t// in\n    tag_633:\n        /* \"#utility.yul\":27455:27457   */\n      0x20\n        /* \"#utility.yul\":27450:27453   */\n      dup3\n        /* \"#utility.yul\":27446:27458   */\n      add\n        /* \"#utility.yul\":27439:27458   */\n      swap2\n      pop\n        /* \"#utility.yul\":27475:27478   */\n      dup2\n        /* \"#utility.yul\":27468:27478   */\n      swap1\n      pop\n        /* \"#utility.yul\":27087:27484   */\n      swap4\n      swap3\n      pop\n      pop\n      pop\n      jump\t// out\n        /* \"#utility.yul\":27490:27932   */\n    tag_282:\n        /* \"#utility.yul\":27639:27643   */\n      0x00\n        /* \"#utility.yul\":27677:27679   */\n      0x60\n        /* \"#utility.yul\":27666:27675   */\n      dup3\n        /* \"#utility.yul\":27662:27680   */\n      add\n        /* \"#utility.yul\":27654:27680   */\n      swap1\n      pop\n        /* \"#utility.yul\":27690:27761   */\n      tag_635\n        /* \"#utility.yul\":27758:27759   */\n      0x00\n        /* \"#utility.yul\":27747:27756   */\n      dup4\n        /* \"#utility.yul\":27743:27760   */\n      add\n        /* \"#utility.yul\":27734:27740   */\n      dup7\n        /* \"#utility.yul\":27690:27761   */\n      tag_325\n      jump\t// in\n    tag_635:\n        /* \"#utility.yul\":27771:27843   */\n      tag_636\n        /* \"#utility.yul\":27839:27841   */\n      0x20\n        /* \"#utility.yul\":27828:27837   */\n      dup4\n        /* \"#utility.yul\":27824:27842   */\n      add\n        /* \"#utility.yul\":27815:27821   */\n      dup6\n        /* \"#utility.yul\":27771:27843   */\n      tag_319\n      jump\t// in\n    tag_636:\n        /* \"#utility.yul\":27853:27925   */\n      tag_637\n        /* \"#utility.yul\":27921:27923   */\n      0x40\n        /* \"#utility.yul\":27910:27919   */\n      dup4\n        /* \"#utility.yul\":27906:27924   */\n      add\n        /* \"#utility.yul\":27897:27903   */\n      dup5\n        /* \"#utility.yul\":27853:27925   */\n      tag_320\n      jump\t// in\n    tag_637:\n        /* \"#utility.yul\":27490:27932   */\n      swap5\n      swap4\n      pop\n      pop\n      pop\n      pop\n      jump\t// out\n        /* \"#utility.yul\":27938:28053   */\n    tag_371:\n        /* \"#utility.yul\":28023:28046   */\n      tag_639\n        /* \"#utility.yul\":28040:28045   */\n      dup2\n        /* \"#utility.yul\":28023:28046   */\n      tag_368\n      jump\t// in\n    tag_639:\n        /* \"#utility.yul\":28018:28021   */\n      dup3\n        /* \"#utility.yul\":28011:28047   */\n      mstore\n        /* \"#utility.yul\":27938:28053   */\n      pop\n      pop\n      jump\t// out\n        /* \"#utility.yul\":28059:28497   */\n    tag_302:\n        /* \"#utility.yul\":28206:28210   */\n      0x00\n        /* \"#utility.yul\":28244:28246   */\n      0x60\n        /* \"#utility.yul\":28233:28242   */\n      dup3\n        /* \"#utility.yul\":28229:28247   */\n      add\n        /* \"#utility.yul\":28221:28247   */\n      swap1\n      pop\n        /* \"#utility.yul\":28257:28328   */\n      tag_641\n        /* \"#utility.yul\":28325:28326   */\n      0x00\n        /* \"#utility.yul\":28314:28323   */\n      dup4\n        /* \"#utility.yul\":28310:28327   */\n      add\n        /* \"#utility.yul\":28301:28307   */\n      dup7\n        /* \"#utility.yul\":28257:28328   */\n      tag_325\n      jump\t// in\n    tag_641:\n        /* \"#utility.yul\":28338:28410   */\n      tag_642\n        /* \"#utility.yul\":28406:28408   */\n      0x20\n        /* \"#utility.yul\":28395:28404   */\n      dup4\n        /* \"#utility.yul\":28391:28409   */\n      add\n        /* \"#utility.yul\":28382:28388   */\n      dup6\n        /* \"#utility.yul\":28338:28410   */\n      tag_319\n      jump\t// in\n    tag_642:\n        /* \"#utility.yul\":28420:28490   */\n      tag_643\n        /* \"#utility.yul\":28486:28488   */\n      0x40\n        /* \"#utility.yul\":28475:28484   */\n      dup4\n        /* \"#utility.yul\":28471:28489   */\n      add\n        /* \"#utility.yul\":28462:28468   */\n      dup5\n        /* \"#utility.yul\":28420:28490   */\n      tag_371\n      jump\t// in\n    tag_643:\n        /* \"#utility.yul\":28059:28497   */\n      swap5\n      swap4\n      pop\n      pop\n      pop\n      pop\n      jump\t// out\n    stop\n    data_3473fcf7a6f7130aa73d78485aa428e65c401496101180b918a5c8806c97646d 43757272656e742053746167653a20436f6d6d69740a54696d652052656d61696e696e672028736563636f6e6473293a20\n    data_8be7f5da53196a8cc29b1553b80bddd7ed5250f8bb51213a46afbf06e5159b85 43757272656e742053746167653a2057697468647261772053746167652c20796f752063616e20776974686472617720796f757220455448206e6f770a\n    data_ac0663802acae49599791beefeab4300b4f4cc02125f2e208a83d00e76801af0 43757272656e742053746167653a2046696e64696e672057696e6e65720a54696d652052656d61696e696e672028736563636f6e6473293a20\n    data_b7e1bf0ac95499c3e9fcbc6c6ec9ff21cdd9221046e4d673a8ac288085ad002e 43757272656e742053746167653a2052657665616c0a54696d652052656d61696e696e672028736563636f6e6473293a20\n\n    auxdata: 0xa264697066735822122027026bfb5ea3063ce7e3a4eea18fc001105fd5ef29a7cc1d025668aac38b563e64736f6c63430008180033\n}\n",
				"bytecode": {
					"linkReferences": {},
					"object": "608060405260645f806101000a81548160ff021916908360ff1602179055505f6009553480156200002e575f80fd5b5060405162002a8838038062002a888339818101604052810190620000549190620000f6565b3360025f6101000a81548173ffffffffffffffffffffffffffffffffffffffff021916908373ffffffffffffffffffffffffffffffffffffffff160217905550836007819055508260048190555081600681905550806004819055505050505062000165565b5f80fd5b5f819050919050565b620000d281620000be565b8114620000dd575f80fd5b50565b5f81519050620000f081620000c7565b92915050565b5f805f8060808587031215620001115762000110620000ba565b5b5f6200012087828801620000e0565b94505060206200013387828801620000e0565b93505060406200014687828801620000e0565b92505060606200015987828801620000e0565b91505092959194509250565b61291580620001735f395ff3fe6080604052600436106100fd575f3560e01c80638da5cb5b11610094578063a11efef411610063578063a11efef414610317578063c9e525df14610341578063d57b65cb1461036b578063eedbe31d1461039b578063fc4a4a1e146103c6576100fd565b80638da5cb5b146102715780638dddbf361461029b5780638e71decb146102d75780638f32d59b146102ed576100fd565b80635afa1fd8116100d05780635afa1fd8146101cb5780635bf5d54c146101f35780637c8673dc1461021d57806384c9ad6e14610247576100fd565b8063073d8ff3146101015780632e1a7d4d1461013d57806331081d7e146101655780633cf5040a1461018f575b5f80fd5b34801561010c575f80fd5b5061012760048036038101906101229190611a41565b6103f0565b6040516101349190611ab3565b60405180910390f35b348015610148575f80fd5b50610163600480360381019061015e9190611acc565b61044f565b005b348015610170575f80fd5b50610179610630565b6040516101869190611b06565b60405180910390f35b34801561019a575f80fd5b506101b560048036038101906101b09190611b49565b610636565b6040516101c29190611ab3565b60405180910390f35b3480156101d6575f80fd5b506101f160048036038101906101ec9190611b74565b610667565b005b3480156101fe575f80fd5b50610207610829565b6040516102149190611b06565b60405180910390f35b348015610228575f80fd5b5061023161082f565b60405161023e9190611b06565b60405180910390f35b348015610252575f80fd5b5061025b610835565b6040516102689190611b06565b60405180910390f35b34801561027c575f80fd5b5061028561083b565b6040516102929190611c1f565b60405180910390f35b3480156102a6575f80fd5b506102c160048036038101906102bc9190611c38565b610863565b6040516102ce9190611ab3565b60405180910390f35b3480156102e2575f80fd5b506102eb610897565b005b3480156102f8575f80fd5b50610301610d28565b60405161030e9190611c90565b60405180910390f35b348015610322575f80fd5b5061032b610d7e565b6040516103389190611b06565b60405180910390f35b34801561034c575f80fd5b50610355610d84565b6040516103629190611b06565b60405180910390f35b61038560048036038101906103809190611b49565b610d8a565b6040516103929190611b06565b60405180910390f35b3480156103a6575f80fd5b506103af610faa565b6040516103bd929190611d23565b60405180910390f35b3480156103d1575f80fd5b506103da611177565b6040516103e79190611b06565b60405180910390f35b5f80826040516020016104039190611d8b565b60405160208183030381529060405261041b90611dda565b90508381604051602001610430929190611e80565b6040516020818303038152906040528051906020012091505092915050565b6006546005546004546003546104659190611ed8565b61046f9190611ed8565b6104799190611ed8565b42116104ba576040517f08c379a00000000000000000000000000000000000000000000000000000000081526004016104b190611f55565b60405180910390fd5b600a5f8281526020019081526020015f2060010160039054906101000a900473ffffffffffffffffffffffffffffffffffffffff1673ffffffffffffffffffffffffffffffffffffffff163373ffffffffffffffffffffffffffffffffffffffff161461055c576040517f08c379a000000000000000000000000000000000000000000000000000000000815260040161055390611fbd565b60405180910390fd5b5f1515600a5f8381526020019081526020015f2060010160029054906101000a900460ff1615151461058c575f80fd5b6001600a5f8381526020019081526020015f2060010160026101000a81548160ff0219169083151502179055503373ffffffffffffffffffffffffffffffffffffffff166108fc66038d7ea4c6800090811502906040515f60405180830381858888f19350505050158015610603573d5f803e3d5ffd5b5060085f81548092919061061690611fdb565b91905055505f6008540361062d5761062c61117d565b5b50565b60065481565b5f308260405160200161064a929190612047565b604051602081830303815290604052805190602001209050919050565b426004546003546106789190611ed8565b1080156106a057506005546004546003546106939190611ed8565b61069d9190611ed8565b42105b6106df576040517f08c379a00000000000000000000000000000000000000000000000000000000081526004016106d6906120bc565b60405180910390fd5b600a5f8481526020019081526020015f2060010160039054906101000a900473ffffffffffffffffffffffffffffffffffffffff1673ffffffffffffffffffffffffffffffffffffffff163373ffffffffffffffffffffffffffffffffffffffff1614610781576040517f08c379a000000000000000000000000000000000000000000000000000000000815260040161077890611fbd565b60405180910390fd5b5f816040516020016107939190611d8b565b6040516020818303038152906040526107ab90611dda565b90506107de83826040516020016107c3929190611e80565b60405160208183030381529060405280519060200120611194565b82600a5f8681526020019081526020015f205f01819055506001600a5f8681526020019081526020015f2060010160016101000a81548160ff02191690831515021790555050505050565b60095481565b60085481565b60055481565b5f60025f9054906101000a900473ffffffffffffffffffffffffffffffffffffffff16905090565b5f308383604051602001610879939291906120da565b60405160208183030381529060405280519060200120905092915050565b61089f610d28565b6108de576040517f08c379a00000000000000000000000000000000000000000000000000000000081526004016108d590612186565b60405180910390fd5b426005546004546003546108f29190611ed8565b6108fc9190611ed8565b108015610931575060065460055460045460035461091a9190611ed8565b6109249190611ed8565b61092e9190611ed8565b42105b610939575f80fd5b5f60085467ffffffffffffffff8111156109565761095561191d565b5b60405190808252806020026020018201604052801561098f57816020015b61097c61187b565b8152602001906001900390816109745790505b5090505f805f90505b600854811015610c4b57600a5f8281526020019081526020015f2060010160019054906101000a900460ff1680156109e35750600a5f8281526020019081526020015f205f01545f11155b8015610a0457506103e7600a5f8381526020019081526020015f205f015411155b15610b3257600a5f8281526020019081526020015f205f0154838381518110610a3057610a2f6121a4565b5b60200260200101515f018181525050600a5f8281526020019081526020015f206001015f9054906101000a900460ff16838381518110610a7357610a726121a4565b5b60200260200101516020019015159081151581525050600a5f8281526020019081526020015f2060010160019054906101000a900460ff16838381518110610abe57610abd6121a4565b5b60200260200101516040019015159081151581525050600a5f8281526020019081526020015f2060010160029054906101000a900460ff16838381518110610b0957610b086121a4565b5b602002602001015160600190151590811515815250508180610b2a906121d1565b925050610c3e565b5f6064606266038d7ea4c68000610b499190612218565b610b539190612286565b90505f6064600266038d7ea4c68000610b6c9190612218565b610b769190612286565b9050600a5f8481526020019081526020015f2060010160039054906101000a900473ffffffffffffffffffffffffffffffffffffffff1673ffffffffffffffffffffffffffffffffffffffff166108fc8390811502906040515f60405180830381858888f19350505050158015610bef573d5f803e3d5ffd5b50610bf861083b565b73ffffffffffffffffffffffffffffffffffffffff166108fc8290811502906040515f60405180830381858888f19350505050158015610c3a573d5f803e3d5ffd5b5050505b8080600101915050610998565b505f8103610c5c57610c5b611552565b5b5f825f81518110610c7057610c6f6121a4565b5b60200260200101515f015190505f600190505b82811015610cba57838181518110610c9e57610c9d6121a4565b5b60200260200101515f0151821891508080600101915050610c83565b505f8282604051602001610cce91906122b6565b604051602081830303815290604052805190602001205f1c610cf091906122d0565b9050610d1a848281518110610d0857610d076121a4565b5b602002602001015160800151846115b8565b610d2261117d565b50505050565b5f60025f9054906101000a900473ffffffffffffffffffffffffffffffffffffffff1673ffffffffffffffffffffffffffffffffffffffff163373ffffffffffffffffffffffffffffffffffffffff1614905090565b60045481565b60075481565b5f66038d7ea4c680003414610dd4576040517f08c379a0000000000000000000000000000000000000000000000000000000008152600401610dcb90612370565b60405180910390fd5b60075460085410610e1a576040517f08c379a0000000000000000000000000000000000000000000000000000000008152600401610e11906123fe565b60405180910390fd5b5f60095403610e33576001600981905550426003819055505b600454600354610e439190611ed8565b4210610e84576040517f08c379a0000000000000000000000000000000000000000000000000000000008152600401610e7b90612466565b60405180910390fd5b5f6008549050610e9b610e9684610636565b6116a9565b5f600a5f8381526020019081526020015f205f01819055506001600a5f8381526020019081526020015f206001015f6101000a81548160ff0219169083151502179055505f600a5f8381526020019081526020015f2060010160016101000a81548160ff0219169083151502179055505f600a5f8381526020019081526020015f2060010160026101000a81548160ff02191690831515021790555033600a5f8381526020019081526020015f2060010160036101000a81548173ffffffffffffffffffffffffffffffffffffffff021916908373ffffffffffffffffffffffffffffffffffffffff16021790555060085f815480929190610f9c906121d1565b919050555080915050919050565b60605f8060095403610ff7575f6040518060400160405280600481526020017f49646c65000000000000000000000000000000000000000000000000000000008152509091509150611173565b600160095403611172576004546003546110119190611ed8565b42101561105657426004546003546110299190611ed8565b6110339190612484565b604051806060016040528060318152602001612808603191399091509150611173565b6005546004546003546110699190611ed8565b6110739190611ed8565b4210156110c5574260055460045460035461108e9190611ed8565b6110989190611ed8565b6110a29190612484565b6040518060600160405280603181526020016128af603191399091509150611173565b6006546005546004546003546110db9190611ed8565b6110e59190611ed8565b6110ef9190611ed8565b42101561114e574260065460055460045460035461110d9190611ed8565b6111179190611ed8565b6111219190611ed8565b61112b9190612484565b604051806060016040528060398152602001612876603991399091509150611173565b5f6040518060600160405280603d8152602001612839603d91399091509150611173565b5b9091565b60035481565b5f6009819055505f60088190555042600381905550565b5f151560015f3373ffffffffffffffffffffffffffffffffffffffff1673ffffffffffffffffffffffffffffffffffffffff1681526020019081526020015f2060010160089054906101000a900460ff16151514611227576040517f08c379a000000000000000000000000000000000000000000000000000000000815260040161121e90612527565b60405180910390fd5b6001805f3373ffffffffffffffffffffffffffffffffffffffff1673ffffffffffffffffffffffffffffffffffffffff1681526020019081526020015f2060010160086101000a81548160ff02191690831515021790555060015f3373ffffffffffffffffffffffffffffffffffffffff1673ffffffffffffffffffffffffffffffffffffffff1681526020019081526020015f205f01546112c882610636565b14611308576040517f08c379a00000000000000000000000000000000000000000000000000000000081526004016112ff906125b5565b60405180910390fd5b60015f3373ffffffffffffffffffffffffffffffffffffffff1673ffffffffffffffffffffffffffffffffffffffff1681526020019081526020015f206001015f9054906101000a900467ffffffffffffffff1667ffffffffffffffff164367ffffffffffffffff16116113b1576040517f08c379a00000000000000000000000000000000000000000000000000000000081526004016113a890612669565b60405180910390fd5b60fa60015f3373ffffffffffffffffffffffffffffffffffffffff1673ffffffffffffffffffffffffffffffffffffffff1681526020019081526020015f206001015f9054906101000a900467ffffffffffffffff16611411919061269a565b67ffffffffffffffff164367ffffffffffffffff161115611467576040517f08c379a000000000000000000000000000000000000000000000000000000000815260040161145e90612745565b60405180910390fd5b5f60015f3373ffffffffffffffffffffffffffffffffffffffff1673ffffffffffffffffffffffffffffffffffffffff1681526020019081526020015f206001015f9054906101000a900467ffffffffffffffff1667ffffffffffffffff164090505f805f9054906101000a900460ff1660ff1682846040516020016114ee929190612763565b604051602081830303815290604052805190602001205f1c61151091906122d0565b90507fbc016dd1cadeaefcb851af7a0a93532e0023d536894b730801f7bcfe7065bcc23384836040516115459392919061278e565b60405180910390a1505050565b5f60085466038d7ea4c680006115689190612218565b905061157261083b565b73ffffffffffffffffffffffffffffffffffffffff166108fc8290811502906040515f60405180830381858888f193505050501580156115b4573d5f803e3d5ffd5b5050565b5f606460628366038d7ea4c680006115d09190612218565b6115da9190612218565b6115e49190612286565b90505f606460028466038d7ea4c680006115fe9190612218565b6116089190612218565b6116129190612286565b90508373ffffffffffffffffffffffffffffffffffffffff166108fc8390811502906040515f60405180830381858888f19350505050158015611657573d5f803e3d5ffd5b5061166061083b565b73ffffffffffffffffffffffffffffffffffffffff166108fc8290811502906040515f60405180830381858888f193505050501580156116a2573d5f803e3d5ffd5b5050505050565b8060015f3373ffffffffffffffffffffffffffffffffffffffff1673ffffffffffffffffffffffffffffffffffffffff1681526020019081526020015f205f01819055504360015f3373ffffffffffffffffffffffffffffffffffffffff1673ffffffffffffffffffffffffffffffffffffffff1681526020019081526020015f206001015f6101000a81548167ffffffffffffffff021916908367ffffffffffffffff1602179055505f60015f3373ffffffffffffffffffffffffffffffffffffffff1673ffffffffffffffffffffffffffffffffffffffff1681526020019081526020015f2060010160086101000a81548160ff0219169083151502179055507f3c1a1f8f38335b17f751c6da4ba7d1865f26b3997535176f5080de9fad8916033360015f3373ffffffffffffffffffffffffffffffffffffffff1673ffffffffffffffffffffffffffffffffffffffff1681526020019081526020015f205f015460015f3373ffffffffffffffffffffffffffffffffffffffff1673ffffffffffffffffffffffffffffffffffffffff1681526020019081526020015f206001015f9054906101000a900467ffffffffffffffff16604051611870939291906127d2565b60405180910390a150565b6040518060a001604052805f81526020015f151581526020015f151581526020015f151581526020015f73ffffffffffffffffffffffffffffffffffffffff1681525090565b5f604051905090565b5f80fd5b5f80fd5b5f819050919050565b6118e4816118d2565b81146118ee575f80fd5b50565b5f813590506118ff816118db565b92915050565b5f80fd5b5f80fd5b5f601f19601f8301169050919050565b7f4e487b71000000000000000000000000000000000000000000000000000000005f52604160045260245ffd5b6119538261190d565b810181811067ffffffffffffffff821117156119725761197161191d565b5b80604052505050565b5f6119846118c1565b9050611990828261194a565b919050565b5f67ffffffffffffffff8211156119af576119ae61191d565b5b6119b88261190d565b9050602081019050919050565b828183375f83830152505050565b5f6119e56119e084611995565b61197b565b905082815260208101848484011115611a0157611a00611909565b5b611a0c8482856119c5565b509392505050565b5f82601f830112611a2857611a27611905565b5b8135611a388482602086016119d3565b91505092915050565b5f8060408385031215611a5757611a566118ca565b5b5f611a64858286016118f1565b925050602083013567ffffffffffffffff811115611a8557611a846118ce565b5b611a9185828601611a14565b9150509250929050565b5f819050919050565b611aad81611a9b565b82525050565b5f602082019050611ac65f830184611aa4565b92915050565b5f60208284031215611ae157611ae06118ca565b5b5f611aee848285016118f1565b91505092915050565b611b00816118d2565b82525050565b5f602082019050611b195f830184611af7565b92915050565b611b2881611a9b565b8114611b32575f80fd5b50565b5f81359050611b4381611b1f565b92915050565b5f60208284031215611b5e57611b5d6118ca565b5b5f611b6b84828501611b35565b91505092915050565b5f805f60608486031215611b8b57611b8a6118ca565b5b5f611b98868287016118f1565b9350506020611ba9868287016118f1565b925050604084013567ffffffffffffffff811115611bca57611bc96118ce565b5b611bd686828701611a14565b9150509250925092565b5f73ffffffffffffffffffffffffffffffffffffffff82169050919050565b5f611c0982611be0565b9050919050565b611c1981611bff565b82525050565b5f602082019050611c325f830184611c10565b92915050565b5f8060408385031215611c4e57611c4d6118ca565b5b5f611c5b85828601611b35565b9250506020611c6c85828601611b35565b9150509250929050565b5f8115159050919050565b611c8a81611c76565b82525050565b5f602082019050611ca35f830184611c81565b92915050565b5f81519050919050565b5f82825260208201905092915050565b5f5b83811015611ce0578082015181840152602081019050611cc5565b5f8484015250505050565b5f611cf582611ca9565b611cff8185611cb3565b9350611d0f818560208601611cc3565b611d188161190d565b840191505092915050565b5f6040820190508181035f830152611d3b8185611ceb565b9050611d4a6020830184611af7565b9392505050565b5f81905092915050565b5f611d6582611ca9565b611d6f8185611d51565b9350611d7f818560208601611cc3565b80840191505092915050565b5f611d968284611d5b565b915081905092915050565b5f81519050919050565b5f819050602082019050919050565b5f611dc58251611a9b565b80915050919050565b5f82821b905092915050565b5f611de482611da1565b82611dee84611dab565b9050611df981611dba565b92506020821015611e3957611e347fffffffffffffffffffffffffffffffffffffffffffffffffffffffffffffffff83602003600802611dce565b831692505b5050919050565b5f819050919050565b611e5a611e55826118d2565b611e40565b82525050565b5f819050919050565b611e7a611e7582611a9b565b611e60565b82525050565b5f611e8b8285611e49565b602082019150611e9b8284611e69565b6020820191508190509392505050565b7f4e487b71000000000000000000000000000000000000000000000000000000005f52601160045260245ffd5b5f611ee2826118d2565b9150611eed836118d2565b9250828201905080821115611f0557611f04611eab565b5b92915050565b7f4f7574206f6620776974686472617720706572696f64000000000000000000005f82015250565b5f611f3f601683611cb3565b9150611f4a82611f0b565b602082019050919050565b5f6020820190508181035f830152611f6c81611f33565b9050919050565b7f57726f6e6720496e6465780000000000000000000000000000000000000000005f82015250565b5f611fa7600b83611cb3565b9150611fb282611f73565b602082019050919050565b5f6020820190508181035f830152611fd481611f9b565b9050919050565b5f611fe5826118d2565b91505f8203611ff757611ff6611eab565b5b600182039050919050565b5f8160601b9050919050565b5f61201882612002565b9050919050565b5f6120298261200e565b9050919050565b61204161203c82611bff565b61201f565b82525050565b5f6120528285612030565b6014820191506120628284611e69565b6020820191508190509392505050565b7f4f7574206f662052657665616c20537461676520706572696f640000000000005f82015250565b5f6120a6601a83611cb3565b91506120b182612072565b602082019050919050565b5f6020820190508181035f8301526120d38161209a565b9050919050565b5f6120e58286612030565b6014820191506120f58285611e69565b6020820191506121058284611e69565b602082019150819050949350505050565b7f4f6e6c79206f776e65722063616e2063616c6c20746869732066756e6374696f5f8201527f6e00000000000000000000000000000000000000000000000000000000000000602082015250565b5f612170602183611cb3565b915061217b82612116565b604082019050919050565b5f6020820190508181035f83015261219d81612164565b9050919050565b7f4e487b71000000000000000000000000000000000000000000000000000000005f52603260045260245ffd5b5f6121db826118d2565b91507fffffffffffffffffffffffffffffffffffffffffffffffffffffffffffffffff820361220d5761220c611eab565b5b600182019050919050565b5f612222826118d2565b915061222d836118d2565b925082820261223b816118d2565b9150828204841483151761225257612251611eab565b5b5092915050565b7f4e487b71000000000000000000000000000000000000000000000000000000005f52601260045260245ffd5b5f612290826118d2565b915061229b836118d2565b9250826122ab576122aa612259565b5b828204905092915050565b5f6122c18284611e49565b60208201915081905092915050565b5f6122da826118d2565b91506122e5836118d2565b9250826122f5576122f4612259565b5b828206905092915050565b7f5265717569726520302e3030312045544820666f72204c6f74746572792066655f8201527f6500000000000000000000000000000000000000000000000000000000000000602082015250565b5f61235a602183611cb3565b915061236582612300565b604082019050919050565b5f6020820190508181035f8301526123878161234e565b9050919050565b7f546865206e756d626572206f6620706c617965727320697320636f6d706c65745f8201527f6500000000000000000000000000000000000000000000000000000000000000602082015250565b5f6123e8602183611cb3565b91506123f38261238e565b604082019050919050565b5f6020820190508181035f830152612415816123dc565b9050919050565b7f436f6d6d697420537461676520686173206578706972656400000000000000005f82015250565b5f612450601883611cb3565b915061245b8261241c565b602082019050919050565b5f6020820190508181035f83015261247d81612444565b9050919050565b5f61248e826118d2565b9150612499836118d2565b92508282039050818111156124b1576124b0611eab565b5b92915050565b7f436f6d6d697452657665616c3a3a72657665616c3a20416c72656164792072655f8201527f7665616c65640000000000000000000000000000000000000000000000000000602082015250565b5f612511602683611cb3565b915061251c826124b7565b604082019050919050565b5f6020820190508181035f83015261253e81612505565b9050919050565b7f436f6d6d697452657665616c3a3a72657665616c3a2052657665616c656420685f8201527f61736820646f6573206e6f74206d6174636820636f6d6d697400000000000000602082015250565b5f61259f603983611cb3565b91506125aa82612545565b604082019050919050565b5f6020820190508181035f8301526125cc81612593565b9050919050565b7f436f6d6d697452657665616c3a3a72657665616c3a2052657665616c20616e645f8201527f20636f6d6d69742068617070656e6564206f6e207468652073616d6520626c6f60208201527f636b000000000000000000000000000000000000000000000000000000000000604082015250565b5f612653604283611cb3565b915061265e826125d3565b606082019050919050565b5f6020820190508181035f83015261268081612647565b9050919050565b5f67ffffffffffffffff82169050919050565b5f6126a482612687565b91506126af83612687565b9250828201905067ffffffffffffffff8111156126cf576126ce611eab565b5b92915050565b7f436f6d6d697452657665616c3a3a72657665616c3a2052657665616c656420745f8201527f6f6f206c61746500000000000000000000000000000000000000000000000000602082015250565b5f61272f602783611cb3565b915061273a826126d5565b604082019050919050565b5f6020820190508181035f83015261275c81612723565b9050919050565b5f61276e8285611e69565b60208201915061277e8284611e69565b6020820191508190509392505050565b5f6060820190506127a15f830186611c10565b6127ae6020830185611aa4565b6127bb6040830184611af7565b949350505050565b6127cc81612687565b82525050565b5f6060820190506127e55f830186611c10565b6127f26020830185611aa4565b6127ff60408301846127c3565b94935050505056fe43757272656e742053746167653a20436f6d6d69740a54696d652052656d61696e696e672028736563636f6e6473293a2043757272656e742053746167653a2057697468647261772053746167652c20796f752063616e20776974686472617720796f757220455448206e6f770a43757272656e742053746167653a2046696e64696e672057696e6e65720a54696d652052656d61696e696e672028736563636f6e6473293a2043757272656e742053746167653a2052657665616c0a54696d652052656d61696e696e672028736563636f6e6473293a20a264697066735822122027026bfb5ea3063ce7e3a4eea18fc001105fd5ef29a7cc1d025668aac38b563e64736f6c63430008180033",
					"opcodes": "PUSH1 0x80 PUSH1 0x40 MSTORE PUSH1 0x64 PUSH0 DUP1 PUSH2 0x100 EXP DUP2 SLOAD DUP2 PUSH1 0xFF MUL NOT AND SWAP1 DUP4 PUSH1 0xFF AND MUL OR SWAP1 SSTORE POP PUSH0 PUSH1 0x9 SSTORE CALLVALUE DUP1 ISZERO PUSH3 0x2E JUMPI PUSH0 DUP1 REVERT JUMPDEST POP PUSH1 0x40 MLOAD PUSH3 0x2A88 CODESIZE SUB DUP1 PUSH3 0x2A88 DUP4 CODECOPY DUP2 DUP2 ADD PUSH1 0x40 MSTORE DUP2 ADD SWAP1 PUSH3 0x54 SWAP2 SWAP1 PUSH3 0xF6 JUMP JUMPDEST CALLER PUSH1 0x2 PUSH0 PUSH2 0x100 EXP DUP2 SLOAD DUP2 PUSH20 0xFFFFFFFFFFFFFFFFFFFFFFFFFFFFFFFFFFFFFFFF MUL NOT AND SWAP1 DUP4 PUSH20 0xFFFFFFFFFFFFFFFFFFFFFFFFFFFFFFFFFFFFFFFF AND MUL OR SWAP1 SSTORE POP DUP4 PUSH1 0x7 DUP2 SWAP1 SSTORE POP DUP3 PUSH1 0x4 DUP2 SWAP1 SSTORE POP DUP2 PUSH1 0x6 DUP2 SWAP1 SSTORE POP DUP1 PUSH1 0x4 DUP2 SWAP1 SSTORE POP POP POP POP POP PUSH3 0x165 JUMP JUMPDEST PUSH0 DUP1 REVERT JUMPDEST PUSH0 DUP2 SWAP1 POP SWAP2 SWAP1 POP JUMP JUMPDEST PUSH3 0xD2 DUP2 PUSH3 0xBE JUMP JUMPDEST DUP2 EQ PUSH3 0xDD JUMPI PUSH0 DUP1 REVERT JUMPDEST POP JUMP JUMPDEST PUSH0 DUP2 MLOAD SWAP1 POP PUSH3 0xF0 DUP2 PUSH3 0xC7 JUMP JUMPDEST SWAP3 SWAP2 POP POP JUMP JUMPDEST PUSH0 DUP1 PUSH0 DUP1 PUSH1 0x80 DUP6 DUP8 SUB SLT ISZERO PUSH3 0x111 JUMPI PUSH3 0x110 PUSH3 0xBA JUMP JUMPDEST JUMPDEST PUSH0 PUSH3 0x120 DUP8 DUP3 DUP9 ADD PUSH3 0xE0 JUMP JUMPDEST SWAP5 POP POP PUSH1 0x20 PUSH3 0x133 DUP8 DUP3 DUP9 ADD PUSH3 0xE0 JUMP JUMPDEST SWAP4 POP POP PUSH1 0x40 PUSH3 0x146 DUP8 DUP3 DUP9 ADD PUSH3 0xE0 JUMP JUMPDEST SWAP3 POP POP PUSH1 0x60 PUSH3 0x159 DUP8 DUP3 DUP9 ADD PUSH3 0xE0 JUMP JUMPDEST SWAP2 POP POP SWAP3 SWAP6 SWAP2 SWAP5 POP SWAP3 POP JUMP JUMPDEST PUSH2 0x2915 DUP1 PUSH3 0x173 PUSH0 CODECOPY PUSH0 RETURN INVALID PUSH1 0x80 PUSH1 0x40 MSTORE PUSH1 0x4 CALLDATASIZE LT PUSH2 0xFD JUMPI PUSH0 CALLDATALOAD PUSH1 0xE0 SHR DUP1 PUSH4 0x8DA5CB5B GT PUSH2 0x94 JUMPI DUP1 PUSH4 0xA11EFEF4 GT PUSH2 0x63 JUMPI DUP1 PUSH4 0xA11EFEF4 EQ PUSH2 0x317 JUMPI DUP1 PUSH4 0xC9E525DF EQ PUSH2 0x341 JUMPI DUP1 PUSH4 0xD57B65CB EQ PUSH2 0x36B JUMPI DUP1 PUSH4 0xEEDBE31D EQ PUSH2 0x39B JUMPI DUP1 PUSH4 0xFC4A4A1E EQ PUSH2 0x3C6 JUMPI PUSH2 0xFD JUMP JUMPDEST DUP1 PUSH4 0x8DA5CB5B EQ PUSH2 0x271 JUMPI DUP1 PUSH4 0x8DDDBF36 EQ PUSH2 0x29B JUMPI DUP1 PUSH4 0x8E71DECB EQ PUSH2 0x2D7 JUMPI DUP1 PUSH4 0x8F32D59B EQ PUSH2 0x2ED JUMPI PUSH2 0xFD JUMP JUMPDEST DUP1 PUSH4 0x5AFA1FD8 GT PUSH2 0xD0 JUMPI DUP1 PUSH4 0x5AFA1FD8 EQ PUSH2 0x1CB JUMPI DUP1 PUSH4 0x5BF5D54C EQ PUSH2 0x1F3 JUMPI DUP1 PUSH4 0x7C8673DC EQ PUSH2 0x21D JUMPI DUP1 PUSH4 0x84C9AD6E EQ PUSH2 0x247 JUMPI PUSH2 0xFD JUMP JUMPDEST DUP1 PUSH4 0x73D8FF3 EQ PUSH2 0x101 JUMPI DUP1 PUSH4 0x2E1A7D4D EQ PUSH2 0x13D JUMPI DUP1 PUSH4 0x31081D7E EQ PUSH2 0x165 JUMPI DUP1 PUSH4 0x3CF5040A EQ PUSH2 0x18F JUMPI JUMPDEST PUSH0 DUP1 REVERT JUMPDEST CALLVALUE DUP1 ISZERO PUSH2 0x10C JUMPI PUSH0 DUP1 REVERT JUMPDEST POP PUSH2 0x127 PUSH1 0x4 DUP1 CALLDATASIZE SUB DUP2 ADD SWAP1 PUSH2 0x122 SWAP2 SWAP1 PUSH2 0x1A41 JUMP JUMPDEST PUSH2 0x3F0 JUMP JUMPDEST PUSH1 0x40 MLOAD PUSH2 0x134 SWAP2 SWAP1 PUSH2 0x1AB3 JUMP JUMPDEST PUSH1 0x40 MLOAD DUP1 SWAP2 SUB SWAP1 RETURN JUMPDEST CALLVALUE DUP1 ISZERO PUSH2 0x148 JUMPI PUSH0 DUP1 REVERT JUMPDEST POP PUSH2 0x163 PUSH1 0x4 DUP1 CALLDATASIZE SUB DUP2 ADD SWAP1 PUSH2 0x15E SWAP2 SWAP1 PUSH2 0x1ACC JUMP JUMPDEST PUSH2 0x44F JUMP JUMPDEST STOP JUMPDEST CALLVALUE DUP1 ISZERO PUSH2 0x170 JUMPI PUSH0 DUP1 REVERT JUMPDEST POP PUSH2 0x179 PUSH2 0x630 JUMP JUMPDEST PUSH1 0x40 MLOAD PUSH2 0x186 SWAP2 SWAP1 PUSH2 0x1B06 JUMP JUMPDEST PUSH1 0x40 MLOAD DUP1 SWAP2 SUB SWAP1 RETURN JUMPDEST CALLVALUE DUP1 ISZERO PUSH2 0x19A JUMPI PUSH0 DUP1 REVERT JUMPDEST POP PUSH2 0x1B5 PUSH1 0x4 DUP1 CALLDATASIZE SUB DUP2 ADD SWAP1 PUSH2 0x1B0 SWAP2 SWAP1 PUSH2 0x1B49 JUMP JUMPDEST PUSH2 0x636 JUMP JUMPDEST PUSH1 0x40 MLOAD PUSH2 0x1C2 SWAP2 SWAP1 PUSH2 0x1AB3 JUMP JUMPDEST PUSH1 0x40 MLOAD DUP1 SWAP2 SUB SWAP1 RETURN JUMPDEST CALLVALUE DUP1 ISZERO PUSH2 0x1D6 JUMPI PUSH0 DUP1 REVERT JUMPDEST POP PUSH2 0x1F1 PUSH1 0x4 DUP1 CALLDATASIZE SUB DUP2 ADD SWAP1 PUSH2 0x1EC SWAP2 SWAP1 PUSH2 0x1B74 JUMP JUMPDEST PUSH2 0x667 JUMP JUMPDEST STOP JUMPDEST CALLVALUE DUP1 ISZERO PUSH2 0x1FE JUMPI PUSH0 DUP1 REVERT JUMPDEST POP PUSH2 0x207 PUSH2 0x829 JUMP JUMPDEST PUSH1 0x40 MLOAD PUSH2 0x214 SWAP2 SWAP1 PUSH2 0x1B06 JUMP JUMPDEST PUSH1 0x40 MLOAD DUP1 SWAP2 SUB SWAP1 RETURN JUMPDEST CALLVALUE DUP1 ISZERO PUSH2 0x228 JUMPI PUSH0 DUP1 REVERT JUMPDEST POP PUSH2 0x231 PUSH2 0x82F JUMP JUMPDEST PUSH1 0x40 MLOAD PUSH2 0x23E SWAP2 SWAP1 PUSH2 0x1B06 JUMP JUMPDEST PUSH1 0x40 MLOAD DUP1 SWAP2 SUB SWAP1 RETURN JUMPDEST CALLVALUE DUP1 ISZERO PUSH2 0x252 JUMPI PUSH0 DUP1 REVERT JUMPDEST POP PUSH2 0x25B PUSH2 0x835 JUMP JUMPDEST PUSH1 0x40 MLOAD PUSH2 0x268 SWAP2 SWAP1 PUSH2 0x1B06 JUMP JUMPDEST PUSH1 0x40 MLOAD DUP1 SWAP2 SUB SWAP1 RETURN JUMPDEST CALLVALUE DUP1 ISZERO PUSH2 0x27C JUMPI PUSH0 DUP1 REVERT JUMPDEST POP PUSH2 0x285 PUSH2 0x83B JUMP JUMPDEST PUSH1 0x40 MLOAD PUSH2 0x292 SWAP2 SWAP1 PUSH2 0x1C1F JUMP JUMPDEST PUSH1 0x40 MLOAD DUP1 SWAP2 SUB SWAP1 RETURN JUMPDEST CALLVALUE DUP1 ISZERO PUSH2 0x2A6 JUMPI PUSH0 DUP1 REVERT JUMPDEST POP PUSH2 0x2C1 PUSH1 0x4 DUP1 CALLDATASIZE SUB DUP2 ADD SWAP1 PUSH2 0x2BC SWAP2 SWAP1 PUSH2 0x1C38 JUMP JUMPDEST PUSH2 0x863 JUMP JUMPDEST PUSH1 0x40 MLOAD PUSH2 0x2CE SWAP2 SWAP1 PUSH2 0x1AB3 JUMP JUMPDEST PUSH1 0x40 MLOAD DUP1 SWAP2 SUB SWAP1 RETURN JUMPDEST CALLVALUE DUP1 ISZERO PUSH2 0x2E2 JUMPI PUSH0 DUP1 REVERT JUMPDEST POP PUSH2 0x2EB PUSH2 0x897 JUMP JUMPDEST STOP JUMPDEST CALLVALUE DUP1 ISZERO PUSH2 0x2F8 JUMPI PUSH0 DUP1 REVERT JUMPDEST POP PUSH2 0x301 PUSH2 0xD28 JUMP JUMPDEST PUSH1 0x40 MLOAD PUSH2 0x30E SWAP2 SWAP1 PUSH2 0x1C90 JUMP JUMPDEST PUSH1 0x40 MLOAD DUP1 SWAP2 SUB SWAP1 RETURN JUMPDEST CALLVALUE DUP1 ISZERO PUSH2 0x322 JUMPI PUSH0 DUP1 REVERT JUMPDEST POP PUSH2 0x32B PUSH2 0xD7E JUMP JUMPDEST PUSH1 0x40 MLOAD PUSH2 0x338 SWAP2 SWAP1 PUSH2 0x1B06 JUMP JUMPDEST PUSH1 0x40 MLOAD DUP1 SWAP2 SUB SWAP1 RETURN JUMPDEST CALLVALUE DUP1 ISZERO PUSH2 0x34C JUMPI PUSH0 DUP1 REVERT JUMPDEST POP PUSH2 0x355 PUSH2 0xD84 JUMP JUMPDEST PUSH1 0x40 MLOAD PUSH2 0x362 SWAP2 SWAP1 PUSH2 0x1B06 JUMP JUMPDEST PUSH1 0x40 MLOAD DUP1 SWAP2 SUB SWAP1 RETURN JUMPDEST PUSH2 0x385 PUSH1 0x4 DUP1 CALLDATASIZE SUB DUP2 ADD SWAP1 PUSH2 0x380 SWAP2 SWAP1 PUSH2 0x1B49 JUMP JUMPDEST PUSH2 0xD8A JUMP JUMPDEST PUSH1 0x40 MLOAD PUSH2 0x392 SWAP2 SWAP1 PUSH2 0x1B06 JUMP JUMPDEST PUSH1 0x40 MLOAD DUP1 SWAP2 SUB SWAP1 RETURN JUMPDEST CALLVALUE DUP1 ISZERO PUSH2 0x3A6 JUMPI PUSH0 DUP1 REVERT JUMPDEST POP PUSH2 0x3AF PUSH2 0xFAA JUMP JUMPDEST PUSH1 0x40 MLOAD PUSH2 0x3BD SWAP3 SWAP2 SWAP1 PUSH2 0x1D23 JUMP JUMPDEST PUSH1 0x40 MLOAD DUP1 SWAP2 SUB SWAP1 RETURN JUMPDEST CALLVALUE DUP1 ISZERO PUSH2 0x3D1 JUMPI PUSH0 DUP1 REVERT JUMPDEST POP PUSH2 0x3DA PUSH2 0x1177 JUMP JUMPDEST PUSH1 0x40 MLOAD PUSH2 0x3E7 SWAP2 SWAP1 PUSH2 0x1B06 JUMP JUMPDEST PUSH1 0x40 MLOAD DUP1 SWAP2 SUB SWAP1 RETURN JUMPDEST PUSH0 DUP1 DUP3 PUSH1 0x40 MLOAD PUSH1 0x20 ADD PUSH2 0x403 SWAP2 SWAP1 PUSH2 0x1D8B JUMP JUMPDEST PUSH1 0x40 MLOAD PUSH1 0x20 DUP2 DUP4 SUB SUB DUP2 MSTORE SWAP1 PUSH1 0x40 MSTORE PUSH2 0x41B SWAP1 PUSH2 0x1DDA JUMP JUMPDEST SWAP1 POP DUP4 DUP2 PUSH1 0x40 MLOAD PUSH1 0x20 ADD PUSH2 0x430 SWAP3 SWAP2 SWAP1 PUSH2 0x1E80 JUMP JUMPDEST PUSH1 0x40 MLOAD PUSH1 0x20 DUP2 DUP4 SUB SUB DUP2 MSTORE SWAP1 PUSH1 0x40 MSTORE DUP1 MLOAD SWAP1 PUSH1 0x20 ADD KECCAK256 SWAP2 POP POP SWAP3 SWAP2 POP POP JUMP JUMPDEST PUSH1 0x6 SLOAD PUSH1 0x5 SLOAD PUSH1 0x4 SLOAD PUSH1 0x3 SLOAD PUSH2 0x465 SWAP2 SWAP1 PUSH2 0x1ED8 JUMP JUMPDEST PUSH2 0x46F SWAP2 SWAP1 PUSH2 0x1ED8 JUMP JUMPDEST PUSH2 0x479 SWAP2 SWAP1 PUSH2 0x1ED8 JUMP JUMPDEST TIMESTAMP GT PUSH2 0x4BA JUMPI PUSH1 0x40 MLOAD PUSH32 0x8C379A000000000000000000000000000000000000000000000000000000000 DUP2 MSTORE PUSH1 0x4 ADD PUSH2 0x4B1 SWAP1 PUSH2 0x1F55 JUMP JUMPDEST PUSH1 0x40 MLOAD DUP1 SWAP2 SUB SWAP1 REVERT JUMPDEST PUSH1 0xA PUSH0 DUP3 DUP2 MSTORE PUSH1 0x20 ADD SWAP1 DUP2 MSTORE PUSH1 0x20 ADD PUSH0 KECCAK256 PUSH1 0x1 ADD PUSH1 0x3 SWAP1 SLOAD SWAP1 PUSH2 0x100 EXP SWAP1 DIV PUSH20 0xFFFFFFFFFFFFFFFFFFFFFFFFFFFFFFFFFFFFFFFF AND PUSH20 0xFFFFFFFFFFFFFFFFFFFFFFFFFFFFFFFFFFFFFFFF AND CALLER PUSH20 0xFFFFFFFFFFFFFFFFFFFFFFFFFFFFFFFFFFFFFFFF AND EQ PUSH2 0x55C JUMPI PUSH1 0x40 MLOAD PUSH32 0x8C379A000000000000000000000000000000000000000000000000000000000 DUP2 MSTORE PUSH1 0x4 ADD PUSH2 0x553 SWAP1 PUSH2 0x1FBD JUMP JUMPDEST PUSH1 0x40 MLOAD DUP1 SWAP2 SUB SWAP1 REVERT JUMPDEST PUSH0 ISZERO ISZERO PUSH1 0xA PUSH0 DUP4 DUP2 MSTORE PUSH1 0x20 ADD SWAP1 DUP2 MSTORE PUSH1 0x20 ADD PUSH0 KECCAK256 PUSH1 0x1 ADD PUSH1 0x2 SWAP1 SLOAD SWAP1 PUSH2 0x100 EXP SWAP1 DIV PUSH1 0xFF AND ISZERO ISZERO EQ PUSH2 0x58C JUMPI PUSH0 DUP1 REVERT JUMPDEST PUSH1 0x1 PUSH1 0xA PUSH0 DUP4 DUP2 MSTORE PUSH1 0x20 ADD SWAP1 DUP2 MSTORE PUSH1 0x20 ADD PUSH0 KECCAK256 PUSH1 0x1 ADD PUSH1 0x2 PUSH2 0x100 EXP DUP2 SLOAD DUP2 PUSH1 0xFF MUL NOT AND SWAP1 DUP4 ISZERO ISZERO MUL OR SWAP1 SSTORE POP CALLER PUSH20 0xFFFFFFFFFFFFFFFFFFFFFFFFFFFFFFFFFFFFFFFF AND PUSH2 0x8FC PUSH7 0x38D7EA4C68000 SWAP1 DUP2 ISZERO MUL SWAP1 PUSH1 0x40 MLOAD PUSH0 PUSH1 0x40 MLOAD DUP1 DUP4 SUB DUP2 DUP6 DUP9 DUP9 CALL SWAP4 POP POP POP POP ISZERO DUP1 ISZERO PUSH2 0x603 JUMPI RETURNDATASIZE PUSH0 DUP1 RETURNDATACOPY RETURNDATASIZE PUSH0 REVERT JUMPDEST POP PUSH1 0x8 PUSH0 DUP2 SLOAD DUP1 SWAP3 SWAP2 SWAP1 PUSH2 0x616 SWAP1 PUSH2 0x1FDB JUMP JUMPDEST SWAP2 SWAP1 POP SSTORE POP PUSH0 PUSH1 0x8 SLOAD SUB PUSH2 0x62D JUMPI PUSH2 0x62C PUSH2 0x117D JUMP JUMPDEST JUMPDEST POP JUMP JUMPDEST PUSH1 0x6 SLOAD DUP2 JUMP JUMPDEST PUSH0 ADDRESS DUP3 PUSH1 0x40 MLOAD PUSH1 0x20 ADD PUSH2 0x64A SWAP3 SWAP2 SWAP1 PUSH2 0x2047 JUMP JUMPDEST PUSH1 0x40 MLOAD PUSH1 0x20 DUP2 DUP4 SUB SUB DUP2 MSTORE SWAP1 PUSH1 0x40 MSTORE DUP1 MLOAD SWAP1 PUSH1 0x20 ADD KECCAK256 SWAP1 POP SWAP2 SWAP1 POP JUMP JUMPDEST TIMESTAMP PUSH1 0x4 SLOAD PUSH1 0x3 SLOAD PUSH2 0x678 SWAP2 SWAP1 PUSH2 0x1ED8 JUMP JUMPDEST LT DUP1 ISZERO PUSH2 0x6A0 JUMPI POP PUSH1 0x5 SLOAD PUSH1 0x4 SLOAD PUSH1 0x3 SLOAD PUSH2 0x693 SWAP2 SWAP1 PUSH2 0x1ED8 JUMP JUMPDEST PUSH2 0x69D SWAP2 SWAP1 PUSH2 0x1ED8 JUMP JUMPDEST TIMESTAMP LT JUMPDEST PUSH2 0x6DF JUMPI PUSH1 0x40 MLOAD PUSH32 0x8C379A000000000000000000000000000000000000000000000000000000000 DUP2 MSTORE PUSH1 0x4 ADD PUSH2 0x6D6 SWAP1 PUSH2 0x20BC JUMP JUMPDEST PUSH1 0x40 MLOAD DUP1 SWAP2 SUB SWAP1 REVERT JUMPDEST PUSH1 0xA PUSH0 DUP5 DUP2 MSTORE PUSH1 0x20 ADD SWAP1 DUP2 MSTORE PUSH1 0x20 ADD PUSH0 KECCAK256 PUSH1 0x1 ADD PUSH1 0x3 SWAP1 SLOAD SWAP1 PUSH2 0x100 EXP SWAP1 DIV PUSH20 0xFFFFFFFFFFFFFFFFFFFFFFFFFFFFFFFFFFFFFFFF AND PUSH20 0xFFFFFFFFFFFFFFFFFFFFFFFFFFFFFFFFFFFFFFFF AND CALLER PUSH20 0xFFFFFFFFFFFFFFFFFFFFFFFFFFFFFFFFFFFFFFFF AND EQ PUSH2 0x781 JUMPI PUSH1 0x40 MLOAD PUSH32 0x8C379A000000000000000000000000000000000000000000000000000000000 DUP2 MSTORE PUSH1 0x4 ADD PUSH2 0x778 SWAP1 PUSH2 0x1FBD JUMP JUMPDEST PUSH1 0x40 MLOAD DUP1 SWAP2 SUB SWAP1 REVERT JUMPDEST PUSH0 DUP2 PUSH1 0x40 MLOAD PUSH1 0x20 ADD PUSH2 0x793 SWAP2 SWAP1 PUSH2 0x1D8B JUMP JUMPDEST PUSH1 0x40 MLOAD PUSH1 0x20 DUP2 DUP4 SUB SUB DUP2 MSTORE SWAP1 PUSH1 0x40 MSTORE PUSH2 0x7AB SWAP1 PUSH2 0x1DDA JUMP JUMPDEST SWAP1 POP PUSH2 0x7DE DUP4 DUP3 PUSH1 0x40 MLOAD PUSH1 0x20 ADD PUSH2 0x7C3 SWAP3 SWAP2 SWAP1 PUSH2 0x1E80 JUMP JUMPDEST PUSH1 0x40 MLOAD PUSH1 0x20 DUP2 DUP4 SUB SUB DUP2 MSTORE SWAP1 PUSH1 0x40 MSTORE DUP1 MLOAD SWAP1 PUSH1 0x20 ADD KECCAK256 PUSH2 0x1194 JUMP JUMPDEST DUP3 PUSH1 0xA PUSH0 DUP7 DUP2 MSTORE PUSH1 0x20 ADD SWAP1 DUP2 MSTORE PUSH1 0x20 ADD PUSH0 KECCAK256 PUSH0 ADD DUP2 SWAP1 SSTORE POP PUSH1 0x1 PUSH1 0xA PUSH0 DUP7 DUP2 MSTORE PUSH1 0x20 ADD SWAP1 DUP2 MSTORE PUSH1 0x20 ADD PUSH0 KECCAK256 PUSH1 0x1 ADD PUSH1 0x1 PUSH2 0x100 EXP DUP2 SLOAD DUP2 PUSH1 0xFF MUL NOT AND SWAP1 DUP4 ISZERO ISZERO MUL OR SWAP1 SSTORE POP POP POP POP POP JUMP JUMPDEST PUSH1 0x9 SLOAD DUP2 JUMP JUMPDEST PUSH1 0x8 SLOAD DUP2 JUMP JUMPDEST PUSH1 0x5 SLOAD DUP2 JUMP JUMPDEST PUSH0 PUSH1 0x2 PUSH0 SWAP1 SLOAD SWAP1 PUSH2 0x100 EXP SWAP1 DIV PUSH20 0xFFFFFFFFFFFFFFFFFFFFFFFFFFFFFFFFFFFFFFFF AND SWAP1 POP SWAP1 JUMP JUMPDEST PUSH0 ADDRESS DUP4 DUP4 PUSH1 0x40 MLOAD PUSH1 0x20 ADD PUSH2 0x879 SWAP4 SWAP3 SWAP2 SWAP1 PUSH2 0x20DA JUMP JUMPDEST PUSH1 0x40 MLOAD PUSH1 0x20 DUP2 DUP4 SUB SUB DUP2 MSTORE SWAP1 PUSH1 0x40 MSTORE DUP1 MLOAD SWAP1 PUSH1 0x20 ADD KECCAK256 SWAP1 POP SWAP3 SWAP2 POP POP JUMP JUMPDEST PUSH2 0x89F PUSH2 0xD28 JUMP JUMPDEST PUSH2 0x8DE JUMPI PUSH1 0x40 MLOAD PUSH32 0x8C379A000000000000000000000000000000000000000000000000000000000 DUP2 MSTORE PUSH1 0x4 ADD PUSH2 0x8D5 SWAP1 PUSH2 0x2186 JUMP JUMPDEST PUSH1 0x40 MLOAD DUP1 SWAP2 SUB SWAP1 REVERT JUMPDEST TIMESTAMP PUSH1 0x5 SLOAD PUSH1 0x4 SLOAD PUSH1 0x3 SLOAD PUSH2 0x8F2 SWAP2 SWAP1 PUSH2 0x1ED8 JUMP JUMPDEST PUSH2 0x8FC SWAP2 SWAP1 PUSH2 0x1ED8 JUMP JUMPDEST LT DUP1 ISZERO PUSH2 0x931 JUMPI POP PUSH1 0x6 SLOAD PUSH1 0x5 SLOAD PUSH1 0x4 SLOAD PUSH1 0x3 SLOAD PUSH2 0x91A SWAP2 SWAP1 PUSH2 0x1ED8 JUMP JUMPDEST PUSH2 0x924 SWAP2 SWAP1 PUSH2 0x1ED8 JUMP JUMPDEST PUSH2 0x92E SWAP2 SWAP1 PUSH2 0x1ED8 JUMP JUMPDEST TIMESTAMP LT JUMPDEST PUSH2 0x939 JUMPI PUSH0 DUP1 REVERT JUMPDEST PUSH0 PUSH1 0x8 SLOAD PUSH8 0xFFFFFFFFFFFFFFFF DUP2 GT ISZERO PUSH2 0x956 JUMPI PUSH2 0x955 PUSH2 0x191D JUMP JUMPDEST JUMPDEST PUSH1 0x40 MLOAD SWAP1 DUP1 DUP3 MSTORE DUP1 PUSH1 0x20 MUL PUSH1 0x20 ADD DUP3 ADD PUSH1 0x40 MSTORE DUP1 ISZERO PUSH2 0x98F JUMPI DUP2 PUSH1 0x20 ADD JUMPDEST PUSH2 0x97C PUSH2 0x187B JUMP JUMPDEST DUP2 MSTORE PUSH1 0x20 ADD SWAP1 PUSH1 0x1 SWAP1 SUB SWAP1 DUP2 PUSH2 0x974 JUMPI SWAP1 POP JUMPDEST POP SWAP1 POP PUSH0 DUP1 PUSH0 SWAP1 POP JUMPDEST PUSH1 0x8 SLOAD DUP2 LT ISZERO PUSH2 0xC4B JUMPI PUSH1 0xA PUSH0 DUP3 DUP2 MSTORE PUSH1 0x20 ADD SWAP1 DUP2 MSTORE PUSH1 0x20 ADD PUSH0 KECCAK256 PUSH1 0x1 ADD PUSH1 0x1 SWAP1 SLOAD SWAP1 PUSH2 0x100 EXP SWAP1 DIV PUSH1 0xFF AND DUP1 ISZERO PUSH2 0x9E3 JUMPI POP PUSH1 0xA PUSH0 DUP3 DUP2 MSTORE PUSH1 0x20 ADD SWAP1 DUP2 MSTORE PUSH1 0x20 ADD PUSH0 KECCAK256 PUSH0 ADD SLOAD PUSH0 GT ISZERO JUMPDEST DUP1 ISZERO PUSH2 0xA04 JUMPI POP PUSH2 0x3E7 PUSH1 0xA PUSH0 DUP4 DUP2 MSTORE PUSH1 0x20 ADD SWAP1 DUP2 MSTORE PUSH1 0x20 ADD PUSH0 KECCAK256 PUSH0 ADD SLOAD GT ISZERO JUMPDEST ISZERO PUSH2 0xB32 JUMPI PUSH1 0xA PUSH0 DUP3 DUP2 MSTORE PUSH1 0x20 ADD SWAP1 DUP2 MSTORE PUSH1 0x20 ADD PUSH0 KECCAK256 PUSH0 ADD SLOAD DUP4 DUP4 DUP2 MLOAD DUP2 LT PUSH2 0xA30 JUMPI PUSH2 0xA2F PUSH2 0x21A4 JUMP JUMPDEST JUMPDEST PUSH1 0x20 MUL PUSH1 0x20 ADD ADD MLOAD PUSH0 ADD DUP2 DUP2 MSTORE POP POP PUSH1 0xA PUSH0 DUP3 DUP2 MSTORE PUSH1 0x20 ADD SWAP1 DUP2 MSTORE PUSH1 0x20 ADD PUSH0 KECCAK256 PUSH1 0x1 ADD PUSH0 SWAP1 SLOAD SWAP1 PUSH2 0x100 EXP SWAP1 DIV PUSH1 0xFF AND DUP4 DUP4 DUP2 MLOAD DUP2 LT PUSH2 0xA73 JUMPI PUSH2 0xA72 PUSH2 0x21A4 JUMP JUMPDEST JUMPDEST PUSH1 0x20 MUL PUSH1 0x20 ADD ADD MLOAD PUSH1 0x20 ADD SWAP1 ISZERO ISZERO SWAP1 DUP2 ISZERO ISZERO DUP2 MSTORE POP POP PUSH1 0xA PUSH0 DUP3 DUP2 MSTORE PUSH1 0x20 ADD SWAP1 DUP2 MSTORE PUSH1 0x20 ADD PUSH0 KECCAK256 PUSH1 0x1 ADD PUSH1 0x1 SWAP1 SLOAD SWAP1 PUSH2 0x100 EXP SWAP1 DIV PUSH1 0xFF AND DUP4 DUP4 DUP2 MLOAD DUP2 LT PUSH2 0xABE JUMPI PUSH2 0xABD PUSH2 0x21A4 JUMP JUMPDEST JUMPDEST PUSH1 0x20 MUL PUSH1 0x20 ADD ADD MLOAD PUSH1 0x40 ADD SWAP1 ISZERO ISZERO SWAP1 DUP2 ISZERO ISZERO DUP2 MSTORE POP POP PUSH1 0xA PUSH0 DUP3 DUP2 MSTORE PUSH1 0x20 ADD SWAP1 DUP2 MSTORE PUSH1 0x20 ADD PUSH0 KECCAK256 PUSH1 0x1 ADD PUSH1 0x2 SWAP1 SLOAD SWAP1 PUSH2 0x100 EXP SWAP1 DIV PUSH1 0xFF AND DUP4 DUP4 DUP2 MLOAD DUP2 LT PUSH2 0xB09 JUMPI PUSH2 0xB08 PUSH2 0x21A4 JUMP JUMPDEST JUMPDEST PUSH1 0x20 MUL PUSH1 0x20 ADD ADD MLOAD PUSH1 0x60 ADD SWAP1 ISZERO ISZERO SWAP1 DUP2 ISZERO ISZERO DUP2 MSTORE POP POP DUP2 DUP1 PUSH2 0xB2A SWAP1 PUSH2 0x21D1 JUMP JUMPDEST SWAP3 POP POP PUSH2 0xC3E JUMP JUMPDEST PUSH0 PUSH1 0x64 PUSH1 0x62 PUSH7 0x38D7EA4C68000 PUSH2 0xB49 SWAP2 SWAP1 PUSH2 0x2218 JUMP JUMPDEST PUSH2 0xB53 SWAP2 SWAP1 PUSH2 0x2286 JUMP JUMPDEST SWAP1 POP PUSH0 PUSH1 0x64 PUSH1 0x2 PUSH7 0x38D7EA4C68000 PUSH2 0xB6C SWAP2 SWAP1 PUSH2 0x2218 JUMP JUMPDEST PUSH2 0xB76 SWAP2 SWAP1 PUSH2 0x2286 JUMP JUMPDEST SWAP1 POP PUSH1 0xA PUSH0 DUP5 DUP2 MSTORE PUSH1 0x20 ADD SWAP1 DUP2 MSTORE PUSH1 0x20 ADD PUSH0 KECCAK256 PUSH1 0x1 ADD PUSH1 0x3 SWAP1 SLOAD SWAP1 PUSH2 0x100 EXP SWAP1 DIV PUSH20 0xFFFFFFFFFFFFFFFFFFFFFFFFFFFFFFFFFFFFFFFF AND PUSH20 0xFFFFFFFFFFFFFFFFFFFFFFFFFFFFFFFFFFFFFFFF AND PUSH2 0x8FC DUP4 SWAP1 DUP2 ISZERO MUL SWAP1 PUSH1 0x40 MLOAD PUSH0 PUSH1 0x40 MLOAD DUP1 DUP4 SUB DUP2 DUP6 DUP9 DUP9 CALL SWAP4 POP POP POP POP ISZERO DUP1 ISZERO PUSH2 0xBEF JUMPI RETURNDATASIZE PUSH0 DUP1 RETURNDATACOPY RETURNDATASIZE PUSH0 REVERT JUMPDEST POP PUSH2 0xBF8 PUSH2 0x83B JUMP JUMPDEST PUSH20 0xFFFFFFFFFFFFFFFFFFFFFFFFFFFFFFFFFFFFFFFF AND PUSH2 0x8FC DUP3 SWAP1 DUP2 ISZERO MUL SWAP1 PUSH1 0x40 MLOAD PUSH0 PUSH1 0x40 MLOAD DUP1 DUP4 SUB DUP2 DUP6 DUP9 DUP9 CALL SWAP4 POP POP POP POP ISZERO DUP1 ISZERO PUSH2 0xC3A JUMPI RETURNDATASIZE PUSH0 DUP1 RETURNDATACOPY RETURNDATASIZE PUSH0 REVERT JUMPDEST POP POP POP JUMPDEST DUP1 DUP1 PUSH1 0x1 ADD SWAP2 POP POP PUSH2 0x998 JUMP JUMPDEST POP PUSH0 DUP2 SUB PUSH2 0xC5C JUMPI PUSH2 0xC5B PUSH2 0x1552 JUMP JUMPDEST JUMPDEST PUSH0 DUP3 PUSH0 DUP2 MLOAD DUP2 LT PUSH2 0xC70 JUMPI PUSH2 0xC6F PUSH2 0x21A4 JUMP JUMPDEST JUMPDEST PUSH1 0x20 MUL PUSH1 0x20 ADD ADD MLOAD PUSH0 ADD MLOAD SWAP1 POP PUSH0 PUSH1 0x1 SWAP1 POP JUMPDEST DUP3 DUP2 LT ISZERO PUSH2 0xCBA JUMPI DUP4 DUP2 DUP2 MLOAD DUP2 LT PUSH2 0xC9E JUMPI PUSH2 0xC9D PUSH2 0x21A4 JUMP JUMPDEST JUMPDEST PUSH1 0x20 MUL PUSH1 0x20 ADD ADD MLOAD PUSH0 ADD MLOAD DUP3 XOR SWAP2 POP DUP1 DUP1 PUSH1 0x1 ADD SWAP2 POP POP PUSH2 0xC83 JUMP JUMPDEST POP PUSH0 DUP3 DUP3 PUSH1 0x40 MLOAD PUSH1 0x20 ADD PUSH2 0xCCE SWAP2 SWAP1 PUSH2 0x22B6 JUMP JUMPDEST PUSH1 0x40 MLOAD PUSH1 0x20 DUP2 DUP4 SUB SUB DUP2 MSTORE SWAP1 PUSH1 0x40 MSTORE DUP1 MLOAD SWAP1 PUSH1 0x20 ADD KECCAK256 PUSH0 SHR PUSH2 0xCF0 SWAP2 SWAP1 PUSH2 0x22D0 JUMP JUMPDEST SWAP1 POP PUSH2 0xD1A DUP5 DUP3 DUP2 MLOAD DUP2 LT PUSH2 0xD08 JUMPI PUSH2 0xD07 PUSH2 0x21A4 JUMP JUMPDEST JUMPDEST PUSH1 0x20 MUL PUSH1 0x20 ADD ADD MLOAD PUSH1 0x80 ADD MLOAD DUP5 PUSH2 0x15B8 JUMP JUMPDEST PUSH2 0xD22 PUSH2 0x117D JUMP JUMPDEST POP POP POP POP JUMP JUMPDEST PUSH0 PUSH1 0x2 PUSH0 SWAP1 SLOAD SWAP1 PUSH2 0x100 EXP SWAP1 DIV PUSH20 0xFFFFFFFFFFFFFFFFFFFFFFFFFFFFFFFFFFFFFFFF AND PUSH20 0xFFFFFFFFFFFFFFFFFFFFFFFFFFFFFFFFFFFFFFFF AND CALLER PUSH20 0xFFFFFFFFFFFFFFFFFFFFFFFFFFFFFFFFFFFFFFFF AND EQ SWAP1 POP SWAP1 JUMP JUMPDEST PUSH1 0x4 SLOAD DUP2 JUMP JUMPDEST PUSH1 0x7 SLOAD DUP2 JUMP JUMPDEST PUSH0 PUSH7 0x38D7EA4C68000 CALLVALUE EQ PUSH2 0xDD4 JUMPI PUSH1 0x40 MLOAD PUSH32 0x8C379A000000000000000000000000000000000000000000000000000000000 DUP2 MSTORE PUSH1 0x4 ADD PUSH2 0xDCB SWAP1 PUSH2 0x2370 JUMP JUMPDEST PUSH1 0x40 MLOAD DUP1 SWAP2 SUB SWAP1 REVERT JUMPDEST PUSH1 0x7 SLOAD PUSH1 0x8 SLOAD LT PUSH2 0xE1A JUMPI PUSH1 0x40 MLOAD PUSH32 0x8C379A000000000000000000000000000000000000000000000000000000000 DUP2 MSTORE PUSH1 0x4 ADD PUSH2 0xE11 SWAP1 PUSH2 0x23FE JUMP JUMPDEST PUSH1 0x40 MLOAD DUP1 SWAP2 SUB SWAP1 REVERT JUMPDEST PUSH0 PUSH1 0x9 SLOAD SUB PUSH2 0xE33 JUMPI PUSH1 0x1 PUSH1 0x9 DUP2 SWAP1 SSTORE POP TIMESTAMP PUSH1 0x3 DUP2 SWAP1 SSTORE POP JUMPDEST PUSH1 0x4 SLOAD PUSH1 0x3 SLOAD PUSH2 0xE43 SWAP2 SWAP1 PUSH2 0x1ED8 JUMP JUMPDEST TIMESTAMP LT PUSH2 0xE84 JUMPI PUSH1 0x40 MLOAD PUSH32 0x8C379A000000000000000000000000000000000000000000000000000000000 DUP2 MSTORE PUSH1 0x4 ADD PUSH2 0xE7B SWAP1 PUSH2 0x2466 JUMP JUMPDEST PUSH1 0x40 MLOAD DUP1 SWAP2 SUB SWAP1 REVERT JUMPDEST PUSH0 PUSH1 0x8 SLOAD SWAP1 POP PUSH2 0xE9B PUSH2 0xE96 DUP5 PUSH2 0x636 JUMP JUMPDEST PUSH2 0x16A9 JUMP JUMPDEST PUSH0 PUSH1 0xA PUSH0 DUP4 DUP2 MSTORE PUSH1 0x20 ADD SWAP1 DUP2 MSTORE PUSH1 0x20 ADD PUSH0 KECCAK256 PUSH0 ADD DUP2 SWAP1 SSTORE POP PUSH1 0x1 PUSH1 0xA PUSH0 DUP4 DUP2 MSTORE PUSH1 0x20 ADD SWAP1 DUP2 MSTORE PUSH1 0x20 ADD PUSH0 KECCAK256 PUSH1 0x1 ADD PUSH0 PUSH2 0x100 EXP DUP2 SLOAD DUP2 PUSH1 0xFF MUL NOT AND SWAP1 DUP4 ISZERO ISZERO MUL OR SWAP1 SSTORE POP PUSH0 PUSH1 0xA PUSH0 DUP4 DUP2 MSTORE PUSH1 0x20 ADD SWAP1 DUP2 MSTORE PUSH1 0x20 ADD PUSH0 KECCAK256 PUSH1 0x1 ADD PUSH1 0x1 PUSH2 0x100 EXP DUP2 SLOAD DUP2 PUSH1 0xFF MUL NOT AND SWAP1 DUP4 ISZERO ISZERO MUL OR SWAP1 SSTORE POP PUSH0 PUSH1 0xA PUSH0 DUP4 DUP2 MSTORE PUSH1 0x20 ADD SWAP1 DUP2 MSTORE PUSH1 0x20 ADD PUSH0 KECCAK256 PUSH1 0x1 ADD PUSH1 0x2 PUSH2 0x100 EXP DUP2 SLOAD DUP2 PUSH1 0xFF MUL NOT AND SWAP1 DUP4 ISZERO ISZERO MUL OR SWAP1 SSTORE POP CALLER PUSH1 0xA PUSH0 DUP4 DUP2 MSTORE PUSH1 0x20 ADD SWAP1 DUP2 MSTORE PUSH1 0x20 ADD PUSH0 KECCAK256 PUSH1 0x1 ADD PUSH1 0x3 PUSH2 0x100 EXP DUP2 SLOAD DUP2 PUSH20 0xFFFFFFFFFFFFFFFFFFFFFFFFFFFFFFFFFFFFFFFF MUL NOT AND SWAP1 DUP4 PUSH20 0xFFFFFFFFFFFFFFFFFFFFFFFFFFFFFFFFFFFFFFFF AND MUL OR SWAP1 SSTORE POP PUSH1 0x8 PUSH0 DUP2 SLOAD DUP1 SWAP3 SWAP2 SWAP1 PUSH2 0xF9C SWAP1 PUSH2 0x21D1 JUMP JUMPDEST SWAP2 SWAP1 POP SSTORE POP DUP1 SWAP2 POP POP SWAP2 SWAP1 POP JUMP JUMPDEST PUSH1 0x60 PUSH0 DUP1 PUSH1 0x9 SLOAD SUB PUSH2 0xFF7 JUMPI PUSH0 PUSH1 0x40 MLOAD DUP1 PUSH1 0x40 ADD PUSH1 0x40 MSTORE DUP1 PUSH1 0x4 DUP2 MSTORE PUSH1 0x20 ADD PUSH32 0x49646C6500000000000000000000000000000000000000000000000000000000 DUP2 MSTORE POP SWAP1 SWAP2 POP SWAP2 POP PUSH2 0x1173 JUMP JUMPDEST PUSH1 0x1 PUSH1 0x9 SLOAD SUB PUSH2 0x1172 JUMPI PUSH1 0x4 SLOAD PUSH1 0x3 SLOAD PUSH2 0x1011 SWAP2 SWAP1 PUSH2 0x1ED8 JUMP JUMPDEST TIMESTAMP LT ISZERO PUSH2 0x1056 JUMPI TIMESTAMP PUSH1 0x4 SLOAD PUSH1 0x3 SLOAD PUSH2 0x1029 SWAP2 SWAP1 PUSH2 0x1ED8 JUMP JUMPDEST PUSH2 0x1033 SWAP2 SWAP1 PUSH2 0x2484 JUMP JUMPDEST PUSH1 0x40 MLOAD DUP1 PUSH1 0x60 ADD PUSH1 0x40 MSTORE DUP1 PUSH1 0x31 DUP2 MSTORE PUSH1 0x20 ADD PUSH2 0x2808 PUSH1 0x31 SWAP2 CODECOPY SWAP1 SWAP2 POP SWAP2 POP PUSH2 0x1173 JUMP JUMPDEST PUSH1 0x5 SLOAD PUSH1 0x4 SLOAD PUSH1 0x3 SLOAD PUSH2 0x1069 SWAP2 SWAP1 PUSH2 0x1ED8 JUMP JUMPDEST PUSH2 0x1073 SWAP2 SWAP1 PUSH2 0x1ED8 JUMP JUMPDEST TIMESTAMP LT ISZERO PUSH2 0x10C5 JUMPI TIMESTAMP PUSH1 0x5 SLOAD PUSH1 0x4 SLOAD PUSH1 0x3 SLOAD PUSH2 0x108E SWAP2 SWAP1 PUSH2 0x1ED8 JUMP JUMPDEST PUSH2 0x1098 SWAP2 SWAP1 PUSH2 0x1ED8 JUMP JUMPDEST PUSH2 0x10A2 SWAP2 SWAP1 PUSH2 0x2484 JUMP JUMPDEST PUSH1 0x40 MLOAD DUP1 PUSH1 0x60 ADD PUSH1 0x40 MSTORE DUP1 PUSH1 0x31 DUP2 MSTORE PUSH1 0x20 ADD PUSH2 0x28AF PUSH1 0x31 SWAP2 CODECOPY SWAP1 SWAP2 POP SWAP2 POP PUSH2 0x1173 JUMP JUMPDEST PUSH1 0x6 SLOAD PUSH1 0x5 SLOAD PUSH1 0x4 SLOAD PUSH1 0x3 SLOAD PUSH2 0x10DB SWAP2 SWAP1 PUSH2 0x1ED8 JUMP JUMPDEST PUSH2 0x10E5 SWAP2 SWAP1 PUSH2 0x1ED8 JUMP JUMPDEST PUSH2 0x10EF SWAP2 SWAP1 PUSH2 0x1ED8 JUMP JUMPDEST TIMESTAMP LT ISZERO PUSH2 0x114E JUMPI TIMESTAMP PUSH1 0x6 SLOAD PUSH1 0x5 SLOAD PUSH1 0x4 SLOAD PUSH1 0x3 SLOAD PUSH2 0x110D SWAP2 SWAP1 PUSH2 0x1ED8 JUMP JUMPDEST PUSH2 0x1117 SWAP2 SWAP1 PUSH2 0x1ED8 JUMP JUMPDEST PUSH2 0x1121 SWAP2 SWAP1 PUSH2 0x1ED8 JUMP JUMPDEST PUSH2 0x112B SWAP2 SWAP1 PUSH2 0x2484 JUMP JUMPDEST PUSH1 0x40 MLOAD DUP1 PUSH1 0x60 ADD PUSH1 0x40 MSTORE DUP1 PUSH1 0x39 DUP2 MSTORE PUSH1 0x20 ADD PUSH2 0x2876 PUSH1 0x39 SWAP2 CODECOPY SWAP1 SWAP2 POP SWAP2 POP PUSH2 0x1173 JUMP JUMPDEST PUSH0 PUSH1 0x40 MLOAD DUP1 PUSH1 0x60 ADD PUSH1 0x40 MSTORE DUP1 PUSH1 0x3D DUP2 MSTORE PUSH1 0x20 ADD PUSH2 0x2839 PUSH1 0x3D SWAP2 CODECOPY SWAP1 SWAP2 POP SWAP2 POP PUSH2 0x1173 JUMP JUMPDEST JUMPDEST SWAP1 SWAP2 JUMP JUMPDEST PUSH1 0x3 SLOAD DUP2 JUMP JUMPDEST PUSH0 PUSH1 0x9 DUP2 SWAP1 SSTORE POP PUSH0 PUSH1 0x8 DUP2 SWAP1 SSTORE POP TIMESTAMP PUSH1 0x3 DUP2 SWAP1 SSTORE POP JUMP JUMPDEST PUSH0 ISZERO ISZERO PUSH1 0x1 PUSH0 CALLER PUSH20 0xFFFFFFFFFFFFFFFFFFFFFFFFFFFFFFFFFFFFFFFF AND PUSH20 0xFFFFFFFFFFFFFFFFFFFFFFFFFFFFFFFFFFFFFFFF AND DUP2 MSTORE PUSH1 0x20 ADD SWAP1 DUP2 MSTORE PUSH1 0x20 ADD PUSH0 KECCAK256 PUSH1 0x1 ADD PUSH1 0x8 SWAP1 SLOAD SWAP1 PUSH2 0x100 EXP SWAP1 DIV PUSH1 0xFF AND ISZERO ISZERO EQ PUSH2 0x1227 JUMPI PUSH1 0x40 MLOAD PUSH32 0x8C379A000000000000000000000000000000000000000000000000000000000 DUP2 MSTORE PUSH1 0x4 ADD PUSH2 0x121E SWAP1 PUSH2 0x2527 JUMP JUMPDEST PUSH1 0x40 MLOAD DUP1 SWAP2 SUB SWAP1 REVERT JUMPDEST PUSH1 0x1 DUP1 PUSH0 CALLER PUSH20 0xFFFFFFFFFFFFFFFFFFFFFFFFFFFFFFFFFFFFFFFF AND PUSH20 0xFFFFFFFFFFFFFFFFFFFFFFFFFFFFFFFFFFFFFFFF AND DUP2 MSTORE PUSH1 0x20 ADD SWAP1 DUP2 MSTORE PUSH1 0x20 ADD PUSH0 KECCAK256 PUSH1 0x1 ADD PUSH1 0x8 PUSH2 0x100 EXP DUP2 SLOAD DUP2 PUSH1 0xFF MUL NOT AND SWAP1 DUP4 ISZERO ISZERO MUL OR SWAP1 SSTORE POP PUSH1 0x1 PUSH0 CALLER PUSH20 0xFFFFFFFFFFFFFFFFFFFFFFFFFFFFFFFFFFFFFFFF AND PUSH20 0xFFFFFFFFFFFFFFFFFFFFFFFFFFFFFFFFFFFFFFFF AND DUP2 MSTORE PUSH1 0x20 ADD SWAP1 DUP2 MSTORE PUSH1 0x20 ADD PUSH0 KECCAK256 PUSH0 ADD SLOAD PUSH2 0x12C8 DUP3 PUSH2 0x636 JUMP JUMPDEST EQ PUSH2 0x1308 JUMPI PUSH1 0x40 MLOAD PUSH32 0x8C379A000000000000000000000000000000000000000000000000000000000 DUP2 MSTORE PUSH1 0x4 ADD PUSH2 0x12FF SWAP1 PUSH2 0x25B5 JUMP JUMPDEST PUSH1 0x40 MLOAD DUP1 SWAP2 SUB SWAP1 REVERT JUMPDEST PUSH1 0x1 PUSH0 CALLER PUSH20 0xFFFFFFFFFFFFFFFFFFFFFFFFFFFFFFFFFFFFFFFF AND PUSH20 0xFFFFFFFFFFFFFFFFFFFFFFFFFFFFFFFFFFFFFFFF AND DUP2 MSTORE PUSH1 0x20 ADD SWAP1 DUP2 MSTORE PUSH1 0x20 ADD PUSH0 KECCAK256 PUSH1 0x1 ADD PUSH0 SWAP1 SLOAD SWAP1 PUSH2 0x100 EXP SWAP1 DIV PUSH8 0xFFFFFFFFFFFFFFFF AND PUSH8 0xFFFFFFFFFFFFFFFF AND NUMBER PUSH8 0xFFFFFFFFFFFFFFFF AND GT PUSH2 0x13B1 JUMPI PUSH1 0x40 MLOAD PUSH32 0x8C379A000000000000000000000000000000000000000000000000000000000 DUP2 MSTORE PUSH1 0x4 ADD PUSH2 0x13A8 SWAP1 PUSH2 0x2669 JUMP JUMPDEST PUSH1 0x40 MLOAD DUP1 SWAP2 SUB SWAP1 REVERT JUMPDEST PUSH1 0xFA PUSH1 0x1 PUSH0 CALLER PUSH20 0xFFFFFFFFFFFFFFFFFFFFFFFFFFFFFFFFFFFFFFFF AND PUSH20 0xFFFFFFFFFFFFFFFFFFFFFFFFFFFFFFFFFFFFFFFF AND DUP2 MSTORE PUSH1 0x20 ADD SWAP1 DUP2 MSTORE PUSH1 0x20 ADD PUSH0 KECCAK256 PUSH1 0x1 ADD PUSH0 SWAP1 SLOAD SWAP1 PUSH2 0x100 EXP SWAP1 DIV PUSH8 0xFFFFFFFFFFFFFFFF AND PUSH2 0x1411 SWAP2 SWAP1 PUSH2 0x269A JUMP JUMPDEST PUSH8 0xFFFFFFFFFFFFFFFF AND NUMBER PUSH8 0xFFFFFFFFFFFFFFFF AND GT ISZERO PUSH2 0x1467 JUMPI PUSH1 0x40 MLOAD PUSH32 0x8C379A000000000000000000000000000000000000000000000000000000000 DUP2 MSTORE PUSH1 0x4 ADD PUSH2 0x145E SWAP1 PUSH2 0x2745 JUMP JUMPDEST PUSH1 0x40 MLOAD DUP1 SWAP2 SUB SWAP1 REVERT JUMPDEST PUSH0 PUSH1 0x1 PUSH0 CALLER PUSH20 0xFFFFFFFFFFFFFFFFFFFFFFFFFFFFFFFFFFFFFFFF AND PUSH20 0xFFFFFFFFFFFFFFFFFFFFFFFFFFFFFFFFFFFFFFFF AND DUP2 MSTORE PUSH1 0x20 ADD SWAP1 DUP2 MSTORE PUSH1 0x20 ADD PUSH0 KECCAK256 PUSH1 0x1 ADD PUSH0 SWAP1 SLOAD SWAP1 PUSH2 0x100 EXP SWAP1 DIV PUSH8 0xFFFFFFFFFFFFFFFF AND PUSH8 0xFFFFFFFFFFFFFFFF AND BLOCKHASH SWAP1 POP PUSH0 DUP1 PUSH0 SWAP1 SLOAD SWAP1 PUSH2 0x100 EXP SWAP1 DIV PUSH1 0xFF AND PUSH1 0xFF AND DUP3 DUP5 PUSH1 0x40 MLOAD PUSH1 0x20 ADD PUSH2 0x14EE SWAP3 SWAP2 SWAP1 PUSH2 0x2763 JUMP JUMPDEST PUSH1 0x40 MLOAD PUSH1 0x20 DUP2 DUP4 SUB SUB DUP2 MSTORE SWAP1 PUSH1 0x40 MSTORE DUP1 MLOAD SWAP1 PUSH1 0x20 ADD KECCAK256 PUSH0 SHR PUSH2 0x1510 SWAP2 SWAP1 PUSH2 0x22D0 JUMP JUMPDEST SWAP1 POP PUSH32 0xBC016DD1CADEAEFCB851AF7A0A93532E0023D536894B730801F7BCFE7065BCC2 CALLER DUP5 DUP4 PUSH1 0x40 MLOAD PUSH2 0x1545 SWAP4 SWAP3 SWAP2 SWAP1 PUSH2 0x278E JUMP JUMPDEST PUSH1 0x40 MLOAD DUP1 SWAP2 SUB SWAP1 LOG1 POP POP POP JUMP JUMPDEST PUSH0 PUSH1 0x8 SLOAD PUSH7 0x38D7EA4C68000 PUSH2 0x1568 SWAP2 SWAP1 PUSH2 0x2218 JUMP JUMPDEST SWAP1 POP PUSH2 0x1572 PUSH2 0x83B JUMP JUMPDEST PUSH20 0xFFFFFFFFFFFFFFFFFFFFFFFFFFFFFFFFFFFFFFFF AND PUSH2 0x8FC DUP3 SWAP1 DUP2 ISZERO MUL SWAP1 PUSH1 0x40 MLOAD PUSH0 PUSH1 0x40 MLOAD DUP1 DUP4 SUB DUP2 DUP6 DUP9 DUP9 CALL SWAP4 POP POP POP POP ISZERO DUP1 ISZERO PUSH2 0x15B4 JUMPI RETURNDATASIZE PUSH0 DUP1 RETURNDATACOPY RETURNDATASIZE PUSH0 REVERT JUMPDEST POP POP JUMP JUMPDEST PUSH0 PUSH1 0x64 PUSH1 0x62 DUP4 PUSH7 0x38D7EA4C68000 PUSH2 0x15D0 SWAP2 SWAP1 PUSH2 0x2218 JUMP JUMPDEST PUSH2 0x15DA SWAP2 SWAP1 PUSH2 0x2218 JUMP JUMPDEST PUSH2 0x15E4 SWAP2 SWAP1 PUSH2 0x2286 JUMP JUMPDEST SWAP1 POP PUSH0 PUSH1 0x64 PUSH1 0x2 DUP5 PUSH7 0x38D7EA4C68000 PUSH2 0x15FE SWAP2 SWAP1 PUSH2 0x2218 JUMP JUMPDEST PUSH2 0x1608 SWAP2 SWAP1 PUSH2 0x2218 JUMP JUMPDEST PUSH2 0x1612 SWAP2 SWAP1 PUSH2 0x2286 JUMP JUMPDEST SWAP1 POP DUP4 PUSH20 0xFFFFFFFFFFFFFFFFFFFFFFFFFFFFFFFFFFFFFFFF AND PUSH2 0x8FC DUP4 SWAP1 DUP2 ISZERO MUL SWAP1 PUSH1 0x40 MLOAD PUSH0 PUSH1 0x40 MLOAD DUP1 DUP4 SUB DUP2 DUP6 DUP9 DUP9 CALL SWAP4 POP POP POP POP ISZERO DUP1 ISZERO PUSH2 0x1657 JUMPI RETURNDATASIZE PUSH0 DUP1 RETURNDATACOPY RETURNDATASIZE PUSH0 REVERT JUMPDEST POP PUSH2 0x1660 PUSH2 0x83B JUMP JUMPDEST PUSH20 0xFFFFFFFFFFFFFFFFFFFFFFFFFFFFFFFFFFFFFFFF AND PUSH2 0x8FC DUP3 SWAP1 DUP2 ISZERO MUL SWAP1 PUSH1 0x40 MLOAD PUSH0 PUSH1 0x40 MLOAD DUP1 DUP4 SUB DUP2 DUP6 DUP9 DUP9 CALL SWAP4 POP POP POP POP ISZERO DUP1 ISZERO PUSH2 0x16A2 JUMPI RETURNDATASIZE PUSH0 DUP1 RETURNDATACOPY RETURNDATASIZE PUSH0 REVERT JUMPDEST POP POP POP POP POP JUMP JUMPDEST DUP1 PUSH1 0x1 PUSH0 CALLER PUSH20 0xFFFFFFFFFFFFFFFFFFFFFFFFFFFFFFFFFFFFFFFF AND PUSH20 0xFFFFFFFFFFFFFFFFFFFFFFFFFFFFFFFFFFFFFFFF AND DUP2 MSTORE PUSH1 0x20 ADD SWAP1 DUP2 MSTORE PUSH1 0x20 ADD PUSH0 KECCAK256 PUSH0 ADD DUP2 SWAP1 SSTORE POP NUMBER PUSH1 0x1 PUSH0 CALLER PUSH20 0xFFFFFFFFFFFFFFFFFFFFFFFFFFFFFFFFFFFFFFFF AND PUSH20 0xFFFFFFFFFFFFFFFFFFFFFFFFFFFFFFFFFFFFFFFF AND DUP2 MSTORE PUSH1 0x20 ADD SWAP1 DUP2 MSTORE PUSH1 0x20 ADD PUSH0 KECCAK256 PUSH1 0x1 ADD PUSH0 PUSH2 0x100 EXP DUP2 SLOAD DUP2 PUSH8 0xFFFFFFFFFFFFFFFF MUL NOT AND SWAP1 DUP4 PUSH8 0xFFFFFFFFFFFFFFFF AND MUL OR SWAP1 SSTORE POP PUSH0 PUSH1 0x1 PUSH0 CALLER PUSH20 0xFFFFFFFFFFFFFFFFFFFFFFFFFFFFFFFFFFFFFFFF AND PUSH20 0xFFFFFFFFFFFFFFFFFFFFFFFFFFFFFFFFFFFFFFFF AND DUP2 MSTORE PUSH1 0x20 ADD SWAP1 DUP2 MSTORE PUSH1 0x20 ADD PUSH0 KECCAK256 PUSH1 0x1 ADD PUSH1 0x8 PUSH2 0x100 EXP DUP2 SLOAD DUP2 PUSH1 0xFF MUL NOT AND SWAP1 DUP4 ISZERO ISZERO MUL OR SWAP1 SSTORE POP PUSH32 0x3C1A1F8F38335B17F751C6DA4BA7D1865F26B3997535176F5080DE9FAD891603 CALLER PUSH1 0x1 PUSH0 CALLER PUSH20 0xFFFFFFFFFFFFFFFFFFFFFFFFFFFFFFFFFFFFFFFF AND PUSH20 0xFFFFFFFFFFFFFFFFFFFFFFFFFFFFFFFFFFFFFFFF AND DUP2 MSTORE PUSH1 0x20 ADD SWAP1 DUP2 MSTORE PUSH1 0x20 ADD PUSH0 KECCAK256 PUSH0 ADD SLOAD PUSH1 0x1 PUSH0 CALLER PUSH20 0xFFFFFFFFFFFFFFFFFFFFFFFFFFFFFFFFFFFFFFFF AND PUSH20 0xFFFFFFFFFFFFFFFFFFFFFFFFFFFFFFFFFFFFFFFF AND DUP2 MSTORE PUSH1 0x20 ADD SWAP1 DUP2 MSTORE PUSH1 0x20 ADD PUSH0 KECCAK256 PUSH1 0x1 ADD PUSH0 SWAP1 SLOAD SWAP1 PUSH2 0x100 EXP SWAP1 DIV PUSH8 0xFFFFFFFFFFFFFFFF AND PUSH1 0x40 MLOAD PUSH2 0x1870 SWAP4 SWAP3 SWAP2 SWAP1 PUSH2 0x27D2 JUMP JUMPDEST PUSH1 0x40 MLOAD DUP1 SWAP2 SUB SWAP1 LOG1 POP JUMP JUMPDEST PUSH1 0x40 MLOAD DUP1 PUSH1 0xA0 ADD PUSH1 0x40 MSTORE DUP1 PUSH0 DUP2 MSTORE PUSH1 0x20 ADD PUSH0 ISZERO ISZERO DUP2 MSTORE PUSH1 0x20 ADD PUSH0 ISZERO ISZERO DUP2 MSTORE PUSH1 0x20 ADD PUSH0 ISZERO ISZERO DUP2 MSTORE PUSH1 0x20 ADD PUSH0 PUSH20 0xFFFFFFFFFFFFFFFFFFFFFFFFFFFFFFFFFFFFFFFF AND DUP2 MSTORE POP SWAP1 JUMP JUMPDEST PUSH0 PUSH1 0x40 MLOAD SWAP1 POP SWAP1 JUMP JUMPDEST PUSH0 DUP1 REVERT JUMPDEST PUSH0 DUP1 REVERT JUMPDEST PUSH0 DUP2 SWAP1 POP SWAP2 SWAP1 POP JUMP JUMPDEST PUSH2 0x18E4 DUP2 PUSH2 0x18D2 JUMP JUMPDEST DUP2 EQ PUSH2 0x18EE JUMPI PUSH0 DUP1 REVERT JUMPDEST POP JUMP JUMPDEST PUSH0 DUP2 CALLDATALOAD SWAP1 POP PUSH2 0x18FF DUP2 PUSH2 0x18DB JUMP JUMPDEST SWAP3 SWAP2 POP POP JUMP JUMPDEST PUSH0 DUP1 REVERT JUMPDEST PUSH0 DUP1 REVERT JUMPDEST PUSH0 PUSH1 0x1F NOT PUSH1 0x1F DUP4 ADD AND SWAP1 POP SWAP2 SWAP1 POP JUMP JUMPDEST PUSH32 0x4E487B7100000000000000000000000000000000000000000000000000000000 PUSH0 MSTORE PUSH1 0x41 PUSH1 0x4 MSTORE PUSH1 0x24 PUSH0 REVERT JUMPDEST PUSH2 0x1953 DUP3 PUSH2 0x190D JUMP JUMPDEST DUP2 ADD DUP2 DUP2 LT PUSH8 0xFFFFFFFFFFFFFFFF DUP3 GT OR ISZERO PUSH2 0x1972 JUMPI PUSH2 0x1971 PUSH2 0x191D JUMP JUMPDEST JUMPDEST DUP1 PUSH1 0x40 MSTORE POP POP POP JUMP JUMPDEST PUSH0 PUSH2 0x1984 PUSH2 0x18C1 JUMP JUMPDEST SWAP1 POP PUSH2 0x1990 DUP3 DUP3 PUSH2 0x194A JUMP JUMPDEST SWAP2 SWAP1 POP JUMP JUMPDEST PUSH0 PUSH8 0xFFFFFFFFFFFFFFFF DUP3 GT ISZERO PUSH2 0x19AF JUMPI PUSH2 0x19AE PUSH2 0x191D JUMP JUMPDEST JUMPDEST PUSH2 0x19B8 DUP3 PUSH2 0x190D JUMP JUMPDEST SWAP1 POP PUSH1 0x20 DUP2 ADD SWAP1 POP SWAP2 SWAP1 POP JUMP JUMPDEST DUP3 DUP2 DUP4 CALLDATACOPY PUSH0 DUP4 DUP4 ADD MSTORE POP POP POP JUMP JUMPDEST PUSH0 PUSH2 0x19E5 PUSH2 0x19E0 DUP5 PUSH2 0x1995 JUMP JUMPDEST PUSH2 0x197B JUMP JUMPDEST SWAP1 POP DUP3 DUP2 MSTORE PUSH1 0x20 DUP2 ADD DUP5 DUP5 DUP5 ADD GT ISZERO PUSH2 0x1A01 JUMPI PUSH2 0x1A00 PUSH2 0x1909 JUMP JUMPDEST JUMPDEST PUSH2 0x1A0C DUP5 DUP3 DUP6 PUSH2 0x19C5 JUMP JUMPDEST POP SWAP4 SWAP3 POP POP POP JUMP JUMPDEST PUSH0 DUP3 PUSH1 0x1F DUP4 ADD SLT PUSH2 0x1A28 JUMPI PUSH2 0x1A27 PUSH2 0x1905 JUMP JUMPDEST JUMPDEST DUP2 CALLDATALOAD PUSH2 0x1A38 DUP5 DUP3 PUSH1 0x20 DUP7 ADD PUSH2 0x19D3 JUMP JUMPDEST SWAP2 POP POP SWAP3 SWAP2 POP POP JUMP JUMPDEST PUSH0 DUP1 PUSH1 0x40 DUP4 DUP6 SUB SLT ISZERO PUSH2 0x1A57 JUMPI PUSH2 0x1A56 PUSH2 0x18CA JUMP JUMPDEST JUMPDEST PUSH0 PUSH2 0x1A64 DUP6 DUP3 DUP7 ADD PUSH2 0x18F1 JUMP JUMPDEST SWAP3 POP POP PUSH1 0x20 DUP4 ADD CALLDATALOAD PUSH8 0xFFFFFFFFFFFFFFFF DUP2 GT ISZERO PUSH2 0x1A85 JUMPI PUSH2 0x1A84 PUSH2 0x18CE JUMP JUMPDEST JUMPDEST PUSH2 0x1A91 DUP6 DUP3 DUP7 ADD PUSH2 0x1A14 JUMP JUMPDEST SWAP2 POP POP SWAP3 POP SWAP3 SWAP1 POP JUMP JUMPDEST PUSH0 DUP2 SWAP1 POP SWAP2 SWAP1 POP JUMP JUMPDEST PUSH2 0x1AAD DUP2 PUSH2 0x1A9B JUMP JUMPDEST DUP3 MSTORE POP POP JUMP JUMPDEST PUSH0 PUSH1 0x20 DUP3 ADD SWAP1 POP PUSH2 0x1AC6 PUSH0 DUP4 ADD DUP5 PUSH2 0x1AA4 JUMP JUMPDEST SWAP3 SWAP2 POP POP JUMP JUMPDEST PUSH0 PUSH1 0x20 DUP3 DUP5 SUB SLT ISZERO PUSH2 0x1AE1 JUMPI PUSH2 0x1AE0 PUSH2 0x18CA JUMP JUMPDEST JUMPDEST PUSH0 PUSH2 0x1AEE DUP5 DUP3 DUP6 ADD PUSH2 0x18F1 JUMP JUMPDEST SWAP2 POP POP SWAP3 SWAP2 POP POP JUMP JUMPDEST PUSH2 0x1B00 DUP2 PUSH2 0x18D2 JUMP JUMPDEST DUP3 MSTORE POP POP JUMP JUMPDEST PUSH0 PUSH1 0x20 DUP3 ADD SWAP1 POP PUSH2 0x1B19 PUSH0 DUP4 ADD DUP5 PUSH2 0x1AF7 JUMP JUMPDEST SWAP3 SWAP2 POP POP JUMP JUMPDEST PUSH2 0x1B28 DUP2 PUSH2 0x1A9B JUMP JUMPDEST DUP2 EQ PUSH2 0x1B32 JUMPI PUSH0 DUP1 REVERT JUMPDEST POP JUMP JUMPDEST PUSH0 DUP2 CALLDATALOAD SWAP1 POP PUSH2 0x1B43 DUP2 PUSH2 0x1B1F JUMP JUMPDEST SWAP3 SWAP2 POP POP JUMP JUMPDEST PUSH0 PUSH1 0x20 DUP3 DUP5 SUB SLT ISZERO PUSH2 0x1B5E JUMPI PUSH2 0x1B5D PUSH2 0x18CA JUMP JUMPDEST JUMPDEST PUSH0 PUSH2 0x1B6B DUP5 DUP3 DUP6 ADD PUSH2 0x1B35 JUMP JUMPDEST SWAP2 POP POP SWAP3 SWAP2 POP POP JUMP JUMPDEST PUSH0 DUP1 PUSH0 PUSH1 0x60 DUP5 DUP7 SUB SLT ISZERO PUSH2 0x1B8B JUMPI PUSH2 0x1B8A PUSH2 0x18CA JUMP JUMPDEST JUMPDEST PUSH0 PUSH2 0x1B98 DUP7 DUP3 DUP8 ADD PUSH2 0x18F1 JUMP JUMPDEST SWAP4 POP POP PUSH1 0x20 PUSH2 0x1BA9 DUP7 DUP3 DUP8 ADD PUSH2 0x18F1 JUMP JUMPDEST SWAP3 POP POP PUSH1 0x40 DUP5 ADD CALLDATALOAD PUSH8 0xFFFFFFFFFFFFFFFF DUP2 GT ISZERO PUSH2 0x1BCA JUMPI PUSH2 0x1BC9 PUSH2 0x18CE JUMP JUMPDEST JUMPDEST PUSH2 0x1BD6 DUP7 DUP3 DUP8 ADD PUSH2 0x1A14 JUMP JUMPDEST SWAP2 POP POP SWAP3 POP SWAP3 POP SWAP3 JUMP JUMPDEST PUSH0 PUSH20 0xFFFFFFFFFFFFFFFFFFFFFFFFFFFFFFFFFFFFFFFF DUP3 AND SWAP1 POP SWAP2 SWAP1 POP JUMP JUMPDEST PUSH0 PUSH2 0x1C09 DUP3 PUSH2 0x1BE0 JUMP JUMPDEST SWAP1 POP SWAP2 SWAP1 POP JUMP JUMPDEST PUSH2 0x1C19 DUP2 PUSH2 0x1BFF JUMP JUMPDEST DUP3 MSTORE POP POP JUMP JUMPDEST PUSH0 PUSH1 0x20 DUP3 ADD SWAP1 POP PUSH2 0x1C32 PUSH0 DUP4 ADD DUP5 PUSH2 0x1C10 JUMP JUMPDEST SWAP3 SWAP2 POP POP JUMP JUMPDEST PUSH0 DUP1 PUSH1 0x40 DUP4 DUP6 SUB SLT ISZERO PUSH2 0x1C4E JUMPI PUSH2 0x1C4D PUSH2 0x18CA JUMP JUMPDEST JUMPDEST PUSH0 PUSH2 0x1C5B DUP6 DUP3 DUP7 ADD PUSH2 0x1B35 JUMP JUMPDEST SWAP3 POP POP PUSH1 0x20 PUSH2 0x1C6C DUP6 DUP3 DUP7 ADD PUSH2 0x1B35 JUMP JUMPDEST SWAP2 POP POP SWAP3 POP SWAP3 SWAP1 POP JUMP JUMPDEST PUSH0 DUP2 ISZERO ISZERO SWAP1 POP SWAP2 SWAP1 POP JUMP JUMPDEST PUSH2 0x1C8A DUP2 PUSH2 0x1C76 JUMP JUMPDEST DUP3 MSTORE POP POP JUMP JUMPDEST PUSH0 PUSH1 0x20 DUP3 ADD SWAP1 POP PUSH2 0x1CA3 PUSH0 DUP4 ADD DUP5 PUSH2 0x1C81 JUMP JUMPDEST SWAP3 SWAP2 POP POP JUMP JUMPDEST PUSH0 DUP2 MLOAD SWAP1 POP SWAP2 SWAP1 POP JUMP JUMPDEST PUSH0 DUP3 DUP3 MSTORE PUSH1 0x20 DUP3 ADD SWAP1 POP SWAP3 SWAP2 POP POP JUMP JUMPDEST PUSH0 JUMPDEST DUP4 DUP2 LT ISZERO PUSH2 0x1CE0 JUMPI DUP1 DUP3 ADD MLOAD DUP2 DUP5 ADD MSTORE PUSH1 0x20 DUP2 ADD SWAP1 POP PUSH2 0x1CC5 JUMP JUMPDEST PUSH0 DUP5 DUP5 ADD MSTORE POP POP POP POP JUMP JUMPDEST PUSH0 PUSH2 0x1CF5 DUP3 PUSH2 0x1CA9 JUMP JUMPDEST PUSH2 0x1CFF DUP2 DUP6 PUSH2 0x1CB3 JUMP JUMPDEST SWAP4 POP PUSH2 0x1D0F DUP2 DUP6 PUSH1 0x20 DUP7 ADD PUSH2 0x1CC3 JUMP JUMPDEST PUSH2 0x1D18 DUP2 PUSH2 0x190D JUMP JUMPDEST DUP5 ADD SWAP2 POP POP SWAP3 SWAP2 POP POP JUMP JUMPDEST PUSH0 PUSH1 0x40 DUP3 ADD SWAP1 POP DUP2 DUP2 SUB PUSH0 DUP4 ADD MSTORE PUSH2 0x1D3B DUP2 DUP6 PUSH2 0x1CEB JUMP JUMPDEST SWAP1 POP PUSH2 0x1D4A PUSH1 0x20 DUP4 ADD DUP5 PUSH2 0x1AF7 JUMP JUMPDEST SWAP4 SWAP3 POP POP POP JUMP JUMPDEST PUSH0 DUP2 SWAP1 POP SWAP3 SWAP2 POP POP JUMP JUMPDEST PUSH0 PUSH2 0x1D65 DUP3 PUSH2 0x1CA9 JUMP JUMPDEST PUSH2 0x1D6F DUP2 DUP6 PUSH2 0x1D51 JUMP JUMPDEST SWAP4 POP PUSH2 0x1D7F DUP2 DUP6 PUSH1 0x20 DUP7 ADD PUSH2 0x1CC3 JUMP JUMPDEST DUP1 DUP5 ADD SWAP2 POP POP SWAP3 SWAP2 POP POP JUMP JUMPDEST PUSH0 PUSH2 0x1D96 DUP3 DUP5 PUSH2 0x1D5B JUMP JUMPDEST SWAP2 POP DUP2 SWAP1 POP SWAP3 SWAP2 POP POP JUMP JUMPDEST PUSH0 DUP2 MLOAD SWAP1 POP SWAP2 SWAP1 POP JUMP JUMPDEST PUSH0 DUP2 SWAP1 POP PUSH1 0x20 DUP3 ADD SWAP1 POP SWAP2 SWAP1 POP JUMP JUMPDEST PUSH0 PUSH2 0x1DC5 DUP3 MLOAD PUSH2 0x1A9B JUMP JUMPDEST DUP1 SWAP2 POP POP SWAP2 SWAP1 POP JUMP JUMPDEST PUSH0 DUP3 DUP3 SHL SWAP1 POP SWAP3 SWAP2 POP POP JUMP JUMPDEST PUSH0 PUSH2 0x1DE4 DUP3 PUSH2 0x1DA1 JUMP JUMPDEST DUP3 PUSH2 0x1DEE DUP5 PUSH2 0x1DAB JUMP JUMPDEST SWAP1 POP PUSH2 0x1DF9 DUP2 PUSH2 0x1DBA JUMP JUMPDEST SWAP3 POP PUSH1 0x20 DUP3 LT ISZERO PUSH2 0x1E39 JUMPI PUSH2 0x1E34 PUSH32 0xFFFFFFFFFFFFFFFFFFFFFFFFFFFFFFFFFFFFFFFFFFFFFFFFFFFFFFFFFFFFFFFF DUP4 PUSH1 0x20 SUB PUSH1 0x8 MUL PUSH2 0x1DCE JUMP JUMPDEST DUP4 AND SWAP3 POP JUMPDEST POP POP SWAP2 SWAP1 POP JUMP JUMPDEST PUSH0 DUP2 SWAP1 POP SWAP2 SWAP1 POP JUMP JUMPDEST PUSH2 0x1E5A PUSH2 0x1E55 DUP3 PUSH2 0x18D2 JUMP JUMPDEST PUSH2 0x1E40 JUMP JUMPDEST DUP3 MSTORE POP POP JUMP JUMPDEST PUSH0 DUP2 SWAP1 POP SWAP2 SWAP1 POP JUMP JUMPDEST PUSH2 0x1E7A PUSH2 0x1E75 DUP3 PUSH2 0x1A9B JUMP JUMPDEST PUSH2 0x1E60 JUMP JUMPDEST DUP3 MSTORE POP POP JUMP JUMPDEST PUSH0 PUSH2 0x1E8B DUP3 DUP6 PUSH2 0x1E49 JUMP JUMPDEST PUSH1 0x20 DUP3 ADD SWAP2 POP PUSH2 0x1E9B DUP3 DUP5 PUSH2 0x1E69 JUMP JUMPDEST PUSH1 0x20 DUP3 ADD SWAP2 POP DUP2 SWAP1 POP SWAP4 SWAP3 POP POP POP JUMP JUMPDEST PUSH32 0x4E487B7100000000000000000000000000000000000000000000000000000000 PUSH0 MSTORE PUSH1 0x11 PUSH1 0x4 MSTORE PUSH1 0x24 PUSH0 REVERT JUMPDEST PUSH0 PUSH2 0x1EE2 DUP3 PUSH2 0x18D2 JUMP JUMPDEST SWAP2 POP PUSH2 0x1EED DUP4 PUSH2 0x18D2 JUMP JUMPDEST SWAP3 POP DUP3 DUP3 ADD SWAP1 POP DUP1 DUP3 GT ISZERO PUSH2 0x1F05 JUMPI PUSH2 0x1F04 PUSH2 0x1EAB JUMP JUMPDEST JUMPDEST SWAP3 SWAP2 POP POP JUMP JUMPDEST PUSH32 0x4F7574206F6620776974686472617720706572696F6400000000000000000000 PUSH0 DUP3 ADD MSTORE POP JUMP JUMPDEST PUSH0 PUSH2 0x1F3F PUSH1 0x16 DUP4 PUSH2 0x1CB3 JUMP JUMPDEST SWAP2 POP PUSH2 0x1F4A DUP3 PUSH2 0x1F0B JUMP JUMPDEST PUSH1 0x20 DUP3 ADD SWAP1 POP SWAP2 SWAP1 POP JUMP JUMPDEST PUSH0 PUSH1 0x20 DUP3 ADD SWAP1 POP DUP2 DUP2 SUB PUSH0 DUP4 ADD MSTORE PUSH2 0x1F6C DUP2 PUSH2 0x1F33 JUMP JUMPDEST SWAP1 POP SWAP2 SWAP1 POP JUMP JUMPDEST PUSH32 0x57726F6E6720496E646578000000000000000000000000000000000000000000 PUSH0 DUP3 ADD MSTORE POP JUMP JUMPDEST PUSH0 PUSH2 0x1FA7 PUSH1 0xB DUP4 PUSH2 0x1CB3 JUMP JUMPDEST SWAP2 POP PUSH2 0x1FB2 DUP3 PUSH2 0x1F73 JUMP JUMPDEST PUSH1 0x20 DUP3 ADD SWAP1 POP SWAP2 SWAP1 POP JUMP JUMPDEST PUSH0 PUSH1 0x20 DUP3 ADD SWAP1 POP DUP2 DUP2 SUB PUSH0 DUP4 ADD MSTORE PUSH2 0x1FD4 DUP2 PUSH2 0x1F9B JUMP JUMPDEST SWAP1 POP SWAP2 SWAP1 POP JUMP JUMPDEST PUSH0 PUSH2 0x1FE5 DUP3 PUSH2 0x18D2 JUMP JUMPDEST SWAP2 POP PUSH0 DUP3 SUB PUSH2 0x1FF7 JUMPI PUSH2 0x1FF6 PUSH2 0x1EAB JUMP JUMPDEST JUMPDEST PUSH1 0x1 DUP3 SUB SWAP1 POP SWAP2 SWAP1 POP JUMP JUMPDEST PUSH0 DUP2 PUSH1 0x60 SHL SWAP1 POP SWAP2 SWAP1 POP JUMP JUMPDEST PUSH0 PUSH2 0x2018 DUP3 PUSH2 0x2002 JUMP JUMPDEST SWAP1 POP SWAP2 SWAP1 POP JUMP JUMPDEST PUSH0 PUSH2 0x2029 DUP3 PUSH2 0x200E JUMP JUMPDEST SWAP1 POP SWAP2 SWAP1 POP JUMP JUMPDEST PUSH2 0x2041 PUSH2 0x203C DUP3 PUSH2 0x1BFF JUMP JUMPDEST PUSH2 0x201F JUMP JUMPDEST DUP3 MSTORE POP POP JUMP JUMPDEST PUSH0 PUSH2 0x2052 DUP3 DUP6 PUSH2 0x2030 JUMP JUMPDEST PUSH1 0x14 DUP3 ADD SWAP2 POP PUSH2 0x2062 DUP3 DUP5 PUSH2 0x1E69 JUMP JUMPDEST PUSH1 0x20 DUP3 ADD SWAP2 POP DUP2 SWAP1 POP SWAP4 SWAP3 POP POP POP JUMP JUMPDEST PUSH32 0x4F7574206F662052657665616C20537461676520706572696F64000000000000 PUSH0 DUP3 ADD MSTORE POP JUMP JUMPDEST PUSH0 PUSH2 0x20A6 PUSH1 0x1A DUP4 PUSH2 0x1CB3 JUMP JUMPDEST SWAP2 POP PUSH2 0x20B1 DUP3 PUSH2 0x2072 JUMP JUMPDEST PUSH1 0x20 DUP3 ADD SWAP1 POP SWAP2 SWAP1 POP JUMP JUMPDEST PUSH0 PUSH1 0x20 DUP3 ADD SWAP1 POP DUP2 DUP2 SUB PUSH0 DUP4 ADD MSTORE PUSH2 0x20D3 DUP2 PUSH2 0x209A JUMP JUMPDEST SWAP1 POP SWAP2 SWAP1 POP JUMP JUMPDEST PUSH0 PUSH2 0x20E5 DUP3 DUP7 PUSH2 0x2030 JUMP JUMPDEST PUSH1 0x14 DUP3 ADD SWAP2 POP PUSH2 0x20F5 DUP3 DUP6 PUSH2 0x1E69 JUMP JUMPDEST PUSH1 0x20 DUP3 ADD SWAP2 POP PUSH2 0x2105 DUP3 DUP5 PUSH2 0x1E69 JUMP JUMPDEST PUSH1 0x20 DUP3 ADD SWAP2 POP DUP2 SWAP1 POP SWAP5 SWAP4 POP POP POP POP JUMP JUMPDEST PUSH32 0x4F6E6C79206F776E65722063616E2063616C6C20746869732066756E6374696F PUSH0 DUP3 ADD MSTORE PUSH32 0x6E00000000000000000000000000000000000000000000000000000000000000 PUSH1 0x20 DUP3 ADD MSTORE POP JUMP JUMPDEST PUSH0 PUSH2 0x2170 PUSH1 0x21 DUP4 PUSH2 0x1CB3 JUMP JUMPDEST SWAP2 POP PUSH2 0x217B DUP3 PUSH2 0x2116 JUMP JUMPDEST PUSH1 0x40 DUP3 ADD SWAP1 POP SWAP2 SWAP1 POP JUMP JUMPDEST PUSH0 PUSH1 0x20 DUP3 ADD SWAP1 POP DUP2 DUP2 SUB PUSH0 DUP4 ADD MSTORE PUSH2 0x219D DUP2 PUSH2 0x2164 JUMP JUMPDEST SWAP1 POP SWAP2 SWAP1 POP JUMP JUMPDEST PUSH32 0x4E487B7100000000000000000000000000000000000000000000000000000000 PUSH0 MSTORE PUSH1 0x32 PUSH1 0x4 MSTORE PUSH1 0x24 PUSH0 REVERT JUMPDEST PUSH0 PUSH2 0x21DB DUP3 PUSH2 0x18D2 JUMP JUMPDEST SWAP2 POP PUSH32 0xFFFFFFFFFFFFFFFFFFFFFFFFFFFFFFFFFFFFFFFFFFFFFFFFFFFFFFFFFFFFFFFF DUP3 SUB PUSH2 0x220D JUMPI PUSH2 0x220C PUSH2 0x1EAB JUMP JUMPDEST JUMPDEST PUSH1 0x1 DUP3 ADD SWAP1 POP SWAP2 SWAP1 POP JUMP JUMPDEST PUSH0 PUSH2 0x2222 DUP3 PUSH2 0x18D2 JUMP JUMPDEST SWAP2 POP PUSH2 0x222D DUP4 PUSH2 0x18D2 JUMP JUMPDEST SWAP3 POP DUP3 DUP3 MUL PUSH2 0x223B DUP2 PUSH2 0x18D2 JUMP JUMPDEST SWAP2 POP DUP3 DUP3 DIV DUP5 EQ DUP4 ISZERO OR PUSH2 0x2252 JUMPI PUSH2 0x2251 PUSH2 0x1EAB JUMP JUMPDEST JUMPDEST POP SWAP3 SWAP2 POP POP JUMP JUMPDEST PUSH32 0x4E487B7100000000000000000000000000000000000000000000000000000000 PUSH0 MSTORE PUSH1 0x12 PUSH1 0x4 MSTORE PUSH1 0x24 PUSH0 REVERT JUMPDEST PUSH0 PUSH2 0x2290 DUP3 PUSH2 0x18D2 JUMP JUMPDEST SWAP2 POP PUSH2 0x229B DUP4 PUSH2 0x18D2 JUMP JUMPDEST SWAP3 POP DUP3 PUSH2 0x22AB JUMPI PUSH2 0x22AA PUSH2 0x2259 JUMP JUMPDEST JUMPDEST DUP3 DUP3 DIV SWAP1 POP SWAP3 SWAP2 POP POP JUMP JUMPDEST PUSH0 PUSH2 0x22C1 DUP3 DUP5 PUSH2 0x1E49 JUMP JUMPDEST PUSH1 0x20 DUP3 ADD SWAP2 POP DUP2 SWAP1 POP SWAP3 SWAP2 POP POP JUMP JUMPDEST PUSH0 PUSH2 0x22DA DUP3 PUSH2 0x18D2 JUMP JUMPDEST SWAP2 POP PUSH2 0x22E5 DUP4 PUSH2 0x18D2 JUMP JUMPDEST SWAP3 POP DUP3 PUSH2 0x22F5 JUMPI PUSH2 0x22F4 PUSH2 0x2259 JUMP JUMPDEST JUMPDEST DUP3 DUP3 MOD SWAP1 POP SWAP3 SWAP2 POP POP JUMP JUMPDEST PUSH32 0x5265717569726520302E3030312045544820666F72204C6F7474657279206665 PUSH0 DUP3 ADD MSTORE PUSH32 0x6500000000000000000000000000000000000000000000000000000000000000 PUSH1 0x20 DUP3 ADD MSTORE POP JUMP JUMPDEST PUSH0 PUSH2 0x235A PUSH1 0x21 DUP4 PUSH2 0x1CB3 JUMP JUMPDEST SWAP2 POP PUSH2 0x2365 DUP3 PUSH2 0x2300 JUMP JUMPDEST PUSH1 0x40 DUP3 ADD SWAP1 POP SWAP2 SWAP1 POP JUMP JUMPDEST PUSH0 PUSH1 0x20 DUP3 ADD SWAP1 POP DUP2 DUP2 SUB PUSH0 DUP4 ADD MSTORE PUSH2 0x2387 DUP2 PUSH2 0x234E JUMP JUMPDEST SWAP1 POP SWAP2 SWAP1 POP JUMP JUMPDEST PUSH32 0x546865206E756D626572206F6620706C617965727320697320636F6D706C6574 PUSH0 DUP3 ADD MSTORE PUSH32 0x6500000000000000000000000000000000000000000000000000000000000000 PUSH1 0x20 DUP3 ADD MSTORE POP JUMP JUMPDEST PUSH0 PUSH2 0x23E8 PUSH1 0x21 DUP4 PUSH2 0x1CB3 JUMP JUMPDEST SWAP2 POP PUSH2 0x23F3 DUP3 PUSH2 0x238E JUMP JUMPDEST PUSH1 0x40 DUP3 ADD SWAP1 POP SWAP2 SWAP1 POP JUMP JUMPDEST PUSH0 PUSH1 0x20 DUP3 ADD SWAP1 POP DUP2 DUP2 SUB PUSH0 DUP4 ADD MSTORE PUSH2 0x2415 DUP2 PUSH2 0x23DC JUMP JUMPDEST SWAP1 POP SWAP2 SWAP1 POP JUMP JUMPDEST PUSH32 0x436F6D6D69742053746167652068617320657870697265640000000000000000 PUSH0 DUP3 ADD MSTORE POP JUMP JUMPDEST PUSH0 PUSH2 0x2450 PUSH1 0x18 DUP4 PUSH2 0x1CB3 JUMP JUMPDEST SWAP2 POP PUSH2 0x245B DUP3 PUSH2 0x241C JUMP JUMPDEST PUSH1 0x20 DUP3 ADD SWAP1 POP SWAP2 SWAP1 POP JUMP JUMPDEST PUSH0 PUSH1 0x20 DUP3 ADD SWAP1 POP DUP2 DUP2 SUB PUSH0 DUP4 ADD MSTORE PUSH2 0x247D DUP2 PUSH2 0x2444 JUMP JUMPDEST SWAP1 POP SWAP2 SWAP1 POP JUMP JUMPDEST PUSH0 PUSH2 0x248E DUP3 PUSH2 0x18D2 JUMP JUMPDEST SWAP2 POP PUSH2 0x2499 DUP4 PUSH2 0x18D2 JUMP JUMPDEST SWAP3 POP DUP3 DUP3 SUB SWAP1 POP DUP2 DUP2 GT ISZERO PUSH2 0x24B1 JUMPI PUSH2 0x24B0 PUSH2 0x1EAB JUMP JUMPDEST JUMPDEST SWAP3 SWAP2 POP POP JUMP JUMPDEST PUSH32 0x436F6D6D697452657665616C3A3A72657665616C3A20416C7265616479207265 PUSH0 DUP3 ADD MSTORE PUSH32 0x7665616C65640000000000000000000000000000000000000000000000000000 PUSH1 0x20 DUP3 ADD MSTORE POP JUMP JUMPDEST PUSH0 PUSH2 0x2511 PUSH1 0x26 DUP4 PUSH2 0x1CB3 JUMP JUMPDEST SWAP2 POP PUSH2 0x251C DUP3 PUSH2 0x24B7 JUMP JUMPDEST PUSH1 0x40 DUP3 ADD SWAP1 POP SWAP2 SWAP1 POP JUMP JUMPDEST PUSH0 PUSH1 0x20 DUP3 ADD SWAP1 POP DUP2 DUP2 SUB PUSH0 DUP4 ADD MSTORE PUSH2 0x253E DUP2 PUSH2 0x2505 JUMP JUMPDEST SWAP1 POP SWAP2 SWAP1 POP JUMP JUMPDEST PUSH32 0x436F6D6D697452657665616C3A3A72657665616C3A2052657665616C65642068 PUSH0 DUP3 ADD MSTORE PUSH32 0x61736820646F6573206E6F74206D6174636820636F6D6D697400000000000000 PUSH1 0x20 DUP3 ADD MSTORE POP JUMP JUMPDEST PUSH0 PUSH2 0x259F PUSH1 0x39 DUP4 PUSH2 0x1CB3 JUMP JUMPDEST SWAP2 POP PUSH2 0x25AA DUP3 PUSH2 0x2545 JUMP JUMPDEST PUSH1 0x40 DUP3 ADD SWAP1 POP SWAP2 SWAP1 POP JUMP JUMPDEST PUSH0 PUSH1 0x20 DUP3 ADD SWAP1 POP DUP2 DUP2 SUB PUSH0 DUP4 ADD MSTORE PUSH2 0x25CC DUP2 PUSH2 0x2593 JUMP JUMPDEST SWAP1 POP SWAP2 SWAP1 POP JUMP JUMPDEST PUSH32 0x436F6D6D697452657665616C3A3A72657665616C3A2052657665616C20616E64 PUSH0 DUP3 ADD MSTORE PUSH32 0x20636F6D6D69742068617070656E6564206F6E207468652073616D6520626C6F PUSH1 0x20 DUP3 ADD MSTORE PUSH32 0x636B000000000000000000000000000000000000000000000000000000000000 PUSH1 0x40 DUP3 ADD MSTORE POP JUMP JUMPDEST PUSH0 PUSH2 0x2653 PUSH1 0x42 DUP4 PUSH2 0x1CB3 JUMP JUMPDEST SWAP2 POP PUSH2 0x265E DUP3 PUSH2 0x25D3 JUMP JUMPDEST PUSH1 0x60 DUP3 ADD SWAP1 POP SWAP2 SWAP1 POP JUMP JUMPDEST PUSH0 PUSH1 0x20 DUP3 ADD SWAP1 POP DUP2 DUP2 SUB PUSH0 DUP4 ADD MSTORE PUSH2 0x2680 DUP2 PUSH2 0x2647 JUMP JUMPDEST SWAP1 POP SWAP2 SWAP1 POP JUMP JUMPDEST PUSH0 PUSH8 0xFFFFFFFFFFFFFFFF DUP3 AND SWAP1 POP SWAP2 SWAP1 POP JUMP JUMPDEST PUSH0 PUSH2 0x26A4 DUP3 PUSH2 0x2687 JUMP JUMPDEST SWAP2 POP PUSH2 0x26AF DUP4 PUSH2 0x2687 JUMP JUMPDEST SWAP3 POP DUP3 DUP3 ADD SWAP1 POP PUSH8 0xFFFFFFFFFFFFFFFF DUP2 GT ISZERO PUSH2 0x26CF JUMPI PUSH2 0x26CE PUSH2 0x1EAB JUMP JUMPDEST JUMPDEST SWAP3 SWAP2 POP POP JUMP JUMPDEST PUSH32 0x436F6D6D697452657665616C3A3A72657665616C3A2052657665616C65642074 PUSH0 DUP3 ADD MSTORE PUSH32 0x6F6F206C61746500000000000000000000000000000000000000000000000000 PUSH1 0x20 DUP3 ADD MSTORE POP JUMP JUMPDEST PUSH0 PUSH2 0x272F PUSH1 0x27 DUP4 PUSH2 0x1CB3 JUMP JUMPDEST SWAP2 POP PUSH2 0x273A DUP3 PUSH2 0x26D5 JUMP JUMPDEST PUSH1 0x40 DUP3 ADD SWAP1 POP SWAP2 SWAP1 POP JUMP JUMPDEST PUSH0 PUSH1 0x20 DUP3 ADD SWAP1 POP DUP2 DUP2 SUB PUSH0 DUP4 ADD MSTORE PUSH2 0x275C DUP2 PUSH2 0x2723 JUMP JUMPDEST SWAP1 POP SWAP2 SWAP1 POP JUMP JUMPDEST PUSH0 PUSH2 0x276E DUP3 DUP6 PUSH2 0x1E69 JUMP JUMPDEST PUSH1 0x20 DUP3 ADD SWAP2 POP PUSH2 0x277E DUP3 DUP5 PUSH2 0x1E69 JUMP JUMPDEST PUSH1 0x20 DUP3 ADD SWAP2 POP DUP2 SWAP1 POP SWAP4 SWAP3 POP POP POP JUMP JUMPDEST PUSH0 PUSH1 0x60 DUP3 ADD SWAP1 POP PUSH2 0x27A1 PUSH0 DUP4 ADD DUP7 PUSH2 0x1C10 JUMP JUMPDEST PUSH2 0x27AE PUSH1 0x20 DUP4 ADD DUP6 PUSH2 0x1AA4 JUMP JUMPDEST PUSH2 0x27BB PUSH1 0x40 DUP4 ADD DUP5 PUSH2 0x1AF7 JUMP JUMPDEST SWAP5 SWAP4 POP POP POP POP JUMP JUMPDEST PUSH2 0x27CC DUP2 PUSH2 0x2687 JUMP JUMPDEST DUP3 MSTORE POP POP JUMP JUMPDEST PUSH0 PUSH1 0x60 DUP3 ADD SWAP1 POP PUSH2 0x27E5 PUSH0 DUP4 ADD DUP7 PUSH2 0x1C10 JUMP JUMPDEST PUSH2 0x27F2 PUSH1 0x20 DUP4 ADD DUP6 PUSH2 0x1AA4 JUMP JUMPDEST PUSH2 0x27FF PUSH1 0x40 DUP4 ADD DUP5 PUSH2 0x27C3 JUMP JUMPDEST SWAP5 SWAP4 POP POP POP POP JUMP INVALID NUMBER PUSH22 0x7272656E742053746167653A20436F6D6D69740A5469 PUSH14 0x652052656D61696E696E67202873 PUSH6 0x63636F6E6473 0x29 GASPRICE KECCAK256 NUMBER PUSH22 0x7272656E742053746167653A20576974686472617720 MSTORE8 PUSH21 0x6167652C20796F752063616E207769746864726177 KECCAK256 PUSH26 0x6F757220455448206E6F770A43757272656E742053746167653A KECCAK256 CHAINID PUSH10 0x6E64696E672057696E6E PUSH6 0x720A54696D65 KECCAK256 MSTORE PUSH6 0x6D61696E696E PUSH8 0x2028736563636F6E PUSH5 0x73293A2043 PUSH22 0x7272656E742053746167653A2052657665616C0A5469 PUSH14 0x652052656D61696E696E67202873 PUSH6 0x63636F6E6473 0x29 GASPRICE KECCAK256 LOG2 PUSH5 0x6970667358 0x22 SLT KECCAK256 0x27 MUL PUSH12 0xFB5EA3063CE7E3A4EEA18FC0 ADD LT PUSH0 0xD5 0xEF 0x29 0xA7 0xCC SAR MUL JUMP PUSH9 0xAAC38B563E64736F6C PUSH4 0x43000818 STOP CALLER "
				},
				"gasEstimates": {
					"creation": {
						"codeDepositCost": "2103400",
						"executionCost": "infinite",
						"totalCost": "infinite"
					},
					"external": {
						"N()": "2469",
						"StartTime()": "2535",
						"T1()": "2447",
						"T2()": "2514",
						"T3()": "2493",
						"commitHashedChoice(bytes32)": "infinite",
						"currentN()": "2492",
						"currentStage()": "2470",
						"findWinner()": "infinite",
						"getCurrentStage()": "infinite",
						"getHash(bytes32)": "infinite",
						"getHashChoice(uint256,string)": "infinite",
						"getSaltedHash(bytes32,bytes32)": "infinite",
						"isOwner()": "2579",
						"owner()": "2538",
						"revealChoice(uint256,uint256,string)": "infinite",
						"withdraw(uint256)": "infinite"
					},
					"internal": {
						"_ownerClaimAllReward()": "infinite",
						"_resetGame()": "32148",
						"_rewardWinner(address,uint256)": "infinite"
					}
				},
				"methodIdentifiers": {
					"N()": "c9e525df",
					"StartTime()": "fc4a4a1e",
					"T1()": "a11efef4",
					"T2()": "84c9ad6e",
					"T3()": "31081d7e",
					"commitHashedChoice(bytes32)": "d57b65cb",
					"currentN()": "7c8673dc",
					"currentStage()": "5bf5d54c",
					"findWinner()": "8e71decb",
					"getCurrentStage()": "eedbe31d",
					"getHash(bytes32)": "3cf5040a",
					"getHashChoice(uint256,string)": "073d8ff3",
					"getSaltedHash(bytes32,bytes32)": "8dddbf36",
					"isOwner()": "8f32d59b",
					"owner()": "8da5cb5b",
					"revealChoice(uint256,uint256,string)": "5afa1fd8",
					"withdraw(uint256)": "2e1a7d4d"
				}
			},
			"storageLayout": {
				"storage": [
					{
						"astId": 4,
						"contract": "lottery.sol:MultiPartyLottery",
						"label": "max",
						"offset": 0,
						"slot": "0",
						"type": "t_uint8"
					},
					{
						"astId": 16,
						"contract": "lottery.sol:MultiPartyLottery",
						"label": "commits",
						"offset": 0,
						"slot": "1",
						"type": "t_mapping(t_address,t_struct(Commit)11_storage)"
					},
					{
						"astId": 285,
						"contract": "lottery.sol:MultiPartyLottery",
						"label": "_owner",
						"offset": 0,
						"slot": "2",
						"type": "t_address"
					},
					{
						"astId": 334,
						"contract": "lottery.sol:MultiPartyLottery",
						"label": "StartTime",
						"offset": 0,
						"slot": "3",
						"type": "t_uint256"
					},
					{
						"astId": 336,
						"contract": "lottery.sol:MultiPartyLottery",
						"label": "T1",
						"offset": 0,
						"slot": "4",
						"type": "t_uint256"
					},
					{
						"astId": 338,
						"contract": "lottery.sol:MultiPartyLottery",
						"label": "T2",
						"offset": 0,
						"slot": "5",
						"type": "t_uint256"
					},
					{
						"astId": 340,
						"contract": "lottery.sol:MultiPartyLottery",
						"label": "T3",
						"offset": 0,
						"slot": "6",
						"type": "t_uint256"
					},
					{
						"astId": 342,
						"contract": "lottery.sol:MultiPartyLottery",
						"label": "N",
						"offset": 0,
						"slot": "7",
						"type": "t_uint256"
					},
					{
						"astId": 344,
						"contract": "lottery.sol:MultiPartyLottery",
						"label": "currentN",
						"offset": 0,
						"slot": "8",
						"type": "t_uint256"
					},
					{
						"astId": 347,
						"contract": "lottery.sol:MultiPartyLottery",
						"label": "currentStage",
						"offset": 0,
						"slot": "9",
						"type": "t_uint256"
					},
					{
						"astId": 372,
						"contract": "lottery.sol:MultiPartyLottery",
						"label": "players",
						"offset": 0,
						"slot": "10",
						"type": "t_mapping(t_uint256,t_struct(Player)367_storage)"
					}
				],
				"types": {
					"t_address": {
						"encoding": "inplace",
						"label": "address",
						"numberOfBytes": "20"
					},
					"t_bool": {
						"encoding": "inplace",
						"label": "bool",
						"numberOfBytes": "1"
					},
					"t_bytes32": {
						"encoding": "inplace",
						"label": "bytes32",
						"numberOfBytes": "32"
					},
					"t_mapping(t_address,t_struct(Commit)11_storage)": {
						"encoding": "mapping",
						"key": "t_address",
						"label": "mapping(address => struct CommitReveal.Commit)",
						"numberOfBytes": "32",
						"value": "t_struct(Commit)11_storage"
					},
					"t_mapping(t_uint256,t_struct(Player)367_storage)": {
						"encoding": "mapping",
						"key": "t_uint256",
						"label": "mapping(uint256 => struct MultiPartyLottery.Player)",
						"numberOfBytes": "32",
						"value": "t_struct(Player)367_storage"
					},
					"t_struct(Commit)11_storage": {
						"encoding": "inplace",
						"label": "struct CommitReveal.Commit",
						"members": [
							{
								"astId": 6,
								"contract": "lottery.sol:MultiPartyLottery",
								"label": "commit",
								"offset": 0,
								"slot": "0",
								"type": "t_bytes32"
							},
							{
								"astId": 8,
								"contract": "lottery.sol:MultiPartyLottery",
								"label": "block",
								"offset": 0,
								"slot": "1",
								"type": "t_uint64"
							},
							{
								"astId": 10,
								"contract": "lottery.sol:MultiPartyLottery",
								"label": "revealed",
								"offset": 8,
								"slot": "1",
								"type": "t_bool"
							}
						],
						"numberOfBytes": "64"
					},
					"t_struct(Player)367_storage": {
						"encoding": "inplace",
						"label": "struct MultiPartyLottery.Player",
						"members": [
							{
								"astId": 358,
								"contract": "lottery.sol:MultiPartyLottery",
								"label": "choice",
								"offset": 0,
								"slot": "0",
								"type": "t_uint256"
							},
							{
								"astId": 360,
								"contract": "lottery.sol:MultiPartyLottery",
								"label": "isCommited",
								"offset": 0,
								"slot": "1",
								"type": "t_bool"
							},
							{
								"astId": 362,
								"contract": "lottery.sol:MultiPartyLottery",
								"label": "isRevealed",
								"offset": 1,
								"slot": "1",
								"type": "t_bool"
							},
							{
								"astId": 364,
								"contract": "lottery.sol:MultiPartyLottery",
								"label": "isWithdrawn",
								"offset": 2,
								"slot": "1",
								"type": "t_bool"
							},
							{
								"astId": 366,
								"contract": "lottery.sol:MultiPartyLottery",
								"label": "addr",
								"offset": 3,
								"slot": "1",
								"type": "t_address"
							}
						],
						"numberOfBytes": "64"
					},
					"t_uint256": {
						"encoding": "inplace",
						"label": "uint256",
						"numberOfBytes": "32"
					},
					"t_uint64": {
						"encoding": "inplace",
						"label": "uint64",
						"numberOfBytes": "8"
					},
					"t_uint8": {
						"encoding": "inplace",
						"label": "uint8",
						"numberOfBytes": "1"
					}
				}
			},
			"userdoc": {
				"kind": "user",
				"methods": {},
				"version": 1
			}
		}
	}
}