{
	"Ownership.sol": {
		"Ownership": {
			"abi": [
				{
					"inputs": [],
					"stateMutability": "nonpayable",
					"type": "constructor"
				},
				{
					"inputs": [],
					"name": "isOwner",
					"outputs": [
						{
							"internalType": "bool",
							"name": "",
							"type": "bool"
						}
					],
					"stateMutability": "view",
					"type": "function"
				},
				{
					"inputs": [],
					"name": "owner",
					"outputs": [
						{
							"internalType": "address",
							"name": "",
							"type": "address"
						}
					],
					"stateMutability": "view",
					"type": "function"
				}
			],
			"devdoc": {
				"kind": "dev",
				"methods": {},
				"version": 1
			},
			"evm": {
				"assembly": "    /* \"Ownership.sol\":68:490  contract Ownership {... */\n  mstore(0x40, 0x80)\n    /* \"Ownership.sol\":127:179  constructor() {... */\n  callvalue\n  dup1\n  iszero\n  tag_1\n  jumpi\n  0x00\n  dup1\n  revert\ntag_1:\n  pop\n    /* \"Ownership.sol\":161:171  msg.sender */\n  caller\n    /* \"Ownership.sol\":152:158  _owner */\n  0x00\n  dup1\n    /* \"Ownership.sol\":152:171  _owner = msg.sender */\n  0x0100\n  exp\n  dup2\n  sload\n  dup2\n  0xffffffffffffffffffffffffffffffffffffffff\n  mul\n  not\n  and\n  swap1\n  dup4\n  0xffffffffffffffffffffffffffffffffffffffff\n  and\n  mul\n  or\n  swap1\n  sstore\n  pop\n    /* \"Ownership.sol\":68:490  contract Ownership {... */\n  dataSize(sub_0)\n  dup1\n  dataOffset(sub_0)\n  0x00\n  codecopy\n  0x00\n  return\nstop\n\nsub_0: assembly {\n        /* \"Ownership.sol\":68:490  contract Ownership {... */\n      mstore(0x40, 0x80)\n      callvalue\n      dup1\n      iszero\n      tag_1\n      jumpi\n      0x00\n      dup1\n      revert\n    tag_1:\n      pop\n      jumpi(tag_2, lt(calldatasize, 0x04))\n      shr(0xe0, calldataload(0x00))\n      dup1\n      0x8da5cb5b\n      eq\n      tag_3\n      jumpi\n      dup1\n      0x8f32d59b\n      eq\n      tag_4\n      jumpi\n    tag_2:\n      0x00\n      dup1\n      revert\n        /* \"Ownership.sol\":187:268  function owner() public view returns ( address ) {... */\n    tag_3:\n      tag_5\n      tag_6\n      jump\t// in\n    tag_5:\n      mload(0x40)\n      tag_7\n      swap2\n      swap1\n      tag_8\n      jump\t// in\n    tag_7:\n      mload(0x40)\n      dup1\n      swap2\n      sub\n      swap1\n      return\n        /* \"Ownership.sol\":393:485  function isOwner() public view returns (bool) {... */\n    tag_4:\n      tag_9\n      tag_10\n      jump\t// in\n    tag_9:\n      mload(0x40)\n      tag_11\n      swap2\n      swap1\n      tag_12\n      jump\t// in\n    tag_11:\n      mload(0x40)\n      dup1\n      swap2\n      sub\n      swap1\n      return\n        /* \"Ownership.sol\":187:268  function owner() public view returns ( address ) {... */\n    tag_6:\n        /* \"Ownership.sol\":226:233  address */\n      0x00\n        /* \"Ownership.sol\":254:260  _owner */\n      dup1\n      0x00\n      swap1\n      sload\n      swap1\n      0x0100\n      exp\n      swap1\n      div\n      0xffffffffffffffffffffffffffffffffffffffff\n      and\n        /* \"Ownership.sol\":247:260  return _owner */\n      swap1\n      pop\n        /* \"Ownership.sol\":187:268  function owner() public view returns ( address ) {... */\n      swap1\n      jump\t// out\n        /* \"Ownership.sol\":393:485  function isOwner() public view returns (bool) {... */\n    tag_10:\n        /* \"Ownership.sol\":433:437  bool */\n      0x00\n        /* \"Ownership.sol\":471:477  _owner */\n      dup1\n      0x00\n      swap1\n      sload\n      swap1\n      0x0100\n      exp\n      swap1\n      div\n      0xffffffffffffffffffffffffffffffffffffffff\n      and\n        /* \"Ownership.sol\":457:477  msg.sender == _owner */\n      0xffffffffffffffffffffffffffffffffffffffff\n      and\n        /* \"Ownership.sol\":457:467  msg.sender */\n      caller\n        /* \"Ownership.sol\":457:477  msg.sender == _owner */\n      0xffffffffffffffffffffffffffffffffffffffff\n      and\n      eq\n        /* \"Ownership.sol\":450:477  return msg.sender == _owner */\n      swap1\n      pop\n        /* \"Ownership.sol\":393:485  function isOwner() public view returns (bool) {... */\n      swap1\n      jump\t// out\n        /* \"#utility.yul\":7:133   */\n    tag_15:\n        /* \"#utility.yul\":44:51   */\n      0x00\n        /* \"#utility.yul\":84:126   */\n      0xffffffffffffffffffffffffffffffffffffffff\n        /* \"#utility.yul\":77:82   */\n      dup3\n        /* \"#utility.yul\":73:127   */\n      and\n        /* \"#utility.yul\":62:127   */\n      swap1\n      pop\n        /* \"#utility.yul\":7:133   */\n      swap2\n      swap1\n      pop\n      jump\t// out\n        /* \"#utility.yul\":139:235   */\n    tag_16:\n        /* \"#utility.yul\":176:183   */\n      0x00\n        /* \"#utility.yul\":205:229   */\n      tag_23\n        /* \"#utility.yul\":223:228   */\n      dup3\n        /* \"#utility.yul\":205:229   */\n      tag_15\n      jump\t// in\n    tag_23:\n        /* \"#utility.yul\":194:229   */\n      swap1\n      pop\n        /* \"#utility.yul\":139:235   */\n      swap2\n      swap1\n      pop\n      jump\t// out\n        /* \"#utility.yul\":241:359   */\n    tag_17:\n        /* \"#utility.yul\":328:352   */\n      tag_25\n        /* \"#utility.yul\":346:351   */\n      dup2\n        /* \"#utility.yul\":328:352   */\n      tag_16\n      jump\t// in\n    tag_25:\n        /* \"#utility.yul\":323:326   */\n      dup3\n        /* \"#utility.yul\":316:353   */\n      mstore\n        /* \"#utility.yul\":241:359   */\n      pop\n      pop\n      jump\t// out\n        /* \"#utility.yul\":365:587   */\n    tag_8:\n        /* \"#utility.yul\":458:462   */\n      0x00\n        /* \"#utility.yul\":496:498   */\n      0x20\n        /* \"#utility.yul\":485:494   */\n      dup3\n        /* \"#utility.yul\":481:499   */\n      add\n        /* \"#utility.yul\":473:499   */\n      swap1\n      pop\n        /* \"#utility.yul\":509:580   */\n      tag_27\n        /* \"#utility.yul\":577:578   */\n      0x00\n        /* \"#utility.yul\":566:575   */\n      dup4\n        /* \"#utility.yul\":562:579   */\n      add\n        /* \"#utility.yul\":553:559   */\n      dup5\n        /* \"#utility.yul\":509:580   */\n      tag_17\n      jump\t// in\n    tag_27:\n        /* \"#utility.yul\":365:587   */\n      swap3\n      swap2\n      pop\n      pop\n      jump\t// out\n        /* \"#utility.yul\":593:683   */\n    tag_18:\n        /* \"#utility.yul\":627:634   */\n      0x00\n        /* \"#utility.yul\":670:675   */\n      dup2\n        /* \"#utility.yul\":663:676   */\n      iszero\n        /* \"#utility.yul\":656:677   */\n      iszero\n        /* \"#utility.yul\":645:677   */\n      swap1\n      pop\n        /* \"#utility.yul\":593:683   */\n      swap2\n      swap1\n      pop\n      jump\t// out\n        /* \"#utility.yul\":689:798   */\n    tag_19:\n        /* \"#utility.yul\":770:791   */\n      tag_30\n        /* \"#utility.yul\":785:790   */\n      dup2\n        /* \"#utility.yul\":770:791   */\n      tag_18\n      jump\t// in\n    tag_30:\n        /* \"#utility.yul\":765:768   */\n      dup3\n        /* \"#utility.yul\":758:792   */\n      mstore\n        /* \"#utility.yul\":689:798   */\n      pop\n      pop\n      jump\t// out\n        /* \"#utility.yul\":804:1014   */\n    tag_12:\n        /* \"#utility.yul\":891:895   */\n      0x00\n        /* \"#utility.yul\":929:931   */\n      0x20\n        /* \"#utility.yul\":918:927   */\n      dup3\n        /* \"#utility.yul\":914:932   */\n      add\n        /* \"#utility.yul\":906:932   */\n      swap1\n      pop\n        /* \"#utility.yul\":942:1007   */\n      tag_32\n        /* \"#utility.yul\":1004:1005   */\n      0x00\n        /* \"#utility.yul\":993:1002   */\n      dup4\n        /* \"#utility.yul\":989:1006   */\n      add\n        /* \"#utility.yul\":980:986   */\n      dup5\n        /* \"#utility.yul\":942:1007   */\n      tag_19\n      jump\t// in\n    tag_32:\n        /* \"#utility.yul\":804:1014   */\n      swap3\n      swap2\n      pop\n      pop\n      jump\t// out\n\n    auxdata: 0xa2646970667358221220403c1b4f3c2dbdae7ddbe5a6920e9f6eebdbf36dc0f995945db5f3b4a16a938e64736f6c63430008180033\n}\n",
				"bytecode": {
					"linkReferences": {},
					"object": "608060405234801561000f575f80fd5b50335f806101000a81548173ffffffffffffffffffffffffffffffffffffffff021916908373ffffffffffffffffffffffffffffffffffffffff1602179055506101b18061005c5f395ff3fe608060405234801561000f575f80fd5b5060043610610034575f3560e01c80638da5cb5b146100385780638f32d59b14610056575b5f80fd5b610040610074565b60405161004d919061012f565b60405180910390f35b61005e61009b565b60405161006b9190610162565b60405180910390f35b5f805f9054906101000a900473ffffffffffffffffffffffffffffffffffffffff16905090565b5f805f9054906101000a900473ffffffffffffffffffffffffffffffffffffffff1673ffffffffffffffffffffffffffffffffffffffff163373ffffffffffffffffffffffffffffffffffffffff1614905090565b5f73ffffffffffffffffffffffffffffffffffffffff82169050919050565b5f610119826100f0565b9050919050565b6101298161010f565b82525050565b5f6020820190506101425f830184610120565b92915050565b5f8115159050919050565b61015c81610148565b82525050565b5f6020820190506101755f830184610153565b9291505056fea2646970667358221220403c1b4f3c2dbdae7ddbe5a6920e9f6eebdbf36dc0f995945db5f3b4a16a938e64736f6c63430008180033",
					"opcodes": "PUSH1 0x80 PUSH1 0x40 MSTORE CALLVALUE DUP1 ISZERO PUSH2 0xF JUMPI PUSH0 DUP1 REVERT JUMPDEST POP CALLER PUSH0 DUP1 PUSH2 0x100 EXP DUP2 SLOAD DUP2 PUSH20 0xFFFFFFFFFFFFFFFFFFFFFFFFFFFFFFFFFFFFFFFF MUL NOT AND SWAP1 DUP4 PUSH20 0xFFFFFFFFFFFFFFFFFFFFFFFFFFFFFFFFFFFFFFFF AND MUL OR SWAP1 SSTORE POP PUSH2 0x1B1 DUP1 PUSH2 0x5C PUSH0 CODECOPY PUSH0 RETURN INVALID PUSH1 0x80 PUSH1 0x40 MSTORE CALLVALUE DUP1 ISZERO PUSH2 0xF JUMPI PUSH0 DUP1 REVERT JUMPDEST POP PUSH1 0x4 CALLDATASIZE LT PUSH2 0x34 JUMPI PUSH0 CALLDATALOAD PUSH1 0xE0 SHR DUP1 PUSH4 0x8DA5CB5B EQ PUSH2 0x38 JUMPI DUP1 PUSH4 0x8F32D59B EQ PUSH2 0x56 JUMPI JUMPDEST PUSH0 DUP1 REVERT JUMPDEST PUSH2 0x40 PUSH2 0x74 JUMP JUMPDEST PUSH1 0x40 MLOAD PUSH2 0x4D SWAP2 SWAP1 PUSH2 0x12F JUMP JUMPDEST PUSH1 0x40 MLOAD DUP1 SWAP2 SUB SWAP1 RETURN JUMPDEST PUSH2 0x5E PUSH2 0x9B JUMP JUMPDEST PUSH1 0x40 MLOAD PUSH2 0x6B SWAP2 SWAP1 PUSH2 0x162 JUMP JUMPDEST PUSH1 0x40 MLOAD DUP1 SWAP2 SUB SWAP1 RETURN JUMPDEST PUSH0 DUP1 PUSH0 SWAP1 SLOAD SWAP1 PUSH2 0x100 EXP SWAP1 DIV PUSH20 0xFFFFFFFFFFFFFFFFFFFFFFFFFFFFFFFFFFFFFFFF AND SWAP1 POP SWAP1 JUMP JUMPDEST PUSH0 DUP1 PUSH0 SWAP1 SLOAD SWAP1 PUSH2 0x100 EXP SWAP1 DIV PUSH20 0xFFFFFFFFFFFFFFFFFFFFFFFFFFFFFFFFFFFFFFFF AND PUSH20 0xFFFFFFFFFFFFFFFFFFFFFFFFFFFFFFFFFFFFFFFF AND CALLER PUSH20 0xFFFFFFFFFFFFFFFFFFFFFFFFFFFFFFFFFFFFFFFF AND EQ SWAP1 POP SWAP1 JUMP JUMPDEST PUSH0 PUSH20 0xFFFFFFFFFFFFFFFFFFFFFFFFFFFFFFFFFFFFFFFF DUP3 AND SWAP1 POP SWAP2 SWAP1 POP JUMP JUMPDEST PUSH0 PUSH2 0x119 DUP3 PUSH2 0xF0 JUMP JUMPDEST SWAP1 POP SWAP2 SWAP1 POP JUMP JUMPDEST PUSH2 0x129 DUP2 PUSH2 0x10F JUMP JUMPDEST DUP3 MSTORE POP POP JUMP JUMPDEST PUSH0 PUSH1 0x20 DUP3 ADD SWAP1 POP PUSH2 0x142 PUSH0 DUP4 ADD DUP5 PUSH2 0x120 JUMP JUMPDEST SWAP3 SWAP2 POP POP JUMP JUMPDEST PUSH0 DUP2 ISZERO ISZERO SWAP1 POP SWAP2 SWAP1 POP JUMP JUMPDEST PUSH2 0x15C DUP2 PUSH2 0x148 JUMP JUMPDEST DUP3 MSTORE POP POP JUMP JUMPDEST PUSH0 PUSH1 0x20 DUP3 ADD SWAP1 POP PUSH2 0x175 PUSH0 DUP4 ADD DUP5 PUSH2 0x153 JUMP JUMPDEST SWAP3 SWAP2 POP POP JUMP INVALID LOG2 PUSH5 0x6970667358 0x22 SLT KECCAK256 BLOCKHASH EXTCODECOPY SHL 0x4F EXTCODECOPY 0x2D 0xBD 0xAE PUSH30 0xDBE5A6920E9F6EEBDBF36DC0F995945DB5F3B4A16A938E64736F6C634300 ADDMOD XOR STOP CALLER "
				},
				"gasEstimates": {
					"creation": {
						"codeDepositCost": "86600",
						"executionCost": "24398",
						"totalCost": "110998"
					},
					"external": {
						"isOwner()": "2490",
						"owner()": "2493"
					}
				},
				"methodIdentifiers": {
					"isOwner()": "8f32d59b",
					"owner()": "8da5cb5b"
				}
			},
			"storageLayout": {
				"storage": [
					{
						"astId": 285,
						"contract": "Ownership.sol:Ownership",
						"label": "_owner",
						"offset": 0,
						"slot": "0",
						"type": "t_address"
					}
				],
				"types": {
					"t_address": {
						"encoding": "inplace",
						"label": "address",
						"numberOfBytes": "20"
					}
				}
			},
			"userdoc": {
				"kind": "user",
				"methods": {},
				"version": 1
			}
		}
	}
}