{
	"data": {
		"bytecode": {
			"linkReferences": {},
			"object": "608060405260645f806101000a81548160ff021916908360ff1602179055505f6009553480156200002e575f80fd5b5060405162002a8838038062002a888339818101604052810190620000549190620000f6565b3360025f6101000a81548173ffffffffffffffffffffffffffffffffffffffff021916908373ffffffffffffffffffffffffffffffffffffffff160217905550836007819055508260048190555081600681905550806004819055505050505062000165565b5f80fd5b5f819050919050565b620000d281620000be565b8114620000dd575f80fd5b50565b5f81519050620000f081620000c7565b92915050565b5f805f8060808587031215620001115762000110620000ba565b5b5f6200012087828801620000e0565b94505060206200013387828801620000e0565b93505060406200014687828801620000e0565b92505060606200015987828801620000e0565b91505092959194509250565b61291580620001735f395ff3fe6080604052600436106100fd575f3560e01c80638da5cb5b11610094578063a11efef411610063578063a11efef414610317578063c9e525df14610341578063d57b65cb1461036b578063eedbe31d1461039b578063fc4a4a1e146103c6576100fd565b80638da5cb5b146102715780638dddbf361461029b5780638e71decb146102d75780638f32d59b146102ed576100fd565b80635afa1fd8116100d05780635afa1fd8146101cb5780635bf5d54c146101f35780637c8673dc1461021d57806384c9ad6e14610247576100fd565b8063073d8ff3146101015780632e1a7d4d1461013d57806331081d7e146101655780633cf5040a1461018f575b5f80fd5b34801561010c575f80fd5b5061012760048036038101906101229190611a41565b6103f0565b6040516101349190611ab3565b60405180910390f35b348015610148575f80fd5b50610163600480360381019061015e9190611acc565b61044f565b005b348015610170575f80fd5b50610179610630565b6040516101869190611b06565b60405180910390f35b34801561019a575f80fd5b506101b560048036038101906101b09190611b49565b610636565b6040516101c29190611ab3565b60405180910390f35b3480156101d6575f80fd5b506101f160048036038101906101ec9190611b74565b610667565b005b3480156101fe575f80fd5b50610207610829565b6040516102149190611b06565b60405180910390f35b348015610228575f80fd5b5061023161082f565b60405161023e9190611b06565b60405180910390f35b348015610252575f80fd5b5061025b610835565b6040516102689190611b06565b60405180910390f35b34801561027c575f80fd5b5061028561083b565b6040516102929190611c1f565b60405180910390f35b3480156102a6575f80fd5b506102c160048036038101906102bc9190611c38565b610863565b6040516102ce9190611ab3565b60405180910390f35b3480156102e2575f80fd5b506102eb610897565b005b3480156102f8575f80fd5b50610301610d28565b60405161030e9190611c90565b60405180910390f35b348015610322575f80fd5b5061032b610d7e565b6040516103389190611b06565b60405180910390f35b34801561034c575f80fd5b50610355610d84565b6040516103629190611b06565b60405180910390f35b61038560048036038101906103809190611b49565b610d8a565b6040516103929190611b06565b60405180910390f35b3480156103a6575f80fd5b506103af610faa565b6040516103bd929190611d23565b60405180910390f35b3480156103d1575f80fd5b506103da611177565b6040516103e79190611b06565b60405180910390f35b5f80826040516020016104039190611d8b565b60405160208183030381529060405261041b90611dda565b90508381604051602001610430929190611e80565b6040516020818303038152906040528051906020012091505092915050565b6006546005546004546003546104659190611ed8565b61046f9190611ed8565b6104799190611ed8565b42116104ba576040517f08c379a00000000000000000000000000000000000000000000000000000000081526004016104b190611f55565b60405180910390fd5b600a5f8281526020019081526020015f2060010160039054906101000a900473ffffffffffffffffffffffffffffffffffffffff1673ffffffffffffffffffffffffffffffffffffffff163373ffffffffffffffffffffffffffffffffffffffff161461055c576040517f08c379a000000000000000000000000000000000000000000000000000000000815260040161055390611fbd565b60405180910390fd5b5f1515600a5f8381526020019081526020015f2060010160029054906101000a900460ff1615151461058c575f80fd5b6001600a5f8381526020019081526020015f2060010160026101000a81548160ff0219169083151502179055503373ffffffffffffffffffffffffffffffffffffffff166108fc66038d7ea4c6800090811502906040515f60405180830381858888f19350505050158015610603573d5f803e3d5ffd5b5060085f81548092919061061690611fdb565b91905055505f6008540361062d5761062c61117d565b5b50565b60065481565b5f308260405160200161064a929190612047565b604051602081830303815290604052805190602001209050919050565b426004546003546106789190611ed8565b1080156106a057506005546004546003546106939190611ed8565b61069d9190611ed8565b42105b6106df576040517f08c379a00000000000000000000000000000000000000000000000000000000081526004016106d6906120bc565b60405180910390fd5b600a5f8481526020019081526020015f2060010160039054906101000a900473ffffffffffffffffffffffffffffffffffffffff1673ffffffffffffffffffffffffffffffffffffffff163373ffffffffffffffffffffffffffffffffffffffff1614610781576040517f08c379a000000000000000000000000000000000000000000000000000000000815260040161077890611fbd565b60405180910390fd5b5f816040516020016107939190611d8b565b6040516020818303038152906040526107ab90611dda565b90506107de83826040516020016107c3929190611e80565b60405160208183030381529060405280519060200120611194565b82600a5f8681526020019081526020015f205f01819055506001600a5f8681526020019081526020015f2060010160016101000a81548160ff02191690831515021790555050505050565b60095481565b60085481565b60055481565b5f60025f9054906101000a900473ffffffffffffffffffffffffffffffffffffffff16905090565b5f308383604051602001610879939291906120da565b60405160208183030381529060405280519060200120905092915050565b61089f610d28565b6108de576040517f08c379a00000000000000000000000000000000000000000000000000000000081526004016108d590612186565b60405180910390fd5b426005546004546003546108f29190611ed8565b6108fc9190611ed8565b108015610931575060065460055460045460035461091a9190611ed8565b6109249190611ed8565b61092e9190611ed8565b42105b610939575f80fd5b5f60085467ffffffffffffffff8111156109565761095561191d565b5b60405190808252806020026020018201604052801561098f57816020015b61097c61187b565b8152602001906001900390816109745790505b5090505f805f90505b600854811015610c4b57600a5f8281526020019081526020015f2060010160019054906101000a900460ff1680156109e35750600a5f8281526020019081526020015f205f01545f11155b8015610a0457506103e7600a5f8381526020019081526020015f205f015411155b15610b3257600a5f8281526020019081526020015f205f0154838381518110610a3057610a2f6121a4565b5b60200260200101515f018181525050600a5f8281526020019081526020015f206001015f9054906101000a900460ff16838381518110610a7357610a726121a4565b5b60200260200101516020019015159081151581525050600a5f8281526020019081526020015f2060010160019054906101000a900460ff16838381518110610abe57610abd6121a4565b5b60200260200101516040019015159081151581525050600a5f8281526020019081526020015f2060010160029054906101000a900460ff16838381518110610b0957610b086121a4565b5b602002602001015160600190151590811515815250508180610b2a906121d1565b925050610c3e565b5f6064606266038d7ea4c68000610b499190612218565b610b539190612286565b90505f6064600266038d7ea4c68000610b6c9190612218565b610b769190612286565b9050600a5f8481526020019081526020015f2060010160039054906101000a900473ffffffffffffffffffffffffffffffffffffffff1673ffffffffffffffffffffffffffffffffffffffff166108fc8390811502906040515f60405180830381858888f19350505050158015610bef573d5f803e3d5ffd5b50610bf861083b565b73ffffffffffffffffffffffffffffffffffffffff166108fc8290811502906040515f60405180830381858888f19350505050158015610c3a573d5f803e3d5ffd5b5050505b8080600101915050610998565b505f8103610c5c57610c5b611552565b5b5f825f81518110610c7057610c6f6121a4565b5b60200260200101515f015190505f600190505b82811015610cba57838181518110610c9e57610c9d6121a4565b5b60200260200101515f0151821891508080600101915050610c83565b505f8282604051602001610cce91906122b6565b604051602081830303815290604052805190602001205f1c610cf091906122d0565b9050610d1a848281518110610d0857610d076121a4565b5b602002602001015160800151846115b8565b610d2261117d565b50505050565b5f60025f9054906101000a900473ffffffffffffffffffffffffffffffffffffffff1673ffffffffffffffffffffffffffffffffffffffff163373ffffffffffffffffffffffffffffffffffffffff1614905090565b60045481565b60075481565b5f66038d7ea4c680003414610dd4576040517f08c379a0000000000000000000000000000000000000000000000000000000008152600401610dcb90612370565b60405180910390fd5b60075460085410610e1a576040517f08c379a0000000000000000000000000000000000000000000000000000000008152600401610e11906123fe565b60405180910390fd5b5f60095403610e33576001600981905550426003819055505b600454600354610e439190611ed8565b4210610e84576040517f08c379a0000000000000000000000000000000000000000000000000000000008152600401610e7b90612466565b60405180910390fd5b5f6008549050610e9b610e9684610636565b6116a9565b5f600a5f8381526020019081526020015f205f01819055506001600a5f8381526020019081526020015f206001015f6101000a81548160ff0219169083151502179055505f600a5f8381526020019081526020015f2060010160016101000a81548160ff0219169083151502179055505f600a5f8381526020019081526020015f2060010160026101000a81548160ff02191690831515021790555033600a5f8381526020019081526020015f2060010160036101000a81548173ffffffffffffffffffffffffffffffffffffffff021916908373ffffffffffffffffffffffffffffffffffffffff16021790555060085f815480929190610f9c906121d1565b919050555080915050919050565b60605f8060095403610ff7575f6040518060400160405280600481526020017f49646c65000000000000000000000000000000000000000000000000000000008152509091509150611173565b600160095403611172576004546003546110119190611ed8565b42101561105657426004546003546110299190611ed8565b6110339190612484565b604051806060016040528060318152602001612808603191399091509150611173565b6005546004546003546110699190611ed8565b6110739190611ed8565b4210156110c5574260055460045460035461108e9190611ed8565b6110989190611ed8565b6110a29190612484565b6040518060600160405280603181526020016128af603191399091509150611173565b6006546005546004546003546110db9190611ed8565b6110e59190611ed8565b6110ef9190611ed8565b42101561114e574260065460055460045460035461110d9190611ed8565b6111179190611ed8565b6111219190611ed8565b61112b9190612484565b604051806060016040528060398152602001612876603991399091509150611173565b5f6040518060600160405280603d8152602001612839603d91399091509150611173565b5b9091565b60035481565b5f6009819055505f60088190555042600381905550565b5f151560015f3373ffffffffffffffffffffffffffffffffffffffff1673ffffffffffffffffffffffffffffffffffffffff1681526020019081526020015f2060010160089054906101000a900460ff16151514611227576040517f08c379a000000000000000000000000000000000000000000000000000000000815260040161121e90612527565b60405180910390fd5b6001805f3373ffffffffffffffffffffffffffffffffffffffff1673ffffffffffffffffffffffffffffffffffffffff1681526020019081526020015f2060010160086101000a81548160ff02191690831515021790555060015f3373ffffffffffffffffffffffffffffffffffffffff1673ffffffffffffffffffffffffffffffffffffffff1681526020019081526020015f205f01546112c882610636565b14611308576040517f08c379a00000000000000000000000000000000000000000000000000000000081526004016112ff906125b5565b60405180910390fd5b60015f3373ffffffffffffffffffffffffffffffffffffffff1673ffffffffffffffffffffffffffffffffffffffff1681526020019081526020015f206001015f9054906101000a900467ffffffffffffffff1667ffffffffffffffff164367ffffffffffffffff16116113b1576040517f08c379a00000000000000000000000000000000000000000000000000000000081526004016113a890612669565b60405180910390fd5b60fa60015f3373ffffffffffffffffffffffffffffffffffffffff1673ffffffffffffffffffffffffffffffffffffffff1681526020019081526020015f206001015f9054906101000a900467ffffffffffffffff16611411919061269a565b67ffffffffffffffff164367ffffffffffffffff161115611467576040517f08c379a000000000000000000000000000000000000000000000000000000000815260040161145e90612745565b60405180910390fd5b5f60015f3373ffffffffffffffffffffffffffffffffffffffff1673ffffffffffffffffffffffffffffffffffffffff1681526020019081526020015f206001015f9054906101000a900467ffffffffffffffff1667ffffffffffffffff164090505f805f9054906101000a900460ff1660ff1682846040516020016114ee929190612763565b604051602081830303815290604052805190602001205f1c61151091906122d0565b90507fbc016dd1cadeaefcb851af7a0a93532e0023d536894b730801f7bcfe7065bcc23384836040516115459392919061278e565b60405180910390a1505050565b5f60085466038d7ea4c680006115689190612218565b905061157261083b565b73ffffffffffffffffffffffffffffffffffffffff166108fc8290811502906040515f60405180830381858888f193505050501580156115b4573d5f803e3d5ffd5b5050565b5f606460628366038d7ea4c680006115d09190612218565b6115da9190612218565b6115e49190612286565b90505f606460028466038d7ea4c680006115fe9190612218565b6116089190612218565b6116129190612286565b90508373ffffffffffffffffffffffffffffffffffffffff166108fc8390811502906040515f60405180830381858888f19350505050158015611657573d5f803e3d5ffd5b5061166061083b565b73ffffffffffffffffffffffffffffffffffffffff166108fc8290811502906040515f60405180830381858888f193505050501580156116a2573d5f803e3d5ffd5b5050505050565b8060015f3373ffffffffffffffffffffffffffffffffffffffff1673ffffffffffffffffffffffffffffffffffffffff1681526020019081526020015f205f01819055504360015f3373ffffffffffffffffffffffffffffffffffffffff1673ffffffffffffffffffffffffffffffffffffffff1681526020019081526020015f206001015f6101000a81548167ffffffffffffffff021916908367ffffffffffffffff1602179055505f60015f3373ffffffffffffffffffffffffffffffffffffffff1673ffffffffffffffffffffffffffffffffffffffff1681526020019081526020015f2060010160086101000a81548160ff0219169083151502179055507f3c1a1f8f38335b17f751c6da4ba7d1865f26b3997535176f5080de9fad8916033360015f3373ffffffffffffffffffffffffffffffffffffffff1673ffffffffffffffffffffffffffffffffffffffff1681526020019081526020015f205f015460015f3373ffffffffffffffffffffffffffffffffffffffff1673ffffffffffffffffffffffffffffffffffffffff1681526020019081526020015f206001015f9054906101000a900467ffffffffffffffff16604051611870939291906127d2565b60405180910390a150565b6040518060a001604052805f81526020015f151581526020015f151581526020015f151581526020015f73ffffffffffffffffffffffffffffffffffffffff1681525090565b5f604051905090565b5f80fd5b5f80fd5b5f819050919050565b6118e4816118d2565b81146118ee575f80fd5b50565b5f813590506118ff816118db565b92915050565b5f80fd5b5f80fd5b5f601f19601f8301169050919050565b7f4e487b71000000000000000000000000000000000000000000000000000000005f52604160045260245ffd5b6119538261190d565b810181811067ffffffffffffffff821117156119725761197161191d565b5b80604052505050565b5f6119846118c1565b9050611990828261194a565b919050565b5f67ffffffffffffffff8211156119af576119ae61191d565b5b6119b88261190d565b9050602081019050919050565b828183375f83830152505050565b5f6119e56119e084611995565b61197b565b905082815260208101848484011115611a0157611a00611909565b5b611a0c8482856119c5565b509392505050565b5f82601f830112611a2857611a27611905565b5b8135611a388482602086016119d3565b91505092915050565b5f8060408385031215611a5757611a566118ca565b5b5f611a64858286016118f1565b925050602083013567ffffffffffffffff811115611a8557611a846118ce565b5b611a9185828601611a14565b9150509250929050565b5f819050919050565b611aad81611a9b565b82525050565b5f602082019050611ac65f830184611aa4565b92915050565b5f60208284031215611ae157611ae06118ca565b5b5f611aee848285016118f1565b91505092915050565b611b00816118d2565b82525050565b5f602082019050611b195f830184611af7565b92915050565b611b2881611a9b565b8114611b32575f80fd5b50565b5f81359050611b4381611b1f565b92915050565b5f60208284031215611b5e57611b5d6118ca565b5b5f611b6b84828501611b35565b91505092915050565b5f805f60608486031215611b8b57611b8a6118ca565b5b5f611b98868287016118f1565b9350506020611ba9868287016118f1565b925050604084013567ffffffffffffffff811115611bca57611bc96118ce565b5b611bd686828701611a14565b9150509250925092565b5f73ffffffffffffffffffffffffffffffffffffffff82169050919050565b5f611c0982611be0565b9050919050565b611c1981611bff565b82525050565b5f602082019050611c325f830184611c10565b92915050565b5f8060408385031215611c4e57611c4d6118ca565b5b5f611c5b85828601611b35565b9250506020611c6c85828601611b35565b9150509250929050565b5f8115159050919050565b611c8a81611c76565b82525050565b5f602082019050611ca35f830184611c81565b92915050565b5f81519050919050565b5f82825260208201905092915050565b5f5b83811015611ce0578082015181840152602081019050611cc5565b5f8484015250505050565b5f611cf582611ca9565b611cff8185611cb3565b9350611d0f818560208601611cc3565b611d188161190d565b840191505092915050565b5f6040820190508181035f830152611d3b8185611ceb565b9050611d4a6020830184611af7565b9392505050565b5f81905092915050565b5f611d6582611ca9565b611d6f8185611d51565b9350611d7f818560208601611cc3565b80840191505092915050565b5f611d968284611d5b565b915081905092915050565b5f81519050919050565b5f819050602082019050919050565b5f611dc58251611a9b565b80915050919050565b5f82821b905092915050565b5f611de482611da1565b82611dee84611dab565b9050611df981611dba565b92506020821015611e3957611e347fffffffffffffffffffffffffffffffffffffffffffffffffffffffffffffffff83602003600802611dce565b831692505b5050919050565b5f819050919050565b611e5a611e55826118d2565b611e40565b82525050565b5f819050919050565b611e7a611e7582611a9b565b611e60565b82525050565b5f611e8b8285611e49565b602082019150611e9b8284611e69565b6020820191508190509392505050565b7f4e487b71000000000000000000000000000000000000000000000000000000005f52601160045260245ffd5b5f611ee2826118d2565b9150611eed836118d2565b9250828201905080821115611f0557611f04611eab565b5b92915050565b7f4f7574206f6620776974686472617720706572696f64000000000000000000005f82015250565b5f611f3f601683611cb3565b9150611f4a82611f0b565b602082019050919050565b5f6020820190508181035f830152611f6c81611f33565b9050919050565b7f57726f6e6720496e6465780000000000000000000000000000000000000000005f82015250565b5f611fa7600b83611cb3565b9150611fb282611f73565b602082019050919050565b5f6020820190508181035f830152611fd481611f9b565b9050919050565b5f611fe5826118d2565b91505f8203611ff757611ff6611eab565b5b600182039050919050565b5f8160601b9050919050565b5f61201882612002565b9050919050565b5f6120298261200e565b9050919050565b61204161203c82611bff565b61201f565b82525050565b5f6120528285612030565b6014820191506120628284611e69565b6020820191508190509392505050565b7f4f7574206f662052657665616c20537461676520706572696f640000000000005f82015250565b5f6120a6601a83611cb3565b91506120b182612072565b602082019050919050565b5f6020820190508181035f8301526120d38161209a565b9050919050565b5f6120e58286612030565b6014820191506120f58285611e69565b6020820191506121058284611e69565b602082019150819050949350505050565b7f4f6e6c79206f776e65722063616e2063616c6c20746869732066756e6374696f5f8201527f6e00000000000000000000000000000000000000000000000000000000000000602082015250565b5f612170602183611cb3565b915061217b82612116565b604082019050919050565b5f6020820190508181035f83015261219d81612164565b9050919050565b7f4e487b71000000000000000000000000000000000000000000000000000000005f52603260045260245ffd5b5f6121db826118d2565b91507fffffffffffffffffffffffffffffffffffffffffffffffffffffffffffffffff820361220d5761220c611eab565b5b600182019050919050565b5f612222826118d2565b915061222d836118d2565b925082820261223b816118d2565b9150828204841483151761225257612251611eab565b5b5092915050565b7f4e487b71000000000000000000000000000000000000000000000000000000005f52601260045260245ffd5b5f612290826118d2565b915061229b836118d2565b9250826122ab576122aa612259565b5b828204905092915050565b5f6122c18284611e49565b60208201915081905092915050565b5f6122da826118d2565b91506122e5836118d2565b9250826122f5576122f4612259565b5b828206905092915050565b7f5265717569726520302e3030312045544820666f72204c6f74746572792066655f8201527f6500000000000000000000000000000000000000000000000000000000000000602082015250565b5f61235a602183611cb3565b915061236582612300565b604082019050919050565b5f6020820190508181035f8301526123878161234e565b9050919050565b7f546865206e756d626572206f6620706c617965727320697320636f6d706c65745f8201527f6500000000000000000000000000000000000000000000000000000000000000602082015250565b5f6123e8602183611cb3565b91506123f38261238e565b604082019050919050565b5f6020820190508181035f830152612415816123dc565b9050919050565b7f436f6d6d697420537461676520686173206578706972656400000000000000005f82015250565b5f612450601883611cb3565b915061245b8261241c565b602082019050919050565b5f6020820190508181035f83015261247d81612444565b9050919050565b5f61248e826118d2565b9150612499836118d2565b92508282039050818111156124b1576124b0611eab565b5b92915050565b7f436f6d6d697452657665616c3a3a72657665616c3a20416c72656164792072655f8201527f7665616c65640000000000000000000000000000000000000000000000000000602082015250565b5f612511602683611cb3565b915061251c826124b7565b604082019050919050565b5f6020820190508181035f83015261253e81612505565b9050919050565b7f436f6d6d697452657665616c3a3a72657665616c3a2052657665616c656420685f8201527f61736820646f6573206e6f74206d6174636820636f6d6d697400000000000000602082015250565b5f61259f603983611cb3565b91506125aa82612545565b604082019050919050565b5f6020820190508181035f8301526125cc81612593565b9050919050565b7f436f6d6d697452657665616c3a3a72657665616c3a2052657665616c20616e645f8201527f20636f6d6d69742068617070656e6564206f6e207468652073616d6520626c6f60208201527f636b000000000000000000000000000000000000000000000000000000000000604082015250565b5f612653604283611cb3565b915061265e826125d3565b606082019050919050565b5f6020820190508181035f83015261268081612647565b9050919050565b5f67ffffffffffffffff82169050919050565b5f6126a482612687565b91506126af83612687565b9250828201905067ffffffffffffffff8111156126cf576126ce611eab565b5b92915050565b7f436f6d6d697452657665616c3a3a72657665616c3a2052657665616c656420745f8201527f6f6f206c61746500000000000000000000000000000000000000000000000000602082015250565b5f61272f602783611cb3565b915061273a826126d5565b604082019050919050565b5f6020820190508181035f83015261275c81612723565b9050919050565b5f61276e8285611e69565b60208201915061277e8284611e69565b6020820191508190509392505050565b5f6060820190506127a15f830186611c10565b6127ae6020830185611aa4565b6127bb6040830184611af7565b949350505050565b6127cc81612687565b82525050565b5f6060820190506127e55f830186611c10565b6127f26020830185611aa4565b6127ff60408301846127c3565b94935050505056fe43757272656e742053746167653a20436f6d6d69740a54696d652052656d61696e696e672028736563636f6e6473293a2043757272656e742053746167653a2057697468647261772053746167652c20796f752063616e20776974686472617720796f757220455448206e6f770a43757272656e742053746167653a2046696e64696e672057696e6e65720a54696d652052656d61696e696e672028736563636f6e6473293a2043757272656e742053746167653a2052657665616c0a54696d652052656d61696e696e672028736563636f6e6473293a20a264697066735822122027026bfb5ea3063ce7e3a4eea18fc001105fd5ef29a7cc1d025668aac38b563e64736f6c63430008180033",
			"opcodes": "PUSH1 0x80 PUSH1 0x40 MSTORE PUSH1 0x64 PUSH0 DUP1 PUSH2 0x100 EXP DUP2 SLOAD DUP2 PUSH1 0xFF MUL NOT AND SWAP1 DUP4 PUSH1 0xFF AND MUL OR SWAP1 SSTORE POP PUSH0 PUSH1 0x9 SSTORE CALLVALUE DUP1 ISZERO PUSH3 0x2E JUMPI PUSH0 DUP1 REVERT JUMPDEST POP PUSH1 0x40 MLOAD PUSH3 0x2A88 CODESIZE SUB DUP1 PUSH3 0x2A88 DUP4 CODECOPY DUP2 DUP2 ADD PUSH1 0x40 MSTORE DUP2 ADD SWAP1 PUSH3 0x54 SWAP2 SWAP1 PUSH3 0xF6 JUMP JUMPDEST CALLER PUSH1 0x2 PUSH0 PUSH2 0x100 EXP DUP2 SLOAD DUP2 PUSH20 0xFFFFFFFFFFFFFFFFFFFFFFFFFFFFFFFFFFFFFFFF MUL NOT AND SWAP1 DUP4 PUSH20 0xFFFFFFFFFFFFFFFFFFFFFFFFFFFFFFFFFFFFFFFF AND MUL OR SWAP1 SSTORE POP DUP4 PUSH1 0x7 DUP2 SWAP1 SSTORE POP DUP3 PUSH1 0x4 DUP2 SWAP1 SSTORE POP DUP2 PUSH1 0x6 DUP2 SWAP1 SSTORE POP DUP1 PUSH1 0x4 DUP2 SWAP1 SSTORE POP POP POP POP POP PUSH3 0x165 JUMP JUMPDEST PUSH0 DUP1 REVERT JUMPDEST PUSH0 DUP2 SWAP1 POP SWAP2 SWAP1 POP JUMP JUMPDEST PUSH3 0xD2 DUP2 PUSH3 0xBE JUMP JUMPDEST DUP2 EQ PUSH3 0xDD JUMPI PUSH0 DUP1 REVERT JUMPDEST POP JUMP JUMPDEST PUSH0 DUP2 MLOAD SWAP1 POP PUSH3 0xF0 DUP2 PUSH3 0xC7 JUMP JUMPDEST SWAP3 SWAP2 POP POP JUMP JUMPDEST PUSH0 DUP1 PUSH0 DUP1 PUSH1 0x80 DUP6 DUP8 SUB SLT ISZERO PUSH3 0x111 JUMPI PUSH3 0x110 PUSH3 0xBA JUMP JUMPDEST JUMPDEST PUSH0 PUSH3 0x120 DUP8 DUP3 DUP9 ADD PUSH3 0xE0 JUMP JUMPDEST SWAP5 POP POP PUSH1 0x20 PUSH3 0x133 DUP8 DUP3 DUP9 ADD PUSH3 0xE0 JUMP JUMPDEST SWAP4 POP POP PUSH1 0x40 PUSH3 0x146 DUP8 DUP3 DUP9 ADD PUSH3 0xE0 JUMP JUMPDEST SWAP3 POP POP PUSH1 0x60 PUSH3 0x159 DUP8 DUP3 DUP9 ADD PUSH3 0xE0 JUMP JUMPDEST SWAP2 POP POP SWAP3 SWAP6 SWAP2 SWAP5 POP SWAP3 POP JUMP JUMPDEST PUSH2 0x2915 DUP1 PUSH3 0x173 PUSH0 CODECOPY PUSH0 RETURN INVALID PUSH1 0x80 PUSH1 0x40 MSTORE PUSH1 0x4 CALLDATASIZE LT PUSH2 0xFD JUMPI PUSH0 CALLDATALOAD PUSH1 0xE0 SHR DUP1 PUSH4 0x8DA5CB5B GT PUSH2 0x94 JUMPI DUP1 PUSH4 0xA11EFEF4 GT PUSH2 0x63 JUMPI DUP1 PUSH4 0xA11EFEF4 EQ PUSH2 0x317 JUMPI DUP1 PUSH4 0xC9E525DF EQ PUSH2 0x341 JUMPI DUP1 PUSH4 0xD57B65CB EQ PUSH2 0x36B JUMPI DUP1 PUSH4 0xEEDBE31D EQ PUSH2 0x39B JUMPI DUP1 PUSH4 0xFC4A4A1E EQ PUSH2 0x3C6 JUMPI PUSH2 0xFD JUMP JUMPDEST DUP1 PUSH4 0x8DA5CB5B EQ PUSH2 0x271 JUMPI DUP1 PUSH4 0x8DDDBF36 EQ PUSH2 0x29B JUMPI DUP1 PUSH4 0x8E71DECB EQ PUSH2 0x2D7 JUMPI DUP1 PUSH4 0x8F32D59B EQ PUSH2 0x2ED JUMPI PUSH2 0xFD JUMP JUMPDEST DUP1 PUSH4 0x5AFA1FD8 GT PUSH2 0xD0 JUMPI DUP1 PUSH4 0x5AFA1FD8 EQ PUSH2 0x1CB JUMPI DUP1 PUSH4 0x5BF5D54C EQ PUSH2 0x1F3 JUMPI DUP1 PUSH4 0x7C8673DC EQ PUSH2 0x21D JUMPI DUP1 PUSH4 0x84C9AD6E EQ PUSH2 0x247 JUMPI PUSH2 0xFD JUMP JUMPDEST DUP1 PUSH4 0x73D8FF3 EQ PUSH2 0x101 JUMPI DUP1 PUSH4 0x2E1A7D4D EQ PUSH2 0x13D JUMPI DUP1 PUSH4 0x31081D7E EQ PUSH2 0x165 JUMPI DUP1 PUSH4 0x3CF5040A EQ PUSH2 0x18F JUMPI JUMPDEST PUSH0 DUP1 REVERT JUMPDEST CALLVALUE DUP1 ISZERO PUSH2 0x10C JUMPI PUSH0 DUP1 REVERT JUMPDEST POP PUSH2 0x127 PUSH1 0x4 DUP1 CALLDATASIZE SUB DUP2 ADD SWAP1 PUSH2 0x122 SWAP2 SWAP1 PUSH2 0x1A41 JUMP JUMPDEST PUSH2 0x3F0 JUMP JUMPDEST PUSH1 0x40 MLOAD PUSH2 0x134 SWAP2 SWAP1 PUSH2 0x1AB3 JUMP JUMPDEST PUSH1 0x40 MLOAD DUP1 SWAP2 SUB SWAP1 RETURN JUMPDEST CALLVALUE DUP1 ISZERO PUSH2 0x148 JUMPI PUSH0 DUP1 REVERT JUMPDEST POP PUSH2 0x163 PUSH1 0x4 DUP1 CALLDATASIZE SUB DUP2 ADD SWAP1 PUSH2 0x15E SWAP2 SWAP1 PUSH2 0x1ACC JUMP JUMPDEST PUSH2 0x44F JUMP JUMPDEST STOP JUMPDEST CALLVALUE DUP1 ISZERO PUSH2 0x170 JUMPI PUSH0 DUP1 REVERT JUMPDEST POP PUSH2 0x179 PUSH2 0x630 JUMP JUMPDEST PUSH1 0x40 MLOAD PUSH2 0x186 SWAP2 SWAP1 PUSH2 0x1B06 JUMP JUMPDEST PUSH1 0x40 MLOAD DUP1 SWAP2 SUB SWAP1 RETURN JUMPDEST CALLVALUE DUP1 ISZERO PUSH2 0x19A JUMPI PUSH0 DUP1 REVERT JUMPDEST POP PUSH2 0x1B5 PUSH1 0x4 DUP1 CALLDATASIZE SUB DUP2 ADD SWAP1 PUSH2 0x1B0 SWAP2 SWAP1 PUSH2 0x1B49 JUMP JUMPDEST PUSH2 0x636 JUMP JUMPDEST PUSH1 0x40 MLOAD PUSH2 0x1C2 SWAP2 SWAP1 PUSH2 0x1AB3 JUMP JUMPDEST PUSH1 0x40 MLOAD DUP1 SWAP2 SUB SWAP1 RETURN JUMPDEST CALLVALUE DUP1 ISZERO PUSH2 0x1D6 JUMPI PUSH0 DUP1 REVERT JUMPDEST POP PUSH2 0x1F1 PUSH1 0x4 DUP1 CALLDATASIZE SUB DUP2 ADD SWAP1 PUSH2 0x1EC SWAP2 SWAP1 PUSH2 0x1B74 JUMP JUMPDEST PUSH2 0x667 JUMP JUMPDEST STOP JUMPDEST CALLVALUE DUP1 ISZERO PUSH2 0x1FE JUMPI PUSH0 DUP1 REVERT JUMPDEST POP PUSH2 0x207 PUSH2 0x829 JUMP JUMPDEST PUSH1 0x40 MLOAD PUSH2 0x214 SWAP2 SWAP1 PUSH2 0x1B06 JUMP JUMPDEST PUSH1 0x40 MLOAD DUP1 SWAP2 SUB SWAP1 RETURN JUMPDEST CALLVALUE DUP1 ISZERO PUSH2 0x228 JUMPI PUSH0 DUP1 REVERT JUMPDEST POP PUSH2 0x231 PUSH2 0x82F JUMP JUMPDEST PUSH1 0x40 MLOAD PUSH2 0x23E SWAP2 SWAP1 PUSH2 0x1B06 JUMP JUMPDEST PUSH1 0x40 MLOAD DUP1 SWAP2 SUB SWAP1 RETURN JUMPDEST CALLVALUE DUP1 ISZERO PUSH2 0x252 JUMPI PUSH0 DUP1 REVERT JUMPDEST POP PUSH2 0x25B PUSH2 0x835 JUMP JUMPDEST PUSH1 0x40 MLOAD PUSH2 0x268 SWAP2 SWAP1 PUSH2 0x1B06 JUMP JUMPDEST PUSH1 0x40 MLOAD DUP1 SWAP2 SUB SWAP1 RETURN JUMPDEST CALLVALUE DUP1 ISZERO PUSH2 0x27C JUMPI PUSH0 DUP1 REVERT JUMPDEST POP PUSH2 0x285 PUSH2 0x83B JUMP JUMPDEST PUSH1 0x40 MLOAD PUSH2 0x292 SWAP2 SWAP1 PUSH2 0x1C1F JUMP JUMPDEST PUSH1 0x40 MLOAD DUP1 SWAP2 SUB SWAP1 RETURN JUMPDEST CALLVALUE DUP1 ISZERO PUSH2 0x2A6 JUMPI PUSH0 DUP1 REVERT JUMPDEST POP PUSH2 0x2C1 PUSH1 0x4 DUP1 CALLDATASIZE SUB DUP2 ADD SWAP1 PUSH2 0x2BC SWAP2 SWAP1 PUSH2 0x1C38 JUMP JUMPDEST PUSH2 0x863 JUMP JUMPDEST PUSH1 0x40 MLOAD PUSH2 0x2CE SWAP2 SWAP1 PUSH2 0x1AB3 JUMP JUMPDEST PUSH1 0x40 MLOAD DUP1 SWAP2 SUB SWAP1 RETURN JUMPDEST CALLVALUE DUP1 ISZERO PUSH2 0x2E2 JUMPI PUSH0 DUP1 REVERT JUMPDEST POP PUSH2 0x2EB PUSH2 0x897 JUMP JUMPDEST STOP JUMPDEST CALLVALUE DUP1 ISZERO PUSH2 0x2F8 JUMPI PUSH0 DUP1 REVERT JUMPDEST POP PUSH2 0x301 PUSH2 0xD28 JUMP JUMPDEST PUSH1 0x40 MLOAD PUSH2 0x30E SWAP2 SWAP1 PUSH2 0x1C90 JUMP JUMPDEST PUSH1 0x40 MLOAD DUP1 SWAP2 SUB SWAP1 RETURN JUMPDEST CALLVALUE DUP1 ISZERO PUSH2 0x322 JUMPI PUSH0 DUP1 REVERT JUMPDEST POP PUSH2 0x32B PUSH2 0xD7E JUMP JUMPDEST PUSH1 0x40 MLOAD PUSH2 0x338 SWAP2 SWAP1 PUSH2 0x1B06 JUMP JUMPDEST PUSH1 0x40 MLOAD DUP1 SWAP2 SUB SWAP1 RETURN JUMPDEST CALLVALUE DUP1 ISZERO PUSH2 0x34C JUMPI PUSH0 DUP1 REVERT JUMPDEST POP PUSH2 0x355 PUSH2 0xD84 JUMP JUMPDEST PUSH1 0x40 MLOAD PUSH2 0x362 SWAP2 SWAP1 PUSH2 0x1B06 JUMP JUMPDEST PUSH1 0x40 MLOAD DUP1 SWAP2 SUB SWAP1 RETURN JUMPDEST PUSH2 0x385 PUSH1 0x4 DUP1 CALLDATASIZE SUB DUP2 ADD SWAP1 PUSH2 0x380 SWAP2 SWAP1 PUSH2 0x1B49 JUMP JUMPDEST PUSH2 0xD8A JUMP JUMPDEST PUSH1 0x40 MLOAD PUSH2 0x392 SWAP2 SWAP1 PUSH2 0x1B06 JUMP JUMPDEST PUSH1 0x40 MLOAD DUP1 SWAP2 SUB SWAP1 RETURN JUMPDEST CALLVALUE DUP1 ISZERO PUSH2 0x3A6 JUMPI PUSH0 DUP1 REVERT JUMPDEST POP PUSH2 0x3AF PUSH2 0xFAA JUMP JUMPDEST PUSH1 0x40 MLOAD PUSH2 0x3BD SWAP3 SWAP2 SWAP1 PUSH2 0x1D23 JUMP JUMPDEST PUSH1 0x40 MLOAD DUP1 SWAP2 SUB SWAP1 RETURN JUMPDEST CALLVALUE DUP1 ISZERO PUSH2 0x3D1 JUMPI PUSH0 DUP1 REVERT JUMPDEST POP PUSH2 0x3DA PUSH2 0x1177 JUMP JUMPDEST PUSH1 0x40 MLOAD PUSH2 0x3E7 SWAP2 SWAP1 PUSH2 0x1B06 JUMP JUMPDEST PUSH1 0x40 MLOAD DUP1 SWAP2 SUB SWAP1 RETURN JUMPDEST PUSH0 DUP1 DUP3 PUSH1 0x40 MLOAD PUSH1 0x20 ADD PUSH2 0x403 SWAP2 SWAP1 PUSH2 0x1D8B JUMP JUMPDEST PUSH1 0x40 MLOAD PUSH1 0x20 DUP2 DUP4 SUB SUB DUP2 MSTORE SWAP1 PUSH1 0x40 MSTORE PUSH2 0x41B SWAP1 PUSH2 0x1DDA JUMP JUMPDEST SWAP1 POP DUP4 DUP2 PUSH1 0x40 MLOAD PUSH1 0x20 ADD PUSH2 0x430 SWAP3 SWAP2 SWAP1 PUSH2 0x1E80 JUMP JUMPDEST PUSH1 0x40 MLOAD PUSH1 0x20 DUP2 DUP4 SUB SUB DUP2 MSTORE SWAP1 PUSH1 0x40 MSTORE DUP1 MLOAD SWAP1 PUSH1 0x20 ADD KECCAK256 SWAP2 POP POP SWAP3 SWAP2 POP POP JUMP JUMPDEST PUSH1 0x6 SLOAD PUSH1 0x5 SLOAD PUSH1 0x4 SLOAD PUSH1 0x3 SLOAD PUSH2 0x465 SWAP2 SWAP1 PUSH2 0x1ED8 JUMP JUMPDEST PUSH2 0x46F SWAP2 SWAP1 PUSH2 0x1ED8 JUMP JUMPDEST PUSH2 0x479 SWAP2 SWAP1 PUSH2 0x1ED8 JUMP JUMPDEST TIMESTAMP GT PUSH2 0x4BA JUMPI PUSH1 0x40 MLOAD PUSH32 0x8C379A000000000000000000000000000000000000000000000000000000000 DUP2 MSTORE PUSH1 0x4 ADD PUSH2 0x4B1 SWAP1 PUSH2 0x1F55 JUMP JUMPDEST PUSH1 0x40 MLOAD DUP1 SWAP2 SUB SWAP1 REVERT JUMPDEST PUSH1 0xA PUSH0 DUP3 DUP2 MSTORE PUSH1 0x20 ADD SWAP1 DUP2 MSTORE PUSH1 0x20 ADD PUSH0 KECCAK256 PUSH1 0x1 ADD PUSH1 0x3 SWAP1 SLOAD SWAP1 PUSH2 0x100 EXP SWAP1 DIV PUSH20 0xFFFFFFFFFFFFFFFFFFFFFFFFFFFFFFFFFFFFFFFF AND PUSH20 0xFFFFFFFFFFFFFFFFFFFFFFFFFFFFFFFFFFFFFFFF AND CALLER PUSH20 0xFFFFFFFFFFFFFFFFFFFFFFFFFFFFFFFFFFFFFFFF AND EQ PUSH2 0x55C JUMPI PUSH1 0x40 MLOAD PUSH32 0x8C379A000000000000000000000000000000000000000000000000000000000 DUP2 MSTORE PUSH1 0x4 ADD PUSH2 0x553 SWAP1 PUSH2 0x1FBD JUMP JUMPDEST PUSH1 0x40 MLOAD DUP1 SWAP2 SUB SWAP1 REVERT JUMPDEST PUSH0 ISZERO ISZERO PUSH1 0xA PUSH0 DUP4 DUP2 MSTORE PUSH1 0x20 ADD SWAP1 DUP2 MSTORE PUSH1 0x20 ADD PUSH0 KECCAK256 PUSH1 0x1 ADD PUSH1 0x2 SWAP1 SLOAD SWAP1 PUSH2 0x100 EXP SWAP1 DIV PUSH1 0xFF AND ISZERO ISZERO EQ PUSH2 0x58C JUMPI PUSH0 DUP1 REVERT JUMPDEST PUSH1 0x1 PUSH1 0xA PUSH0 DUP4 DUP2 MSTORE PUSH1 0x20 ADD SWAP1 DUP2 MSTORE PUSH1 0x20 ADD PUSH0 KECCAK256 PUSH1 0x1 ADD PUSH1 0x2 PUSH2 0x100 EXP DUP2 SLOAD DUP2 PUSH1 0xFF MUL NOT AND SWAP1 DUP4 ISZERO ISZERO MUL OR SWAP1 SSTORE POP CALLER PUSH20 0xFFFFFFFFFFFFFFFFFFFFFFFFFFFFFFFFFFFFFFFF AND PUSH2 0x8FC PUSH7 0x38D7EA4C68000 SWAP1 DUP2 ISZERO MUL SWAP1 PUSH1 0x40 MLOAD PUSH0 PUSH1 0x40 MLOAD DUP1 DUP4 SUB DUP2 DUP6 DUP9 DUP9 CALL SWAP4 POP POP POP POP ISZERO DUP1 ISZERO PUSH2 0x603 JUMPI RETURNDATASIZE PUSH0 DUP1 RETURNDATACOPY RETURNDATASIZE PUSH0 REVERT JUMPDEST POP PUSH1 0x8 PUSH0 DUP2 SLOAD DUP1 SWAP3 SWAP2 SWAP1 PUSH2 0x616 SWAP1 PUSH2 0x1FDB JUMP JUMPDEST SWAP2 SWAP1 POP SSTORE POP PUSH0 PUSH1 0x8 SLOAD SUB PUSH2 0x62D JUMPI PUSH2 0x62C PUSH2 0x117D JUMP JUMPDEST JUMPDEST POP JUMP JUMPDEST PUSH1 0x6 SLOAD DUP2 JUMP JUMPDEST PUSH0 ADDRESS DUP3 PUSH1 0x40 MLOAD PUSH1 0x20 ADD PUSH2 0x64A SWAP3 SWAP2 SWAP1 PUSH2 0x2047 JUMP JUMPDEST PUSH1 0x40 MLOAD PUSH1 0x20 DUP2 DUP4 SUB SUB DUP2 MSTORE SWAP1 PUSH1 0x40 MSTORE DUP1 MLOAD SWAP1 PUSH1 0x20 ADD KECCAK256 SWAP1 POP SWAP2 SWAP1 POP JUMP JUMPDEST TIMESTAMP PUSH1 0x4 SLOAD PUSH1 0x3 SLOAD PUSH2 0x678 SWAP2 SWAP1 PUSH2 0x1ED8 JUMP JUMPDEST LT DUP1 ISZERO PUSH2 0x6A0 JUMPI POP PUSH1 0x5 SLOAD PUSH1 0x4 SLOAD PUSH1 0x3 SLOAD PUSH2 0x693 SWAP2 SWAP1 PUSH2 0x1ED8 JUMP JUMPDEST PUSH2 0x69D SWAP2 SWAP1 PUSH2 0x1ED8 JUMP JUMPDEST TIMESTAMP LT JUMPDEST PUSH2 0x6DF JUMPI PUSH1 0x40 MLOAD PUSH32 0x8C379A000000000000000000000000000000000000000000000000000000000 DUP2 MSTORE PUSH1 0x4 ADD PUSH2 0x6D6 SWAP1 PUSH2 0x20BC JUMP JUMPDEST PUSH1 0x40 MLOAD DUP1 SWAP2 SUB SWAP1 REVERT JUMPDEST PUSH1 0xA PUSH0 DUP5 DUP2 MSTORE PUSH1 0x20 ADD SWAP1 DUP2 MSTORE PUSH1 0x20 ADD PUSH0 KECCAK256 PUSH1 0x1 ADD PUSH1 0x3 SWAP1 SLOAD SWAP1 PUSH2 0x100 EXP SWAP1 DIV PUSH20 0xFFFFFFFFFFFFFFFFFFFFFFFFFFFFFFFFFFFFFFFF AND PUSH20 0xFFFFFFFFFFFFFFFFFFFFFFFFFFFFFFFFFFFFFFFF AND CALLER PUSH20 0xFFFFFFFFFFFFFFFFFFFFFFFFFFFFFFFFFFFFFFFF AND EQ PUSH2 0x781 JUMPI PUSH1 0x40 MLOAD PUSH32 0x8C379A000000000000000000000000000000000000000000000000000000000 DUP2 MSTORE PUSH1 0x4 ADD PUSH2 0x778 SWAP1 PUSH2 0x1FBD JUMP JUMPDEST PUSH1 0x40 MLOAD DUP1 SWAP2 SUB SWAP1 REVERT JUMPDEST PUSH0 DUP2 PUSH1 0x40 MLOAD PUSH1 0x20 ADD PUSH2 0x793 SWAP2 SWAP1 PUSH2 0x1D8B JUMP JUMPDEST PUSH1 0x40 MLOAD PUSH1 0x20 DUP2 DUP4 SUB SUB DUP2 MSTORE SWAP1 PUSH1 0x40 MSTORE PUSH2 0x7AB SWAP1 PUSH2 0x1DDA JUMP JUMPDEST SWAP1 POP PUSH2 0x7DE DUP4 DUP3 PUSH1 0x40 MLOAD PUSH1 0x20 ADD PUSH2 0x7C3 SWAP3 SWAP2 SWAP1 PUSH2 0x1E80 JUMP JUMPDEST PUSH1 0x40 MLOAD PUSH1 0x20 DUP2 DUP4 SUB SUB DUP2 MSTORE SWAP1 PUSH1 0x40 MSTORE DUP1 MLOAD SWAP1 PUSH1 0x20 ADD KECCAK256 PUSH2 0x1194 JUMP JUMPDEST DUP3 PUSH1 0xA PUSH0 DUP7 DUP2 MSTORE PUSH1 0x20 ADD SWAP1 DUP2 MSTORE PUSH1 0x20 ADD PUSH0 KECCAK256 PUSH0 ADD DUP2 SWAP1 SSTORE POP PUSH1 0x1 PUSH1 0xA PUSH0 DUP7 DUP2 MSTORE PUSH1 0x20 ADD SWAP1 DUP2 MSTORE PUSH1 0x20 ADD PUSH0 KECCAK256 PUSH1 0x1 ADD PUSH1 0x1 PUSH2 0x100 EXP DUP2 SLOAD DUP2 PUSH1 0xFF MUL NOT AND SWAP1 DUP4 ISZERO ISZERO MUL OR SWAP1 SSTORE POP POP POP POP POP JUMP JUMPDEST PUSH1 0x9 SLOAD DUP2 JUMP JUMPDEST PUSH1 0x8 SLOAD DUP2 JUMP JUMPDEST PUSH1 0x5 SLOAD DUP2 JUMP JUMPDEST PUSH0 PUSH1 0x2 PUSH0 SWAP1 SLOAD SWAP1 PUSH2 0x100 EXP SWAP1 DIV PUSH20 0xFFFFFFFFFFFFFFFFFFFFFFFFFFFFFFFFFFFFFFFF AND SWAP1 POP SWAP1 JUMP JUMPDEST PUSH0 ADDRESS DUP4 DUP4 PUSH1 0x40 MLOAD PUSH1 0x20 ADD PUSH2 0x879 SWAP4 SWAP3 SWAP2 SWAP1 PUSH2 0x20DA JUMP JUMPDEST PUSH1 0x40 MLOAD PUSH1 0x20 DUP2 DUP4 SUB SUB DUP2 MSTORE SWAP1 PUSH1 0x40 MSTORE DUP1 MLOAD SWAP1 PUSH1 0x20 ADD KECCAK256 SWAP1 POP SWAP3 SWAP2 POP POP JUMP JUMPDEST PUSH2 0x89F PUSH2 0xD28 JUMP JUMPDEST PUSH2 0x8DE JUMPI PUSH1 0x40 MLOAD PUSH32 0x8C379A000000000000000000000000000000000000000000000000000000000 DUP2 MSTORE PUSH1 0x4 ADD PUSH2 0x8D5 SWAP1 PUSH2 0x2186 JUMP JUMPDEST PUSH1 0x40 MLOAD DUP1 SWAP2 SUB SWAP1 REVERT JUMPDEST TIMESTAMP PUSH1 0x5 SLOAD PUSH1 0x4 SLOAD PUSH1 0x3 SLOAD PUSH2 0x8F2 SWAP2 SWAP1 PUSH2 0x1ED8 JUMP JUMPDEST PUSH2 0x8FC SWAP2 SWAP1 PUSH2 0x1ED8 JUMP JUMPDEST LT DUP1 ISZERO PUSH2 0x931 JUMPI POP PUSH1 0x6 SLOAD PUSH1 0x5 SLOAD PUSH1 0x4 SLOAD PUSH1 0x3 SLOAD PUSH2 0x91A SWAP2 SWAP1 PUSH2 0x1ED8 JUMP JUMPDEST PUSH2 0x924 SWAP2 SWAP1 PUSH2 0x1ED8 JUMP JUMPDEST PUSH2 0x92E SWAP2 SWAP1 PUSH2 0x1ED8 JUMP JUMPDEST TIMESTAMP LT JUMPDEST PUSH2 0x939 JUMPI PUSH0 DUP1 REVERT JUMPDEST PUSH0 PUSH1 0x8 SLOAD PUSH8 0xFFFFFFFFFFFFFFFF DUP2 GT ISZERO PUSH2 0x956 JUMPI PUSH2 0x955 PUSH2 0x191D JUMP JUMPDEST JUMPDEST PUSH1 0x40 MLOAD SWAP1 DUP1 DUP3 MSTORE DUP1 PUSH1 0x20 MUL PUSH1 0x20 ADD DUP3 ADD PUSH1 0x40 MSTORE DUP1 ISZERO PUSH2 0x98F JUMPI DUP2 PUSH1 0x20 ADD JUMPDEST PUSH2 0x97C PUSH2 0x187B JUMP JUMPDEST DUP2 MSTORE PUSH1 0x20 ADD SWAP1 PUSH1 0x1 SWAP1 SUB SWAP1 DUP2 PUSH2 0x974 JUMPI SWAP1 POP JUMPDEST POP SWAP1 POP PUSH0 DUP1 PUSH0 SWAP1 POP JUMPDEST PUSH1 0x8 SLOAD DUP2 LT ISZERO PUSH2 0xC4B JUMPI PUSH1 0xA PUSH0 DUP3 DUP2 MSTORE PUSH1 0x20 ADD SWAP1 DUP2 MSTORE PUSH1 0x20 ADD PUSH0 KECCAK256 PUSH1 0x1 ADD PUSH1 0x1 SWAP1 SLOAD SWAP1 PUSH2 0x100 EXP SWAP1 DIV PUSH1 0xFF AND DUP1 ISZERO PUSH2 0x9E3 JUMPI POP PUSH1 0xA PUSH0 DUP3 DUP2 MSTORE PUSH1 0x20 ADD SWAP1 DUP2 MSTORE PUSH1 0x20 ADD PUSH0 KECCAK256 PUSH0 ADD SLOAD PUSH0 GT ISZERO JUMPDEST DUP1 ISZERO PUSH2 0xA04 JUMPI POP PUSH2 0x3E7 PUSH1 0xA PUSH0 DUP4 DUP2 MSTORE PUSH1 0x20 ADD SWAP1 DUP2 MSTORE PUSH1 0x20 ADD PUSH0 KECCAK256 PUSH0 ADD SLOAD GT ISZERO JUMPDEST ISZERO PUSH2 0xB32 JUMPI PUSH1 0xA PUSH0 DUP3 DUP2 MSTORE PUSH1 0x20 ADD SWAP1 DUP2 MSTORE PUSH1 0x20 ADD PUSH0 KECCAK256 PUSH0 ADD SLOAD DUP4 DUP4 DUP2 MLOAD DUP2 LT PUSH2 0xA30 JUMPI PUSH2 0xA2F PUSH2 0x21A4 JUMP JUMPDEST JUMPDEST PUSH1 0x20 MUL PUSH1 0x20 ADD ADD MLOAD PUSH0 ADD DUP2 DUP2 MSTORE POP POP PUSH1 0xA PUSH0 DUP3 DUP2 MSTORE PUSH1 0x20 ADD SWAP1 DUP2 MSTORE PUSH1 0x20 ADD PUSH0 KECCAK256 PUSH1 0x1 ADD PUSH0 SWAP1 SLOAD SWAP1 PUSH2 0x100 EXP SWAP1 DIV PUSH1 0xFF AND DUP4 DUP4 DUP2 MLOAD DUP2 LT PUSH2 0xA73 JUMPI PUSH2 0xA72 PUSH2 0x21A4 JUMP JUMPDEST JUMPDEST PUSH1 0x20 MUL PUSH1 0x20 ADD ADD MLOAD PUSH1 0x20 ADD SWAP1 ISZERO ISZERO SWAP1 DUP2 ISZERO ISZERO DUP2 MSTORE POP POP PUSH1 0xA PUSH0 DUP3 DUP2 MSTORE PUSH1 0x20 ADD SWAP1 DUP2 MSTORE PUSH1 0x20 ADD PUSH0 KECCAK256 PUSH1 0x1 ADD PUSH1 0x1 SWAP1 SLOAD SWAP1 PUSH2 0x100 EXP SWAP1 DIV PUSH1 0xFF AND DUP4 DUP4 DUP2 MLOAD DUP2 LT PUSH2 0xABE JUMPI PUSH2 0xABD PUSH2 0x21A4 JUMP JUMPDEST JUMPDEST PUSH1 0x20 MUL PUSH1 0x20 ADD ADD MLOAD PUSH1 0x40 ADD SWAP1 ISZERO ISZERO SWAP1 DUP2 ISZERO ISZERO DUP2 MSTORE POP POP PUSH1 0xA PUSH0 DUP3 DUP2 MSTORE PUSH1 0x20 ADD SWAP1 DUP2 MSTORE PUSH1 0x20 ADD PUSH0 KECCAK256 PUSH1 0x1 ADD PUSH1 0x2 SWAP1 SLOAD SWAP1 PUSH2 0x100 EXP SWAP1 DIV PUSH1 0xFF AND DUP4 DUP4 DUP2 MLOAD DUP2 LT PUSH2 0xB09 JUMPI PUSH2 0xB08 PUSH2 0x21A4 JUMP JUMPDEST JUMPDEST PUSH1 0x20 MUL PUSH1 0x20 ADD ADD MLOAD PUSH1 0x60 ADD SWAP1 ISZERO ISZERO SWAP1 DUP2 ISZERO ISZERO DUP2 MSTORE POP POP DUP2 DUP1 PUSH2 0xB2A SWAP1 PUSH2 0x21D1 JUMP JUMPDEST SWAP3 POP POP PUSH2 0xC3E JUMP JUMPDEST PUSH0 PUSH1 0x64 PUSH1 0x62 PUSH7 0x38D7EA4C68000 PUSH2 0xB49 SWAP2 SWAP1 PUSH2 0x2218 JUMP JUMPDEST PUSH2 0xB53 SWAP2 SWAP1 PUSH2 0x2286 JUMP JUMPDEST SWAP1 POP PUSH0 PUSH1 0x64 PUSH1 0x2 PUSH7 0x38D7EA4C68000 PUSH2 0xB6C SWAP2 SWAP1 PUSH2 0x2218 JUMP JUMPDEST PUSH2 0xB76 SWAP2 SWAP1 PUSH2 0x2286 JUMP JUMPDEST SWAP1 POP PUSH1 0xA PUSH0 DUP5 DUP2 MSTORE PUSH1 0x20 ADD SWAP1 DUP2 MSTORE PUSH1 0x20 ADD PUSH0 KECCAK256 PUSH1 0x1 ADD PUSH1 0x3 SWAP1 SLOAD SWAP1 PUSH2 0x100 EXP SWAP1 DIV PUSH20 0xFFFFFFFFFFFFFFFFFFFFFFFFFFFFFFFFFFFFFFFF AND PUSH20 0xFFFFFFFFFFFFFFFFFFFFFFFFFFFFFFFFFFFFFFFF AND PUSH2 0x8FC DUP4 SWAP1 DUP2 ISZERO MUL SWAP1 PUSH1 0x40 MLOAD PUSH0 PUSH1 0x40 MLOAD DUP1 DUP4 SUB DUP2 DUP6 DUP9 DUP9 CALL SWAP4 POP POP POP POP ISZERO DUP1 ISZERO PUSH2 0xBEF JUMPI RETURNDATASIZE PUSH0 DUP1 RETURNDATACOPY RETURNDATASIZE PUSH0 REVERT JUMPDEST POP PUSH2 0xBF8 PUSH2 0x83B JUMP JUMPDEST PUSH20 0xFFFFFFFFFFFFFFFFFFFFFFFFFFFFFFFFFFFFFFFF AND PUSH2 0x8FC DUP3 SWAP1 DUP2 ISZERO MUL SWAP1 PUSH1 0x40 MLOAD PUSH0 PUSH1 0x40 MLOAD DUP1 DUP4 SUB DUP2 DUP6 DUP9 DUP9 CALL SWAP4 POP POP POP POP ISZERO DUP1 ISZERO PUSH2 0xC3A JUMPI RETURNDATASIZE PUSH0 DUP1 RETURNDATACOPY RETURNDATASIZE PUSH0 REVERT JUMPDEST POP POP POP JUMPDEST DUP1 DUP1 PUSH1 0x1 ADD SWAP2 POP POP PUSH2 0x998 JUMP JUMPDEST POP PUSH0 DUP2 SUB PUSH2 0xC5C JUMPI PUSH2 0xC5B PUSH2 0x1552 JUMP JUMPDEST JUMPDEST PUSH0 DUP3 PUSH0 DUP2 MLOAD DUP2 LT PUSH2 0xC70 JUMPI PUSH2 0xC6F PUSH2 0x21A4 JUMP JUMPDEST JUMPDEST PUSH1 0x20 MUL PUSH1 0x20 ADD ADD MLOAD PUSH0 ADD MLOAD SWAP1 POP PUSH0 PUSH1 0x1 SWAP1 POP JUMPDEST DUP3 DUP2 LT ISZERO PUSH2 0xCBA JUMPI DUP4 DUP2 DUP2 MLOAD DUP2 LT PUSH2 0xC9E JUMPI PUSH2 0xC9D PUSH2 0x21A4 JUMP JUMPDEST JUMPDEST PUSH1 0x20 MUL PUSH1 0x20 ADD ADD MLOAD PUSH0 ADD MLOAD DUP3 XOR SWAP2 POP DUP1 DUP1 PUSH1 0x1 ADD SWAP2 POP POP PUSH2 0xC83 JUMP JUMPDEST POP PUSH0 DUP3 DUP3 PUSH1 0x40 MLOAD PUSH1 0x20 ADD PUSH2 0xCCE SWAP2 SWAP1 PUSH2 0x22B6 JUMP JUMPDEST PUSH1 0x40 MLOAD PUSH1 0x20 DUP2 DUP4 SUB SUB DUP2 MSTORE SWAP1 PUSH1 0x40 MSTORE DUP1 MLOAD SWAP1 PUSH1 0x20 ADD KECCAK256 PUSH0 SHR PUSH2 0xCF0 SWAP2 SWAP1 PUSH2 0x22D0 JUMP JUMPDEST SWAP1 POP PUSH2 0xD1A DUP5 DUP3 DUP2 MLOAD DUP2 LT PUSH2 0xD08 JUMPI PUSH2 0xD07 PUSH2 0x21A4 JUMP JUMPDEST JUMPDEST PUSH1 0x20 MUL PUSH1 0x20 ADD ADD MLOAD PUSH1 0x80 ADD MLOAD DUP5 PUSH2 0x15B8 JUMP JUMPDEST PUSH2 0xD22 PUSH2 0x117D JUMP JUMPDEST POP POP POP POP JUMP JUMPDEST PUSH0 PUSH1 0x2 PUSH0 SWAP1 SLOAD SWAP1 PUSH2 0x100 EXP SWAP1 DIV PUSH20 0xFFFFFFFFFFFFFFFFFFFFFFFFFFFFFFFFFFFFFFFF AND PUSH20 0xFFFFFFFFFFFFFFFFFFFFFFFFFFFFFFFFFFFFFFFF AND CALLER PUSH20 0xFFFFFFFFFFFFFFFFFFFFFFFFFFFFFFFFFFFFFFFF AND EQ SWAP1 POP SWAP1 JUMP JUMPDEST PUSH1 0x4 SLOAD DUP2 JUMP JUMPDEST PUSH1 0x7 SLOAD DUP2 JUMP JUMPDEST PUSH0 PUSH7 0x38D7EA4C68000 CALLVALUE EQ PUSH2 0xDD4 JUMPI PUSH1 0x40 MLOAD PUSH32 0x8C379A000000000000000000000000000000000000000000000000000000000 DUP2 MSTORE PUSH1 0x4 ADD PUSH2 0xDCB SWAP1 PUSH2 0x2370 JUMP JUMPDEST PUSH1 0x40 MLOAD DUP1 SWAP2 SUB SWAP1 REVERT JUMPDEST PUSH1 0x7 SLOAD PUSH1 0x8 SLOAD LT PUSH2 0xE1A JUMPI PUSH1 0x40 MLOAD PUSH32 0x8C379A000000000000000000000000000000000000000000000000000000000 DUP2 MSTORE PUSH1 0x4 ADD PUSH2 0xE11 SWAP1 PUSH2 0x23FE JUMP JUMPDEST PUSH1 0x40 MLOAD DUP1 SWAP2 SUB SWAP1 REVERT JUMPDEST PUSH0 PUSH1 0x9 SLOAD SUB PUSH2 0xE33 JUMPI PUSH1 0x1 PUSH1 0x9 DUP2 SWAP1 SSTORE POP TIMESTAMP PUSH1 0x3 DUP2 SWAP1 SSTORE POP JUMPDEST PUSH1 0x4 SLOAD PUSH1 0x3 SLOAD PUSH2 0xE43 SWAP2 SWAP1 PUSH2 0x1ED8 JUMP JUMPDEST TIMESTAMP LT PUSH2 0xE84 JUMPI PUSH1 0x40 MLOAD PUSH32 0x8C379A000000000000000000000000000000000000000000000000000000000 DUP2 MSTORE PUSH1 0x4 ADD PUSH2 0xE7B SWAP1 PUSH2 0x2466 JUMP JUMPDEST PUSH1 0x40 MLOAD DUP1 SWAP2 SUB SWAP1 REVERT JUMPDEST PUSH0 PUSH1 0x8 SLOAD SWAP1 POP PUSH2 0xE9B PUSH2 0xE96 DUP5 PUSH2 0x636 JUMP JUMPDEST PUSH2 0x16A9 JUMP JUMPDEST PUSH0 PUSH1 0xA PUSH0 DUP4 DUP2 MSTORE PUSH1 0x20 ADD SWAP1 DUP2 MSTORE PUSH1 0x20 ADD PUSH0 KECCAK256 PUSH0 ADD DUP2 SWAP1 SSTORE POP PUSH1 0x1 PUSH1 0xA PUSH0 DUP4 DUP2 MSTORE PUSH1 0x20 ADD SWAP1 DUP2 MSTORE PUSH1 0x20 ADD PUSH0 KECCAK256 PUSH1 0x1 ADD PUSH0 PUSH2 0x100 EXP DUP2 SLOAD DUP2 PUSH1 0xFF MUL NOT AND SWAP1 DUP4 ISZERO ISZERO MUL OR SWAP1 SSTORE POP PUSH0 PUSH1 0xA PUSH0 DUP4 DUP2 MSTORE PUSH1 0x20 ADD SWAP1 DUP2 MSTORE PUSH1 0x20 ADD PUSH0 KECCAK256 PUSH1 0x1 ADD PUSH1 0x1 PUSH2 0x100 EXP DUP2 SLOAD DUP2 PUSH1 0xFF MUL NOT AND SWAP1 DUP4 ISZERO ISZERO MUL OR SWAP1 SSTORE POP PUSH0 PUSH1 0xA PUSH0 DUP4 DUP2 MSTORE PUSH1 0x20 ADD SWAP1 DUP2 MSTORE PUSH1 0x20 ADD PUSH0 KECCAK256 PUSH1 0x1 ADD PUSH1 0x2 PUSH2 0x100 EXP DUP2 SLOAD DUP2 PUSH1 0xFF MUL NOT AND SWAP1 DUP4 ISZERO ISZERO MUL OR SWAP1 SSTORE POP CALLER PUSH1 0xA PUSH0 DUP4 DUP2 MSTORE PUSH1 0x20 ADD SWAP1 DUP2 MSTORE PUSH1 0x20 ADD PUSH0 KECCAK256 PUSH1 0x1 ADD PUSH1 0x3 PUSH2 0x100 EXP DUP2 SLOAD DUP2 PUSH20 0xFFFFFFFFFFFFFFFFFFFFFFFFFFFFFFFFFFFFFFFF MUL NOT AND SWAP1 DUP4 PUSH20 0xFFFFFFFFFFFFFFFFFFFFFFFFFFFFFFFFFFFFFFFF AND MUL OR SWAP1 SSTORE POP PUSH1 0x8 PUSH0 DUP2 SLOAD DUP1 SWAP3 SWAP2 SWAP1 PUSH2 0xF9C SWAP1 PUSH2 0x21D1 JUMP JUMPDEST SWAP2 SWAP1 POP SSTORE POP DUP1 SWAP2 POP POP SWAP2 SWAP1 POP JUMP JUMPDEST PUSH1 0x60 PUSH0 DUP1 PUSH1 0x9 SLOAD SUB PUSH2 0xFF7 JUMPI PUSH0 PUSH1 0x40 MLOAD DUP1 PUSH1 0x40 ADD PUSH1 0x40 MSTORE DUP1 PUSH1 0x4 DUP2 MSTORE PUSH1 0x20 ADD PUSH32 0x49646C6500000000000000000000000000000000000000000000000000000000 DUP2 MSTORE POP SWAP1 SWAP2 POP SWAP2 POP PUSH2 0x1173 JUMP JUMPDEST PUSH1 0x1 PUSH1 0x9 SLOAD SUB PUSH2 0x1172 JUMPI PUSH1 0x4 SLOAD PUSH1 0x3 SLOAD PUSH2 0x1011 SWAP2 SWAP1 PUSH2 0x1ED8 JUMP JUMPDEST TIMESTAMP LT ISZERO PUSH2 0x1056 JUMPI TIMESTAMP PUSH1 0x4 SLOAD PUSH1 0x3 SLOAD PUSH2 0x1029 SWAP2 SWAP1 PUSH2 0x1ED8 JUMP JUMPDEST PUSH2 0x1033 SWAP2 SWAP1 PUSH2 0x2484 JUMP JUMPDEST PUSH1 0x40 MLOAD DUP1 PUSH1 0x60 ADD PUSH1 0x40 MSTORE DUP1 PUSH1 0x31 DUP2 MSTORE PUSH1 0x20 ADD PUSH2 0x2808 PUSH1 0x31 SWAP2 CODECOPY SWAP1 SWAP2 POP SWAP2 POP PUSH2 0x1173 JUMP JUMPDEST PUSH1 0x5 SLOAD PUSH1 0x4 SLOAD PUSH1 0x3 SLOAD PUSH2 0x1069 SWAP2 SWAP1 PUSH2 0x1ED8 JUMP JUMPDEST PUSH2 0x1073 SWAP2 SWAP1 PUSH2 0x1ED8 JUMP JUMPDEST TIMESTAMP LT ISZERO PUSH2 0x10C5 JUMPI TIMESTAMP PUSH1 0x5 SLOAD PUSH1 0x4 SLOAD PUSH1 0x3 SLOAD PUSH2 0x108E SWAP2 SWAP1 PUSH2 0x1ED8 JUMP JUMPDEST PUSH2 0x1098 SWAP2 SWAP1 PUSH2 0x1ED8 JUMP JUMPDEST PUSH2 0x10A2 SWAP2 SWAP1 PUSH2 0x2484 JUMP JUMPDEST PUSH1 0x40 MLOAD DUP1 PUSH1 0x60 ADD PUSH1 0x40 MSTORE DUP1 PUSH1 0x31 DUP2 MSTORE PUSH1 0x20 ADD PUSH2 0x28AF PUSH1 0x31 SWAP2 CODECOPY SWAP1 SWAP2 POP SWAP2 POP PUSH2 0x1173 JUMP JUMPDEST PUSH1 0x6 SLOAD PUSH1 0x5 SLOAD PUSH1 0x4 SLOAD PUSH1 0x3 SLOAD PUSH2 0x10DB SWAP2 SWAP1 PUSH2 0x1ED8 JUMP JUMPDEST PUSH2 0x10E5 SWAP2 SWAP1 PUSH2 0x1ED8 JUMP JUMPDEST PUSH2 0x10EF SWAP2 SWAP1 PUSH2 0x1ED8 JUMP JUMPDEST TIMESTAMP LT ISZERO PUSH2 0x114E JUMPI TIMESTAMP PUSH1 0x6 SLOAD PUSH1 0x5 SLOAD PUSH1 0x4 SLOAD PUSH1 0x3 SLOAD PUSH2 0x110D SWAP2 SWAP1 PUSH2 0x1ED8 JUMP JUMPDEST PUSH2 0x1117 SWAP2 SWAP1 PUSH2 0x1ED8 JUMP JUMPDEST PUSH2 0x1121 SWAP2 SWAP1 PUSH2 0x1ED8 JUMP JUMPDEST PUSH2 0x112B SWAP2 SWAP1 PUSH2 0x2484 JUMP JUMPDEST PUSH1 0x40 MLOAD DUP1 PUSH1 0x60 ADD PUSH1 0x40 MSTORE DUP1 PUSH1 0x39 DUP2 MSTORE PUSH1 0x20 ADD PUSH2 0x2876 PUSH1 0x39 SWAP2 CODECOPY SWAP1 SWAP2 POP SWAP2 POP PUSH2 0x1173 JUMP JUMPDEST PUSH0 PUSH1 0x40 MLOAD DUP1 PUSH1 0x60 ADD PUSH1 0x40 MSTORE DUP1 PUSH1 0x3D DUP2 MSTORE PUSH1 0x20 ADD PUSH2 0x2839 PUSH1 0x3D SWAP2 CODECOPY SWAP1 SWAP2 POP SWAP2 POP PUSH2 0x1173 JUMP JUMPDEST JUMPDEST SWAP1 SWAP2 JUMP JUMPDEST PUSH1 0x3 SLOAD DUP2 JUMP JUMPDEST PUSH0 PUSH1 0x9 DUP2 SWAP1 SSTORE POP PUSH0 PUSH1 0x8 DUP2 SWAP1 SSTORE POP TIMESTAMP PUSH1 0x3 DUP2 SWAP1 SSTORE POP JUMP JUMPDEST PUSH0 ISZERO ISZERO PUSH1 0x1 PUSH0 CALLER PUSH20 0xFFFFFFFFFFFFFFFFFFFFFFFFFFFFFFFFFFFFFFFF AND PUSH20 0xFFFFFFFFFFFFFFFFFFFFFFFFFFFFFFFFFFFFFFFF AND DUP2 MSTORE PUSH1 0x20 ADD SWAP1 DUP2 MSTORE PUSH1 0x20 ADD PUSH0 KECCAK256 PUSH1 0x1 ADD PUSH1 0x8 SWAP1 SLOAD SWAP1 PUSH2 0x100 EXP SWAP1 DIV PUSH1 0xFF AND ISZERO ISZERO EQ PUSH2 0x1227 JUMPI PUSH1 0x40 MLOAD PUSH32 0x8C379A000000000000000000000000000000000000000000000000000000000 DUP2 MSTORE PUSH1 0x4 ADD PUSH2 0x121E SWAP1 PUSH2 0x2527 JUMP JUMPDEST PUSH1 0x40 MLOAD DUP1 SWAP2 SUB SWAP1 REVERT JUMPDEST PUSH1 0x1 DUP1 PUSH0 CALLER PUSH20 0xFFFFFFFFFFFFFFFFFFFFFFFFFFFFFFFFFFFFFFFF AND PUSH20 0xFFFFFFFFFFFFFFFFFFFFFFFFFFFFFFFFFFFFFFFF AND DUP2 MSTORE PUSH1 0x20 ADD SWAP1 DUP2 MSTORE PUSH1 0x20 ADD PUSH0 KECCAK256 PUSH1 0x1 ADD PUSH1 0x8 PUSH2 0x100 EXP DUP2 SLOAD DUP2 PUSH1 0xFF MUL NOT AND SWAP1 DUP4 ISZERO ISZERO MUL OR SWAP1 SSTORE POP PUSH1 0x1 PUSH0 CALLER PUSH20 0xFFFFFFFFFFFFFFFFFFFFFFFFFFFFFFFFFFFFFFFF AND PUSH20 0xFFFFFFFFFFFFFFFFFFFFFFFFFFFFFFFFFFFFFFFF AND DUP2 MSTORE PUSH1 0x20 ADD SWAP1 DUP2 MSTORE PUSH1 0x20 ADD PUSH0 KECCAK256 PUSH0 ADD SLOAD PUSH2 0x12C8 DUP3 PUSH2 0x636 JUMP JUMPDEST EQ PUSH2 0x1308 JUMPI PUSH1 0x40 MLOAD PUSH32 0x8C379A000000000000000000000000000000000000000000000000000000000 DUP2 MSTORE PUSH1 0x4 ADD PUSH2 0x12FF SWAP1 PUSH2 0x25B5 JUMP JUMPDEST PUSH1 0x40 MLOAD DUP1 SWAP2 SUB SWAP1 REVERT JUMPDEST PUSH1 0x1 PUSH0 CALLER PUSH20 0xFFFFFFFFFFFFFFFFFFFFFFFFFFFFFFFFFFFFFFFF AND PUSH20 0xFFFFFFFFFFFFFFFFFFFFFFFFFFFFFFFFFFFFFFFF AND DUP2 MSTORE PUSH1 0x20 ADD SWAP1 DUP2 MSTORE PUSH1 0x20 ADD PUSH0 KECCAK256 PUSH1 0x1 ADD PUSH0 SWAP1 SLOAD SWAP1 PUSH2 0x100 EXP SWAP1 DIV PUSH8 0xFFFFFFFFFFFFFFFF AND PUSH8 0xFFFFFFFFFFFFFFFF AND NUMBER PUSH8 0xFFFFFFFFFFFFFFFF AND GT PUSH2 0x13B1 JUMPI PUSH1 0x40 MLOAD PUSH32 0x8C379A000000000000000000000000000000000000000000000000000000000 DUP2 MSTORE PUSH1 0x4 ADD PUSH2 0x13A8 SWAP1 PUSH2 0x2669 JUMP JUMPDEST PUSH1 0x40 MLOAD DUP1 SWAP2 SUB SWAP1 REVERT JUMPDEST PUSH1 0xFA PUSH1 0x1 PUSH0 CALLER PUSH20 0xFFFFFFFFFFFFFFFFFFFFFFFFFFFFFFFFFFFFFFFF AND PUSH20 0xFFFFFFFFFFFFFFFFFFFFFFFFFFFFFFFFFFFFFFFF AND DUP2 MSTORE PUSH1 0x20 ADD SWAP1 DUP2 MSTORE PUSH1 0x20 ADD PUSH0 KECCAK256 PUSH1 0x1 ADD PUSH0 SWAP1 SLOAD SWAP1 PUSH2 0x100 EXP SWAP1 DIV PUSH8 0xFFFFFFFFFFFFFFFF AND PUSH2 0x1411 SWAP2 SWAP1 PUSH2 0x269A JUMP JUMPDEST PUSH8 0xFFFFFFFFFFFFFFFF AND NUMBER PUSH8 0xFFFFFFFFFFFFFFFF AND GT ISZERO PUSH2 0x1467 JUMPI PUSH1 0x40 MLOAD PUSH32 0x8C379A000000000000000000000000000000000000000000000000000000000 DUP2 MSTORE PUSH1 0x4 ADD PUSH2 0x145E SWAP1 PUSH2 0x2745 JUMP JUMPDEST PUSH1 0x40 MLOAD DUP1 SWAP2 SUB SWAP1 REVERT JUMPDEST PUSH0 PUSH1 0x1 PUSH0 CALLER PUSH20 0xFFFFFFFFFFFFFFFFFFFFFFFFFFFFFFFFFFFFFFFF AND PUSH20 0xFFFFFFFFFFFFFFFFFFFFFFFFFFFFFFFFFFFFFFFF AND DUP2 MSTORE PUSH1 0x20 ADD SWAP1 DUP2 MSTORE PUSH1 0x20 ADD PUSH0 KECCAK256 PUSH1 0x1 ADD PUSH0 SWAP1 SLOAD SWAP1 PUSH2 0x100 EXP SWAP1 DIV PUSH8 0xFFFFFFFFFFFFFFFF AND PUSH8 0xFFFFFFFFFFFFFFFF AND BLOCKHASH SWAP1 POP PUSH0 DUP1 PUSH0 SWAP1 SLOAD SWAP1 PUSH2 0x100 EXP SWAP1 DIV PUSH1 0xFF AND PUSH1 0xFF AND DUP3 DUP5 PUSH1 0x40 MLOAD PUSH1 0x20 ADD PUSH2 0x14EE SWAP3 SWAP2 SWAP1 PUSH2 0x2763 JUMP JUMPDEST PUSH1 0x40 MLOAD PUSH1 0x20 DUP2 DUP4 SUB SUB DUP2 MSTORE SWAP1 PUSH1 0x40 MSTORE DUP1 MLOAD SWAP1 PUSH1 0x20 ADD KECCAK256 PUSH0 SHR PUSH2 0x1510 SWAP2 SWAP1 PUSH2 0x22D0 JUMP JUMPDEST SWAP1 POP PUSH32 0xBC016DD1CADEAEFCB851AF7A0A93532E0023D536894B730801F7BCFE7065BCC2 CALLER DUP5 DUP4 PUSH1 0x40 MLOAD PUSH2 0x1545 SWAP4 SWAP3 SWAP2 SWAP1 PUSH2 0x278E JUMP JUMPDEST PUSH1 0x40 MLOAD DUP1 SWAP2 SUB SWAP1 LOG1 POP POP POP JUMP JUMPDEST PUSH0 PUSH1 0x8 SLOAD PUSH7 0x38D7EA4C68000 PUSH2 0x1568 SWAP2 SWAP1 PUSH2 0x2218 JUMP JUMPDEST SWAP1 POP PUSH2 0x1572 PUSH2 0x83B JUMP JUMPDEST PUSH20 0xFFFFFFFFFFFFFFFFFFFFFFFFFFFFFFFFFFFFFFFF AND PUSH2 0x8FC DUP3 SWAP1 DUP2 ISZERO MUL SWAP1 PUSH1 0x40 MLOAD PUSH0 PUSH1 0x40 MLOAD DUP1 DUP4 SUB DUP2 DUP6 DUP9 DUP9 CALL SWAP4 POP POP POP POP ISZERO DUP1 ISZERO PUSH2 0x15B4 JUMPI RETURNDATASIZE PUSH0 DUP1 RETURNDATACOPY RETURNDATASIZE PUSH0 REVERT JUMPDEST POP POP JUMP JUMPDEST PUSH0 PUSH1 0x64 PUSH1 0x62 DUP4 PUSH7 0x38D7EA4C68000 PUSH2 0x15D0 SWAP2 SWAP1 PUSH2 0x2218 JUMP JUMPDEST PUSH2 0x15DA SWAP2 SWAP1 PUSH2 0x2218 JUMP JUMPDEST PUSH2 0x15E4 SWAP2 SWAP1 PUSH2 0x2286 JUMP JUMPDEST SWAP1 POP PUSH0 PUSH1 0x64 PUSH1 0x2 DUP5 PUSH7 0x38D7EA4C68000 PUSH2 0x15FE SWAP2 SWAP1 PUSH2 0x2218 JUMP JUMPDEST PUSH2 0x1608 SWAP2 SWAP1 PUSH2 0x2218 JUMP JUMPDEST PUSH2 0x1612 SWAP2 SWAP1 PUSH2 0x2286 JUMP JUMPDEST SWAP1 POP DUP4 PUSH20 0xFFFFFFFFFFFFFFFFFFFFFFFFFFFFFFFFFFFFFFFF AND PUSH2 0x8FC DUP4 SWAP1 DUP2 ISZERO MUL SWAP1 PUSH1 0x40 MLOAD PUSH0 PUSH1 0x40 MLOAD DUP1 DUP4 SUB DUP2 DUP6 DUP9 DUP9 CALL SWAP4 POP POP POP POP ISZERO DUP1 ISZERO PUSH2 0x1657 JUMPI RETURNDATASIZE PUSH0 DUP1 RETURNDATACOPY RETURNDATASIZE PUSH0 REVERT JUMPDEST POP PUSH2 0x1660 PUSH2 0x83B JUMP JUMPDEST PUSH20 0xFFFFFFFFFFFFFFFFFFFFFFFFFFFFFFFFFFFFFFFF AND PUSH2 0x8FC DUP3 SWAP1 DUP2 ISZERO MUL SWAP1 PUSH1 0x40 MLOAD PUSH0 PUSH1 0x40 MLOAD DUP1 DUP4 SUB DUP2 DUP6 DUP9 DUP9 CALL SWAP4 POP POP POP POP ISZERO DUP1 ISZERO PUSH2 0x16A2 JUMPI RETURNDATASIZE PUSH0 DUP1 RETURNDATACOPY RETURNDATASIZE PUSH0 REVERT JUMPDEST POP POP POP POP POP JUMP JUMPDEST DUP1 PUSH1 0x1 PUSH0 CALLER PUSH20 0xFFFFFFFFFFFFFFFFFFFFFFFFFFFFFFFFFFFFFFFF AND PUSH20 0xFFFFFFFFFFFFFFFFFFFFFFFFFFFFFFFFFFFFFFFF AND DUP2 MSTORE PUSH1 0x20 ADD SWAP1 DUP2 MSTORE PUSH1 0x20 ADD PUSH0 KECCAK256 PUSH0 ADD DUP2 SWAP1 SSTORE POP NUMBER PUSH1 0x1 PUSH0 CALLER PUSH20 0xFFFFFFFFFFFFFFFFFFFFFFFFFFFFFFFFFFFFFFFF AND PUSH20 0xFFFFFFFFFFFFFFFFFFFFFFFFFFFFFFFFFFFFFFFF AND DUP2 MSTORE PUSH1 0x20 ADD SWAP1 DUP2 MSTORE PUSH1 0x20 ADD PUSH0 KECCAK256 PUSH1 0x1 ADD PUSH0 PUSH2 0x100 EXP DUP2 SLOAD DUP2 PUSH8 0xFFFFFFFFFFFFFFFF MUL NOT AND SWAP1 DUP4 PUSH8 0xFFFFFFFFFFFFFFFF AND MUL OR SWAP1 SSTORE POP PUSH0 PUSH1 0x1 PUSH0 CALLER PUSH20 0xFFFFFFFFFFFFFFFFFFFFFFFFFFFFFFFFFFFFFFFF AND PUSH20 0xFFFFFFFFFFFFFFFFFFFFFFFFFFFFFFFFFFFFFFFF AND DUP2 MSTORE PUSH1 0x20 ADD SWAP1 DUP2 MSTORE PUSH1 0x20 ADD PUSH0 KECCAK256 PUSH1 0x1 ADD PUSH1 0x8 PUSH2 0x100 EXP DUP2 SLOAD DUP2 PUSH1 0xFF MUL NOT AND SWAP1 DUP4 ISZERO ISZERO MUL OR SWAP1 SSTORE POP PUSH32 0x3C1A1F8F38335B17F751C6DA4BA7D1865F26B3997535176F5080DE9FAD891603 CALLER PUSH1 0x1 PUSH0 CALLER PUSH20 0xFFFFFFFFFFFFFFFFFFFFFFFFFFFFFFFFFFFFFFFF AND PUSH20 0xFFFFFFFFFFFFFFFFFFFFFFFFFFFFFFFFFFFFFFFF AND DUP2 MSTORE PUSH1 0x20 ADD SWAP1 DUP2 MSTORE PUSH1 0x20 ADD PUSH0 KECCAK256 PUSH0 ADD SLOAD PUSH1 0x1 PUSH0 CALLER PUSH20 0xFFFFFFFFFFFFFFFFFFFFFFFFFFFFFFFFFFFFFFFF AND PUSH20 0xFFFFFFFFFFFFFFFFFFFFFFFFFFFFFFFFFFFFFFFF AND DUP2 MSTORE PUSH1 0x20 ADD SWAP1 DUP2 MSTORE PUSH1 0x20 ADD PUSH0 KECCAK256 PUSH1 0x1 ADD PUSH0 SWAP1 SLOAD SWAP1 PUSH2 0x100 EXP SWAP1 DIV PUSH8 0xFFFFFFFFFFFFFFFF AND PUSH1 0x40 MLOAD PUSH2 0x1870 SWAP4 SWAP3 SWAP2 SWAP1 PUSH2 0x27D2 JUMP JUMPDEST PUSH1 0x40 MLOAD DUP1 SWAP2 SUB SWAP1 LOG1 POP JUMP JUMPDEST PUSH1 0x40 MLOAD DUP1 PUSH1 0xA0 ADD PUSH1 0x40 MSTORE DUP1 PUSH0 DUP2 MSTORE PUSH1 0x20 ADD PUSH0 ISZERO ISZERO DUP2 MSTORE PUSH1 0x20 ADD PUSH0 ISZERO ISZERO DUP2 MSTORE PUSH1 0x20 ADD PUSH0 ISZERO ISZERO DUP2 MSTORE PUSH1 0x20 ADD PUSH0 PUSH20 0xFFFFFFFFFFFFFFFFFFFFFFFFFFFFFFFFFFFFFFFF AND DUP2 MSTORE POP SWAP1 JUMP JUMPDEST PUSH0 PUSH1 0x40 MLOAD SWAP1 POP SWAP1 JUMP JUMPDEST PUSH0 DUP1 REVERT JUMPDEST PUSH0 DUP1 REVERT JUMPDEST PUSH0 DUP2 SWAP1 POP SWAP2 SWAP1 POP JUMP JUMPDEST PUSH2 0x18E4 DUP2 PUSH2 0x18D2 JUMP JUMPDEST DUP2 EQ PUSH2 0x18EE JUMPI PUSH0 DUP1 REVERT JUMPDEST POP JUMP JUMPDEST PUSH0 DUP2 CALLDATALOAD SWAP1 POP PUSH2 0x18FF DUP2 PUSH2 0x18DB JUMP JUMPDEST SWAP3 SWAP2 POP POP JUMP JUMPDEST PUSH0 DUP1 REVERT JUMPDEST PUSH0 DUP1 REVERT JUMPDEST PUSH0 PUSH1 0x1F NOT PUSH1 0x1F DUP4 ADD AND SWAP1 POP SWAP2 SWAP1 POP JUMP JUMPDEST PUSH32 0x4E487B7100000000000000000000000000000000000000000000000000000000 PUSH0 MSTORE PUSH1 0x41 PUSH1 0x4 MSTORE PUSH1 0x24 PUSH0 REVERT JUMPDEST PUSH2 0x1953 DUP3 PUSH2 0x190D JUMP JUMPDEST DUP2 ADD DUP2 DUP2 LT PUSH8 0xFFFFFFFFFFFFFFFF DUP3 GT OR ISZERO PUSH2 0x1972 JUMPI PUSH2 0x1971 PUSH2 0x191D JUMP JUMPDEST JUMPDEST DUP1 PUSH1 0x40 MSTORE POP POP POP JUMP JUMPDEST PUSH0 PUSH2 0x1984 PUSH2 0x18C1 JUMP JUMPDEST SWAP1 POP PUSH2 0x1990 DUP3 DUP3 PUSH2 0x194A JUMP JUMPDEST SWAP2 SWAP1 POP JUMP JUMPDEST PUSH0 PUSH8 0xFFFFFFFFFFFFFFFF DUP3 GT ISZERO PUSH2 0x19AF JUMPI PUSH2 0x19AE PUSH2 0x191D JUMP JUMPDEST JUMPDEST PUSH2 0x19B8 DUP3 PUSH2 0x190D JUMP JUMPDEST SWAP1 POP PUSH1 0x20 DUP2 ADD SWAP1 POP SWAP2 SWAP1 POP JUMP JUMPDEST DUP3 DUP2 DUP4 CALLDATACOPY PUSH0 DUP4 DUP4 ADD MSTORE POP POP POP JUMP JUMPDEST PUSH0 PUSH2 0x19E5 PUSH2 0x19E0 DUP5 PUSH2 0x1995 JUMP JUMPDEST PUSH2 0x197B JUMP JUMPDEST SWAP1 POP DUP3 DUP2 MSTORE PUSH1 0x20 DUP2 ADD DUP5 DUP5 DUP5 ADD GT ISZERO PUSH2 0x1A01 JUMPI PUSH2 0x1A00 PUSH2 0x1909 JUMP JUMPDEST JUMPDEST PUSH2 0x1A0C DUP5 DUP3 DUP6 PUSH2 0x19C5 JUMP JUMPDEST POP SWAP4 SWAP3 POP POP POP JUMP JUMPDEST PUSH0 DUP3 PUSH1 0x1F DUP4 ADD SLT PUSH2 0x1A28 JUMPI PUSH2 0x1A27 PUSH2 0x1905 JUMP JUMPDEST JUMPDEST DUP2 CALLDATALOAD PUSH2 0x1A38 DUP5 DUP3 PUSH1 0x20 DUP7 ADD PUSH2 0x19D3 JUMP JUMPDEST SWAP2 POP POP SWAP3 SWAP2 POP POP JUMP JUMPDEST PUSH0 DUP1 PUSH1 0x40 DUP4 DUP6 SUB SLT ISZERO PUSH2 0x1A57 JUMPI PUSH2 0x1A56 PUSH2 0x18CA JUMP JUMPDEST JUMPDEST PUSH0 PUSH2 0x1A64 DUP6 DUP3 DUP7 ADD PUSH2 0x18F1 JUMP JUMPDEST SWAP3 POP POP PUSH1 0x20 DUP4 ADD CALLDATALOAD PUSH8 0xFFFFFFFFFFFFFFFF DUP2 GT ISZERO PUSH2 0x1A85 JUMPI PUSH2 0x1A84 PUSH2 0x18CE JUMP JUMPDEST JUMPDEST PUSH2 0x1A91 DUP6 DUP3 DUP7 ADD PUSH2 0x1A14 JUMP JUMPDEST SWAP2 POP POP SWAP3 POP SWAP3 SWAP1 POP JUMP JUMPDEST PUSH0 DUP2 SWAP1 POP SWAP2 SWAP1 POP JUMP JUMPDEST PUSH2 0x1AAD DUP2 PUSH2 0x1A9B JUMP JUMPDEST DUP3 MSTORE POP POP JUMP JUMPDEST PUSH0 PUSH1 0x20 DUP3 ADD SWAP1 POP PUSH2 0x1AC6 PUSH0 DUP4 ADD DUP5 PUSH2 0x1AA4 JUMP JUMPDEST SWAP3 SWAP2 POP POP JUMP JUMPDEST PUSH0 PUSH1 0x20 DUP3 DUP5 SUB SLT ISZERO PUSH2 0x1AE1 JUMPI PUSH2 0x1AE0 PUSH2 0x18CA JUMP JUMPDEST JUMPDEST PUSH0 PUSH2 0x1AEE DUP5 DUP3 DUP6 ADD PUSH2 0x18F1 JUMP JUMPDEST SWAP2 POP POP SWAP3 SWAP2 POP POP JUMP JUMPDEST PUSH2 0x1B00 DUP2 PUSH2 0x18D2 JUMP JUMPDEST DUP3 MSTORE POP POP JUMP JUMPDEST PUSH0 PUSH1 0x20 DUP3 ADD SWAP1 POP PUSH2 0x1B19 PUSH0 DUP4 ADD DUP5 PUSH2 0x1AF7 JUMP JUMPDEST SWAP3 SWAP2 POP POP JUMP JUMPDEST PUSH2 0x1B28 DUP2 PUSH2 0x1A9B JUMP JUMPDEST DUP2 EQ PUSH2 0x1B32 JUMPI PUSH0 DUP1 REVERT JUMPDEST POP JUMP JUMPDEST PUSH0 DUP2 CALLDATALOAD SWAP1 POP PUSH2 0x1B43 DUP2 PUSH2 0x1B1F JUMP JUMPDEST SWAP3 SWAP2 POP POP JUMP JUMPDEST PUSH0 PUSH1 0x20 DUP3 DUP5 SUB SLT ISZERO PUSH2 0x1B5E JUMPI PUSH2 0x1B5D PUSH2 0x18CA JUMP JUMPDEST JUMPDEST PUSH0 PUSH2 0x1B6B DUP5 DUP3 DUP6 ADD PUSH2 0x1B35 JUMP JUMPDEST SWAP2 POP POP SWAP3 SWAP2 POP POP JUMP JUMPDEST PUSH0 DUP1 PUSH0 PUSH1 0x60 DUP5 DUP7 SUB SLT ISZERO PUSH2 0x1B8B JUMPI PUSH2 0x1B8A PUSH2 0x18CA JUMP JUMPDEST JUMPDEST PUSH0 PUSH2 0x1B98 DUP7 DUP3 DUP8 ADD PUSH2 0x18F1 JUMP JUMPDEST SWAP4 POP POP PUSH1 0x20 PUSH2 0x1BA9 DUP7 DUP3 DUP8 ADD PUSH2 0x18F1 JUMP JUMPDEST SWAP3 POP POP PUSH1 0x40 DUP5 ADD CALLDATALOAD PUSH8 0xFFFFFFFFFFFFFFFF DUP2 GT ISZERO PUSH2 0x1BCA JUMPI PUSH2 0x1BC9 PUSH2 0x18CE JUMP JUMPDEST JUMPDEST PUSH2 0x1BD6 DUP7 DUP3 DUP8 ADD PUSH2 0x1A14 JUMP JUMPDEST SWAP2 POP POP SWAP3 POP SWAP3 POP SWAP3 JUMP JUMPDEST PUSH0 PUSH20 0xFFFFFFFFFFFFFFFFFFFFFFFFFFFFFFFFFFFFFFFF DUP3 AND SWAP1 POP SWAP2 SWAP1 POP JUMP JUMPDEST PUSH0 PUSH2 0x1C09 DUP3 PUSH2 0x1BE0 JUMP JUMPDEST SWAP1 POP SWAP2 SWAP1 POP JUMP JUMPDEST PUSH2 0x1C19 DUP2 PUSH2 0x1BFF JUMP JUMPDEST DUP3 MSTORE POP POP JUMP JUMPDEST PUSH0 PUSH1 0x20 DUP3 ADD SWAP1 POP PUSH2 0x1C32 PUSH0 DUP4 ADD DUP5 PUSH2 0x1C10 JUMP JUMPDEST SWAP3 SWAP2 POP POP JUMP JUMPDEST PUSH0 DUP1 PUSH1 0x40 DUP4 DUP6 SUB SLT ISZERO PUSH2 0x1C4E JUMPI PUSH2 0x1C4D PUSH2 0x18CA JUMP JUMPDEST JUMPDEST PUSH0 PUSH2 0x1C5B DUP6 DUP3 DUP7 ADD PUSH2 0x1B35 JUMP JUMPDEST SWAP3 POP POP PUSH1 0x20 PUSH2 0x1C6C DUP6 DUP3 DUP7 ADD PUSH2 0x1B35 JUMP JUMPDEST SWAP2 POP POP SWAP3 POP SWAP3 SWAP1 POP JUMP JUMPDEST PUSH0 DUP2 ISZERO ISZERO SWAP1 POP SWAP2 SWAP1 POP JUMP JUMPDEST PUSH2 0x1C8A DUP2 PUSH2 0x1C76 JUMP JUMPDEST DUP3 MSTORE POP POP JUMP JUMPDEST PUSH0 PUSH1 0x20 DUP3 ADD SWAP1 POP PUSH2 0x1CA3 PUSH0 DUP4 ADD DUP5 PUSH2 0x1C81 JUMP JUMPDEST SWAP3 SWAP2 POP POP JUMP JUMPDEST PUSH0 DUP2 MLOAD SWAP1 POP SWAP2 SWAP1 POP JUMP JUMPDEST PUSH0 DUP3 DUP3 MSTORE PUSH1 0x20 DUP3 ADD SWAP1 POP SWAP3 SWAP2 POP POP JUMP JUMPDEST PUSH0 JUMPDEST DUP4 DUP2 LT ISZERO PUSH2 0x1CE0 JUMPI DUP1 DUP3 ADD MLOAD DUP2 DUP5 ADD MSTORE PUSH1 0x20 DUP2 ADD SWAP1 POP PUSH2 0x1CC5 JUMP JUMPDEST PUSH0 DUP5 DUP5 ADD MSTORE POP POP POP POP JUMP JUMPDEST PUSH0 PUSH2 0x1CF5 DUP3 PUSH2 0x1CA9 JUMP JUMPDEST PUSH2 0x1CFF DUP2 DUP6 PUSH2 0x1CB3 JUMP JUMPDEST SWAP4 POP PUSH2 0x1D0F DUP2 DUP6 PUSH1 0x20 DUP7 ADD PUSH2 0x1CC3 JUMP JUMPDEST PUSH2 0x1D18 DUP2 PUSH2 0x190D JUMP JUMPDEST DUP5 ADD SWAP2 POP POP SWAP3 SWAP2 POP POP JUMP JUMPDEST PUSH0 PUSH1 0x40 DUP3 ADD SWAP1 POP DUP2 DUP2 SUB PUSH0 DUP4 ADD MSTORE PUSH2 0x1D3B DUP2 DUP6 PUSH2 0x1CEB JUMP JUMPDEST SWAP1 POP PUSH2 0x1D4A PUSH1 0x20 DUP4 ADD DUP5 PUSH2 0x1AF7 JUMP JUMPDEST SWAP4 SWAP3 POP POP POP JUMP JUMPDEST PUSH0 DUP2 SWAP1 POP SWAP3 SWAP2 POP POP JUMP JUMPDEST PUSH0 PUSH2 0x1D65 DUP3 PUSH2 0x1CA9 JUMP JUMPDEST PUSH2 0x1D6F DUP2 DUP6 PUSH2 0x1D51 JUMP JUMPDEST SWAP4 POP PUSH2 0x1D7F DUP2 DUP6 PUSH1 0x20 DUP7 ADD PUSH2 0x1CC3 JUMP JUMPDEST DUP1 DUP5 ADD SWAP2 POP POP SWAP3 SWAP2 POP POP JUMP JUMPDEST PUSH0 PUSH2 0x1D96 DUP3 DUP5 PUSH2 0x1D5B JUMP JUMPDEST SWAP2 POP DUP2 SWAP1 POP SWAP3 SWAP2 POP POP JUMP JUMPDEST PUSH0 DUP2 MLOAD SWAP1 POP SWAP2 SWAP1 POP JUMP JUMPDEST PUSH0 DUP2 SWAP1 POP PUSH1 0x20 DUP3 ADD SWAP1 POP SWAP2 SWAP1 POP JUMP JUMPDEST PUSH0 PUSH2 0x1DC5 DUP3 MLOAD PUSH2 0x1A9B JUMP JUMPDEST DUP1 SWAP2 POP POP SWAP2 SWAP1 POP JUMP JUMPDEST PUSH0 DUP3 DUP3 SHL SWAP1 POP SWAP3 SWAP2 POP POP JUMP JUMPDEST PUSH0 PUSH2 0x1DE4 DUP3 PUSH2 0x1DA1 JUMP JUMPDEST DUP3 PUSH2 0x1DEE DUP5 PUSH2 0x1DAB JUMP JUMPDEST SWAP1 POP PUSH2 0x1DF9 DUP2 PUSH2 0x1DBA JUMP JUMPDEST SWAP3 POP PUSH1 0x20 DUP3 LT ISZERO PUSH2 0x1E39 JUMPI PUSH2 0x1E34 PUSH32 0xFFFFFFFFFFFFFFFFFFFFFFFFFFFFFFFFFFFFFFFFFFFFFFFFFFFFFFFFFFFFFFFF DUP4 PUSH1 0x20 SUB PUSH1 0x8 MUL PUSH2 0x1DCE JUMP JUMPDEST DUP4 AND SWAP3 POP JUMPDEST POP POP SWAP2 SWAP1 POP JUMP JUMPDEST PUSH0 DUP2 SWAP1 POP SWAP2 SWAP1 POP JUMP JUMPDEST PUSH2 0x1E5A PUSH2 0x1E55 DUP3 PUSH2 0x18D2 JUMP JUMPDEST PUSH2 0x1E40 JUMP JUMPDEST DUP3 MSTORE POP POP JUMP JUMPDEST PUSH0 DUP2 SWAP1 POP SWAP2 SWAP1 POP JUMP JUMPDEST PUSH2 0x1E7A PUSH2 0x1E75 DUP3 PUSH2 0x1A9B JUMP JUMPDEST PUSH2 0x1E60 JUMP JUMPDEST DUP3 MSTORE POP POP JUMP JUMPDEST PUSH0 PUSH2 0x1E8B DUP3 DUP6 PUSH2 0x1E49 JUMP JUMPDEST PUSH1 0x20 DUP3 ADD SWAP2 POP PUSH2 0x1E9B DUP3 DUP5 PUSH2 0x1E69 JUMP JUMPDEST PUSH1 0x20 DUP3 ADD SWAP2 POP DUP2 SWAP1 POP SWAP4 SWAP3 POP POP POP JUMP JUMPDEST PUSH32 0x4E487B7100000000000000000000000000000000000000000000000000000000 PUSH0 MSTORE PUSH1 0x11 PUSH1 0x4 MSTORE PUSH1 0x24 PUSH0 REVERT JUMPDEST PUSH0 PUSH2 0x1EE2 DUP3 PUSH2 0x18D2 JUMP JUMPDEST SWAP2 POP PUSH2 0x1EED DUP4 PUSH2 0x18D2 JUMP JUMPDEST SWAP3 POP DUP3 DUP3 ADD SWAP1 POP DUP1 DUP3 GT ISZERO PUSH2 0x1F05 JUMPI PUSH2 0x1F04 PUSH2 0x1EAB JUMP JUMPDEST JUMPDEST SWAP3 SWAP2 POP POP JUMP JUMPDEST PUSH32 0x4F7574206F6620776974686472617720706572696F6400000000000000000000 PUSH0 DUP3 ADD MSTORE POP JUMP JUMPDEST PUSH0 PUSH2 0x1F3F PUSH1 0x16 DUP4 PUSH2 0x1CB3 JUMP JUMPDEST SWAP2 POP PUSH2 0x1F4A DUP3 PUSH2 0x1F0B JUMP JUMPDEST PUSH1 0x20 DUP3 ADD SWAP1 POP SWAP2 SWAP1 POP JUMP JUMPDEST PUSH0 PUSH1 0x20 DUP3 ADD SWAP1 POP DUP2 DUP2 SUB PUSH0 DUP4 ADD MSTORE PUSH2 0x1F6C DUP2 PUSH2 0x1F33 JUMP JUMPDEST SWAP1 POP SWAP2 SWAP1 POP JUMP JUMPDEST PUSH32 0x57726F6E6720496E646578000000000000000000000000000000000000000000 PUSH0 DUP3 ADD MSTORE POP JUMP JUMPDEST PUSH0 PUSH2 0x1FA7 PUSH1 0xB DUP4 PUSH2 0x1CB3 JUMP JUMPDEST SWAP2 POP PUSH2 0x1FB2 DUP3 PUSH2 0x1F73 JUMP JUMPDEST PUSH1 0x20 DUP3 ADD SWAP1 POP SWAP2 SWAP1 POP JUMP JUMPDEST PUSH0 PUSH1 0x20 DUP3 ADD SWAP1 POP DUP2 DUP2 SUB PUSH0 DUP4 ADD MSTORE PUSH2 0x1FD4 DUP2 PUSH2 0x1F9B JUMP JUMPDEST SWAP1 POP SWAP2 SWAP1 POP JUMP JUMPDEST PUSH0 PUSH2 0x1FE5 DUP3 PUSH2 0x18D2 JUMP JUMPDEST SWAP2 POP PUSH0 DUP3 SUB PUSH2 0x1FF7 JUMPI PUSH2 0x1FF6 PUSH2 0x1EAB JUMP JUMPDEST JUMPDEST PUSH1 0x1 DUP3 SUB SWAP1 POP SWAP2 SWAP1 POP JUMP JUMPDEST PUSH0 DUP2 PUSH1 0x60 SHL SWAP1 POP SWAP2 SWAP1 POP JUMP JUMPDEST PUSH0 PUSH2 0x2018 DUP3 PUSH2 0x2002 JUMP JUMPDEST SWAP1 POP SWAP2 SWAP1 POP JUMP JUMPDEST PUSH0 PUSH2 0x2029 DUP3 PUSH2 0x200E JUMP JUMPDEST SWAP1 POP SWAP2 SWAP1 POP JUMP JUMPDEST PUSH2 0x2041 PUSH2 0x203C DUP3 PUSH2 0x1BFF JUMP JUMPDEST PUSH2 0x201F JUMP JUMPDEST DUP3 MSTORE POP POP JUMP JUMPDEST PUSH0 PUSH2 0x2052 DUP3 DUP6 PUSH2 0x2030 JUMP JUMPDEST PUSH1 0x14 DUP3 ADD SWAP2 POP PUSH2 0x2062 DUP3 DUP5 PUSH2 0x1E69 JUMP JUMPDEST PUSH1 0x20 DUP3 ADD SWAP2 POP DUP2 SWAP1 POP SWAP4 SWAP3 POP POP POP JUMP JUMPDEST PUSH32 0x4F7574206F662052657665616C20537461676520706572696F64000000000000 PUSH0 DUP3 ADD MSTORE POP JUMP JUMPDEST PUSH0 PUSH2 0x20A6 PUSH1 0x1A DUP4 PUSH2 0x1CB3 JUMP JUMPDEST SWAP2 POP PUSH2 0x20B1 DUP3 PUSH2 0x2072 JUMP JUMPDEST PUSH1 0x20 DUP3 ADD SWAP1 POP SWAP2 SWAP1 POP JUMP JUMPDEST PUSH0 PUSH1 0x20 DUP3 ADD SWAP1 POP DUP2 DUP2 SUB PUSH0 DUP4 ADD MSTORE PUSH2 0x20D3 DUP2 PUSH2 0x209A JUMP JUMPDEST SWAP1 POP SWAP2 SWAP1 POP JUMP JUMPDEST PUSH0 PUSH2 0x20E5 DUP3 DUP7 PUSH2 0x2030 JUMP JUMPDEST PUSH1 0x14 DUP3 ADD SWAP2 POP PUSH2 0x20F5 DUP3 DUP6 PUSH2 0x1E69 JUMP JUMPDEST PUSH1 0x20 DUP3 ADD SWAP2 POP PUSH2 0x2105 DUP3 DUP5 PUSH2 0x1E69 JUMP JUMPDEST PUSH1 0x20 DUP3 ADD SWAP2 POP DUP2 SWAP1 POP SWAP5 SWAP4 POP POP POP POP JUMP JUMPDEST PUSH32 0x4F6E6C79206F776E65722063616E2063616C6C20746869732066756E6374696F PUSH0 DUP3 ADD MSTORE PUSH32 0x6E00000000000000000000000000000000000000000000000000000000000000 PUSH1 0x20 DUP3 ADD MSTORE POP JUMP JUMPDEST PUSH0 PUSH2 0x2170 PUSH1 0x21 DUP4 PUSH2 0x1CB3 JUMP JUMPDEST SWAP2 POP PUSH2 0x217B DUP3 PUSH2 0x2116 JUMP JUMPDEST PUSH1 0x40 DUP3 ADD SWAP1 POP SWAP2 SWAP1 POP JUMP JUMPDEST PUSH0 PUSH1 0x20 DUP3 ADD SWAP1 POP DUP2 DUP2 SUB PUSH0 DUP4 ADD MSTORE PUSH2 0x219D DUP2 PUSH2 0x2164 JUMP JUMPDEST SWAP1 POP SWAP2 SWAP1 POP JUMP JUMPDEST PUSH32 0x4E487B7100000000000000000000000000000000000000000000000000000000 PUSH0 MSTORE PUSH1 0x32 PUSH1 0x4 MSTORE PUSH1 0x24 PUSH0 REVERT JUMPDEST PUSH0 PUSH2 0x21DB DUP3 PUSH2 0x18D2 JUMP JUMPDEST SWAP2 POP PUSH32 0xFFFFFFFFFFFFFFFFFFFFFFFFFFFFFFFFFFFFFFFFFFFFFFFFFFFFFFFFFFFFFFFF DUP3 SUB PUSH2 0x220D JUMPI PUSH2 0x220C PUSH2 0x1EAB JUMP JUMPDEST JUMPDEST PUSH1 0x1 DUP3 ADD SWAP1 POP SWAP2 SWAP1 POP JUMP JUMPDEST PUSH0 PUSH2 0x2222 DUP3 PUSH2 0x18D2 JUMP JUMPDEST SWAP2 POP PUSH2 0x222D DUP4 PUSH2 0x18D2 JUMP JUMPDEST SWAP3 POP DUP3 DUP3 MUL PUSH2 0x223B DUP2 PUSH2 0x18D2 JUMP JUMPDEST SWAP2 POP DUP3 DUP3 DIV DUP5 EQ DUP4 ISZERO OR PUSH2 0x2252 JUMPI PUSH2 0x2251 PUSH2 0x1EAB JUMP JUMPDEST JUMPDEST POP SWAP3 SWAP2 POP POP JUMP JUMPDEST PUSH32 0x4E487B7100000000000000000000000000000000000000000000000000000000 PUSH0 MSTORE PUSH1 0x12 PUSH1 0x4 MSTORE PUSH1 0x24 PUSH0 REVERT JUMPDEST PUSH0 PUSH2 0x2290 DUP3 PUSH2 0x18D2 JUMP JUMPDEST SWAP2 POP PUSH2 0x229B DUP4 PUSH2 0x18D2 JUMP JUMPDEST SWAP3 POP DUP3 PUSH2 0x22AB JUMPI PUSH2 0x22AA PUSH2 0x2259 JUMP JUMPDEST JUMPDEST DUP3 DUP3 DIV SWAP1 POP SWAP3 SWAP2 POP POP JUMP JUMPDEST PUSH0 PUSH2 0x22C1 DUP3 DUP5 PUSH2 0x1E49 JUMP JUMPDEST PUSH1 0x20 DUP3 ADD SWAP2 POP DUP2 SWAP1 POP SWAP3 SWAP2 POP POP JUMP JUMPDEST PUSH0 PUSH2 0x22DA DUP3 PUSH2 0x18D2 JUMP JUMPDEST SWAP2 POP PUSH2 0x22E5 DUP4 PUSH2 0x18D2 JUMP JUMPDEST SWAP3 POP DUP3 PUSH2 0x22F5 JUMPI PUSH2 0x22F4 PUSH2 0x2259 JUMP JUMPDEST JUMPDEST DUP3 DUP3 MOD SWAP1 POP SWAP3 SWAP2 POP POP JUMP JUMPDEST PUSH32 0x5265717569726520302E3030312045544820666F72204C6F7474657279206665 PUSH0 DUP3 ADD MSTORE PUSH32 0x6500000000000000000000000000000000000000000000000000000000000000 PUSH1 0x20 DUP3 ADD MSTORE POP JUMP JUMPDEST PUSH0 PUSH2 0x235A PUSH1 0x21 DUP4 PUSH2 0x1CB3 JUMP JUMPDEST SWAP2 POP PUSH2 0x2365 DUP3 PUSH2 0x2300 JUMP JUMPDEST PUSH1 0x40 DUP3 ADD SWAP1 POP SWAP2 SWAP1 POP JUMP JUMPDEST PUSH0 PUSH1 0x20 DUP3 ADD SWAP1 POP DUP2 DUP2 SUB PUSH0 DUP4 ADD MSTORE PUSH2 0x2387 DUP2 PUSH2 0x234E JUMP JUMPDEST SWAP1 POP SWAP2 SWAP1 POP JUMP JUMPDEST PUSH32 0x546865206E756D626572206F6620706C617965727320697320636F6D706C6574 PUSH0 DUP3 ADD MSTORE PUSH32 0x6500000000000000000000000000000000000000000000000000000000000000 PUSH1 0x20 DUP3 ADD MSTORE POP JUMP JUMPDEST PUSH0 PUSH2 0x23E8 PUSH1 0x21 DUP4 PUSH2 0x1CB3 JUMP JUMPDEST SWAP2 POP PUSH2 0x23F3 DUP3 PUSH2 0x238E JUMP JUMPDEST PUSH1 0x40 DUP3 ADD SWAP1 POP SWAP2 SWAP1 POP JUMP JUMPDEST PUSH0 PUSH1 0x20 DUP3 ADD SWAP1 POP DUP2 DUP2 SUB PUSH0 DUP4 ADD MSTORE PUSH2 0x2415 DUP2 PUSH2 0x23DC JUMP JUMPDEST SWAP1 POP SWAP2 SWAP1 POP JUMP JUMPDEST PUSH32 0x436F6D6D69742053746167652068617320657870697265640000000000000000 PUSH0 DUP3 ADD MSTORE POP JUMP JUMPDEST PUSH0 PUSH2 0x2450 PUSH1 0x18 DUP4 PUSH2 0x1CB3 JUMP JUMPDEST SWAP2 POP PUSH2 0x245B DUP3 PUSH2 0x241C JUMP JUMPDEST PUSH1 0x20 DUP3 ADD SWAP1 POP SWAP2 SWAP1 POP JUMP JUMPDEST PUSH0 PUSH1 0x20 DUP3 ADD SWAP1 POP DUP2 DUP2 SUB PUSH0 DUP4 ADD MSTORE PUSH2 0x247D DUP2 PUSH2 0x2444 JUMP JUMPDEST SWAP1 POP SWAP2 SWAP1 POP JUMP JUMPDEST PUSH0 PUSH2 0x248E DUP3 PUSH2 0x18D2 JUMP JUMPDEST SWAP2 POP PUSH2 0x2499 DUP4 PUSH2 0x18D2 JUMP JUMPDEST SWAP3 POP DUP3 DUP3 SUB SWAP1 POP DUP2 DUP2 GT ISZERO PUSH2 0x24B1 JUMPI PUSH2 0x24B0 PUSH2 0x1EAB JUMP JUMPDEST JUMPDEST SWAP3 SWAP2 POP POP JUMP JUMPDEST PUSH32 0x436F6D6D697452657665616C3A3A72657665616C3A20416C7265616479207265 PUSH0 DUP3 ADD MSTORE PUSH32 0x7665616C65640000000000000000000000000000000000000000000000000000 PUSH1 0x20 DUP3 ADD MSTORE POP JUMP JUMPDEST PUSH0 PUSH2 0x2511 PUSH1 0x26 DUP4 PUSH2 0x1CB3 JUMP JUMPDEST SWAP2 POP PUSH2 0x251C DUP3 PUSH2 0x24B7 JUMP JUMPDEST PUSH1 0x40 DUP3 ADD SWAP1 POP SWAP2 SWAP1 POP JUMP JUMPDEST PUSH0 PUSH1 0x20 DUP3 ADD SWAP1 POP DUP2 DUP2 SUB PUSH0 DUP4 ADD MSTORE PUSH2 0x253E DUP2 PUSH2 0x2505 JUMP JUMPDEST SWAP1 POP SWAP2 SWAP1 POP JUMP JUMPDEST PUSH32 0x436F6D6D697452657665616C3A3A72657665616C3A2052657665616C65642068 PUSH0 DUP3 ADD MSTORE PUSH32 0x61736820646F6573206E6F74206D6174636820636F6D6D697400000000000000 PUSH1 0x20 DUP3 ADD MSTORE POP JUMP JUMPDEST PUSH0 PUSH2 0x259F PUSH1 0x39 DUP4 PUSH2 0x1CB3 JUMP JUMPDEST SWAP2 POP PUSH2 0x25AA DUP3 PUSH2 0x2545 JUMP JUMPDEST PUSH1 0x40 DUP3 ADD SWAP1 POP SWAP2 SWAP1 POP JUMP JUMPDEST PUSH0 PUSH1 0x20 DUP3 ADD SWAP1 POP DUP2 DUP2 SUB PUSH0 DUP4 ADD MSTORE PUSH2 0x25CC DUP2 PUSH2 0x2593 JUMP JUMPDEST SWAP1 POP SWAP2 SWAP1 POP JUMP JUMPDEST PUSH32 0x436F6D6D697452657665616C3A3A72657665616C3A2052657665616C20616E64 PUSH0 DUP3 ADD MSTORE PUSH32 0x20636F6D6D69742068617070656E6564206F6E207468652073616D6520626C6F PUSH1 0x20 DUP3 ADD MSTORE PUSH32 0x636B000000000000000000000000000000000000000000000000000000000000 PUSH1 0x40 DUP3 ADD MSTORE POP JUMP JUMPDEST PUSH0 PUSH2 0x2653 PUSH1 0x42 DUP4 PUSH2 0x1CB3 JUMP JUMPDEST SWAP2 POP PUSH2 0x265E DUP3 PUSH2 0x25D3 JUMP JUMPDEST PUSH1 0x60 DUP3 ADD SWAP1 POP SWAP2 SWAP1 POP JUMP JUMPDEST PUSH0 PUSH1 0x20 DUP3 ADD SWAP1 POP DUP2 DUP2 SUB PUSH0 DUP4 ADD MSTORE PUSH2 0x2680 DUP2 PUSH2 0x2647 JUMP JUMPDEST SWAP1 POP SWAP2 SWAP1 POP JUMP JUMPDEST PUSH0 PUSH8 0xFFFFFFFFFFFFFFFF DUP3 AND SWAP1 POP SWAP2 SWAP1 POP JUMP JUMPDEST PUSH0 PUSH2 0x26A4 DUP3 PUSH2 0x2687 JUMP JUMPDEST SWAP2 POP PUSH2 0x26AF DUP4 PUSH2 0x2687 JUMP JUMPDEST SWAP3 POP DUP3 DUP3 ADD SWAP1 POP PUSH8 0xFFFFFFFFFFFFFFFF DUP2 GT ISZERO PUSH2 0x26CF JUMPI PUSH2 0x26CE PUSH2 0x1EAB JUMP JUMPDEST JUMPDEST SWAP3 SWAP2 POP POP JUMP JUMPDEST PUSH32 0x436F6D6D697452657665616C3A3A72657665616C3A2052657665616C65642074 PUSH0 DUP3 ADD MSTORE PUSH32 0x6F6F206C61746500000000000000000000000000000000000000000000000000 PUSH1 0x20 DUP3 ADD MSTORE POP JUMP JUMPDEST PUSH0 PUSH2 0x272F PUSH1 0x27 DUP4 PUSH2 0x1CB3 JUMP JUMPDEST SWAP2 POP PUSH2 0x273A DUP3 PUSH2 0x26D5 JUMP JUMPDEST PUSH1 0x40 DUP3 ADD SWAP1 POP SWAP2 SWAP1 POP JUMP JUMPDEST PUSH0 PUSH1 0x20 DUP3 ADD SWAP1 POP DUP2 DUP2 SUB PUSH0 DUP4 ADD MSTORE PUSH2 0x275C DUP2 PUSH2 0x2723 JUMP JUMPDEST SWAP1 POP SWAP2 SWAP1 POP JUMP JUMPDEST PUSH0 PUSH2 0x276E DUP3 DUP6 PUSH2 0x1E69 JUMP JUMPDEST PUSH1 0x20 DUP3 ADD SWAP2 POP PUSH2 0x277E DUP3 DUP5 PUSH2 0x1E69 JUMP JUMPDEST PUSH1 0x20 DUP3 ADD SWAP2 POP DUP2 SWAP1 POP SWAP4 SWAP3 POP POP POP JUMP JUMPDEST PUSH0 PUSH1 0x60 DUP3 ADD SWAP1 POP PUSH2 0x27A1 PUSH0 DUP4 ADD DUP7 PUSH2 0x1C10 JUMP JUMPDEST PUSH2 0x27AE PUSH1 0x20 DUP4 ADD DUP6 PUSH2 0x1AA4 JUMP JUMPDEST PUSH2 0x27BB PUSH1 0x40 DUP4 ADD DUP5 PUSH2 0x1AF7 JUMP JUMPDEST SWAP5 SWAP4 POP POP POP POP JUMP JUMPDEST PUSH2 0x27CC DUP2 PUSH2 0x2687 JUMP JUMPDEST DUP3 MSTORE POP POP JUMP JUMPDEST PUSH0 PUSH1 0x60 DUP3 ADD SWAP1 POP PUSH2 0x27E5 PUSH0 DUP4 ADD DUP7 PUSH2 0x1C10 JUMP JUMPDEST PUSH2 0x27F2 PUSH1 0x20 DUP4 ADD DUP6 PUSH2 0x1AA4 JUMP JUMPDEST PUSH2 0x27FF PUSH1 0x40 DUP4 ADD DUP5 PUSH2 0x27C3 JUMP JUMPDEST SWAP5 SWAP4 POP POP POP POP JUMP INVALID NUMBER PUSH22 0x7272656E742053746167653A20436F6D6D69740A5469 PUSH14 0x652052656D61696E696E67202873 PUSH6 0x63636F6E6473 0x29 GASPRICE KECCAK256 NUMBER PUSH22 0x7272656E742053746167653A20576974686472617720 MSTORE8 PUSH21 0x6167652C20796F752063616E207769746864726177 KECCAK256 PUSH26 0x6F757220455448206E6F770A43757272656E742053746167653A KECCAK256 CHAINID PUSH10 0x6E64696E672057696E6E PUSH6 0x720A54696D65 KECCAK256 MSTORE PUSH6 0x6D61696E696E PUSH8 0x2028736563636F6E PUSH5 0x73293A2043 PUSH22 0x7272656E742053746167653A2052657665616C0A5469 PUSH14 0x652052656D61696E696E67202873 PUSH6 0x63636F6E6473 0x29 GASPRICE KECCAK256 LOG2 PUSH5 0x6970667358 0x22 SLT KECCAK256 0x27 MUL PUSH12 0xFB5EA3063CE7E3A4EEA18FC0 ADD LT PUSH0 0xD5 0xEF 0x29 0xA7 0xCC SAR MUL JUMP PUSH9 0xAAC38B563E64736F6C PUSH4 0x43000818 STOP CALLER "
		},
		"gasEstimates": {
			"creation": {
				"codeDepositCost": "2103400",
				"executionCost": "infinite",
				"totalCost": "infinite"
			},
			"external": {
				"N()": "2469",
				"StartTime()": "2535",
				"T1()": "2447",
				"T2()": "2514",
				"T3()": "2493",
				"commitHashedChoice(bytes32)": "infinite",
				"currentN()": "2492",
				"currentStage()": "2470",
				"findWinner()": "infinite",
				"getCurrentStage()": "infinite",
				"getHash(bytes32)": "infinite",
				"getHashChoice(uint256,string)": "infinite",
				"getSaltedHash(bytes32,bytes32)": "infinite",
				"isOwner()": "2579",
				"owner()": "2538",
				"revealChoice(uint256,uint256,string)": "infinite",
				"withdraw(uint256)": "infinite"
			},
			"internal": {
				"_ownerClaimAllReward()": "infinite",
				"_resetGame()": "32148",
				"_rewardWinner(address,uint256)": "infinite"
			}
		},
		"methodIdentifiers": {
			"N()": "c9e525df",
			"StartTime()": "fc4a4a1e",
			"T1()": "a11efef4",
			"T2()": "84c9ad6e",
			"T3()": "31081d7e",
			"commitHashedChoice(bytes32)": "d57b65cb",
			"currentN()": "7c8673dc",
			"currentStage()": "5bf5d54c",
			"findWinner()": "8e71decb",
			"getCurrentStage()": "eedbe31d",
			"getHash(bytes32)": "3cf5040a",
			"getHashChoice(uint256,string)": "073d8ff3",
			"getSaltedHash(bytes32,bytes32)": "8dddbf36",
			"isOwner()": "8f32d59b",
			"owner()": "8da5cb5b",
			"revealChoice(uint256,uint256,string)": "5afa1fd8",
			"withdraw(uint256)": "2e1a7d4d"
		}
	},
	"abi": [
		{
			"inputs": [
				{
					"internalType": "uint256",
					"name": "_N",
					"type": "uint256"
				},
				{
					"internalType": "uint256",
					"name": "_T1",
					"type": "uint256"
				},
				{
					"internalType": "uint256",
					"name": "_T2",
					"type": "uint256"
				},
				{
					"internalType": "uint256",
					"name": "_T3",
					"type": "uint256"
				}
			],
			"stateMutability": "nonpayable",
			"type": "constructor"
		},
		{
			"anonymous": false,
			"inputs": [
				{
					"indexed": false,
					"internalType": "address",
					"name": "sender",
					"type": "address"
				},
				{
					"indexed": false,
					"internalType": "bytes32",
					"name": "dataHash",
					"type": "bytes32"
				},
				{
					"indexed": false,
					"internalType": "uint64",
					"name": "block",
					"type": "uint64"
				}
			],
			"name": "CommitHash",
			"type": "event"
		},
		{
			"anonymous": false,
			"inputs": [
				{
					"indexed": false,
					"internalType": "address",
					"name": "sender",
					"type": "address"
				},
				{
					"indexed": false,
					"internalType": "bytes32",
					"name": "answer",
					"type": "bytes32"
				},
				{
					"indexed": false,
					"internalType": "bytes32",
					"name": "salt",
					"type": "bytes32"
				}
			],
			"name": "RevealAnswer",
			"type": "event"
		},
		{
			"anonymous": false,
			"inputs": [
				{
					"indexed": false,
					"internalType": "address",
					"name": "sender",
					"type": "address"
				},
				{
					"indexed": false,
					"internalType": "bytes32",
					"name": "revealHash",
					"type": "bytes32"
				},
				{
					"indexed": false,
					"internalType": "uint256",
					"name": "random",
					"type": "uint256"
				}
			],
			"name": "RevealHash",
			"type": "event"
		},
		{
			"inputs": [],
			"name": "N",
			"outputs": [
				{
					"internalType": "uint256",
					"name": "",
					"type": "uint256"
				}
			],
			"stateMutability": "view",
			"type": "function"
		},
		{
			"inputs": [],
			"name": "StartTime",
			"outputs": [
				{
					"internalType": "uint256",
					"name": "",
					"type": "uint256"
				}
			],
			"stateMutability": "view",
			"type": "function"
		},
		{
			"inputs": [],
			"name": "T1",
			"outputs": [
				{
					"internalType": "uint256",
					"name": "",
					"type": "uint256"
				}
			],
			"stateMutability": "view",
			"type": "function"
		},
		{
			"inputs": [],
			"name": "T2",
			"outputs": [
				{
					"internalType": "uint256",
					"name": "",
					"type": "uint256"
				}
			],
			"stateMutability": "view",
			"type": "function"
		},
		{
			"inputs": [],
			"name": "T3",
			"outputs": [
				{
					"internalType": "uint256",
					"name": "",
					"type": "uint256"
				}
			],
			"stateMutability": "view",
			"type": "function"
		},
		{
			"inputs": [
				{
					"internalType": "bytes32",
					"name": "hashedChoice",
					"type": "bytes32"
				}
			],
			"name": "commitHashedChoice",
			"outputs": [
				{
					"internalType": "uint256",
					"name": "",
					"type": "uint256"
				}
			],
			"stateMutability": "payable",
			"type": "function"
		},
		{
			"inputs": [],
			"name": "currentN",
			"outputs": [
				{
					"internalType": "uint256",
					"name": "",
					"type": "uint256"
				}
			],
			"stateMutability": "view",
			"type": "function"
		},
		{
			"inputs": [],
			"name": "currentStage",
			"outputs": [
				{
					"internalType": "uint256",
					"name": "",
					"type": "uint256"
				}
			],
			"stateMutability": "view",
			"type": "function"
		},
		{
			"inputs": [],
			"name": "findWinner",
			"outputs": [],
			"stateMutability": "nonpayable",
			"type": "function"
		},
		{
			"inputs": [],
			"name": "getCurrentStage",
			"outputs": [
				{
					"internalType": "string",
					"name": "",
					"type": "string"
				},
				{
					"internalType": "uint256",
					"name": "",
					"type": "uint256"
				}
			],
			"stateMutability": "view",
			"type": "function"
		},
		{
			"inputs": [
				{
					"internalType": "bytes32",
					"name": "data",
					"type": "bytes32"
				}
			],
			"name": "getHash",
			"outputs": [
				{
					"internalType": "bytes32",
					"name": "",
					"type": "bytes32"
				}
			],
			"stateMutability": "view",
			"type": "function"
		},
		{
			"inputs": [
				{
					"internalType": "uint256",
					"name": "choice",
					"type": "uint256"
				},
				{
					"internalType": "string",
					"name": "salt",
					"type": "string"
				}
			],
			"name": "getHashChoice",
			"outputs": [
				{
					"internalType": "bytes32",
					"name": "",
					"type": "bytes32"
				}
			],
			"stateMutability": "pure",
			"type": "function"
		},
		{
			"inputs": [
				{
					"internalType": "bytes32",
					"name": "data",
					"type": "bytes32"
				},
				{
					"internalType": "bytes32",
					"name": "salt",
					"type": "bytes32"
				}
			],
			"name": "getSaltedHash",
			"outputs": [
				{
					"internalType": "bytes32",
					"name": "",
					"type": "bytes32"
				}
			],
			"stateMutability": "view",
			"type": "function"
		},
		{
			"inputs": [],
			"name": "isOwner",
			"outputs": [
				{
					"internalType": "bool",
					"name": "",
					"type": "bool"
				}
			],
			"stateMutability": "view",
			"type": "function"
		},
		{
			"inputs": [],
			"name": "owner",
			"outputs": [
				{
					"internalType": "address",
					"name": "",
					"type": "address"
				}
			],
			"stateMutability": "view",
			"type": "function"
		},
		{
			"inputs": [
				{
					"internalType": "uint256",
					"name": "_idx",
					"type": "uint256"
				},
				{
					"internalType": "uint256",
					"name": "_choice",
					"type": "uint256"
				},
				{
					"internalType": "string",
					"name": "_salt",
					"type": "string"
				}
			],
			"name": "revealChoice",
			"outputs": [],
			"stateMutability": "nonpayable",
			"type": "function"
		},
		{
			"inputs": [
				{
					"internalType": "uint256",
					"name": "idx",
					"type": "uint256"
				}
			],
			"name": "withdraw",
			"outputs": [],
			"stateMutability": "nonpayable",
			"type": "function"
		}
	]
}