{
	"data": {
		"bytecode": {
			"linkReferences": {},
			"object": "608060405260645f806101000a81548160ff021916908360ff1602179055505f6009553480156200002e575f80fd5b506040516200297a3803806200297a8339818101604052810190620000549190620000f6565b3360025f6101000a81548173ffffffffffffffffffffffffffffffffffffffff021916908373ffffffffffffffffffffffffffffffffffffffff160217905550836007819055508260048190555081600681905550806004819055505050505062000165565b5f80fd5b5f819050919050565b620000d281620000be565b8114620000dd575f80fd5b50565b5f81519050620000f081620000c7565b92915050565b5f805f8060808587031215620001115762000110620000ba565b5b5f6200012087828801620000e0565b94505060206200013387828801620000e0565b93505060406200014687828801620000e0565b92505060606200015987828801620000e0565b91505092959194509250565b61280780620001735f395ff3fe6080604052600436106100fd575f3560e01c80638da5cb5b11610094578063a11efef411610063578063a11efef414610317578063c9e525df14610341578063d57b65cb1461036b578063eedbe31d1461039b578063fc4a4a1e146103c6576100fd565b80638da5cb5b146102715780638dddbf361461029b5780638e71decb146102d75780638f32d59b146102ed576100fd565b80635afa1fd8116100d05780635afa1fd8146101cb5780635bf5d54c146101f35780637c8673dc1461021d57806384c9ad6e14610247576100fd565b8063073d8ff3146101015780632e1a7d4d1461013d57806331081d7e146101655780633cf5040a1461018f575b5f80fd5b34801561010c575f80fd5b5061012760048036038101906101229190611933565b6103f0565b60405161013491906119a5565b60405180910390f35b348015610148575f80fd5b50610163600480360381019061015e91906119be565b61044f565b005b348015610170575f80fd5b50610179610630565b60405161018691906119f8565b60405180910390f35b34801561019a575f80fd5b506101b560048036038101906101b09190611a3b565b610636565b6040516101c291906119a5565b60405180910390f35b3480156101d6575f80fd5b506101f160048036038101906101ec9190611a66565b610667565b005b3480156101fe575f80fd5b50610207610829565b60405161021491906119f8565b60405180910390f35b348015610228575f80fd5b5061023161082f565b60405161023e91906119f8565b60405180910390f35b348015610252575f80fd5b5061025b610835565b60405161026891906119f8565b60405180910390f35b34801561027c575f80fd5b5061028561083b565b6040516102929190611b11565b60405180910390f35b3480156102a6575f80fd5b506102c160048036038101906102bc9190611b2a565b610863565b6040516102ce91906119a5565b60405180910390f35b3480156102e2575f80fd5b506102eb610897565b005b3480156102f8575f80fd5b50610301610c17565b60405161030e9190611b82565b60405180910390f35b348015610322575f80fd5b5061032b610c6d565b60405161033891906119f8565b60405180910390f35b34801561034c575f80fd5b50610355610c73565b60405161036291906119f8565b60405180910390f35b61038560048036038101906103809190611a3b565b610c79565b60405161039291906119f8565b60405180910390f35b3480156103a6575f80fd5b506103af610e99565b6040516103bd929190611c15565b60405180910390f35b3480156103d1575f80fd5b506103da611066565b6040516103e791906119f8565b60405180910390f35b5f80826040516020016104039190611c7d565b60405160208183030381529060405261041b90611ccc565b90508381604051602001610430929190611d72565b6040516020818303038152906040528051906020012091505092915050565b6006546005546004546003546104659190611dca565b61046f9190611dca565b6104799190611dca565b42106104ba576040517f08c379a00000000000000000000000000000000000000000000000000000000081526004016104b190611e47565b60405180910390fd5b600a5f8281526020019081526020015f2060010160039054906101000a900473ffffffffffffffffffffffffffffffffffffffff1673ffffffffffffffffffffffffffffffffffffffff163373ffffffffffffffffffffffffffffffffffffffff161461055c576040517f08c379a000000000000000000000000000000000000000000000000000000000815260040161055390611eaf565b60405180910390fd5b5f1515600a5f8381526020019081526020015f2060010160029054906101000a900460ff1615151461058c575f80fd5b6001600a5f8381526020019081526020015f2060010160026101000a81548160ff0219169083151502179055503373ffffffffffffffffffffffffffffffffffffffff166108fc66038d7ea4c6800090811502906040515f60405180830381858888f19350505050158015610603573d5f803e3d5ffd5b5060085f81548092919061061690611ecd565b91905055505f6008540361062d5761062c61106c565b5b50565b60065481565b5f308260405160200161064a929190611f39565b604051602081830303815290604052805190602001209050919050565b426004546003546106789190611dca565b1080156106a057506005546004546003546106939190611dca565b61069d9190611dca565b42105b6106df576040517f08c379a00000000000000000000000000000000000000000000000000000000081526004016106d690611fae565b60405180910390fd5b600a5f8481526020019081526020015f2060010160039054906101000a900473ffffffffffffffffffffffffffffffffffffffff1673ffffffffffffffffffffffffffffffffffffffff163373ffffffffffffffffffffffffffffffffffffffff1614610781576040517f08c379a000000000000000000000000000000000000000000000000000000000815260040161077890611eaf565b60405180910390fd5b5f816040516020016107939190611c7d565b6040516020818303038152906040526107ab90611ccc565b90506107de83826040516020016107c3929190611d72565b60405160208183030381529060405280519060200120611083565b82600a5f8681526020019081526020015f205f01819055506001600a5f8681526020019081526020015f2060010160016101000a81548160ff02191690831515021790555050505050565b60095481565b60085481565b60055481565b5f60025f9054906101000a900473ffffffffffffffffffffffffffffffffffffffff16905090565b5f30838360405160200161087993929190611fcc565b60405160208183030381529060405280519060200120905092915050565b61089f610c17565b6108de576040517f08c379a00000000000000000000000000000000000000000000000000000000081526004016108d590612078565b60405180910390fd5b426005546004546003546108f29190611dca565b6108fc9190611dca565b108015610931575060065460055460045460035461091a9190611dca565b6109249190611dca565b61092e9190611dca565b42105b610939575f80fd5b5f60085467ffffffffffffffff8111156109565761095561180f565b5b60405190808252806020026020018201604052801561098f57816020015b61097c61176d565b8152602001906001900390816109745790505b5090505f805f90505b600854811015610b3b57600a5f8281526020019081526020015f2060010160019054906101000a900460ff1680156109e35750600a5f8281526020019081526020015f205f01545f11155b8015610a0457506103e7600a5f8381526020019081526020015f205f015411155b15610b2e57600a5f8281526020019081526020015f205f0154838381518110610a3057610a2f612096565b5b60200260200101515f018181525050600a5f8281526020019081526020015f206001015f9054906101000a900460ff16838381518110610a7357610a72612096565b5b60200260200101516020019015159081151581525050600a5f8281526020019081526020015f2060010160019054906101000a900460ff16838381518110610abe57610abd612096565b5b60200260200101516040019015159081151581525050600a5f8281526020019081526020015f2060010160029054906101000a900460ff16838381518110610b0957610b08612096565b5b602002602001015160600190151590811515815250508180610b2a906120c3565b9250505b8080600101915050610998565b505f8103610b4c57610b4b611441565b5b5f825f81518110610b6057610b5f612096565b5b60200260200101515f015190505f600190505b82811015610baa57838181518110610b8e57610b8d612096565b5b60200260200101515f0151821891508080600101915050610b73565b505f8282604051602001610bbe919061210a565b604051602081830303815290604052805190602001205f1c610be09190612151565b9050610c09848281518110610bf857610bf7612096565b5b6020026020010151608001516114a7565b610c1161106c565b50505050565b5f60025f9054906101000a900473ffffffffffffffffffffffffffffffffffffffff1673ffffffffffffffffffffffffffffffffffffffff163373ffffffffffffffffffffffffffffffffffffffff1614905090565b60045481565b60075481565b5f66038d7ea4c680003414610cc3576040517f08c379a0000000000000000000000000000000000000000000000000000000008152600401610cba906121f1565b60405180910390fd5b60075460085410610d09576040517f08c379a0000000000000000000000000000000000000000000000000000000008152600401610d009061227f565b60405180910390fd5b5f60095403610d22576001600981905550426003819055505b600454600354610d329190611dca565b4210610d73576040517f08c379a0000000000000000000000000000000000000000000000000000000008152600401610d6a906122e7565b60405180910390fd5b5f6008549050610d8a610d8584610636565b61159b565b5f600a5f8381526020019081526020015f205f01819055506001600a5f8381526020019081526020015f206001015f6101000a81548160ff0219169083151502179055505f600a5f8381526020019081526020015f2060010160016101000a81548160ff0219169083151502179055505f600a5f8381526020019081526020015f2060010160026101000a81548160ff02191690831515021790555033600a5f8381526020019081526020015f2060010160036101000a81548173ffffffffffffffffffffffffffffffffffffffff021916908373ffffffffffffffffffffffffffffffffffffffff16021790555060085f815480929190610e8b906120c3565b919050555080915050919050565b60605f8060095403610ee6575f6040518060400160405280600481526020017f49646c65000000000000000000000000000000000000000000000000000000008152509091509150611062565b60016009540361106157600454600354610f009190611dca565b421015610f455742600454600354610f189190611dca565b610f229190612305565b6040518060600160405280603181526020016126fa603191399091509150611062565b600554600454600354610f589190611dca565b610f629190611dca565b421015610fb45742600554600454600354610f7d9190611dca565b610f879190611dca565b610f919190612305565b6040518060600160405280603181526020016127a1603191399091509150611062565b600654600554600454600354610fca9190611dca565b610fd49190611dca565b610fde9190611dca565b42101561103d5742600654600554600454600354610ffc9190611dca565b6110069190611dca565b6110109190611dca565b61101a9190612305565b604051806060016040528060398152602001612768603991399091509150611062565b5f6040518060600160405280603d815260200161272b603d91399091509150611062565b5b9091565b60035481565b5f6009819055505f60088190555042600381905550565b5f151560015f3373ffffffffffffffffffffffffffffffffffffffff1673ffffffffffffffffffffffffffffffffffffffff1681526020019081526020015f2060010160089054906101000a900460ff16151514611116576040517f08c379a000000000000000000000000000000000000000000000000000000000815260040161110d906123a8565b60405180910390fd5b6001805f3373ffffffffffffffffffffffffffffffffffffffff1673ffffffffffffffffffffffffffffffffffffffff1681526020019081526020015f2060010160086101000a81548160ff02191690831515021790555060015f3373ffffffffffffffffffffffffffffffffffffffff1673ffffffffffffffffffffffffffffffffffffffff1681526020019081526020015f205f01546111b782610636565b146111f7576040517f08c379a00000000000000000000000000000000000000000000000000000000081526004016111ee90612436565b60405180910390fd5b60015f3373ffffffffffffffffffffffffffffffffffffffff1673ffffffffffffffffffffffffffffffffffffffff1681526020019081526020015f206001015f9054906101000a900467ffffffffffffffff1667ffffffffffffffff164367ffffffffffffffff16116112a0576040517f08c379a0000000000000000000000000000000000000000000000000000000008152600401611297906124ea565b60405180910390fd5b60fa60015f3373ffffffffffffffffffffffffffffffffffffffff1673ffffffffffffffffffffffffffffffffffffffff1681526020019081526020015f206001015f9054906101000a900467ffffffffffffffff16611300919061251b565b67ffffffffffffffff164367ffffffffffffffff161115611356576040517f08c379a000000000000000000000000000000000000000000000000000000000815260040161134d906125c6565b60405180910390fd5b5f60015f3373ffffffffffffffffffffffffffffffffffffffff1673ffffffffffffffffffffffffffffffffffffffff1681526020019081526020015f206001015f9054906101000a900467ffffffffffffffff1667ffffffffffffffff164090505f805f9054906101000a900460ff1660ff1682846040516020016113dd9291906125e4565b604051602081830303815290604052805190602001205f1c6113ff9190612151565b90507fbc016dd1cadeaefcb851af7a0a93532e0023d536894b730801f7bcfe7065bcc23384836040516114349392919061260f565b60405180910390a1505050565b5f60085466038d7ea4c680006114579190612644565b905061146161083b565b73ffffffffffffffffffffffffffffffffffffffff166108fc8290811502906040515f60405180830381858888f193505050501580156114a3573d5f803e3d5ffd5b5050565b5f6064606260085466038d7ea4c680006114c19190612644565b6114cb9190612644565b6114d59190612685565b90505f6064600260085466038d7ea4c680006114f19190612644565b6114fb9190612644565b6115059190612685565b90508273ffffffffffffffffffffffffffffffffffffffff166108fc8390811502906040515f60405180830381858888f1935050505015801561154a573d5f803e3d5ffd5b5061155361083b565b73ffffffffffffffffffffffffffffffffffffffff166108fc8290811502906040515f60405180830381858888f19350505050158015611595573d5f803e3d5ffd5b50505050565b8060015f3373ffffffffffffffffffffffffffffffffffffffff1673ffffffffffffffffffffffffffffffffffffffff1681526020019081526020015f205f01819055504360015f3373ffffffffffffffffffffffffffffffffffffffff1673ffffffffffffffffffffffffffffffffffffffff1681526020019081526020015f206001015f6101000a81548167ffffffffffffffff021916908367ffffffffffffffff1602179055505f60015f3373ffffffffffffffffffffffffffffffffffffffff1673ffffffffffffffffffffffffffffffffffffffff1681526020019081526020015f2060010160086101000a81548160ff0219169083151502179055507f3c1a1f8f38335b17f751c6da4ba7d1865f26b3997535176f5080de9fad8916033360015f3373ffffffffffffffffffffffffffffffffffffffff1673ffffffffffffffffffffffffffffffffffffffff1681526020019081526020015f205f015460015f3373ffffffffffffffffffffffffffffffffffffffff1673ffffffffffffffffffffffffffffffffffffffff1681526020019081526020015f206001015f9054906101000a900467ffffffffffffffff16604051611762939291906126c4565b60405180910390a150565b6040518060a001604052805f81526020015f151581526020015f151581526020015f151581526020015f73ffffffffffffffffffffffffffffffffffffffff1681525090565b5f604051905090565b5f80fd5b5f80fd5b5f819050919050565b6117d6816117c4565b81146117e0575f80fd5b50565b5f813590506117f1816117cd565b92915050565b5f80fd5b5f80fd5b5f601f19601f8301169050919050565b7f4e487b71000000000000000000000000000000000000000000000000000000005f52604160045260245ffd5b611845826117ff565b810181811067ffffffffffffffff821117156118645761186361180f565b5b80604052505050565b5f6118766117b3565b9050611882828261183c565b919050565b5f67ffffffffffffffff8211156118a1576118a061180f565b5b6118aa826117ff565b9050602081019050919050565b828183375f83830152505050565b5f6118d76118d284611887565b61186d565b9050828152602081018484840111156118f3576118f26117fb565b5b6118fe8482856118b7565b509392505050565b5f82601f83011261191a576119196117f7565b5b813561192a8482602086016118c5565b91505092915050565b5f8060408385031215611949576119486117bc565b5b5f611956858286016117e3565b925050602083013567ffffffffffffffff811115611977576119766117c0565b5b61198385828601611906565b9150509250929050565b5f819050919050565b61199f8161198d565b82525050565b5f6020820190506119b85f830184611996565b92915050565b5f602082840312156119d3576119d26117bc565b5b5f6119e0848285016117e3565b91505092915050565b6119f2816117c4565b82525050565b5f602082019050611a0b5f8301846119e9565b92915050565b611a1a8161198d565b8114611a24575f80fd5b50565b5f81359050611a3581611a11565b92915050565b5f60208284031215611a5057611a4f6117bc565b5b5f611a5d84828501611a27565b91505092915050565b5f805f60608486031215611a7d57611a7c6117bc565b5b5f611a8a868287016117e3565b9350506020611a9b868287016117e3565b925050604084013567ffffffffffffffff811115611abc57611abb6117c0565b5b611ac886828701611906565b9150509250925092565b5f73ffffffffffffffffffffffffffffffffffffffff82169050919050565b5f611afb82611ad2565b9050919050565b611b0b81611af1565b82525050565b5f602082019050611b245f830184611b02565b92915050565b5f8060408385031215611b4057611b3f6117bc565b5b5f611b4d85828601611a27565b9250506020611b5e85828601611a27565b9150509250929050565b5f8115159050919050565b611b7c81611b68565b82525050565b5f602082019050611b955f830184611b73565b92915050565b5f81519050919050565b5f82825260208201905092915050565b5f5b83811015611bd2578082015181840152602081019050611bb7565b5f8484015250505050565b5f611be782611b9b565b611bf18185611ba5565b9350611c01818560208601611bb5565b611c0a816117ff565b840191505092915050565b5f6040820190508181035f830152611c2d8185611bdd565b9050611c3c60208301846119e9565b9392505050565b5f81905092915050565b5f611c5782611b9b565b611c618185611c43565b9350611c71818560208601611bb5565b80840191505092915050565b5f611c888284611c4d565b915081905092915050565b5f81519050919050565b5f819050602082019050919050565b5f611cb7825161198d565b80915050919050565b5f82821b905092915050565b5f611cd682611c93565b82611ce084611c9d565b9050611ceb81611cac565b92506020821015611d2b57611d267fffffffffffffffffffffffffffffffffffffffffffffffffffffffffffffffff83602003600802611cc0565b831692505b5050919050565b5f819050919050565b611d4c611d47826117c4565b611d32565b82525050565b5f819050919050565b611d6c611d678261198d565b611d52565b82525050565b5f611d7d8285611d3b565b602082019150611d8d8284611d5b565b6020820191508190509392505050565b7f4e487b71000000000000000000000000000000000000000000000000000000005f52601160045260245ffd5b5f611dd4826117c4565b9150611ddf836117c4565b9250828201905080821115611df757611df6611d9d565b5b92915050565b7f4f7574206f6620776974686472617720706572696f64000000000000000000005f82015250565b5f611e31601683611ba5565b9150611e3c82611dfd565b602082019050919050565b5f6020820190508181035f830152611e5e81611e25565b9050919050565b7f57726f6e6720496e6465780000000000000000000000000000000000000000005f82015250565b5f611e99600b83611ba5565b9150611ea482611e65565b602082019050919050565b5f6020820190508181035f830152611ec681611e8d565b9050919050565b5f611ed7826117c4565b91505f8203611ee957611ee8611d9d565b5b600182039050919050565b5f8160601b9050919050565b5f611f0a82611ef4565b9050919050565b5f611f1b82611f00565b9050919050565b611f33611f2e82611af1565b611f11565b82525050565b5f611f448285611f22565b601482019150611f548284611d5b565b6020820191508190509392505050565b7f4f7574206f662052657665616c20537461676520706572696f640000000000005f82015250565b5f611f98601a83611ba5565b9150611fa382611f64565b602082019050919050565b5f6020820190508181035f830152611fc581611f8c565b9050919050565b5f611fd78286611f22565b601482019150611fe78285611d5b565b602082019150611ff78284611d5b565b602082019150819050949350505050565b7f4f6e6c79206f776e65722063616e2063616c6c20746869732066756e6374696f5f8201527f6e00000000000000000000000000000000000000000000000000000000000000602082015250565b5f612062602183611ba5565b915061206d82612008565b604082019050919050565b5f6020820190508181035f83015261208f81612056565b9050919050565b7f4e487b71000000000000000000000000000000000000000000000000000000005f52603260045260245ffd5b5f6120cd826117c4565b91507fffffffffffffffffffffffffffffffffffffffffffffffffffffffffffffffff82036120ff576120fe611d9d565b5b600182019050919050565b5f6121158284611d3b565b60208201915081905092915050565b7f4e487b71000000000000000000000000000000000000000000000000000000005f52601260045260245ffd5b5f61215b826117c4565b9150612166836117c4565b92508261217657612175612124565b5b828206905092915050565b7f5265717569726520302e3030312045544820666f72204c6f74746572792066655f8201527f6500000000000000000000000000000000000000000000000000000000000000602082015250565b5f6121db602183611ba5565b91506121e682612181565b604082019050919050565b5f6020820190508181035f830152612208816121cf565b9050919050565b7f546865206e756d626572206f6620706c617965727320697320636f6d706c65745f8201527f6500000000000000000000000000000000000000000000000000000000000000602082015250565b5f612269602183611ba5565b91506122748261220f565b604082019050919050565b5f6020820190508181035f8301526122968161225d565b9050919050565b7f436f6d6d697420537461676520686173206578706972656400000000000000005f82015250565b5f6122d1601883611ba5565b91506122dc8261229d565b602082019050919050565b5f6020820190508181035f8301526122fe816122c5565b9050919050565b5f61230f826117c4565b915061231a836117c4565b925082820390508181111561233257612331611d9d565b5b92915050565b7f436f6d6d697452657665616c3a3a72657665616c3a20416c72656164792072655f8201527f7665616c65640000000000000000000000000000000000000000000000000000602082015250565b5f612392602683611ba5565b915061239d82612338565b604082019050919050565b5f6020820190508181035f8301526123bf81612386565b9050919050565b7f436f6d6d697452657665616c3a3a72657665616c3a2052657665616c656420685f8201527f61736820646f6573206e6f74206d6174636820636f6d6d697400000000000000602082015250565b5f612420603983611ba5565b915061242b826123c6565b604082019050919050565b5f6020820190508181035f83015261244d81612414565b9050919050565b7f436f6d6d697452657665616c3a3a72657665616c3a2052657665616c20616e645f8201527f20636f6d6d69742068617070656e6564206f6e207468652073616d6520626c6f60208201527f636b000000000000000000000000000000000000000000000000000000000000604082015250565b5f6124d4604283611ba5565b91506124df82612454565b606082019050919050565b5f6020820190508181035f830152612501816124c8565b9050919050565b5f67ffffffffffffffff82169050919050565b5f61252582612508565b915061253083612508565b9250828201905067ffffffffffffffff8111156125505761254f611d9d565b5b92915050565b7f436f6d6d697452657665616c3a3a72657665616c3a2052657665616c656420745f8201527f6f6f206c61746500000000000000000000000000000000000000000000000000602082015250565b5f6125b0602783611ba5565b91506125bb82612556565b604082019050919050565b5f6020820190508181035f8301526125dd816125a4565b9050919050565b5f6125ef8285611d5b565b6020820191506125ff8284611d5b565b6020820191508190509392505050565b5f6060820190506126225f830186611b02565b61262f6020830185611996565b61263c60408301846119e9565b949350505050565b5f61264e826117c4565b9150612659836117c4565b9250828202612667816117c4565b9150828204841483151761267e5761267d611d9d565b5b5092915050565b5f61268f826117c4565b915061269a836117c4565b9250826126aa576126a9612124565b5b828204905092915050565b6126be81612508565b82525050565b5f6060820190506126d75f830186611b02565b6126e46020830185611996565b6126f160408301846126b5565b94935050505056fe43757272656e742053746167653a20436f6d6d69740a54696d652052656d61696e696e672028736563636f6e6473293a2043757272656e742053746167653a2057697468647261772053746167652c20796f752063616e20776974686472617720796f757220455448206e6f770a43757272656e742053746167653a2046696e64696e672057696e6e65720a54696d652052656d61696e696e672028736563636f6e6473293a2043757272656e742053746167653a2052657665616c0a54696d652052656d61696e696e672028736563636f6e6473293a20a2646970667358221220a390a9d9d20dc191fce12ce59a42868d76aea3f9c37bc77bf987711257352a9564736f6c63430008180033",
			"opcodes": "PUSH1 0x80 PUSH1 0x40 MSTORE PUSH1 0x64 PUSH0 DUP1 PUSH2 0x100 EXP DUP2 SLOAD DUP2 PUSH1 0xFF MUL NOT AND SWAP1 DUP4 PUSH1 0xFF AND MUL OR SWAP1 SSTORE POP PUSH0 PUSH1 0x9 SSTORE CALLVALUE DUP1 ISZERO PUSH3 0x2E JUMPI PUSH0 DUP1 REVERT JUMPDEST POP PUSH1 0x40 MLOAD PUSH3 0x297A CODESIZE SUB DUP1 PUSH3 0x297A DUP4 CODECOPY DUP2 DUP2 ADD PUSH1 0x40 MSTORE DUP2 ADD SWAP1 PUSH3 0x54 SWAP2 SWAP1 PUSH3 0xF6 JUMP JUMPDEST CALLER PUSH1 0x2 PUSH0 PUSH2 0x100 EXP DUP2 SLOAD DUP2 PUSH20 0xFFFFFFFFFFFFFFFFFFFFFFFFFFFFFFFFFFFFFFFF MUL NOT AND SWAP1 DUP4 PUSH20 0xFFFFFFFFFFFFFFFFFFFFFFFFFFFFFFFFFFFFFFFF AND MUL OR SWAP1 SSTORE POP DUP4 PUSH1 0x7 DUP2 SWAP1 SSTORE POP DUP3 PUSH1 0x4 DUP2 SWAP1 SSTORE POP DUP2 PUSH1 0x6 DUP2 SWAP1 SSTORE POP DUP1 PUSH1 0x4 DUP2 SWAP1 SSTORE POP POP POP POP POP PUSH3 0x165 JUMP JUMPDEST PUSH0 DUP1 REVERT JUMPDEST PUSH0 DUP2 SWAP1 POP SWAP2 SWAP1 POP JUMP JUMPDEST PUSH3 0xD2 DUP2 PUSH3 0xBE JUMP JUMPDEST DUP2 EQ PUSH3 0xDD JUMPI PUSH0 DUP1 REVERT JUMPDEST POP JUMP JUMPDEST PUSH0 DUP2 MLOAD SWAP1 POP PUSH3 0xF0 DUP2 PUSH3 0xC7 JUMP JUMPDEST SWAP3 SWAP2 POP POP JUMP JUMPDEST PUSH0 DUP1 PUSH0 DUP1 PUSH1 0x80 DUP6 DUP8 SUB SLT ISZERO PUSH3 0x111 JUMPI PUSH3 0x110 PUSH3 0xBA JUMP JUMPDEST JUMPDEST PUSH0 PUSH3 0x120 DUP8 DUP3 DUP9 ADD PUSH3 0xE0 JUMP JUMPDEST SWAP5 POP POP PUSH1 0x20 PUSH3 0x133 DUP8 DUP3 DUP9 ADD PUSH3 0xE0 JUMP JUMPDEST SWAP4 POP POP PUSH1 0x40 PUSH3 0x146 DUP8 DUP3 DUP9 ADD PUSH3 0xE0 JUMP JUMPDEST SWAP3 POP POP PUSH1 0x60 PUSH3 0x159 DUP8 DUP3 DUP9 ADD PUSH3 0xE0 JUMP JUMPDEST SWAP2 POP POP SWAP3 SWAP6 SWAP2 SWAP5 POP SWAP3 POP JUMP JUMPDEST PUSH2 0x2807 DUP1 PUSH3 0x173 PUSH0 CODECOPY PUSH0 RETURN INVALID PUSH1 0x80 PUSH1 0x40 MSTORE PUSH1 0x4 CALLDATASIZE LT PUSH2 0xFD JUMPI PUSH0 CALLDATALOAD PUSH1 0xE0 SHR DUP1 PUSH4 0x8DA5CB5B GT PUSH2 0x94 JUMPI DUP1 PUSH4 0xA11EFEF4 GT PUSH2 0x63 JUMPI DUP1 PUSH4 0xA11EFEF4 EQ PUSH2 0x317 JUMPI DUP1 PUSH4 0xC9E525DF EQ PUSH2 0x341 JUMPI DUP1 PUSH4 0xD57B65CB EQ PUSH2 0x36B JUMPI DUP1 PUSH4 0xEEDBE31D EQ PUSH2 0x39B JUMPI DUP1 PUSH4 0xFC4A4A1E EQ PUSH2 0x3C6 JUMPI PUSH2 0xFD JUMP JUMPDEST DUP1 PUSH4 0x8DA5CB5B EQ PUSH2 0x271 JUMPI DUP1 PUSH4 0x8DDDBF36 EQ PUSH2 0x29B JUMPI DUP1 PUSH4 0x8E71DECB EQ PUSH2 0x2D7 JUMPI DUP1 PUSH4 0x8F32D59B EQ PUSH2 0x2ED JUMPI PUSH2 0xFD JUMP JUMPDEST DUP1 PUSH4 0x5AFA1FD8 GT PUSH2 0xD0 JUMPI DUP1 PUSH4 0x5AFA1FD8 EQ PUSH2 0x1CB JUMPI DUP1 PUSH4 0x5BF5D54C EQ PUSH2 0x1F3 JUMPI DUP1 PUSH4 0x7C8673DC EQ PUSH2 0x21D JUMPI DUP1 PUSH4 0x84C9AD6E EQ PUSH2 0x247 JUMPI PUSH2 0xFD JUMP JUMPDEST DUP1 PUSH4 0x73D8FF3 EQ PUSH2 0x101 JUMPI DUP1 PUSH4 0x2E1A7D4D EQ PUSH2 0x13D JUMPI DUP1 PUSH4 0x31081D7E EQ PUSH2 0x165 JUMPI DUP1 PUSH4 0x3CF5040A EQ PUSH2 0x18F JUMPI JUMPDEST PUSH0 DUP1 REVERT JUMPDEST CALLVALUE DUP1 ISZERO PUSH2 0x10C JUMPI PUSH0 DUP1 REVERT JUMPDEST POP PUSH2 0x127 PUSH1 0x4 DUP1 CALLDATASIZE SUB DUP2 ADD SWAP1 PUSH2 0x122 SWAP2 SWAP1 PUSH2 0x1933 JUMP JUMPDEST PUSH2 0x3F0 JUMP JUMPDEST PUSH1 0x40 MLOAD PUSH2 0x134 SWAP2 SWAP1 PUSH2 0x19A5 JUMP JUMPDEST PUSH1 0x40 MLOAD DUP1 SWAP2 SUB SWAP1 RETURN JUMPDEST CALLVALUE DUP1 ISZERO PUSH2 0x148 JUMPI PUSH0 DUP1 REVERT JUMPDEST POP PUSH2 0x163 PUSH1 0x4 DUP1 CALLDATASIZE SUB DUP2 ADD SWAP1 PUSH2 0x15E SWAP2 SWAP1 PUSH2 0x19BE JUMP JUMPDEST PUSH2 0x44F JUMP JUMPDEST STOP JUMPDEST CALLVALUE DUP1 ISZERO PUSH2 0x170 JUMPI PUSH0 DUP1 REVERT JUMPDEST POP PUSH2 0x179 PUSH2 0x630 JUMP JUMPDEST PUSH1 0x40 MLOAD PUSH2 0x186 SWAP2 SWAP1 PUSH2 0x19F8 JUMP JUMPDEST PUSH1 0x40 MLOAD DUP1 SWAP2 SUB SWAP1 RETURN JUMPDEST CALLVALUE DUP1 ISZERO PUSH2 0x19A JUMPI PUSH0 DUP1 REVERT JUMPDEST POP PUSH2 0x1B5 PUSH1 0x4 DUP1 CALLDATASIZE SUB DUP2 ADD SWAP1 PUSH2 0x1B0 SWAP2 SWAP1 PUSH2 0x1A3B JUMP JUMPDEST PUSH2 0x636 JUMP JUMPDEST PUSH1 0x40 MLOAD PUSH2 0x1C2 SWAP2 SWAP1 PUSH2 0x19A5 JUMP JUMPDEST PUSH1 0x40 MLOAD DUP1 SWAP2 SUB SWAP1 RETURN JUMPDEST CALLVALUE DUP1 ISZERO PUSH2 0x1D6 JUMPI PUSH0 DUP1 REVERT JUMPDEST POP PUSH2 0x1F1 PUSH1 0x4 DUP1 CALLDATASIZE SUB DUP2 ADD SWAP1 PUSH2 0x1EC SWAP2 SWAP1 PUSH2 0x1A66 JUMP JUMPDEST PUSH2 0x667 JUMP JUMPDEST STOP JUMPDEST CALLVALUE DUP1 ISZERO PUSH2 0x1FE JUMPI PUSH0 DUP1 REVERT JUMPDEST POP PUSH2 0x207 PUSH2 0x829 JUMP JUMPDEST PUSH1 0x40 MLOAD PUSH2 0x214 SWAP2 SWAP1 PUSH2 0x19F8 JUMP JUMPDEST PUSH1 0x40 MLOAD DUP1 SWAP2 SUB SWAP1 RETURN JUMPDEST CALLVALUE DUP1 ISZERO PUSH2 0x228 JUMPI PUSH0 DUP1 REVERT JUMPDEST POP PUSH2 0x231 PUSH2 0x82F JUMP JUMPDEST PUSH1 0x40 MLOAD PUSH2 0x23E SWAP2 SWAP1 PUSH2 0x19F8 JUMP JUMPDEST PUSH1 0x40 MLOAD DUP1 SWAP2 SUB SWAP1 RETURN JUMPDEST CALLVALUE DUP1 ISZERO PUSH2 0x252 JUMPI PUSH0 DUP1 REVERT JUMPDEST POP PUSH2 0x25B PUSH2 0x835 JUMP JUMPDEST PUSH1 0x40 MLOAD PUSH2 0x268 SWAP2 SWAP1 PUSH2 0x19F8 JUMP JUMPDEST PUSH1 0x40 MLOAD DUP1 SWAP2 SUB SWAP1 RETURN JUMPDEST CALLVALUE DUP1 ISZERO PUSH2 0x27C JUMPI PUSH0 DUP1 REVERT JUMPDEST POP PUSH2 0x285 PUSH2 0x83B JUMP JUMPDEST PUSH1 0x40 MLOAD PUSH2 0x292 SWAP2 SWAP1 PUSH2 0x1B11 JUMP JUMPDEST PUSH1 0x40 MLOAD DUP1 SWAP2 SUB SWAP1 RETURN JUMPDEST CALLVALUE DUP1 ISZERO PUSH2 0x2A6 JUMPI PUSH0 DUP1 REVERT JUMPDEST POP PUSH2 0x2C1 PUSH1 0x4 DUP1 CALLDATASIZE SUB DUP2 ADD SWAP1 PUSH2 0x2BC SWAP2 SWAP1 PUSH2 0x1B2A JUMP JUMPDEST PUSH2 0x863 JUMP JUMPDEST PUSH1 0x40 MLOAD PUSH2 0x2CE SWAP2 SWAP1 PUSH2 0x19A5 JUMP JUMPDEST PUSH1 0x40 MLOAD DUP1 SWAP2 SUB SWAP1 RETURN JUMPDEST CALLVALUE DUP1 ISZERO PUSH2 0x2E2 JUMPI PUSH0 DUP1 REVERT JUMPDEST POP PUSH2 0x2EB PUSH2 0x897 JUMP JUMPDEST STOP JUMPDEST CALLVALUE DUP1 ISZERO PUSH2 0x2F8 JUMPI PUSH0 DUP1 REVERT JUMPDEST POP PUSH2 0x301 PUSH2 0xC17 JUMP JUMPDEST PUSH1 0x40 MLOAD PUSH2 0x30E SWAP2 SWAP1 PUSH2 0x1B82 JUMP JUMPDEST PUSH1 0x40 MLOAD DUP1 SWAP2 SUB SWAP1 RETURN JUMPDEST CALLVALUE DUP1 ISZERO PUSH2 0x322 JUMPI PUSH0 DUP1 REVERT JUMPDEST POP PUSH2 0x32B PUSH2 0xC6D JUMP JUMPDEST PUSH1 0x40 MLOAD PUSH2 0x338 SWAP2 SWAP1 PUSH2 0x19F8 JUMP JUMPDEST PUSH1 0x40 MLOAD DUP1 SWAP2 SUB SWAP1 RETURN JUMPDEST CALLVALUE DUP1 ISZERO PUSH2 0x34C JUMPI PUSH0 DUP1 REVERT JUMPDEST POP PUSH2 0x355 PUSH2 0xC73 JUMP JUMPDEST PUSH1 0x40 MLOAD PUSH2 0x362 SWAP2 SWAP1 PUSH2 0x19F8 JUMP JUMPDEST PUSH1 0x40 MLOAD DUP1 SWAP2 SUB SWAP1 RETURN JUMPDEST PUSH2 0x385 PUSH1 0x4 DUP1 CALLDATASIZE SUB DUP2 ADD SWAP1 PUSH2 0x380 SWAP2 SWAP1 PUSH2 0x1A3B JUMP JUMPDEST PUSH2 0xC79 JUMP JUMPDEST PUSH1 0x40 MLOAD PUSH2 0x392 SWAP2 SWAP1 PUSH2 0x19F8 JUMP JUMPDEST PUSH1 0x40 MLOAD DUP1 SWAP2 SUB SWAP1 RETURN JUMPDEST CALLVALUE DUP1 ISZERO PUSH2 0x3A6 JUMPI PUSH0 DUP1 REVERT JUMPDEST POP PUSH2 0x3AF PUSH2 0xE99 JUMP JUMPDEST PUSH1 0x40 MLOAD PUSH2 0x3BD SWAP3 SWAP2 SWAP1 PUSH2 0x1C15 JUMP JUMPDEST PUSH1 0x40 MLOAD DUP1 SWAP2 SUB SWAP1 RETURN JUMPDEST CALLVALUE DUP1 ISZERO PUSH2 0x3D1 JUMPI PUSH0 DUP1 REVERT JUMPDEST POP PUSH2 0x3DA PUSH2 0x1066 JUMP JUMPDEST PUSH1 0x40 MLOAD PUSH2 0x3E7 SWAP2 SWAP1 PUSH2 0x19F8 JUMP JUMPDEST PUSH1 0x40 MLOAD DUP1 SWAP2 SUB SWAP1 RETURN JUMPDEST PUSH0 DUP1 DUP3 PUSH1 0x40 MLOAD PUSH1 0x20 ADD PUSH2 0x403 SWAP2 SWAP1 PUSH2 0x1C7D JUMP JUMPDEST PUSH1 0x40 MLOAD PUSH1 0x20 DUP2 DUP4 SUB SUB DUP2 MSTORE SWAP1 PUSH1 0x40 MSTORE PUSH2 0x41B SWAP1 PUSH2 0x1CCC JUMP JUMPDEST SWAP1 POP DUP4 DUP2 PUSH1 0x40 MLOAD PUSH1 0x20 ADD PUSH2 0x430 SWAP3 SWAP2 SWAP1 PUSH2 0x1D72 JUMP JUMPDEST PUSH1 0x40 MLOAD PUSH1 0x20 DUP2 DUP4 SUB SUB DUP2 MSTORE SWAP1 PUSH1 0x40 MSTORE DUP1 MLOAD SWAP1 PUSH1 0x20 ADD KECCAK256 SWAP2 POP POP SWAP3 SWAP2 POP POP JUMP JUMPDEST PUSH1 0x6 SLOAD PUSH1 0x5 SLOAD PUSH1 0x4 SLOAD PUSH1 0x3 SLOAD PUSH2 0x465 SWAP2 SWAP1 PUSH2 0x1DCA JUMP JUMPDEST PUSH2 0x46F SWAP2 SWAP1 PUSH2 0x1DCA JUMP JUMPDEST PUSH2 0x479 SWAP2 SWAP1 PUSH2 0x1DCA JUMP JUMPDEST TIMESTAMP LT PUSH2 0x4BA JUMPI PUSH1 0x40 MLOAD PUSH32 0x8C379A000000000000000000000000000000000000000000000000000000000 DUP2 MSTORE PUSH1 0x4 ADD PUSH2 0x4B1 SWAP1 PUSH2 0x1E47 JUMP JUMPDEST PUSH1 0x40 MLOAD DUP1 SWAP2 SUB SWAP1 REVERT JUMPDEST PUSH1 0xA PUSH0 DUP3 DUP2 MSTORE PUSH1 0x20 ADD SWAP1 DUP2 MSTORE PUSH1 0x20 ADD PUSH0 KECCAK256 PUSH1 0x1 ADD PUSH1 0x3 SWAP1 SLOAD SWAP1 PUSH2 0x100 EXP SWAP1 DIV PUSH20 0xFFFFFFFFFFFFFFFFFFFFFFFFFFFFFFFFFFFFFFFF AND PUSH20 0xFFFFFFFFFFFFFFFFFFFFFFFFFFFFFFFFFFFFFFFF AND CALLER PUSH20 0xFFFFFFFFFFFFFFFFFFFFFFFFFFFFFFFFFFFFFFFF AND EQ PUSH2 0x55C JUMPI PUSH1 0x40 MLOAD PUSH32 0x8C379A000000000000000000000000000000000000000000000000000000000 DUP2 MSTORE PUSH1 0x4 ADD PUSH2 0x553 SWAP1 PUSH2 0x1EAF JUMP JUMPDEST PUSH1 0x40 MLOAD DUP1 SWAP2 SUB SWAP1 REVERT JUMPDEST PUSH0 ISZERO ISZERO PUSH1 0xA PUSH0 DUP4 DUP2 MSTORE PUSH1 0x20 ADD SWAP1 DUP2 MSTORE PUSH1 0x20 ADD PUSH0 KECCAK256 PUSH1 0x1 ADD PUSH1 0x2 SWAP1 SLOAD SWAP1 PUSH2 0x100 EXP SWAP1 DIV PUSH1 0xFF AND ISZERO ISZERO EQ PUSH2 0x58C JUMPI PUSH0 DUP1 REVERT JUMPDEST PUSH1 0x1 PUSH1 0xA PUSH0 DUP4 DUP2 MSTORE PUSH1 0x20 ADD SWAP1 DUP2 MSTORE PUSH1 0x20 ADD PUSH0 KECCAK256 PUSH1 0x1 ADD PUSH1 0x2 PUSH2 0x100 EXP DUP2 SLOAD DUP2 PUSH1 0xFF MUL NOT AND SWAP1 DUP4 ISZERO ISZERO MUL OR SWAP1 SSTORE POP CALLER PUSH20 0xFFFFFFFFFFFFFFFFFFFFFFFFFFFFFFFFFFFFFFFF AND PUSH2 0x8FC PUSH7 0x38D7EA4C68000 SWAP1 DUP2 ISZERO MUL SWAP1 PUSH1 0x40 MLOAD PUSH0 PUSH1 0x40 MLOAD DUP1 DUP4 SUB DUP2 DUP6 DUP9 DUP9 CALL SWAP4 POP POP POP POP ISZERO DUP1 ISZERO PUSH2 0x603 JUMPI RETURNDATASIZE PUSH0 DUP1 RETURNDATACOPY RETURNDATASIZE PUSH0 REVERT JUMPDEST POP PUSH1 0x8 PUSH0 DUP2 SLOAD DUP1 SWAP3 SWAP2 SWAP1 PUSH2 0x616 SWAP1 PUSH2 0x1ECD JUMP JUMPDEST SWAP2 SWAP1 POP SSTORE POP PUSH0 PUSH1 0x8 SLOAD SUB PUSH2 0x62D JUMPI PUSH2 0x62C PUSH2 0x106C JUMP JUMPDEST JUMPDEST POP JUMP JUMPDEST PUSH1 0x6 SLOAD DUP2 JUMP JUMPDEST PUSH0 ADDRESS DUP3 PUSH1 0x40 MLOAD PUSH1 0x20 ADD PUSH2 0x64A SWAP3 SWAP2 SWAP1 PUSH2 0x1F39 JUMP JUMPDEST PUSH1 0x40 MLOAD PUSH1 0x20 DUP2 DUP4 SUB SUB DUP2 MSTORE SWAP1 PUSH1 0x40 MSTORE DUP1 MLOAD SWAP1 PUSH1 0x20 ADD KECCAK256 SWAP1 POP SWAP2 SWAP1 POP JUMP JUMPDEST TIMESTAMP PUSH1 0x4 SLOAD PUSH1 0x3 SLOAD PUSH2 0x678 SWAP2 SWAP1 PUSH2 0x1DCA JUMP JUMPDEST LT DUP1 ISZERO PUSH2 0x6A0 JUMPI POP PUSH1 0x5 SLOAD PUSH1 0x4 SLOAD PUSH1 0x3 SLOAD PUSH2 0x693 SWAP2 SWAP1 PUSH2 0x1DCA JUMP JUMPDEST PUSH2 0x69D SWAP2 SWAP1 PUSH2 0x1DCA JUMP JUMPDEST TIMESTAMP LT JUMPDEST PUSH2 0x6DF JUMPI PUSH1 0x40 MLOAD PUSH32 0x8C379A000000000000000000000000000000000000000000000000000000000 DUP2 MSTORE PUSH1 0x4 ADD PUSH2 0x6D6 SWAP1 PUSH2 0x1FAE JUMP JUMPDEST PUSH1 0x40 MLOAD DUP1 SWAP2 SUB SWAP1 REVERT JUMPDEST PUSH1 0xA PUSH0 DUP5 DUP2 MSTORE PUSH1 0x20 ADD SWAP1 DUP2 MSTORE PUSH1 0x20 ADD PUSH0 KECCAK256 PUSH1 0x1 ADD PUSH1 0x3 SWAP1 SLOAD SWAP1 PUSH2 0x100 EXP SWAP1 DIV PUSH20 0xFFFFFFFFFFFFFFFFFFFFFFFFFFFFFFFFFFFFFFFF AND PUSH20 0xFFFFFFFFFFFFFFFFFFFFFFFFFFFFFFFFFFFFFFFF AND CALLER PUSH20 0xFFFFFFFFFFFFFFFFFFFFFFFFFFFFFFFFFFFFFFFF AND EQ PUSH2 0x781 JUMPI PUSH1 0x40 MLOAD PUSH32 0x8C379A000000000000000000000000000000000000000000000000000000000 DUP2 MSTORE PUSH1 0x4 ADD PUSH2 0x778 SWAP1 PUSH2 0x1EAF JUMP JUMPDEST PUSH1 0x40 MLOAD DUP1 SWAP2 SUB SWAP1 REVERT JUMPDEST PUSH0 DUP2 PUSH1 0x40 MLOAD PUSH1 0x20 ADD PUSH2 0x793 SWAP2 SWAP1 PUSH2 0x1C7D JUMP JUMPDEST PUSH1 0x40 MLOAD PUSH1 0x20 DUP2 DUP4 SUB SUB DUP2 MSTORE SWAP1 PUSH1 0x40 MSTORE PUSH2 0x7AB SWAP1 PUSH2 0x1CCC JUMP JUMPDEST SWAP1 POP PUSH2 0x7DE DUP4 DUP3 PUSH1 0x40 MLOAD PUSH1 0x20 ADD PUSH2 0x7C3 SWAP3 SWAP2 SWAP1 PUSH2 0x1D72 JUMP JUMPDEST PUSH1 0x40 MLOAD PUSH1 0x20 DUP2 DUP4 SUB SUB DUP2 MSTORE SWAP1 PUSH1 0x40 MSTORE DUP1 MLOAD SWAP1 PUSH1 0x20 ADD KECCAK256 PUSH2 0x1083 JUMP JUMPDEST DUP3 PUSH1 0xA PUSH0 DUP7 DUP2 MSTORE PUSH1 0x20 ADD SWAP1 DUP2 MSTORE PUSH1 0x20 ADD PUSH0 KECCAK256 PUSH0 ADD DUP2 SWAP1 SSTORE POP PUSH1 0x1 PUSH1 0xA PUSH0 DUP7 DUP2 MSTORE PUSH1 0x20 ADD SWAP1 DUP2 MSTORE PUSH1 0x20 ADD PUSH0 KECCAK256 PUSH1 0x1 ADD PUSH1 0x1 PUSH2 0x100 EXP DUP2 SLOAD DUP2 PUSH1 0xFF MUL NOT AND SWAP1 DUP4 ISZERO ISZERO MUL OR SWAP1 SSTORE POP POP POP POP POP JUMP JUMPDEST PUSH1 0x9 SLOAD DUP2 JUMP JUMPDEST PUSH1 0x8 SLOAD DUP2 JUMP JUMPDEST PUSH1 0x5 SLOAD DUP2 JUMP JUMPDEST PUSH0 PUSH1 0x2 PUSH0 SWAP1 SLOAD SWAP1 PUSH2 0x100 EXP SWAP1 DIV PUSH20 0xFFFFFFFFFFFFFFFFFFFFFFFFFFFFFFFFFFFFFFFF AND SWAP1 POP SWAP1 JUMP JUMPDEST PUSH0 ADDRESS DUP4 DUP4 PUSH1 0x40 MLOAD PUSH1 0x20 ADD PUSH2 0x879 SWAP4 SWAP3 SWAP2 SWAP1 PUSH2 0x1FCC JUMP JUMPDEST PUSH1 0x40 MLOAD PUSH1 0x20 DUP2 DUP4 SUB SUB DUP2 MSTORE SWAP1 PUSH1 0x40 MSTORE DUP1 MLOAD SWAP1 PUSH1 0x20 ADD KECCAK256 SWAP1 POP SWAP3 SWAP2 POP POP JUMP JUMPDEST PUSH2 0x89F PUSH2 0xC17 JUMP JUMPDEST PUSH2 0x8DE JUMPI PUSH1 0x40 MLOAD PUSH32 0x8C379A000000000000000000000000000000000000000000000000000000000 DUP2 MSTORE PUSH1 0x4 ADD PUSH2 0x8D5 SWAP1 PUSH2 0x2078 JUMP JUMPDEST PUSH1 0x40 MLOAD DUP1 SWAP2 SUB SWAP1 REVERT JUMPDEST TIMESTAMP PUSH1 0x5 SLOAD PUSH1 0x4 SLOAD PUSH1 0x3 SLOAD PUSH2 0x8F2 SWAP2 SWAP1 PUSH2 0x1DCA JUMP JUMPDEST PUSH2 0x8FC SWAP2 SWAP1 PUSH2 0x1DCA JUMP JUMPDEST LT DUP1 ISZERO PUSH2 0x931 JUMPI POP PUSH1 0x6 SLOAD PUSH1 0x5 SLOAD PUSH1 0x4 SLOAD PUSH1 0x3 SLOAD PUSH2 0x91A SWAP2 SWAP1 PUSH2 0x1DCA JUMP JUMPDEST PUSH2 0x924 SWAP2 SWAP1 PUSH2 0x1DCA JUMP JUMPDEST PUSH2 0x92E SWAP2 SWAP1 PUSH2 0x1DCA JUMP JUMPDEST TIMESTAMP LT JUMPDEST PUSH2 0x939 JUMPI PUSH0 DUP1 REVERT JUMPDEST PUSH0 PUSH1 0x8 SLOAD PUSH8 0xFFFFFFFFFFFFFFFF DUP2 GT ISZERO PUSH2 0x956 JUMPI PUSH2 0x955 PUSH2 0x180F JUMP JUMPDEST JUMPDEST PUSH1 0x40 MLOAD SWAP1 DUP1 DUP3 MSTORE DUP1 PUSH1 0x20 MUL PUSH1 0x20 ADD DUP3 ADD PUSH1 0x40 MSTORE DUP1 ISZERO PUSH2 0x98F JUMPI DUP2 PUSH1 0x20 ADD JUMPDEST PUSH2 0x97C PUSH2 0x176D JUMP JUMPDEST DUP2 MSTORE PUSH1 0x20 ADD SWAP1 PUSH1 0x1 SWAP1 SUB SWAP1 DUP2 PUSH2 0x974 JUMPI SWAP1 POP JUMPDEST POP SWAP1 POP PUSH0 DUP1 PUSH0 SWAP1 POP JUMPDEST PUSH1 0x8 SLOAD DUP2 LT ISZERO PUSH2 0xB3B JUMPI PUSH1 0xA PUSH0 DUP3 DUP2 MSTORE PUSH1 0x20 ADD SWAP1 DUP2 MSTORE PUSH1 0x20 ADD PUSH0 KECCAK256 PUSH1 0x1 ADD PUSH1 0x1 SWAP1 SLOAD SWAP1 PUSH2 0x100 EXP SWAP1 DIV PUSH1 0xFF AND DUP1 ISZERO PUSH2 0x9E3 JUMPI POP PUSH1 0xA PUSH0 DUP3 DUP2 MSTORE PUSH1 0x20 ADD SWAP1 DUP2 MSTORE PUSH1 0x20 ADD PUSH0 KECCAK256 PUSH0 ADD SLOAD PUSH0 GT ISZERO JUMPDEST DUP1 ISZERO PUSH2 0xA04 JUMPI POP PUSH2 0x3E7 PUSH1 0xA PUSH0 DUP4 DUP2 MSTORE PUSH1 0x20 ADD SWAP1 DUP2 MSTORE PUSH1 0x20 ADD PUSH0 KECCAK256 PUSH0 ADD SLOAD GT ISZERO JUMPDEST ISZERO PUSH2 0xB2E JUMPI PUSH1 0xA PUSH0 DUP3 DUP2 MSTORE PUSH1 0x20 ADD SWAP1 DUP2 MSTORE PUSH1 0x20 ADD PUSH0 KECCAK256 PUSH0 ADD SLOAD DUP4 DUP4 DUP2 MLOAD DUP2 LT PUSH2 0xA30 JUMPI PUSH2 0xA2F PUSH2 0x2096 JUMP JUMPDEST JUMPDEST PUSH1 0x20 MUL PUSH1 0x20 ADD ADD MLOAD PUSH0 ADD DUP2 DUP2 MSTORE POP POP PUSH1 0xA PUSH0 DUP3 DUP2 MSTORE PUSH1 0x20 ADD SWAP1 DUP2 MSTORE PUSH1 0x20 ADD PUSH0 KECCAK256 PUSH1 0x1 ADD PUSH0 SWAP1 SLOAD SWAP1 PUSH2 0x100 EXP SWAP1 DIV PUSH1 0xFF AND DUP4 DUP4 DUP2 MLOAD DUP2 LT PUSH2 0xA73 JUMPI PUSH2 0xA72 PUSH2 0x2096 JUMP JUMPDEST JUMPDEST PUSH1 0x20 MUL PUSH1 0x20 ADD ADD MLOAD PUSH1 0x20 ADD SWAP1 ISZERO ISZERO SWAP1 DUP2 ISZERO ISZERO DUP2 MSTORE POP POP PUSH1 0xA PUSH0 DUP3 DUP2 MSTORE PUSH1 0x20 ADD SWAP1 DUP2 MSTORE PUSH1 0x20 ADD PUSH0 KECCAK256 PUSH1 0x1 ADD PUSH1 0x1 SWAP1 SLOAD SWAP1 PUSH2 0x100 EXP SWAP1 DIV PUSH1 0xFF AND DUP4 DUP4 DUP2 MLOAD DUP2 LT PUSH2 0xABE JUMPI PUSH2 0xABD PUSH2 0x2096 JUMP JUMPDEST JUMPDEST PUSH1 0x20 MUL PUSH1 0x20 ADD ADD MLOAD PUSH1 0x40 ADD SWAP1 ISZERO ISZERO SWAP1 DUP2 ISZERO ISZERO DUP2 MSTORE POP POP PUSH1 0xA PUSH0 DUP3 DUP2 MSTORE PUSH1 0x20 ADD SWAP1 DUP2 MSTORE PUSH1 0x20 ADD PUSH0 KECCAK256 PUSH1 0x1 ADD PUSH1 0x2 SWAP1 SLOAD SWAP1 PUSH2 0x100 EXP SWAP1 DIV PUSH1 0xFF AND DUP4 DUP4 DUP2 MLOAD DUP2 LT PUSH2 0xB09 JUMPI PUSH2 0xB08 PUSH2 0x2096 JUMP JUMPDEST JUMPDEST PUSH1 0x20 MUL PUSH1 0x20 ADD ADD MLOAD PUSH1 0x60 ADD SWAP1 ISZERO ISZERO SWAP1 DUP2 ISZERO ISZERO DUP2 MSTORE POP POP DUP2 DUP1 PUSH2 0xB2A SWAP1 PUSH2 0x20C3 JUMP JUMPDEST SWAP3 POP POP JUMPDEST DUP1 DUP1 PUSH1 0x1 ADD SWAP2 POP POP PUSH2 0x998 JUMP JUMPDEST POP PUSH0 DUP2 SUB PUSH2 0xB4C JUMPI PUSH2 0xB4B PUSH2 0x1441 JUMP JUMPDEST JUMPDEST PUSH0 DUP3 PUSH0 DUP2 MLOAD DUP2 LT PUSH2 0xB60 JUMPI PUSH2 0xB5F PUSH2 0x2096 JUMP JUMPDEST JUMPDEST PUSH1 0x20 MUL PUSH1 0x20 ADD ADD MLOAD PUSH0 ADD MLOAD SWAP1 POP PUSH0 PUSH1 0x1 SWAP1 POP JUMPDEST DUP3 DUP2 LT ISZERO PUSH2 0xBAA JUMPI DUP4 DUP2 DUP2 MLOAD DUP2 LT PUSH2 0xB8E JUMPI PUSH2 0xB8D PUSH2 0x2096 JUMP JUMPDEST JUMPDEST PUSH1 0x20 MUL PUSH1 0x20 ADD ADD MLOAD PUSH0 ADD MLOAD DUP3 XOR SWAP2 POP DUP1 DUP1 PUSH1 0x1 ADD SWAP2 POP POP PUSH2 0xB73 JUMP JUMPDEST POP PUSH0 DUP3 DUP3 PUSH1 0x40 MLOAD PUSH1 0x20 ADD PUSH2 0xBBE SWAP2 SWAP1 PUSH2 0x210A JUMP JUMPDEST PUSH1 0x40 MLOAD PUSH1 0x20 DUP2 DUP4 SUB SUB DUP2 MSTORE SWAP1 PUSH1 0x40 MSTORE DUP1 MLOAD SWAP1 PUSH1 0x20 ADD KECCAK256 PUSH0 SHR PUSH2 0xBE0 SWAP2 SWAP1 PUSH2 0x2151 JUMP JUMPDEST SWAP1 POP PUSH2 0xC09 DUP5 DUP3 DUP2 MLOAD DUP2 LT PUSH2 0xBF8 JUMPI PUSH2 0xBF7 PUSH2 0x2096 JUMP JUMPDEST JUMPDEST PUSH1 0x20 MUL PUSH1 0x20 ADD ADD MLOAD PUSH1 0x80 ADD MLOAD PUSH2 0x14A7 JUMP JUMPDEST PUSH2 0xC11 PUSH2 0x106C JUMP JUMPDEST POP POP POP POP JUMP JUMPDEST PUSH0 PUSH1 0x2 PUSH0 SWAP1 SLOAD SWAP1 PUSH2 0x100 EXP SWAP1 DIV PUSH20 0xFFFFFFFFFFFFFFFFFFFFFFFFFFFFFFFFFFFFFFFF AND PUSH20 0xFFFFFFFFFFFFFFFFFFFFFFFFFFFFFFFFFFFFFFFF AND CALLER PUSH20 0xFFFFFFFFFFFFFFFFFFFFFFFFFFFFFFFFFFFFFFFF AND EQ SWAP1 POP SWAP1 JUMP JUMPDEST PUSH1 0x4 SLOAD DUP2 JUMP JUMPDEST PUSH1 0x7 SLOAD DUP2 JUMP JUMPDEST PUSH0 PUSH7 0x38D7EA4C68000 CALLVALUE EQ PUSH2 0xCC3 JUMPI PUSH1 0x40 MLOAD PUSH32 0x8C379A000000000000000000000000000000000000000000000000000000000 DUP2 MSTORE PUSH1 0x4 ADD PUSH2 0xCBA SWAP1 PUSH2 0x21F1 JUMP JUMPDEST PUSH1 0x40 MLOAD DUP1 SWAP2 SUB SWAP1 REVERT JUMPDEST PUSH1 0x7 SLOAD PUSH1 0x8 SLOAD LT PUSH2 0xD09 JUMPI PUSH1 0x40 MLOAD PUSH32 0x8C379A000000000000000000000000000000000000000000000000000000000 DUP2 MSTORE PUSH1 0x4 ADD PUSH2 0xD00 SWAP1 PUSH2 0x227F JUMP JUMPDEST PUSH1 0x40 MLOAD DUP1 SWAP2 SUB SWAP1 REVERT JUMPDEST PUSH0 PUSH1 0x9 SLOAD SUB PUSH2 0xD22 JUMPI PUSH1 0x1 PUSH1 0x9 DUP2 SWAP1 SSTORE POP TIMESTAMP PUSH1 0x3 DUP2 SWAP1 SSTORE POP JUMPDEST PUSH1 0x4 SLOAD PUSH1 0x3 SLOAD PUSH2 0xD32 SWAP2 SWAP1 PUSH2 0x1DCA JUMP JUMPDEST TIMESTAMP LT PUSH2 0xD73 JUMPI PUSH1 0x40 MLOAD PUSH32 0x8C379A000000000000000000000000000000000000000000000000000000000 DUP2 MSTORE PUSH1 0x4 ADD PUSH2 0xD6A SWAP1 PUSH2 0x22E7 JUMP JUMPDEST PUSH1 0x40 MLOAD DUP1 SWAP2 SUB SWAP1 REVERT JUMPDEST PUSH0 PUSH1 0x8 SLOAD SWAP1 POP PUSH2 0xD8A PUSH2 0xD85 DUP5 PUSH2 0x636 JUMP JUMPDEST PUSH2 0x159B JUMP JUMPDEST PUSH0 PUSH1 0xA PUSH0 DUP4 DUP2 MSTORE PUSH1 0x20 ADD SWAP1 DUP2 MSTORE PUSH1 0x20 ADD PUSH0 KECCAK256 PUSH0 ADD DUP2 SWAP1 SSTORE POP PUSH1 0x1 PUSH1 0xA PUSH0 DUP4 DUP2 MSTORE PUSH1 0x20 ADD SWAP1 DUP2 MSTORE PUSH1 0x20 ADD PUSH0 KECCAK256 PUSH1 0x1 ADD PUSH0 PUSH2 0x100 EXP DUP2 SLOAD DUP2 PUSH1 0xFF MUL NOT AND SWAP1 DUP4 ISZERO ISZERO MUL OR SWAP1 SSTORE POP PUSH0 PUSH1 0xA PUSH0 DUP4 DUP2 MSTORE PUSH1 0x20 ADD SWAP1 DUP2 MSTORE PUSH1 0x20 ADD PUSH0 KECCAK256 PUSH1 0x1 ADD PUSH1 0x1 PUSH2 0x100 EXP DUP2 SLOAD DUP2 PUSH1 0xFF MUL NOT AND SWAP1 DUP4 ISZERO ISZERO MUL OR SWAP1 SSTORE POP PUSH0 PUSH1 0xA PUSH0 DUP4 DUP2 MSTORE PUSH1 0x20 ADD SWAP1 DUP2 MSTORE PUSH1 0x20 ADD PUSH0 KECCAK256 PUSH1 0x1 ADD PUSH1 0x2 PUSH2 0x100 EXP DUP2 SLOAD DUP2 PUSH1 0xFF MUL NOT AND SWAP1 DUP4 ISZERO ISZERO MUL OR SWAP1 SSTORE POP CALLER PUSH1 0xA PUSH0 DUP4 DUP2 MSTORE PUSH1 0x20 ADD SWAP1 DUP2 MSTORE PUSH1 0x20 ADD PUSH0 KECCAK256 PUSH1 0x1 ADD PUSH1 0x3 PUSH2 0x100 EXP DUP2 SLOAD DUP2 PUSH20 0xFFFFFFFFFFFFFFFFFFFFFFFFFFFFFFFFFFFFFFFF MUL NOT AND SWAP1 DUP4 PUSH20 0xFFFFFFFFFFFFFFFFFFFFFFFFFFFFFFFFFFFFFFFF AND MUL OR SWAP1 SSTORE POP PUSH1 0x8 PUSH0 DUP2 SLOAD DUP1 SWAP3 SWAP2 SWAP1 PUSH2 0xE8B SWAP1 PUSH2 0x20C3 JUMP JUMPDEST SWAP2 SWAP1 POP SSTORE POP DUP1 SWAP2 POP POP SWAP2 SWAP1 POP JUMP JUMPDEST PUSH1 0x60 PUSH0 DUP1 PUSH1 0x9 SLOAD SUB PUSH2 0xEE6 JUMPI PUSH0 PUSH1 0x40 MLOAD DUP1 PUSH1 0x40 ADD PUSH1 0x40 MSTORE DUP1 PUSH1 0x4 DUP2 MSTORE PUSH1 0x20 ADD PUSH32 0x49646C6500000000000000000000000000000000000000000000000000000000 DUP2 MSTORE POP SWAP1 SWAP2 POP SWAP2 POP PUSH2 0x1062 JUMP JUMPDEST PUSH1 0x1 PUSH1 0x9 SLOAD SUB PUSH2 0x1061 JUMPI PUSH1 0x4 SLOAD PUSH1 0x3 SLOAD PUSH2 0xF00 SWAP2 SWAP1 PUSH2 0x1DCA JUMP JUMPDEST TIMESTAMP LT ISZERO PUSH2 0xF45 JUMPI TIMESTAMP PUSH1 0x4 SLOAD PUSH1 0x3 SLOAD PUSH2 0xF18 SWAP2 SWAP1 PUSH2 0x1DCA JUMP JUMPDEST PUSH2 0xF22 SWAP2 SWAP1 PUSH2 0x2305 JUMP JUMPDEST PUSH1 0x40 MLOAD DUP1 PUSH1 0x60 ADD PUSH1 0x40 MSTORE DUP1 PUSH1 0x31 DUP2 MSTORE PUSH1 0x20 ADD PUSH2 0x26FA PUSH1 0x31 SWAP2 CODECOPY SWAP1 SWAP2 POP SWAP2 POP PUSH2 0x1062 JUMP JUMPDEST PUSH1 0x5 SLOAD PUSH1 0x4 SLOAD PUSH1 0x3 SLOAD PUSH2 0xF58 SWAP2 SWAP1 PUSH2 0x1DCA JUMP JUMPDEST PUSH2 0xF62 SWAP2 SWAP1 PUSH2 0x1DCA JUMP JUMPDEST TIMESTAMP LT ISZERO PUSH2 0xFB4 JUMPI TIMESTAMP PUSH1 0x5 SLOAD PUSH1 0x4 SLOAD PUSH1 0x3 SLOAD PUSH2 0xF7D SWAP2 SWAP1 PUSH2 0x1DCA JUMP JUMPDEST PUSH2 0xF87 SWAP2 SWAP1 PUSH2 0x1DCA JUMP JUMPDEST PUSH2 0xF91 SWAP2 SWAP1 PUSH2 0x2305 JUMP JUMPDEST PUSH1 0x40 MLOAD DUP1 PUSH1 0x60 ADD PUSH1 0x40 MSTORE DUP1 PUSH1 0x31 DUP2 MSTORE PUSH1 0x20 ADD PUSH2 0x27A1 PUSH1 0x31 SWAP2 CODECOPY SWAP1 SWAP2 POP SWAP2 POP PUSH2 0x1062 JUMP JUMPDEST PUSH1 0x6 SLOAD PUSH1 0x5 SLOAD PUSH1 0x4 SLOAD PUSH1 0x3 SLOAD PUSH2 0xFCA SWAP2 SWAP1 PUSH2 0x1DCA JUMP JUMPDEST PUSH2 0xFD4 SWAP2 SWAP1 PUSH2 0x1DCA JUMP JUMPDEST PUSH2 0xFDE SWAP2 SWAP1 PUSH2 0x1DCA JUMP JUMPDEST TIMESTAMP LT ISZERO PUSH2 0x103D JUMPI TIMESTAMP PUSH1 0x6 SLOAD PUSH1 0x5 SLOAD PUSH1 0x4 SLOAD PUSH1 0x3 SLOAD PUSH2 0xFFC SWAP2 SWAP1 PUSH2 0x1DCA JUMP JUMPDEST PUSH2 0x1006 SWAP2 SWAP1 PUSH2 0x1DCA JUMP JUMPDEST PUSH2 0x1010 SWAP2 SWAP1 PUSH2 0x1DCA JUMP JUMPDEST PUSH2 0x101A SWAP2 SWAP1 PUSH2 0x2305 JUMP JUMPDEST PUSH1 0x40 MLOAD DUP1 PUSH1 0x60 ADD PUSH1 0x40 MSTORE DUP1 PUSH1 0x39 DUP2 MSTORE PUSH1 0x20 ADD PUSH2 0x2768 PUSH1 0x39 SWAP2 CODECOPY SWAP1 SWAP2 POP SWAP2 POP PUSH2 0x1062 JUMP JUMPDEST PUSH0 PUSH1 0x40 MLOAD DUP1 PUSH1 0x60 ADD PUSH1 0x40 MSTORE DUP1 PUSH1 0x3D DUP2 MSTORE PUSH1 0x20 ADD PUSH2 0x272B PUSH1 0x3D SWAP2 CODECOPY SWAP1 SWAP2 POP SWAP2 POP PUSH2 0x1062 JUMP JUMPDEST JUMPDEST SWAP1 SWAP2 JUMP JUMPDEST PUSH1 0x3 SLOAD DUP2 JUMP JUMPDEST PUSH0 PUSH1 0x9 DUP2 SWAP1 SSTORE POP PUSH0 PUSH1 0x8 DUP2 SWAP1 SSTORE POP TIMESTAMP PUSH1 0x3 DUP2 SWAP1 SSTORE POP JUMP JUMPDEST PUSH0 ISZERO ISZERO PUSH1 0x1 PUSH0 CALLER PUSH20 0xFFFFFFFFFFFFFFFFFFFFFFFFFFFFFFFFFFFFFFFF AND PUSH20 0xFFFFFFFFFFFFFFFFFFFFFFFFFFFFFFFFFFFFFFFF AND DUP2 MSTORE PUSH1 0x20 ADD SWAP1 DUP2 MSTORE PUSH1 0x20 ADD PUSH0 KECCAK256 PUSH1 0x1 ADD PUSH1 0x8 SWAP1 SLOAD SWAP1 PUSH2 0x100 EXP SWAP1 DIV PUSH1 0xFF AND ISZERO ISZERO EQ PUSH2 0x1116 JUMPI PUSH1 0x40 MLOAD PUSH32 0x8C379A000000000000000000000000000000000000000000000000000000000 DUP2 MSTORE PUSH1 0x4 ADD PUSH2 0x110D SWAP1 PUSH2 0x23A8 JUMP JUMPDEST PUSH1 0x40 MLOAD DUP1 SWAP2 SUB SWAP1 REVERT JUMPDEST PUSH1 0x1 DUP1 PUSH0 CALLER PUSH20 0xFFFFFFFFFFFFFFFFFFFFFFFFFFFFFFFFFFFFFFFF AND PUSH20 0xFFFFFFFFFFFFFFFFFFFFFFFFFFFFFFFFFFFFFFFF AND DUP2 MSTORE PUSH1 0x20 ADD SWAP1 DUP2 MSTORE PUSH1 0x20 ADD PUSH0 KECCAK256 PUSH1 0x1 ADD PUSH1 0x8 PUSH2 0x100 EXP DUP2 SLOAD DUP2 PUSH1 0xFF MUL NOT AND SWAP1 DUP4 ISZERO ISZERO MUL OR SWAP1 SSTORE POP PUSH1 0x1 PUSH0 CALLER PUSH20 0xFFFFFFFFFFFFFFFFFFFFFFFFFFFFFFFFFFFFFFFF AND PUSH20 0xFFFFFFFFFFFFFFFFFFFFFFFFFFFFFFFFFFFFFFFF AND DUP2 MSTORE PUSH1 0x20 ADD SWAP1 DUP2 MSTORE PUSH1 0x20 ADD PUSH0 KECCAK256 PUSH0 ADD SLOAD PUSH2 0x11B7 DUP3 PUSH2 0x636 JUMP JUMPDEST EQ PUSH2 0x11F7 JUMPI PUSH1 0x40 MLOAD PUSH32 0x8C379A000000000000000000000000000000000000000000000000000000000 DUP2 MSTORE PUSH1 0x4 ADD PUSH2 0x11EE SWAP1 PUSH2 0x2436 JUMP JUMPDEST PUSH1 0x40 MLOAD DUP1 SWAP2 SUB SWAP1 REVERT JUMPDEST PUSH1 0x1 PUSH0 CALLER PUSH20 0xFFFFFFFFFFFFFFFFFFFFFFFFFFFFFFFFFFFFFFFF AND PUSH20 0xFFFFFFFFFFFFFFFFFFFFFFFFFFFFFFFFFFFFFFFF AND DUP2 MSTORE PUSH1 0x20 ADD SWAP1 DUP2 MSTORE PUSH1 0x20 ADD PUSH0 KECCAK256 PUSH1 0x1 ADD PUSH0 SWAP1 SLOAD SWAP1 PUSH2 0x100 EXP SWAP1 DIV PUSH8 0xFFFFFFFFFFFFFFFF AND PUSH8 0xFFFFFFFFFFFFFFFF AND NUMBER PUSH8 0xFFFFFFFFFFFFFFFF AND GT PUSH2 0x12A0 JUMPI PUSH1 0x40 MLOAD PUSH32 0x8C379A000000000000000000000000000000000000000000000000000000000 DUP2 MSTORE PUSH1 0x4 ADD PUSH2 0x1297 SWAP1 PUSH2 0x24EA JUMP JUMPDEST PUSH1 0x40 MLOAD DUP1 SWAP2 SUB SWAP1 REVERT JUMPDEST PUSH1 0xFA PUSH1 0x1 PUSH0 CALLER PUSH20 0xFFFFFFFFFFFFFFFFFFFFFFFFFFFFFFFFFFFFFFFF AND PUSH20 0xFFFFFFFFFFFFFFFFFFFFFFFFFFFFFFFFFFFFFFFF AND DUP2 MSTORE PUSH1 0x20 ADD SWAP1 DUP2 MSTORE PUSH1 0x20 ADD PUSH0 KECCAK256 PUSH1 0x1 ADD PUSH0 SWAP1 SLOAD SWAP1 PUSH2 0x100 EXP SWAP1 DIV PUSH8 0xFFFFFFFFFFFFFFFF AND PUSH2 0x1300 SWAP2 SWAP1 PUSH2 0x251B JUMP JUMPDEST PUSH8 0xFFFFFFFFFFFFFFFF AND NUMBER PUSH8 0xFFFFFFFFFFFFFFFF AND GT ISZERO PUSH2 0x1356 JUMPI PUSH1 0x40 MLOAD PUSH32 0x8C379A000000000000000000000000000000000000000000000000000000000 DUP2 MSTORE PUSH1 0x4 ADD PUSH2 0x134D SWAP1 PUSH2 0x25C6 JUMP JUMPDEST PUSH1 0x40 MLOAD DUP1 SWAP2 SUB SWAP1 REVERT JUMPDEST PUSH0 PUSH1 0x1 PUSH0 CALLER PUSH20 0xFFFFFFFFFFFFFFFFFFFFFFFFFFFFFFFFFFFFFFFF AND PUSH20 0xFFFFFFFFFFFFFFFFFFFFFFFFFFFFFFFFFFFFFFFF AND DUP2 MSTORE PUSH1 0x20 ADD SWAP1 DUP2 MSTORE PUSH1 0x20 ADD PUSH0 KECCAK256 PUSH1 0x1 ADD PUSH0 SWAP1 SLOAD SWAP1 PUSH2 0x100 EXP SWAP1 DIV PUSH8 0xFFFFFFFFFFFFFFFF AND PUSH8 0xFFFFFFFFFFFFFFFF AND BLOCKHASH SWAP1 POP PUSH0 DUP1 PUSH0 SWAP1 SLOAD SWAP1 PUSH2 0x100 EXP SWAP1 DIV PUSH1 0xFF AND PUSH1 0xFF AND DUP3 DUP5 PUSH1 0x40 MLOAD PUSH1 0x20 ADD PUSH2 0x13DD SWAP3 SWAP2 SWAP1 PUSH2 0x25E4 JUMP JUMPDEST PUSH1 0x40 MLOAD PUSH1 0x20 DUP2 DUP4 SUB SUB DUP2 MSTORE SWAP1 PUSH1 0x40 MSTORE DUP1 MLOAD SWAP1 PUSH1 0x20 ADD KECCAK256 PUSH0 SHR PUSH2 0x13FF SWAP2 SWAP1 PUSH2 0x2151 JUMP JUMPDEST SWAP1 POP PUSH32 0xBC016DD1CADEAEFCB851AF7A0A93532E0023D536894B730801F7BCFE7065BCC2 CALLER DUP5 DUP4 PUSH1 0x40 MLOAD PUSH2 0x1434 SWAP4 SWAP3 SWAP2 SWAP1 PUSH2 0x260F JUMP JUMPDEST PUSH1 0x40 MLOAD DUP1 SWAP2 SUB SWAP1 LOG1 POP POP POP JUMP JUMPDEST PUSH0 PUSH1 0x8 SLOAD PUSH7 0x38D7EA4C68000 PUSH2 0x1457 SWAP2 SWAP1 PUSH2 0x2644 JUMP JUMPDEST SWAP1 POP PUSH2 0x1461 PUSH2 0x83B JUMP JUMPDEST PUSH20 0xFFFFFFFFFFFFFFFFFFFFFFFFFFFFFFFFFFFFFFFF AND PUSH2 0x8FC DUP3 SWAP1 DUP2 ISZERO MUL SWAP1 PUSH1 0x40 MLOAD PUSH0 PUSH1 0x40 MLOAD DUP1 DUP4 SUB DUP2 DUP6 DUP9 DUP9 CALL SWAP4 POP POP POP POP ISZERO DUP1 ISZERO PUSH2 0x14A3 JUMPI RETURNDATASIZE PUSH0 DUP1 RETURNDATACOPY RETURNDATASIZE PUSH0 REVERT JUMPDEST POP POP JUMP JUMPDEST PUSH0 PUSH1 0x64 PUSH1 0x62 PUSH1 0x8 SLOAD PUSH7 0x38D7EA4C68000 PUSH2 0x14C1 SWAP2 SWAP1 PUSH2 0x2644 JUMP JUMPDEST PUSH2 0x14CB SWAP2 SWAP1 PUSH2 0x2644 JUMP JUMPDEST PUSH2 0x14D5 SWAP2 SWAP1 PUSH2 0x2685 JUMP JUMPDEST SWAP1 POP PUSH0 PUSH1 0x64 PUSH1 0x2 PUSH1 0x8 SLOAD PUSH7 0x38D7EA4C68000 PUSH2 0x14F1 SWAP2 SWAP1 PUSH2 0x2644 JUMP JUMPDEST PUSH2 0x14FB SWAP2 SWAP1 PUSH2 0x2644 JUMP JUMPDEST PUSH2 0x1505 SWAP2 SWAP1 PUSH2 0x2685 JUMP JUMPDEST SWAP1 POP DUP3 PUSH20 0xFFFFFFFFFFFFFFFFFFFFFFFFFFFFFFFFFFFFFFFF AND PUSH2 0x8FC DUP4 SWAP1 DUP2 ISZERO MUL SWAP1 PUSH1 0x40 MLOAD PUSH0 PUSH1 0x40 MLOAD DUP1 DUP4 SUB DUP2 DUP6 DUP9 DUP9 CALL SWAP4 POP POP POP POP ISZERO DUP1 ISZERO PUSH2 0x154A JUMPI RETURNDATASIZE PUSH0 DUP1 RETURNDATACOPY RETURNDATASIZE PUSH0 REVERT JUMPDEST POP PUSH2 0x1553 PUSH2 0x83B JUMP JUMPDEST PUSH20 0xFFFFFFFFFFFFFFFFFFFFFFFFFFFFFFFFFFFFFFFF AND PUSH2 0x8FC DUP3 SWAP1 DUP2 ISZERO MUL SWAP1 PUSH1 0x40 MLOAD PUSH0 PUSH1 0x40 MLOAD DUP1 DUP4 SUB DUP2 DUP6 DUP9 DUP9 CALL SWAP4 POP POP POP POP ISZERO DUP1 ISZERO PUSH2 0x1595 JUMPI RETURNDATASIZE PUSH0 DUP1 RETURNDATACOPY RETURNDATASIZE PUSH0 REVERT JUMPDEST POP POP POP POP JUMP JUMPDEST DUP1 PUSH1 0x1 PUSH0 CALLER PUSH20 0xFFFFFFFFFFFFFFFFFFFFFFFFFFFFFFFFFFFFFFFF AND PUSH20 0xFFFFFFFFFFFFFFFFFFFFFFFFFFFFFFFFFFFFFFFF AND DUP2 MSTORE PUSH1 0x20 ADD SWAP1 DUP2 MSTORE PUSH1 0x20 ADD PUSH0 KECCAK256 PUSH0 ADD DUP2 SWAP1 SSTORE POP NUMBER PUSH1 0x1 PUSH0 CALLER PUSH20 0xFFFFFFFFFFFFFFFFFFFFFFFFFFFFFFFFFFFFFFFF AND PUSH20 0xFFFFFFFFFFFFFFFFFFFFFFFFFFFFFFFFFFFFFFFF AND DUP2 MSTORE PUSH1 0x20 ADD SWAP1 DUP2 MSTORE PUSH1 0x20 ADD PUSH0 KECCAK256 PUSH1 0x1 ADD PUSH0 PUSH2 0x100 EXP DUP2 SLOAD DUP2 PUSH8 0xFFFFFFFFFFFFFFFF MUL NOT AND SWAP1 DUP4 PUSH8 0xFFFFFFFFFFFFFFFF AND MUL OR SWAP1 SSTORE POP PUSH0 PUSH1 0x1 PUSH0 CALLER PUSH20 0xFFFFFFFFFFFFFFFFFFFFFFFFFFFFFFFFFFFFFFFF AND PUSH20 0xFFFFFFFFFFFFFFFFFFFFFFFFFFFFFFFFFFFFFFFF AND DUP2 MSTORE PUSH1 0x20 ADD SWAP1 DUP2 MSTORE PUSH1 0x20 ADD PUSH0 KECCAK256 PUSH1 0x1 ADD PUSH1 0x8 PUSH2 0x100 EXP DUP2 SLOAD DUP2 PUSH1 0xFF MUL NOT AND SWAP1 DUP4 ISZERO ISZERO MUL OR SWAP1 SSTORE POP PUSH32 0x3C1A1F8F38335B17F751C6DA4BA7D1865F26B3997535176F5080DE9FAD891603 CALLER PUSH1 0x1 PUSH0 CALLER PUSH20 0xFFFFFFFFFFFFFFFFFFFFFFFFFFFFFFFFFFFFFFFF AND PUSH20 0xFFFFFFFFFFFFFFFFFFFFFFFFFFFFFFFFFFFFFFFF AND DUP2 MSTORE PUSH1 0x20 ADD SWAP1 DUP2 MSTORE PUSH1 0x20 ADD PUSH0 KECCAK256 PUSH0 ADD SLOAD PUSH1 0x1 PUSH0 CALLER PUSH20 0xFFFFFFFFFFFFFFFFFFFFFFFFFFFFFFFFFFFFFFFF AND PUSH20 0xFFFFFFFFFFFFFFFFFFFFFFFFFFFFFFFFFFFFFFFF AND DUP2 MSTORE PUSH1 0x20 ADD SWAP1 DUP2 MSTORE PUSH1 0x20 ADD PUSH0 KECCAK256 PUSH1 0x1 ADD PUSH0 SWAP1 SLOAD SWAP1 PUSH2 0x100 EXP SWAP1 DIV PUSH8 0xFFFFFFFFFFFFFFFF AND PUSH1 0x40 MLOAD PUSH2 0x1762 SWAP4 SWAP3 SWAP2 SWAP1 PUSH2 0x26C4 JUMP JUMPDEST PUSH1 0x40 MLOAD DUP1 SWAP2 SUB SWAP1 LOG1 POP JUMP JUMPDEST PUSH1 0x40 MLOAD DUP1 PUSH1 0xA0 ADD PUSH1 0x40 MSTORE DUP1 PUSH0 DUP2 MSTORE PUSH1 0x20 ADD PUSH0 ISZERO ISZERO DUP2 MSTORE PUSH1 0x20 ADD PUSH0 ISZERO ISZERO DUP2 MSTORE PUSH1 0x20 ADD PUSH0 ISZERO ISZERO DUP2 MSTORE PUSH1 0x20 ADD PUSH0 PUSH20 0xFFFFFFFFFFFFFFFFFFFFFFFFFFFFFFFFFFFFFFFF AND DUP2 MSTORE POP SWAP1 JUMP JUMPDEST PUSH0 PUSH1 0x40 MLOAD SWAP1 POP SWAP1 JUMP JUMPDEST PUSH0 DUP1 REVERT JUMPDEST PUSH0 DUP1 REVERT JUMPDEST PUSH0 DUP2 SWAP1 POP SWAP2 SWAP1 POP JUMP JUMPDEST PUSH2 0x17D6 DUP2 PUSH2 0x17C4 JUMP JUMPDEST DUP2 EQ PUSH2 0x17E0 JUMPI PUSH0 DUP1 REVERT JUMPDEST POP JUMP JUMPDEST PUSH0 DUP2 CALLDATALOAD SWAP1 POP PUSH2 0x17F1 DUP2 PUSH2 0x17CD JUMP JUMPDEST SWAP3 SWAP2 POP POP JUMP JUMPDEST PUSH0 DUP1 REVERT JUMPDEST PUSH0 DUP1 REVERT JUMPDEST PUSH0 PUSH1 0x1F NOT PUSH1 0x1F DUP4 ADD AND SWAP1 POP SWAP2 SWAP1 POP JUMP JUMPDEST PUSH32 0x4E487B7100000000000000000000000000000000000000000000000000000000 PUSH0 MSTORE PUSH1 0x41 PUSH1 0x4 MSTORE PUSH1 0x24 PUSH0 REVERT JUMPDEST PUSH2 0x1845 DUP3 PUSH2 0x17FF JUMP JUMPDEST DUP2 ADD DUP2 DUP2 LT PUSH8 0xFFFFFFFFFFFFFFFF DUP3 GT OR ISZERO PUSH2 0x1864 JUMPI PUSH2 0x1863 PUSH2 0x180F JUMP JUMPDEST JUMPDEST DUP1 PUSH1 0x40 MSTORE POP POP POP JUMP JUMPDEST PUSH0 PUSH2 0x1876 PUSH2 0x17B3 JUMP JUMPDEST SWAP1 POP PUSH2 0x1882 DUP3 DUP3 PUSH2 0x183C JUMP JUMPDEST SWAP2 SWAP1 POP JUMP JUMPDEST PUSH0 PUSH8 0xFFFFFFFFFFFFFFFF DUP3 GT ISZERO PUSH2 0x18A1 JUMPI PUSH2 0x18A0 PUSH2 0x180F JUMP JUMPDEST JUMPDEST PUSH2 0x18AA DUP3 PUSH2 0x17FF JUMP JUMPDEST SWAP1 POP PUSH1 0x20 DUP2 ADD SWAP1 POP SWAP2 SWAP1 POP JUMP JUMPDEST DUP3 DUP2 DUP4 CALLDATACOPY PUSH0 DUP4 DUP4 ADD MSTORE POP POP POP JUMP JUMPDEST PUSH0 PUSH2 0x18D7 PUSH2 0x18D2 DUP5 PUSH2 0x1887 JUMP JUMPDEST PUSH2 0x186D JUMP JUMPDEST SWAP1 POP DUP3 DUP2 MSTORE PUSH1 0x20 DUP2 ADD DUP5 DUP5 DUP5 ADD GT ISZERO PUSH2 0x18F3 JUMPI PUSH2 0x18F2 PUSH2 0x17FB JUMP JUMPDEST JUMPDEST PUSH2 0x18FE DUP5 DUP3 DUP6 PUSH2 0x18B7 JUMP JUMPDEST POP SWAP4 SWAP3 POP POP POP JUMP JUMPDEST PUSH0 DUP3 PUSH1 0x1F DUP4 ADD SLT PUSH2 0x191A JUMPI PUSH2 0x1919 PUSH2 0x17F7 JUMP JUMPDEST JUMPDEST DUP2 CALLDATALOAD PUSH2 0x192A DUP5 DUP3 PUSH1 0x20 DUP7 ADD PUSH2 0x18C5 JUMP JUMPDEST SWAP2 POP POP SWAP3 SWAP2 POP POP JUMP JUMPDEST PUSH0 DUP1 PUSH1 0x40 DUP4 DUP6 SUB SLT ISZERO PUSH2 0x1949 JUMPI PUSH2 0x1948 PUSH2 0x17BC JUMP JUMPDEST JUMPDEST PUSH0 PUSH2 0x1956 DUP6 DUP3 DUP7 ADD PUSH2 0x17E3 JUMP JUMPDEST SWAP3 POP POP PUSH1 0x20 DUP4 ADD CALLDATALOAD PUSH8 0xFFFFFFFFFFFFFFFF DUP2 GT ISZERO PUSH2 0x1977 JUMPI PUSH2 0x1976 PUSH2 0x17C0 JUMP JUMPDEST JUMPDEST PUSH2 0x1983 DUP6 DUP3 DUP7 ADD PUSH2 0x1906 JUMP JUMPDEST SWAP2 POP POP SWAP3 POP SWAP3 SWAP1 POP JUMP JUMPDEST PUSH0 DUP2 SWAP1 POP SWAP2 SWAP1 POP JUMP JUMPDEST PUSH2 0x199F DUP2 PUSH2 0x198D JUMP JUMPDEST DUP3 MSTORE POP POP JUMP JUMPDEST PUSH0 PUSH1 0x20 DUP3 ADD SWAP1 POP PUSH2 0x19B8 PUSH0 DUP4 ADD DUP5 PUSH2 0x1996 JUMP JUMPDEST SWAP3 SWAP2 POP POP JUMP JUMPDEST PUSH0 PUSH1 0x20 DUP3 DUP5 SUB SLT ISZERO PUSH2 0x19D3 JUMPI PUSH2 0x19D2 PUSH2 0x17BC JUMP JUMPDEST JUMPDEST PUSH0 PUSH2 0x19E0 DUP5 DUP3 DUP6 ADD PUSH2 0x17E3 JUMP JUMPDEST SWAP2 POP POP SWAP3 SWAP2 POP POP JUMP JUMPDEST PUSH2 0x19F2 DUP2 PUSH2 0x17C4 JUMP JUMPDEST DUP3 MSTORE POP POP JUMP JUMPDEST PUSH0 PUSH1 0x20 DUP3 ADD SWAP1 POP PUSH2 0x1A0B PUSH0 DUP4 ADD DUP5 PUSH2 0x19E9 JUMP JUMPDEST SWAP3 SWAP2 POP POP JUMP JUMPDEST PUSH2 0x1A1A DUP2 PUSH2 0x198D JUMP JUMPDEST DUP2 EQ PUSH2 0x1A24 JUMPI PUSH0 DUP1 REVERT JUMPDEST POP JUMP JUMPDEST PUSH0 DUP2 CALLDATALOAD SWAP1 POP PUSH2 0x1A35 DUP2 PUSH2 0x1A11 JUMP JUMPDEST SWAP3 SWAP2 POP POP JUMP JUMPDEST PUSH0 PUSH1 0x20 DUP3 DUP5 SUB SLT ISZERO PUSH2 0x1A50 JUMPI PUSH2 0x1A4F PUSH2 0x17BC JUMP JUMPDEST JUMPDEST PUSH0 PUSH2 0x1A5D DUP5 DUP3 DUP6 ADD PUSH2 0x1A27 JUMP JUMPDEST SWAP2 POP POP SWAP3 SWAP2 POP POP JUMP JUMPDEST PUSH0 DUP1 PUSH0 PUSH1 0x60 DUP5 DUP7 SUB SLT ISZERO PUSH2 0x1A7D JUMPI PUSH2 0x1A7C PUSH2 0x17BC JUMP JUMPDEST JUMPDEST PUSH0 PUSH2 0x1A8A DUP7 DUP3 DUP8 ADD PUSH2 0x17E3 JUMP JUMPDEST SWAP4 POP POP PUSH1 0x20 PUSH2 0x1A9B DUP7 DUP3 DUP8 ADD PUSH2 0x17E3 JUMP JUMPDEST SWAP3 POP POP PUSH1 0x40 DUP5 ADD CALLDATALOAD PUSH8 0xFFFFFFFFFFFFFFFF DUP2 GT ISZERO PUSH2 0x1ABC JUMPI PUSH2 0x1ABB PUSH2 0x17C0 JUMP JUMPDEST JUMPDEST PUSH2 0x1AC8 DUP7 DUP3 DUP8 ADD PUSH2 0x1906 JUMP JUMPDEST SWAP2 POP POP SWAP3 POP SWAP3 POP SWAP3 JUMP JUMPDEST PUSH0 PUSH20 0xFFFFFFFFFFFFFFFFFFFFFFFFFFFFFFFFFFFFFFFF DUP3 AND SWAP1 POP SWAP2 SWAP1 POP JUMP JUMPDEST PUSH0 PUSH2 0x1AFB DUP3 PUSH2 0x1AD2 JUMP JUMPDEST SWAP1 POP SWAP2 SWAP1 POP JUMP JUMPDEST PUSH2 0x1B0B DUP2 PUSH2 0x1AF1 JUMP JUMPDEST DUP3 MSTORE POP POP JUMP JUMPDEST PUSH0 PUSH1 0x20 DUP3 ADD SWAP1 POP PUSH2 0x1B24 PUSH0 DUP4 ADD DUP5 PUSH2 0x1B02 JUMP JUMPDEST SWAP3 SWAP2 POP POP JUMP JUMPDEST PUSH0 DUP1 PUSH1 0x40 DUP4 DUP6 SUB SLT ISZERO PUSH2 0x1B40 JUMPI PUSH2 0x1B3F PUSH2 0x17BC JUMP JUMPDEST JUMPDEST PUSH0 PUSH2 0x1B4D DUP6 DUP3 DUP7 ADD PUSH2 0x1A27 JUMP JUMPDEST SWAP3 POP POP PUSH1 0x20 PUSH2 0x1B5E DUP6 DUP3 DUP7 ADD PUSH2 0x1A27 JUMP JUMPDEST SWAP2 POP POP SWAP3 POP SWAP3 SWAP1 POP JUMP JUMPDEST PUSH0 DUP2 ISZERO ISZERO SWAP1 POP SWAP2 SWAP1 POP JUMP JUMPDEST PUSH2 0x1B7C DUP2 PUSH2 0x1B68 JUMP JUMPDEST DUP3 MSTORE POP POP JUMP JUMPDEST PUSH0 PUSH1 0x20 DUP3 ADD SWAP1 POP PUSH2 0x1B95 PUSH0 DUP4 ADD DUP5 PUSH2 0x1B73 JUMP JUMPDEST SWAP3 SWAP2 POP POP JUMP JUMPDEST PUSH0 DUP2 MLOAD SWAP1 POP SWAP2 SWAP1 POP JUMP JUMPDEST PUSH0 DUP3 DUP3 MSTORE PUSH1 0x20 DUP3 ADD SWAP1 POP SWAP3 SWAP2 POP POP JUMP JUMPDEST PUSH0 JUMPDEST DUP4 DUP2 LT ISZERO PUSH2 0x1BD2 JUMPI DUP1 DUP3 ADD MLOAD DUP2 DUP5 ADD MSTORE PUSH1 0x20 DUP2 ADD SWAP1 POP PUSH2 0x1BB7 JUMP JUMPDEST PUSH0 DUP5 DUP5 ADD MSTORE POP POP POP POP JUMP JUMPDEST PUSH0 PUSH2 0x1BE7 DUP3 PUSH2 0x1B9B JUMP JUMPDEST PUSH2 0x1BF1 DUP2 DUP6 PUSH2 0x1BA5 JUMP JUMPDEST SWAP4 POP PUSH2 0x1C01 DUP2 DUP6 PUSH1 0x20 DUP7 ADD PUSH2 0x1BB5 JUMP JUMPDEST PUSH2 0x1C0A DUP2 PUSH2 0x17FF JUMP JUMPDEST DUP5 ADD SWAP2 POP POP SWAP3 SWAP2 POP POP JUMP JUMPDEST PUSH0 PUSH1 0x40 DUP3 ADD SWAP1 POP DUP2 DUP2 SUB PUSH0 DUP4 ADD MSTORE PUSH2 0x1C2D DUP2 DUP6 PUSH2 0x1BDD JUMP JUMPDEST SWAP1 POP PUSH2 0x1C3C PUSH1 0x20 DUP4 ADD DUP5 PUSH2 0x19E9 JUMP JUMPDEST SWAP4 SWAP3 POP POP POP JUMP JUMPDEST PUSH0 DUP2 SWAP1 POP SWAP3 SWAP2 POP POP JUMP JUMPDEST PUSH0 PUSH2 0x1C57 DUP3 PUSH2 0x1B9B JUMP JUMPDEST PUSH2 0x1C61 DUP2 DUP6 PUSH2 0x1C43 JUMP JUMPDEST SWAP4 POP PUSH2 0x1C71 DUP2 DUP6 PUSH1 0x20 DUP7 ADD PUSH2 0x1BB5 JUMP JUMPDEST DUP1 DUP5 ADD SWAP2 POP POP SWAP3 SWAP2 POP POP JUMP JUMPDEST PUSH0 PUSH2 0x1C88 DUP3 DUP5 PUSH2 0x1C4D JUMP JUMPDEST SWAP2 POP DUP2 SWAP1 POP SWAP3 SWAP2 POP POP JUMP JUMPDEST PUSH0 DUP2 MLOAD SWAP1 POP SWAP2 SWAP1 POP JUMP JUMPDEST PUSH0 DUP2 SWAP1 POP PUSH1 0x20 DUP3 ADD SWAP1 POP SWAP2 SWAP1 POP JUMP JUMPDEST PUSH0 PUSH2 0x1CB7 DUP3 MLOAD PUSH2 0x198D JUMP JUMPDEST DUP1 SWAP2 POP POP SWAP2 SWAP1 POP JUMP JUMPDEST PUSH0 DUP3 DUP3 SHL SWAP1 POP SWAP3 SWAP2 POP POP JUMP JUMPDEST PUSH0 PUSH2 0x1CD6 DUP3 PUSH2 0x1C93 JUMP JUMPDEST DUP3 PUSH2 0x1CE0 DUP5 PUSH2 0x1C9D JUMP JUMPDEST SWAP1 POP PUSH2 0x1CEB DUP2 PUSH2 0x1CAC JUMP JUMPDEST SWAP3 POP PUSH1 0x20 DUP3 LT ISZERO PUSH2 0x1D2B JUMPI PUSH2 0x1D26 PUSH32 0xFFFFFFFFFFFFFFFFFFFFFFFFFFFFFFFFFFFFFFFFFFFFFFFFFFFFFFFFFFFFFFFF DUP4 PUSH1 0x20 SUB PUSH1 0x8 MUL PUSH2 0x1CC0 JUMP JUMPDEST DUP4 AND SWAP3 POP JUMPDEST POP POP SWAP2 SWAP1 POP JUMP JUMPDEST PUSH0 DUP2 SWAP1 POP SWAP2 SWAP1 POP JUMP JUMPDEST PUSH2 0x1D4C PUSH2 0x1D47 DUP3 PUSH2 0x17C4 JUMP JUMPDEST PUSH2 0x1D32 JUMP JUMPDEST DUP3 MSTORE POP POP JUMP JUMPDEST PUSH0 DUP2 SWAP1 POP SWAP2 SWAP1 POP JUMP JUMPDEST PUSH2 0x1D6C PUSH2 0x1D67 DUP3 PUSH2 0x198D JUMP JUMPDEST PUSH2 0x1D52 JUMP JUMPDEST DUP3 MSTORE POP POP JUMP JUMPDEST PUSH0 PUSH2 0x1D7D DUP3 DUP6 PUSH2 0x1D3B JUMP JUMPDEST PUSH1 0x20 DUP3 ADD SWAP2 POP PUSH2 0x1D8D DUP3 DUP5 PUSH2 0x1D5B JUMP JUMPDEST PUSH1 0x20 DUP3 ADD SWAP2 POP DUP2 SWAP1 POP SWAP4 SWAP3 POP POP POP JUMP JUMPDEST PUSH32 0x4E487B7100000000000000000000000000000000000000000000000000000000 PUSH0 MSTORE PUSH1 0x11 PUSH1 0x4 MSTORE PUSH1 0x24 PUSH0 REVERT JUMPDEST PUSH0 PUSH2 0x1DD4 DUP3 PUSH2 0x17C4 JUMP JUMPDEST SWAP2 POP PUSH2 0x1DDF DUP4 PUSH2 0x17C4 JUMP JUMPDEST SWAP3 POP DUP3 DUP3 ADD SWAP1 POP DUP1 DUP3 GT ISZERO PUSH2 0x1DF7 JUMPI PUSH2 0x1DF6 PUSH2 0x1D9D JUMP JUMPDEST JUMPDEST SWAP3 SWAP2 POP POP JUMP JUMPDEST PUSH32 0x4F7574206F6620776974686472617720706572696F6400000000000000000000 PUSH0 DUP3 ADD MSTORE POP JUMP JUMPDEST PUSH0 PUSH2 0x1E31 PUSH1 0x16 DUP4 PUSH2 0x1BA5 JUMP JUMPDEST SWAP2 POP PUSH2 0x1E3C DUP3 PUSH2 0x1DFD JUMP JUMPDEST PUSH1 0x20 DUP3 ADD SWAP1 POP SWAP2 SWAP1 POP JUMP JUMPDEST PUSH0 PUSH1 0x20 DUP3 ADD SWAP1 POP DUP2 DUP2 SUB PUSH0 DUP4 ADD MSTORE PUSH2 0x1E5E DUP2 PUSH2 0x1E25 JUMP JUMPDEST SWAP1 POP SWAP2 SWAP1 POP JUMP JUMPDEST PUSH32 0x57726F6E6720496E646578000000000000000000000000000000000000000000 PUSH0 DUP3 ADD MSTORE POP JUMP JUMPDEST PUSH0 PUSH2 0x1E99 PUSH1 0xB DUP4 PUSH2 0x1BA5 JUMP JUMPDEST SWAP2 POP PUSH2 0x1EA4 DUP3 PUSH2 0x1E65 JUMP JUMPDEST PUSH1 0x20 DUP3 ADD SWAP1 POP SWAP2 SWAP1 POP JUMP JUMPDEST PUSH0 PUSH1 0x20 DUP3 ADD SWAP1 POP DUP2 DUP2 SUB PUSH0 DUP4 ADD MSTORE PUSH2 0x1EC6 DUP2 PUSH2 0x1E8D JUMP JUMPDEST SWAP1 POP SWAP2 SWAP1 POP JUMP JUMPDEST PUSH0 PUSH2 0x1ED7 DUP3 PUSH2 0x17C4 JUMP JUMPDEST SWAP2 POP PUSH0 DUP3 SUB PUSH2 0x1EE9 JUMPI PUSH2 0x1EE8 PUSH2 0x1D9D JUMP JUMPDEST JUMPDEST PUSH1 0x1 DUP3 SUB SWAP1 POP SWAP2 SWAP1 POP JUMP JUMPDEST PUSH0 DUP2 PUSH1 0x60 SHL SWAP1 POP SWAP2 SWAP1 POP JUMP JUMPDEST PUSH0 PUSH2 0x1F0A DUP3 PUSH2 0x1EF4 JUMP JUMPDEST SWAP1 POP SWAP2 SWAP1 POP JUMP JUMPDEST PUSH0 PUSH2 0x1F1B DUP3 PUSH2 0x1F00 JUMP JUMPDEST SWAP1 POP SWAP2 SWAP1 POP JUMP JUMPDEST PUSH2 0x1F33 PUSH2 0x1F2E DUP3 PUSH2 0x1AF1 JUMP JUMPDEST PUSH2 0x1F11 JUMP JUMPDEST DUP3 MSTORE POP POP JUMP JUMPDEST PUSH0 PUSH2 0x1F44 DUP3 DUP6 PUSH2 0x1F22 JUMP JUMPDEST PUSH1 0x14 DUP3 ADD SWAP2 POP PUSH2 0x1F54 DUP3 DUP5 PUSH2 0x1D5B JUMP JUMPDEST PUSH1 0x20 DUP3 ADD SWAP2 POP DUP2 SWAP1 POP SWAP4 SWAP3 POP POP POP JUMP JUMPDEST PUSH32 0x4F7574206F662052657665616C20537461676520706572696F64000000000000 PUSH0 DUP3 ADD MSTORE POP JUMP JUMPDEST PUSH0 PUSH2 0x1F98 PUSH1 0x1A DUP4 PUSH2 0x1BA5 JUMP JUMPDEST SWAP2 POP PUSH2 0x1FA3 DUP3 PUSH2 0x1F64 JUMP JUMPDEST PUSH1 0x20 DUP3 ADD SWAP1 POP SWAP2 SWAP1 POP JUMP JUMPDEST PUSH0 PUSH1 0x20 DUP3 ADD SWAP1 POP DUP2 DUP2 SUB PUSH0 DUP4 ADD MSTORE PUSH2 0x1FC5 DUP2 PUSH2 0x1F8C JUMP JUMPDEST SWAP1 POP SWAP2 SWAP1 POP JUMP JUMPDEST PUSH0 PUSH2 0x1FD7 DUP3 DUP7 PUSH2 0x1F22 JUMP JUMPDEST PUSH1 0x14 DUP3 ADD SWAP2 POP PUSH2 0x1FE7 DUP3 DUP6 PUSH2 0x1D5B JUMP JUMPDEST PUSH1 0x20 DUP3 ADD SWAP2 POP PUSH2 0x1FF7 DUP3 DUP5 PUSH2 0x1D5B JUMP JUMPDEST PUSH1 0x20 DUP3 ADD SWAP2 POP DUP2 SWAP1 POP SWAP5 SWAP4 POP POP POP POP JUMP JUMPDEST PUSH32 0x4F6E6C79206F776E65722063616E2063616C6C20746869732066756E6374696F PUSH0 DUP3 ADD MSTORE PUSH32 0x6E00000000000000000000000000000000000000000000000000000000000000 PUSH1 0x20 DUP3 ADD MSTORE POP JUMP JUMPDEST PUSH0 PUSH2 0x2062 PUSH1 0x21 DUP4 PUSH2 0x1BA5 JUMP JUMPDEST SWAP2 POP PUSH2 0x206D DUP3 PUSH2 0x2008 JUMP JUMPDEST PUSH1 0x40 DUP3 ADD SWAP1 POP SWAP2 SWAP1 POP JUMP JUMPDEST PUSH0 PUSH1 0x20 DUP3 ADD SWAP1 POP DUP2 DUP2 SUB PUSH0 DUP4 ADD MSTORE PUSH2 0x208F DUP2 PUSH2 0x2056 JUMP JUMPDEST SWAP1 POP SWAP2 SWAP1 POP JUMP JUMPDEST PUSH32 0x4E487B7100000000000000000000000000000000000000000000000000000000 PUSH0 MSTORE PUSH1 0x32 PUSH1 0x4 MSTORE PUSH1 0x24 PUSH0 REVERT JUMPDEST PUSH0 PUSH2 0x20CD DUP3 PUSH2 0x17C4 JUMP JUMPDEST SWAP2 POP PUSH32 0xFFFFFFFFFFFFFFFFFFFFFFFFFFFFFFFFFFFFFFFFFFFFFFFFFFFFFFFFFFFFFFFF DUP3 SUB PUSH2 0x20FF JUMPI PUSH2 0x20FE PUSH2 0x1D9D JUMP JUMPDEST JUMPDEST PUSH1 0x1 DUP3 ADD SWAP1 POP SWAP2 SWAP1 POP JUMP JUMPDEST PUSH0 PUSH2 0x2115 DUP3 DUP5 PUSH2 0x1D3B JUMP JUMPDEST PUSH1 0x20 DUP3 ADD SWAP2 POP DUP2 SWAP1 POP SWAP3 SWAP2 POP POP JUMP JUMPDEST PUSH32 0x4E487B7100000000000000000000000000000000000000000000000000000000 PUSH0 MSTORE PUSH1 0x12 PUSH1 0x4 MSTORE PUSH1 0x24 PUSH0 REVERT JUMPDEST PUSH0 PUSH2 0x215B DUP3 PUSH2 0x17C4 JUMP JUMPDEST SWAP2 POP PUSH2 0x2166 DUP4 PUSH2 0x17C4 JUMP JUMPDEST SWAP3 POP DUP3 PUSH2 0x2176 JUMPI PUSH2 0x2175 PUSH2 0x2124 JUMP JUMPDEST JUMPDEST DUP3 DUP3 MOD SWAP1 POP SWAP3 SWAP2 POP POP JUMP JUMPDEST PUSH32 0x5265717569726520302E3030312045544820666F72204C6F7474657279206665 PUSH0 DUP3 ADD MSTORE PUSH32 0x6500000000000000000000000000000000000000000000000000000000000000 PUSH1 0x20 DUP3 ADD MSTORE POP JUMP JUMPDEST PUSH0 PUSH2 0x21DB PUSH1 0x21 DUP4 PUSH2 0x1BA5 JUMP JUMPDEST SWAP2 POP PUSH2 0x21E6 DUP3 PUSH2 0x2181 JUMP JUMPDEST PUSH1 0x40 DUP3 ADD SWAP1 POP SWAP2 SWAP1 POP JUMP JUMPDEST PUSH0 PUSH1 0x20 DUP3 ADD SWAP1 POP DUP2 DUP2 SUB PUSH0 DUP4 ADD MSTORE PUSH2 0x2208 DUP2 PUSH2 0x21CF JUMP JUMPDEST SWAP1 POP SWAP2 SWAP1 POP JUMP JUMPDEST PUSH32 0x546865206E756D626572206F6620706C617965727320697320636F6D706C6574 PUSH0 DUP3 ADD MSTORE PUSH32 0x6500000000000000000000000000000000000000000000000000000000000000 PUSH1 0x20 DUP3 ADD MSTORE POP JUMP JUMPDEST PUSH0 PUSH2 0x2269 PUSH1 0x21 DUP4 PUSH2 0x1BA5 JUMP JUMPDEST SWAP2 POP PUSH2 0x2274 DUP3 PUSH2 0x220F JUMP JUMPDEST PUSH1 0x40 DUP3 ADD SWAP1 POP SWAP2 SWAP1 POP JUMP JUMPDEST PUSH0 PUSH1 0x20 DUP3 ADD SWAP1 POP DUP2 DUP2 SUB PUSH0 DUP4 ADD MSTORE PUSH2 0x2296 DUP2 PUSH2 0x225D JUMP JUMPDEST SWAP1 POP SWAP2 SWAP1 POP JUMP JUMPDEST PUSH32 0x436F6D6D69742053746167652068617320657870697265640000000000000000 PUSH0 DUP3 ADD MSTORE POP JUMP JUMPDEST PUSH0 PUSH2 0x22D1 PUSH1 0x18 DUP4 PUSH2 0x1BA5 JUMP JUMPDEST SWAP2 POP PUSH2 0x22DC DUP3 PUSH2 0x229D JUMP JUMPDEST PUSH1 0x20 DUP3 ADD SWAP1 POP SWAP2 SWAP1 POP JUMP JUMPDEST PUSH0 PUSH1 0x20 DUP3 ADD SWAP1 POP DUP2 DUP2 SUB PUSH0 DUP4 ADD MSTORE PUSH2 0x22FE DUP2 PUSH2 0x22C5 JUMP JUMPDEST SWAP1 POP SWAP2 SWAP1 POP JUMP JUMPDEST PUSH0 PUSH2 0x230F DUP3 PUSH2 0x17C4 JUMP JUMPDEST SWAP2 POP PUSH2 0x231A DUP4 PUSH2 0x17C4 JUMP JUMPDEST SWAP3 POP DUP3 DUP3 SUB SWAP1 POP DUP2 DUP2 GT ISZERO PUSH2 0x2332 JUMPI PUSH2 0x2331 PUSH2 0x1D9D JUMP JUMPDEST JUMPDEST SWAP3 SWAP2 POP POP JUMP JUMPDEST PUSH32 0x436F6D6D697452657665616C3A3A72657665616C3A20416C7265616479207265 PUSH0 DUP3 ADD MSTORE PUSH32 0x7665616C65640000000000000000000000000000000000000000000000000000 PUSH1 0x20 DUP3 ADD MSTORE POP JUMP JUMPDEST PUSH0 PUSH2 0x2392 PUSH1 0x26 DUP4 PUSH2 0x1BA5 JUMP JUMPDEST SWAP2 POP PUSH2 0x239D DUP3 PUSH2 0x2338 JUMP JUMPDEST PUSH1 0x40 DUP3 ADD SWAP1 POP SWAP2 SWAP1 POP JUMP JUMPDEST PUSH0 PUSH1 0x20 DUP3 ADD SWAP1 POP DUP2 DUP2 SUB PUSH0 DUP4 ADD MSTORE PUSH2 0x23BF DUP2 PUSH2 0x2386 JUMP JUMPDEST SWAP1 POP SWAP2 SWAP1 POP JUMP JUMPDEST PUSH32 0x436F6D6D697452657665616C3A3A72657665616C3A2052657665616C65642068 PUSH0 DUP3 ADD MSTORE PUSH32 0x61736820646F6573206E6F74206D6174636820636F6D6D697400000000000000 PUSH1 0x20 DUP3 ADD MSTORE POP JUMP JUMPDEST PUSH0 PUSH2 0x2420 PUSH1 0x39 DUP4 PUSH2 0x1BA5 JUMP JUMPDEST SWAP2 POP PUSH2 0x242B DUP3 PUSH2 0x23C6 JUMP JUMPDEST PUSH1 0x40 DUP3 ADD SWAP1 POP SWAP2 SWAP1 POP JUMP JUMPDEST PUSH0 PUSH1 0x20 DUP3 ADD SWAP1 POP DUP2 DUP2 SUB PUSH0 DUP4 ADD MSTORE PUSH2 0x244D DUP2 PUSH2 0x2414 JUMP JUMPDEST SWAP1 POP SWAP2 SWAP1 POP JUMP JUMPDEST PUSH32 0x436F6D6D697452657665616C3A3A72657665616C3A2052657665616C20616E64 PUSH0 DUP3 ADD MSTORE PUSH32 0x20636F6D6D69742068617070656E6564206F6E207468652073616D6520626C6F PUSH1 0x20 DUP3 ADD MSTORE PUSH32 0x636B000000000000000000000000000000000000000000000000000000000000 PUSH1 0x40 DUP3 ADD MSTORE POP JUMP JUMPDEST PUSH0 PUSH2 0x24D4 PUSH1 0x42 DUP4 PUSH2 0x1BA5 JUMP JUMPDEST SWAP2 POP PUSH2 0x24DF DUP3 PUSH2 0x2454 JUMP JUMPDEST PUSH1 0x60 DUP3 ADD SWAP1 POP SWAP2 SWAP1 POP JUMP JUMPDEST PUSH0 PUSH1 0x20 DUP3 ADD SWAP1 POP DUP2 DUP2 SUB PUSH0 DUP4 ADD MSTORE PUSH2 0x2501 DUP2 PUSH2 0x24C8 JUMP JUMPDEST SWAP1 POP SWAP2 SWAP1 POP JUMP JUMPDEST PUSH0 PUSH8 0xFFFFFFFFFFFFFFFF DUP3 AND SWAP1 POP SWAP2 SWAP1 POP JUMP JUMPDEST PUSH0 PUSH2 0x2525 DUP3 PUSH2 0x2508 JUMP JUMPDEST SWAP2 POP PUSH2 0x2530 DUP4 PUSH2 0x2508 JUMP JUMPDEST SWAP3 POP DUP3 DUP3 ADD SWAP1 POP PUSH8 0xFFFFFFFFFFFFFFFF DUP2 GT ISZERO PUSH2 0x2550 JUMPI PUSH2 0x254F PUSH2 0x1D9D JUMP JUMPDEST JUMPDEST SWAP3 SWAP2 POP POP JUMP JUMPDEST PUSH32 0x436F6D6D697452657665616C3A3A72657665616C3A2052657665616C65642074 PUSH0 DUP3 ADD MSTORE PUSH32 0x6F6F206C61746500000000000000000000000000000000000000000000000000 PUSH1 0x20 DUP3 ADD MSTORE POP JUMP JUMPDEST PUSH0 PUSH2 0x25B0 PUSH1 0x27 DUP4 PUSH2 0x1BA5 JUMP JUMPDEST SWAP2 POP PUSH2 0x25BB DUP3 PUSH2 0x2556 JUMP JUMPDEST PUSH1 0x40 DUP3 ADD SWAP1 POP SWAP2 SWAP1 POP JUMP JUMPDEST PUSH0 PUSH1 0x20 DUP3 ADD SWAP1 POP DUP2 DUP2 SUB PUSH0 DUP4 ADD MSTORE PUSH2 0x25DD DUP2 PUSH2 0x25A4 JUMP JUMPDEST SWAP1 POP SWAP2 SWAP1 POP JUMP JUMPDEST PUSH0 PUSH2 0x25EF DUP3 DUP6 PUSH2 0x1D5B JUMP JUMPDEST PUSH1 0x20 DUP3 ADD SWAP2 POP PUSH2 0x25FF DUP3 DUP5 PUSH2 0x1D5B JUMP JUMPDEST PUSH1 0x20 DUP3 ADD SWAP2 POP DUP2 SWAP1 POP SWAP4 SWAP3 POP POP POP JUMP JUMPDEST PUSH0 PUSH1 0x60 DUP3 ADD SWAP1 POP PUSH2 0x2622 PUSH0 DUP4 ADD DUP7 PUSH2 0x1B02 JUMP JUMPDEST PUSH2 0x262F PUSH1 0x20 DUP4 ADD DUP6 PUSH2 0x1996 JUMP JUMPDEST PUSH2 0x263C PUSH1 0x40 DUP4 ADD DUP5 PUSH2 0x19E9 JUMP JUMPDEST SWAP5 SWAP4 POP POP POP POP JUMP JUMPDEST PUSH0 PUSH2 0x264E DUP3 PUSH2 0x17C4 JUMP JUMPDEST SWAP2 POP PUSH2 0x2659 DUP4 PUSH2 0x17C4 JUMP JUMPDEST SWAP3 POP DUP3 DUP3 MUL PUSH2 0x2667 DUP2 PUSH2 0x17C4 JUMP JUMPDEST SWAP2 POP DUP3 DUP3 DIV DUP5 EQ DUP4 ISZERO OR PUSH2 0x267E JUMPI PUSH2 0x267D PUSH2 0x1D9D JUMP JUMPDEST JUMPDEST POP SWAP3 SWAP2 POP POP JUMP JUMPDEST PUSH0 PUSH2 0x268F DUP3 PUSH2 0x17C4 JUMP JUMPDEST SWAP2 POP PUSH2 0x269A DUP4 PUSH2 0x17C4 JUMP JUMPDEST SWAP3 POP DUP3 PUSH2 0x26AA JUMPI PUSH2 0x26A9 PUSH2 0x2124 JUMP JUMPDEST JUMPDEST DUP3 DUP3 DIV SWAP1 POP SWAP3 SWAP2 POP POP JUMP JUMPDEST PUSH2 0x26BE DUP2 PUSH2 0x2508 JUMP JUMPDEST DUP3 MSTORE POP POP JUMP JUMPDEST PUSH0 PUSH1 0x60 DUP3 ADD SWAP1 POP PUSH2 0x26D7 PUSH0 DUP4 ADD DUP7 PUSH2 0x1B02 JUMP JUMPDEST PUSH2 0x26E4 PUSH1 0x20 DUP4 ADD DUP6 PUSH2 0x1996 JUMP JUMPDEST PUSH2 0x26F1 PUSH1 0x40 DUP4 ADD DUP5 PUSH2 0x26B5 JUMP JUMPDEST SWAP5 SWAP4 POP POP POP POP JUMP INVALID NUMBER PUSH22 0x7272656E742053746167653A20436F6D6D69740A5469 PUSH14 0x652052656D61696E696E67202873 PUSH6 0x63636F6E6473 0x29 GASPRICE KECCAK256 NUMBER PUSH22 0x7272656E742053746167653A20576974686472617720 MSTORE8 PUSH21 0x6167652C20796F752063616E207769746864726177 KECCAK256 PUSH26 0x6F757220455448206E6F770A43757272656E742053746167653A KECCAK256 CHAINID PUSH10 0x6E64696E672057696E6E PUSH6 0x720A54696D65 KECCAK256 MSTORE PUSH6 0x6D61696E696E PUSH8 0x2028736563636F6E PUSH5 0x73293A2043 PUSH22 0x7272656E742053746167653A2052657665616C0A5469 PUSH14 0x652052656D61696E696E67202873 PUSH6 0x63636F6E6473 0x29 GASPRICE KECCAK256 LOG2 PUSH5 0x6970667358 0x22 SLT KECCAK256 LOG3 SWAP1 0xA9 0xD9 0xD2 0xD 0xC1 SWAP2 0xFC 0xE1 0x2C 0xE5 SWAP11 TIMESTAMP DUP7 DUP14 PUSH23 0xAEA3F9C37BC77BF987711257352A9564736F6C63430008 XOR STOP CALLER "
		},
		"gasEstimates": {
			"creation": {
				"codeDepositCost": "2049400",
				"executionCost": "infinite",
				"totalCost": "infinite"
			},
			"external": {
				"N()": "2469",
				"StartTime()": "2535",
				"T1()": "2447",
				"T2()": "2514",
				"T3()": "2493",
				"commitHashedChoice(bytes32)": "infinite",
				"currentN()": "2492",
				"currentStage()": "2470",
				"findWinner()": "infinite",
				"getCurrentStage()": "infinite",
				"getHash(bytes32)": "infinite",
				"getHashChoice(uint256,string)": "infinite",
				"getSaltedHash(bytes32,bytes32)": "infinite",
				"isOwner()": "2579",
				"owner()": "2538",
				"revealChoice(uint256,uint256,string)": "infinite",
				"withdraw(uint256)": "infinite"
			},
			"internal": {
				"_ownerClaimAllReward()": "infinite",
				"_resetGame()": "32148",
				"_rewardWinner(address)": "infinite"
			}
		},
		"methodIdentifiers": {
			"N()": "c9e525df",
			"StartTime()": "fc4a4a1e",
			"T1()": "a11efef4",
			"T2()": "84c9ad6e",
			"T3()": "31081d7e",
			"commitHashedChoice(bytes32)": "d57b65cb",
			"currentN()": "7c8673dc",
			"currentStage()": "5bf5d54c",
			"findWinner()": "8e71decb",
			"getCurrentStage()": "eedbe31d",
			"getHash(bytes32)": "3cf5040a",
			"getHashChoice(uint256,string)": "073d8ff3",
			"getSaltedHash(bytes32,bytes32)": "8dddbf36",
			"isOwner()": "8f32d59b",
			"owner()": "8da5cb5b",
			"revealChoice(uint256,uint256,string)": "5afa1fd8",
			"withdraw(uint256)": "2e1a7d4d"
		}
	},
	"abi": [
		{
			"inputs": [
				{
					"internalType": "uint256",
					"name": "_N",
					"type": "uint256"
				},
				{
					"internalType": "uint256",
					"name": "_T1",
					"type": "uint256"
				},
				{
					"internalType": "uint256",
					"name": "_T2",
					"type": "uint256"
				},
				{
					"internalType": "uint256",
					"name": "_T3",
					"type": "uint256"
				}
			],
			"stateMutability": "nonpayable",
			"type": "constructor"
		},
		{
			"anonymous": false,
			"inputs": [
				{
					"indexed": false,
					"internalType": "address",
					"name": "sender",
					"type": "address"
				},
				{
					"indexed": false,
					"internalType": "bytes32",
					"name": "dataHash",
					"type": "bytes32"
				},
				{
					"indexed": false,
					"internalType": "uint64",
					"name": "block",
					"type": "uint64"
				}
			],
			"name": "CommitHash",
			"type": "event"
		},
		{
			"anonymous": false,
			"inputs": [
				{
					"indexed": false,
					"internalType": "address",
					"name": "sender",
					"type": "address"
				},
				{
					"indexed": false,
					"internalType": "bytes32",
					"name": "answer",
					"type": "bytes32"
				},
				{
					"indexed": false,
					"internalType": "bytes32",
					"name": "salt",
					"type": "bytes32"
				}
			],
			"name": "RevealAnswer",
			"type": "event"
		},
		{
			"anonymous": false,
			"inputs": [
				{
					"indexed": false,
					"internalType": "address",
					"name": "sender",
					"type": "address"
				},
				{
					"indexed": false,
					"internalType": "bytes32",
					"name": "revealHash",
					"type": "bytes32"
				},
				{
					"indexed": false,
					"internalType": "uint256",
					"name": "random",
					"type": "uint256"
				}
			],
			"name": "RevealHash",
			"type": "event"
		},
		{
			"inputs": [],
			"name": "N",
			"outputs": [
				{
					"internalType": "uint256",
					"name": "",
					"type": "uint256"
				}
			],
			"stateMutability": "view",
			"type": "function"
		},
		{
			"inputs": [],
			"name": "StartTime",
			"outputs": [
				{
					"internalType": "uint256",
					"name": "",
					"type": "uint256"
				}
			],
			"stateMutability": "view",
			"type": "function"
		},
		{
			"inputs": [],
			"name": "T1",
			"outputs": [
				{
					"internalType": "uint256",
					"name": "",
					"type": "uint256"
				}
			],
			"stateMutability": "view",
			"type": "function"
		},
		{
			"inputs": [],
			"name": "T2",
			"outputs": [
				{
					"internalType": "uint256",
					"name": "",
					"type": "uint256"
				}
			],
			"stateMutability": "view",
			"type": "function"
		},
		{
			"inputs": [],
			"name": "T3",
			"outputs": [
				{
					"internalType": "uint256",
					"name": "",
					"type": "uint256"
				}
			],
			"stateMutability": "view",
			"type": "function"
		},
		{
			"inputs": [
				{
					"internalType": "bytes32",
					"name": "hashedChoice",
					"type": "bytes32"
				}
			],
			"name": "commitHashedChoice",
			"outputs": [
				{
					"internalType": "uint256",
					"name": "",
					"type": "uint256"
				}
			],
			"stateMutability": "payable",
			"type": "function"
		},
		{
			"inputs": [],
			"name": "currentN",
			"outputs": [
				{
					"internalType": "uint256",
					"name": "",
					"type": "uint256"
				}
			],
			"stateMutability": "view",
			"type": "function"
		},
		{
			"inputs": [],
			"name": "currentStage",
			"outputs": [
				{
					"internalType": "uint256",
					"name": "",
					"type": "uint256"
				}
			],
			"stateMutability": "view",
			"type": "function"
		},
		{
			"inputs": [],
			"name": "findWinner",
			"outputs": [],
			"stateMutability": "nonpayable",
			"type": "function"
		},
		{
			"inputs": [],
			"name": "getCurrentStage",
			"outputs": [
				{
					"internalType": "string",
					"name": "",
					"type": "string"
				},
				{
					"internalType": "uint256",
					"name": "",
					"type": "uint256"
				}
			],
			"stateMutability": "view",
			"type": "function"
		},
		{
			"inputs": [
				{
					"internalType": "bytes32",
					"name": "data",
					"type": "bytes32"
				}
			],
			"name": "getHash",
			"outputs": [
				{
					"internalType": "bytes32",
					"name": "",
					"type": "bytes32"
				}
			],
			"stateMutability": "view",
			"type": "function"
		},
		{
			"inputs": [
				{
					"internalType": "uint256",
					"name": "choice",
					"type": "uint256"
				},
				{
					"internalType": "string",
					"name": "salt",
					"type": "string"
				}
			],
			"name": "getHashChoice",
			"outputs": [
				{
					"internalType": "bytes32",
					"name": "",
					"type": "bytes32"
				}
			],
			"stateMutability": "pure",
			"type": "function"
		},
		{
			"inputs": [
				{
					"internalType": "bytes32",
					"name": "data",
					"type": "bytes32"
				},
				{
					"internalType": "bytes32",
					"name": "salt",
					"type": "bytes32"
				}
			],
			"name": "getSaltedHash",
			"outputs": [
				{
					"internalType": "bytes32",
					"name": "",
					"type": "bytes32"
				}
			],
			"stateMutability": "view",
			"type": "function"
		},
		{
			"inputs": [],
			"name": "isOwner",
			"outputs": [
				{
					"internalType": "bool",
					"name": "",
					"type": "bool"
				}
			],
			"stateMutability": "view",
			"type": "function"
		},
		{
			"inputs": [],
			"name": "owner",
			"outputs": [
				{
					"internalType": "address",
					"name": "",
					"type": "address"
				}
			],
			"stateMutability": "view",
			"type": "function"
		},
		{
			"inputs": [
				{
					"internalType": "uint256",
					"name": "_idx",
					"type": "uint256"
				},
				{
					"internalType": "uint256",
					"name": "_choice",
					"type": "uint256"
				},
				{
					"internalType": "string",
					"name": "_salt",
					"type": "string"
				}
			],
			"name": "revealChoice",
			"outputs": [],
			"stateMutability": "nonpayable",
			"type": "function"
		},
		{
			"inputs": [
				{
					"internalType": "uint256",
					"name": "idx",
					"type": "uint256"
				}
			],
			"name": "withdraw",
			"outputs": [],
			"stateMutability": "nonpayable",
			"type": "function"
		}
	]
}